{
	"lab3/DhondtPollingStation.sol": {
		"DhondtPollingStation": {
			"abi": [
				{
					"inputs": [
						{
							"internalType": "address",
							"name": "_president",
							"type": "address"
						},
						{
							"internalType": "uint256",
							"name": "_numParties",
							"type": "uint256"
						},
						{
							"internalType": "uint256",
							"name": "_regionId",
							"type": "uint256"
						}
					],
					"stateMutability": "nonpayable",
					"type": "constructor"
				},
				{
					"inputs": [
						{
							"internalType": "uint256",
							"name": "_partyId",
							"type": "uint256"
						}
					],
					"name": "castVote",
					"outputs": [],
					"stateMutability": "nonpayable",
					"type": "function"
				},
				{
					"inputs": [],
					"name": "closeVoting",
					"outputs": [],
					"stateMutability": "nonpayable",
					"type": "function"
				},
				{
					"inputs": [],
					"name": "getResults",
					"outputs": [
						{
							"internalType": "uint256[]",
							"name": "",
							"type": "uint256[]"
						}
					],
					"stateMutability": "view",
					"type": "function"
				},
				{
					"inputs": [],
					"name": "openVoting",
					"outputs": [],
					"stateMutability": "nonpayable",
					"type": "function"
				},
				{
					"inputs": [],
					"name": "president",
					"outputs": [
						{
							"internalType": "address",
							"name": "",
							"type": "address"
						}
					],
					"stateMutability": "view",
					"type": "function"
				},
				{
					"inputs": [],
					"name": "votingFinished",
					"outputs": [
						{
							"internalType": "bool",
							"name": "",
							"type": "bool"
						}
					],
					"stateMutability": "view",
					"type": "function"
				}
			],
			"devdoc": {
				"kind": "dev",
				"methods": {},
				"version": 1
			},
			"evm": {
				"assembly": "    /* \"lab3/DhondtPollingStation.sol\":72:772  contract DhondtPollingStation is PollingStation, DhondtElectionRegion {... */\n  mstore(0x40, 0x80)\n    /* \"lab3/PollingStation.sol\":114:119  false */\n  0x00\n    /* \"lab3/PollingStation.sol\":85:119  bool public votingFinished = false */\n  0x00\n  exp(0x0100, 0x14)\n  dup2\n  sload\n  dup2\n  0xff\n  mul\n  not\n  and\n  swap1\n  dup4\n  iszero\n  iszero\n  mul\n  or\n  swap1\n  sstore\n  pop\n    /* \"lab3/PollingStation.sol\":166:171  false */\n  0x00\n    /* \"lab3/PollingStation.sol\":140:171  bool private votingOpen = false */\n  0x00\n  exp(0x0100, 0x15)\n  dup2\n  sload\n  dup2\n  0xff\n  mul\n  not\n  and\n  swap1\n  dup4\n  iszero\n  iszero\n  mul\n  or\n  swap1\n  sstore\n  pop\n    /* \"lab3/DhondtPollingStation.sol\":155:321  constructor(address _president, uint _numParties, uint _regionId) ... */\n  callvalue\n  dup1\n  iszero\n  tag_1\n  jumpi\n  revert(0x00, 0x00)\ntag_1:\n  pop\n  mload(0x40)\n  sub(codesize, bytecodeSize)\n  dup1\n  bytecodeSize\n  dup4\n  codecopy\n  dup2\n  dup2\n  add\n  0x40\n  mstore\n  dup2\n  add\n  swap1\n  tag_2\n  swap2\n  swap1\n  tag_3\n  jump\t// in\ntag_2:\n    /* \"lab3/DhondtPollingStation.sol\":289:300  _numParties */\n  dup2\n    /* \"lab3/DhondtPollingStation.sol\":302:311  _regionId */\n  dup2\n    /* \"lab3/DhondtPollingStation.sol\":246:256  _president */\n  dup5\n    /* \"lab3/PollingStation.sol\":546:556  _president */\n  dup1\n    /* \"lab3/PollingStation.sol\":534:543  president */\n  0x00\n  0x00\n    /* \"lab3/PollingStation.sol\":534:556  president = _president */\n  0x0100\n  exp\n  dup2\n  sload\n  dup2\n  0xffffffffffffffffffffffffffffffffffffffff\n  mul\n  not\n  and\n  swap1\n  dup4\n  0xffffffffffffffffffffffffffffffffffffffff\n  and\n  mul\n  or\n  swap1\n  sstore\n  pop\n    /* \"lab3/PollingStation.sol\":491:578  constructor(address _president) {... */\n  pop\n    /* \"lab3/DhondtElectionRegion.sol\":303:312  _regionId */\n  dup1\n    /* \"lab3/DhondtElectionRegion.sol\":292:300  regionId */\n  0x01\n    /* \"lab3/DhondtElectionRegion.sol\":292:312  regionId = _regionId */\n  dup2\n  swap1\n  sstore\n  pop\n    /* \"lab3/DhondtElectionRegion.sol\":358:369  _numParties */\n  dup2\n    /* \"lab3/DhondtElectionRegion.sol\":347:370  new uint[](_numParties) */\n  0xffffffffffffffff\n  dup2\n  gt\n  iszero\n  tag_9\n  jumpi\n  tag_10\n  tag_11\n  jump\t// in\ntag_10:\ntag_9:\n  mload(0x40)\n  swap1\n  dup1\n  dup3\n  mstore\n  dup1\n  0x20\n  mul\n  0x20\n  add\n  dup3\n  add\n  0x40\n  mstore\n  dup1\n  iszero\n  tag_12\n  jumpi\n  dup2\n  0x20\n  add\n  0x20\n  dup3\n  mul\n  dup1\n  calldatasize\n  dup4\n  calldatacopy\n  dup1\n  dup3\n  add\n  swap2\n  pop\n  pop\n  swap1\n  pop\ntag_12:\n  pop\n    /* \"lab3/DhondtElectionRegion.sol\":337:344  results */\n  0x03\n    /* \"lab3/DhondtElectionRegion.sol\":337:370  results = new uint[](_numParties) */\n  swap1\n  dup1\n  mload\n  swap1\n  0x20\n  add\n  swap1\n  tag_13\n  swap3\n  swap2\n  swap1\n  tag_14\n  jump\t// in\ntag_13:\n  pop\n    /* \"lab3/DhondtElectionRegion.sol\":395:412  savedRegionInfo() */\n  tag_15\n    /* \"lab3/DhondtElectionRegion.sol\":395:410  savedRegionInfo */\n  shl(0x20, tag_16)\n    /* \"lab3/DhondtElectionRegion.sol\":395:412  savedRegionInfo() */\n  0x20\n  shr\n  jump\t// in\ntag_15:\n    /* \"lab3/DhondtElectionRegion.sol\":235:455  constructor(uint _numParties, uint _regionId) {... */\n  pop\n  pop\n    /* \"lab3/DhondtPollingStation.sol\":155:321  constructor(address _president, uint _numParties, uint _regionId) ... */\n  pop\n  pop\n  pop\n    /* \"lab3/DhondtPollingStation.sol\":72:772  contract DhondtPollingStation is PollingStation, DhondtElectionRegion {... */\n  jump(tag_18)\n    /* \"lab3/DhondtElectionRegion.sol\":463:885  function savedRegionInfo() private {... */\ntag_16:\n    /* \"lab3/DhondtElectionRegion.sol\":523:524  1 */\n  0x01\n    /* \"lab3/DhondtElectionRegion.sol\":509:516  weights */\n  0x02\n    /* \"lab3/DhondtElectionRegion.sol\":509:520  weights[28] */\n  0x00\n    /* \"lab3/DhondtElectionRegion.sol\":517:519  28 */\n  0x1c\n    /* \"lab3/DhondtElectionRegion.sol\":509:520  weights[28] */\n  dup2\n  mstore\n  0x20\n  add\n  swap1\n  dup2\n  mstore\n  0x20\n  add\n  0x00\n  keccak256\n    /* \"lab3/DhondtElectionRegion.sol\":509:524  weights[28] = 1 */\n  dup2\n  swap1\n  sstore\n  pop\n    /* \"lab3/DhondtElectionRegion.sol\":569:570  1 */\n  0x01\n    /* \"lab3/DhondtElectionRegion.sol\":556:563  weights */\n  0x02\n    /* \"lab3/DhondtElectionRegion.sol\":556:566  weights[8] */\n  0x00\n    /* \"lab3/DhondtElectionRegion.sol\":564:565  8 */\n  0x08\n    /* \"lab3/DhondtElectionRegion.sol\":556:566  weights[8] */\n  dup2\n  mstore\n  0x20\n  add\n  swap1\n  dup2\n  mstore\n  0x20\n  add\n  0x00\n  keccak256\n    /* \"lab3/DhondtElectionRegion.sol\":556:570  weights[8] = 1 */\n  dup2\n  swap1\n  sstore\n  pop\n    /* \"lab3/DhondtElectionRegion.sol\":620:621  1 */\n  0x01\n    /* \"lab3/DhondtElectionRegion.sol\":606:613  weights */\n  0x02\n    /* \"lab3/DhondtElectionRegion.sol\":606:617  weights[41] */\n  0x00\n    /* \"lab3/DhondtElectionRegion.sol\":614:616  41 */\n  0x29\n    /* \"lab3/DhondtElectionRegion.sol\":606:617  weights[41] */\n  dup2\n  mstore\n  0x20\n  add\n  swap1\n  dup2\n  mstore\n  0x20\n  add\n  0x00\n  keccak256\n    /* \"lab3/DhondtElectionRegion.sol\":606:621  weights[41] = 1 */\n  dup2\n  swap1\n  sstore\n  pop\n    /* \"lab3/DhondtElectionRegion.sol\":668:669  5 */\n  0x05\n    /* \"lab3/DhondtElectionRegion.sol\":654:661  weights */\n  0x02\n    /* \"lab3/DhondtElectionRegion.sol\":654:665  weights[44] */\n  0x00\n    /* \"lab3/DhondtElectionRegion.sol\":662:664  44 */\n  0x2c\n    /* \"lab3/DhondtElectionRegion.sol\":654:665  weights[44] */\n  dup2\n  mstore\n  0x20\n  add\n  swap1\n  dup2\n  mstore\n  0x20\n  add\n  0x00\n  keccak256\n    /* \"lab3/DhondtElectionRegion.sol\":654:669  weights[44] = 5 */\n  dup2\n  swap1\n  sstore\n  pop\n    /* \"lab3/DhondtElectionRegion.sol\":715:716  5 */\n  0x05\n    /* \"lab3/DhondtElectionRegion.sol\":701:708  weights */\n  0x02\n    /* \"lab3/DhondtElectionRegion.sol\":701:712  weights[42] */\n  0x00\n    /* \"lab3/DhondtElectionRegion.sol\":709:711  42 */\n  0x2a\n    /* \"lab3/DhondtElectionRegion.sol\":701:712  weights[42] */\n  dup2\n  mstore\n  0x20\n  add\n  swap1\n  dup2\n  mstore\n  0x20\n  add\n  0x00\n  keccak256\n    /* \"lab3/DhondtElectionRegion.sol\":701:716  weights[42] = 5 */\n  dup2\n  swap1\n  sstore\n  pop\n    /* \"lab3/DhondtElectionRegion.sol\":761:762  4 */\n  0x04\n    /* \"lab3/DhondtElectionRegion.sol\":747:754  weights */\n  0x02\n    /* \"lab3/DhondtElectionRegion.sol\":747:758  weights[49] */\n  0x00\n    /* \"lab3/DhondtElectionRegion.sol\":755:757  49 */\n  0x31\n    /* \"lab3/DhondtElectionRegion.sol\":747:758  weights[49] */\n  dup2\n  mstore\n  0x20\n  add\n  swap1\n  dup2\n  mstore\n  0x20\n  add\n  0x00\n  keccak256\n    /* \"lab3/DhondtElectionRegion.sol\":747:762  weights[49] = 4 */\n  dup2\n  swap1\n  sstore\n  pop\n    /* \"lab3/DhondtElectionRegion.sol\":807:808  4 */\n  0x04\n    /* \"lab3/DhondtElectionRegion.sol\":794:801  weights */\n  0x02\n    /* \"lab3/DhondtElectionRegion.sol\":794:804  weights[9] */\n  0x00\n    /* \"lab3/DhondtElectionRegion.sol\":802:803  9 */\n  0x09\n    /* \"lab3/DhondtElectionRegion.sol\":794:804  weights[9] */\n  dup2\n  mstore\n  0x20\n  add\n  swap1\n  dup2\n  mstore\n  0x20\n  add\n  0x00\n  keccak256\n    /* \"lab3/DhondtElectionRegion.sol\":794:808  weights[9] = 4 */\n  dup2\n  swap1\n  sstore\n  pop\n    /* \"lab3/DhondtElectionRegion.sol\":855:856  2 */\n  0x02\n    /* \"lab3/DhondtElectionRegion.sol\":841:848  weights */\n  dup1\n    /* \"lab3/DhondtElectionRegion.sol\":841:852  weights[29] */\n  0x00\n    /* \"lab3/DhondtElectionRegion.sol\":849:851  29 */\n  0x1d\n    /* \"lab3/DhondtElectionRegion.sol\":841:852  weights[29] */\n  dup2\n  mstore\n  0x20\n  add\n  swap1\n  dup2\n  mstore\n  0x20\n  add\n  0x00\n  keccak256\n    /* \"lab3/DhondtElectionRegion.sol\":841:856  weights[29] = 2 */\n  dup2\n  swap1\n  sstore\n  pop\n    /* \"lab3/DhondtElectionRegion.sol\":463:885  function savedRegionInfo() private {... */\n  jump\t// out\n    /* \"lab3/DhondtPollingStation.sol\":72:772  contract DhondtPollingStation is PollingStation, DhondtElectionRegion {... */\ntag_14:\n  dup3\n  dup1\n  sload\n  dup3\n  dup3\n  sstore\n  swap1\n  0x00\n  mstore\n  keccak256(0x00, 0x20)\n  swap1\n  dup2\n  add\n  swap3\n  dup3\n  iszero\n  tag_20\n  jumpi\n  swap2\n  0x20\n  mul\n  dup3\n  add\ntag_21:\n  dup3\n  dup2\n  gt\n  iszero\n  tag_22\n  jumpi\n  dup3\n  mload\n  dup3\n  sstore\n  swap2\n  0x20\n  add\n  swap2\n  swap1\n  0x01\n  add\n  swap1\n  jump(tag_21)\ntag_22:\ntag_20:\n  pop\n  swap1\n  pop\n  tag_23\n  swap2\n  swap1\n  tag_24\n  jump\t// in\ntag_23:\n  pop\n  swap1\n  jump\t// out\ntag_24:\ntag_25:\n  dup1\n  dup3\n  gt\n  iszero\n  tag_26\n  jumpi\n  0x00\n  dup2\n  0x00\n  swap1\n  sstore\n  pop\n  0x01\n  add\n  jump(tag_25)\ntag_26:\n  pop\n  swap1\n  jump\t// out\n    /* \"#utility.yul\":88:205   */\ntag_28:\n    /* \"#utility.yul\":197:198   */\n  0x00\n    /* \"#utility.yul\":194:195   */\n  0x00\n    /* \"#utility.yul\":187:199   */\n  revert\n    /* \"#utility.yul\":334:460   */\ntag_30:\n    /* \"#utility.yul\":371:378   */\n  0x00\n    /* \"#utility.yul\":411:453   */\n  0xffffffffffffffffffffffffffffffffffffffff\n    /* \"#utility.yul\":404:409   */\n  dup3\n    /* \"#utility.yul\":400:454   */\n  and\n    /* \"#utility.yul\":389:454   */\n  swap1\n  pop\n    /* \"#utility.yul\":334:460   */\n  swap2\n  swap1\n  pop\n  jump\t// out\n    /* \"#utility.yul\":466:562   */\ntag_31:\n    /* \"#utility.yul\":503:510   */\n  0x00\n    /* \"#utility.yul\":532:556   */\n  tag_43\n    /* \"#utility.yul\":550:555   */\n  dup3\n    /* \"#utility.yul\":532:556   */\n  tag_30\n  jump\t// in\ntag_43:\n    /* \"#utility.yul\":521:556   */\n  swap1\n  pop\n    /* \"#utility.yul\":466:562   */\n  swap2\n  swap1\n  pop\n  jump\t// out\n    /* \"#utility.yul\":568:690   */\ntag_32:\n    /* \"#utility.yul\":641:665   */\n  tag_45\n    /* \"#utility.yul\":659:664   */\n  dup2\n    /* \"#utility.yul\":641:665   */\n  tag_31\n  jump\t// in\ntag_45:\n    /* \"#utility.yul\":634:639   */\n  dup2\n    /* \"#utility.yul\":631:666   */\n  eq\n    /* \"#utility.yul\":621:684   */\n  tag_46\n  jumpi\n    /* \"#utility.yul\":680:681   */\n  0x00\n    /* \"#utility.yul\":677:678   */\n  0x00\n    /* \"#utility.yul\":670:682   */\n  revert\n    /* \"#utility.yul\":621:684   */\ntag_46:\n    /* \"#utility.yul\":568:690   */\n  pop\n  jump\t// out\n    /* \"#utility.yul\":696:839   */\ntag_33:\n    /* \"#utility.yul\":753:758   */\n  0x00\n    /* \"#utility.yul\":784:790   */\n  dup2\n    /* \"#utility.yul\":778:791   */\n  mload\n    /* \"#utility.yul\":769:791   */\n  swap1\n  pop\n    /* \"#utility.yul\":800:833   */\n  tag_48\n    /* \"#utility.yul\":827:832   */\n  dup2\n    /* \"#utility.yul\":800:833   */\n  tag_32\n  jump\t// in\ntag_48:\n    /* \"#utility.yul\":696:839   */\n  swap3\n  swap2\n  pop\n  pop\n  jump\t// out\n    /* \"#utility.yul\":845:922   */\ntag_34:\n    /* \"#utility.yul\":882:889   */\n  0x00\n    /* \"#utility.yul\":911:916   */\n  dup2\n    /* \"#utility.yul\":900:916   */\n  swap1\n  pop\n    /* \"#utility.yul\":845:922   */\n  swap2\n  swap1\n  pop\n  jump\t// out\n    /* \"#utility.yul\":928:1050   */\ntag_35:\n    /* \"#utility.yul\":1001:1025   */\n  tag_51\n    /* \"#utility.yul\":1019:1024   */\n  dup2\n    /* \"#utility.yul\":1001:1025   */\n  tag_34\n  jump\t// in\ntag_51:\n    /* \"#utility.yul\":994:999   */\n  dup2\n    /* \"#utility.yul\":991:1026   */\n  eq\n    /* \"#utility.yul\":981:1044   */\n  tag_52\n  jumpi\n    /* \"#utility.yul\":1040:1041   */\n  0x00\n    /* \"#utility.yul\":1037:1038   */\n  0x00\n    /* \"#utility.yul\":1030:1042   */\n  revert\n    /* \"#utility.yul\":981:1044   */\ntag_52:\n    /* \"#utility.yul\":928:1050   */\n  pop\n  jump\t// out\n    /* \"#utility.yul\":1056:1199   */\ntag_36:\n    /* \"#utility.yul\":1113:1118   */\n  0x00\n    /* \"#utility.yul\":1144:1150   */\n  dup2\n    /* \"#utility.yul\":1138:1151   */\n  mload\n    /* \"#utility.yul\":1129:1151   */\n  swap1\n  pop\n    /* \"#utility.yul\":1160:1193   */\n  tag_54\n    /* \"#utility.yul\":1187:1192   */\n  dup2\n    /* \"#utility.yul\":1160:1193   */\n  tag_35\n  jump\t// in\ntag_54:\n    /* \"#utility.yul\":1056:1199   */\n  swap3\n  swap2\n  pop\n  pop\n  jump\t// out\n    /* \"#utility.yul\":1205:1868   */\ntag_3:\n    /* \"#utility.yul\":1293:1299   */\n  0x00\n    /* \"#utility.yul\":1301:1307   */\n  0x00\n    /* \"#utility.yul\":1309:1315   */\n  0x00\n    /* \"#utility.yul\":1358:1360   */\n  0x60\n    /* \"#utility.yul\":1346:1355   */\n  dup5\n    /* \"#utility.yul\":1337:1344   */\n  dup7\n    /* \"#utility.yul\":1333:1356   */\n  sub\n    /* \"#utility.yul\":1329:1361   */\n  slt\n    /* \"#utility.yul\":1326:1445   */\n  iszero\n  tag_56\n  jumpi\n    /* \"#utility.yul\":1364:1443   */\n  tag_57\n  tag_28\n  jump\t// in\ntag_57:\n    /* \"#utility.yul\":1326:1445   */\ntag_56:\n    /* \"#utility.yul\":1484:1485   */\n  0x00\n    /* \"#utility.yul\":1509:1573   */\n  tag_58\n    /* \"#utility.yul\":1565:1572   */\n  dup7\n    /* \"#utility.yul\":1556:1562   */\n  dup3\n    /* \"#utility.yul\":1545:1554   */\n  dup8\n    /* \"#utility.yul\":1541:1563   */\n  add\n    /* \"#utility.yul\":1509:1573   */\n  tag_33\n  jump\t// in\ntag_58:\n    /* \"#utility.yul\":1499:1573   */\n  swap4\n  pop\n    /* \"#utility.yul\":1455:1583   */\n  pop\n    /* \"#utility.yul\":1622:1624   */\n  0x20\n    /* \"#utility.yul\":1648:1712   */\n  tag_59\n    /* \"#utility.yul\":1704:1711   */\n  dup7\n    /* \"#utility.yul\":1695:1701   */\n  dup3\n    /* \"#utility.yul\":1684:1693   */\n  dup8\n    /* \"#utility.yul\":1680:1702   */\n  add\n    /* \"#utility.yul\":1648:1712   */\n  tag_36\n  jump\t// in\ntag_59:\n    /* \"#utility.yul\":1638:1712   */\n  swap3\n  pop\n    /* \"#utility.yul\":1593:1722   */\n  pop\n    /* \"#utility.yul\":1761:1763   */\n  0x40\n    /* \"#utility.yul\":1787:1851   */\n  tag_60\n    /* \"#utility.yul\":1843:1850   */\n  dup7\n    /* \"#utility.yul\":1834:1840   */\n  dup3\n    /* \"#utility.yul\":1823:1832   */\n  dup8\n    /* \"#utility.yul\":1819:1841   */\n  add\n    /* \"#utility.yul\":1787:1851   */\n  tag_36\n  jump\t// in\ntag_60:\n    /* \"#utility.yul\":1777:1851   */\n  swap2\n  pop\n    /* \"#utility.yul\":1732:1861   */\n  pop\n    /* \"#utility.yul\":1205:1868   */\n  swap3\n  pop\n  swap3\n  pop\n  swap3\n  jump\t// out\n    /* \"#utility.yul\":1874:2054   */\ntag_11:\n    /* \"#utility.yul\":1922:1999   */\n  0x4e487b7100000000000000000000000000000000000000000000000000000000\n    /* \"#utility.yul\":1919:1920   */\n  0x00\n    /* \"#utility.yul\":1912:2000   */\n  mstore\n    /* \"#utility.yul\":2019:2023   */\n  0x41\n    /* \"#utility.yul\":2016:2017   */\n  0x04\n    /* \"#utility.yul\":2009:2024   */\n  mstore\n    /* \"#utility.yul\":2043:2047   */\n  0x24\n    /* \"#utility.yul\":2040:2041   */\n  0x00\n    /* \"#utility.yul\":2033:2048   */\n  revert\n    /* \"lab3/DhondtPollingStation.sol\":72:772  contract DhondtPollingStation is PollingStation, DhondtElectionRegion {... */\ntag_18:\n  dataSize(sub_0)\n  dup1\n  dataOffset(sub_0)\n  0x00\n  codecopy\n  0x00\n  return\nstop\n\nsub_0: assembly {\n        /* \"lab3/DhondtPollingStation.sol\":72:772  contract DhondtPollingStation is PollingStation, DhondtElectionRegion {... */\n      mstore(0x40, 0x80)\n      callvalue\n      dup1\n      iszero\n      tag_1\n      jumpi\n      revert(0x00, 0x00)\n    tag_1:\n      pop\n      jumpi(tag_2, lt(calldatasize, 0x04))\n      shr(0xe0, calldataload(0x00))\n      dup1\n      0x324a1376\n      eq\n      tag_3\n      jumpi\n      dup1\n      0x3eb76b9c\n      eq\n      tag_4\n      jumpi\n      dup1\n      0x4717f97c\n      eq\n      tag_5\n      jumpi\n      dup1\n      0x789d9e8a\n      eq\n      tag_6\n      jumpi\n      dup1\n      0xaffc0670\n      eq\n      tag_7\n      jumpi\n      dup1\n      0xc631b292\n      eq\n      tag_8\n      jumpi\n    tag_2:\n      revert(0x00, 0x00)\n        /* \"lab3/PollingStation.sol\":40:64  address public president */\n    tag_3:\n      tag_9\n      tag_10\n      jump\t// in\n    tag_9:\n      mload(0x40)\n      tag_11\n      swap2\n      swap1\n      tag_12\n      jump\t// in\n    tag_11:\n      mload(0x40)\n      dup1\n      swap2\n      sub\n      swap1\n      return\n        /* \"lab3/DhondtPollingStation.sol\":343:558  function castVote(uint _partyId) external override onlyIfOpen {... */\n    tag_4:\n      tag_13\n      0x04\n      dup1\n      calldatasize\n      sub\n      dup2\n      add\n      swap1\n      tag_14\n      swap2\n      swap1\n      tag_15\n      jump\t// in\n    tag_14:\n      tag_16\n      jump\t// in\n    tag_13:\n      stop\n        /* \"lab3/DhondtPollingStation.sol\":566:769  function getResults() external view override returns (uint[] memory) {... */\n    tag_5:\n      tag_17\n      tag_18\n      jump\t// in\n    tag_17:\n      mload(0x40)\n      tag_19\n      swap2\n      swap1\n      tag_20\n      jump\t// in\n    tag_19:\n      mload(0x40)\n      dup1\n      swap2\n      sub\n      swap1\n      return\n        /* \"lab3/PollingStation.sol\":85:119  bool public votingFinished = false */\n    tag_6:\n      tag_21\n      tag_22\n      jump\t// in\n    tag_21:\n      mload(0x40)\n      tag_23\n      swap2\n      swap1\n      tag_24\n      jump\t// in\n    tag_23:\n      mload(0x40)\n      dup1\n      swap2\n      sub\n      swap1\n      return\n        /* \"lab3/PollingStation.sol\":586:743  function openVoting() external onlyPresident {... */\n    tag_7:\n      tag_25\n      tag_26\n      jump\t// in\n    tag_25:\n      stop\n        /* \"lab3/PollingStation.sol\":751:884  function closeVoting() external onlyPresident {... */\n    tag_8:\n      tag_27\n      tag_28\n      jump\t// in\n    tag_27:\n      stop\n        /* \"lab3/PollingStation.sol\":40:64  address public president */\n    tag_10:\n      0x00\n      0x00\n      swap1\n      sload\n      swap1\n      0x0100\n      exp\n      swap1\n      div\n      0xffffffffffffffffffffffffffffffffffffffff\n      and\n      dup2\n      jump\t// out\n        /* \"lab3/DhondtPollingStation.sol\":343:558  function castVote(uint _partyId) external override onlyIfOpen {... */\n    tag_16:\n        /* \"lab3/PollingStation.sol\":384:394  votingOpen */\n      0x00\n      0x15\n      swap1\n      sload\n      swap1\n      0x0100\n      exp\n      swap1\n      div\n      0xff\n      and\n        /* \"lab3/PollingStation.sol\":384:413  votingOpen && !votingFinished */\n      dup1\n      iszero\n      tag_30\n      jumpi\n      pop\n        /* \"lab3/PollingStation.sol\":399:413  votingFinished */\n      0x00\n      0x14\n      swap1\n      sload\n      swap1\n      0x0100\n      exp\n      swap1\n      div\n      0xff\n      and\n        /* \"lab3/PollingStation.sol\":398:413  !votingFinished */\n      iszero\n        /* \"lab3/PollingStation.sol\":384:413  votingOpen && !votingFinished */\n    tag_30:\n        /* \"lab3/PollingStation.sol\":376:445  require(votingOpen && !votingFinished, \"La votacion no esta abierta\") */\n      tag_31\n      jumpi\n      mload(0x40)\n      0x08c379a000000000000000000000000000000000000000000000000000000000\n      dup2\n      mstore\n      0x04\n      add\n      tag_32\n      swap1\n      tag_33\n      jump\t// in\n    tag_32:\n      mload(0x40)\n      dup1\n      swap2\n      sub\n      swap1\n      revert\n    tag_31:\n        /* \"lab3/DhondtPollingStation.sol\":416:428  bool success */\n      0x00\n        /* \"lab3/DhondtPollingStation.sol\":431:453  registerVote(_partyId) */\n      tag_35\n        /* \"lab3/DhondtPollingStation.sol\":444:452  _partyId */\n      dup3\n        /* \"lab3/DhondtPollingStation.sol\":431:443  registerVote */\n      tag_36\n        /* \"lab3/DhondtPollingStation.sol\":431:453  registerVote(_partyId) */\n      jump\t// in\n    tag_35:\n        /* \"lab3/DhondtPollingStation.sol\":416:453  bool success = registerVote(_partyId) */\n      swap1\n      pop\n        /* \"lab3/DhondtPollingStation.sol\":483:490  success */\n      dup1\n        /* \"lab3/DhondtPollingStation.sol\":478:536  if (!success) revert(\"Identificador de partido no valido\") */\n      tag_37\n      jumpi\n        /* \"lab3/DhondtPollingStation.sol\":492:536  revert(\"Identificador de partido no valido\") */\n      mload(0x40)\n      0x08c379a000000000000000000000000000000000000000000000000000000000\n      dup2\n      mstore\n      0x04\n      add\n      tag_38\n      swap1\n      tag_39\n      jump\t// in\n    tag_38:\n      mload(0x40)\n      dup1\n      swap2\n      sub\n      swap1\n      revert\n        /* \"lab3/DhondtPollingStation.sol\":478:536  if (!success) revert(\"Identificador de partido no valido\") */\n    tag_37:\n        /* \"lab3/DhondtPollingStation.sol\":405:558  {... */\n      pop\n        /* \"lab3/DhondtPollingStation.sol\":343:558  function castVote(uint _partyId) external override onlyIfOpen {... */\n      pop\n      jump\t// out\n        /* \"lab3/DhondtPollingStation.sol\":566:769  function getResults() external view override returns (uint[] memory) {... */\n    tag_18:\n        /* \"lab3/DhondtPollingStation.sol\":620:633  uint[] memory */\n      0x60\n        /* \"lab3/DhondtPollingStation.sol\":651:665  votingFinished */\n      0x00\n      0x14\n      swap1\n      sload\n      swap1\n      0x0100\n      exp\n      swap1\n      div\n      0xff\n      and\n        /* \"lab3/DhondtPollingStation.sol\":646:708  if (!votingFinished) revert(\"La votacion aun no ha terminado\") */\n      tag_41\n      jumpi\n        /* \"lab3/DhondtPollingStation.sol\":667:708  revert(\"La votacion aun no ha terminado\") */\n      mload(0x40)\n      0x08c379a000000000000000000000000000000000000000000000000000000000\n      dup2\n      mstore\n      0x04\n      add\n      tag_42\n      swap1\n      tag_43\n      jump\t// in\n    tag_42:\n      mload(0x40)\n      dup1\n      swap2\n      sub\n      swap1\n      revert\n        /* \"lab3/DhondtPollingStation.sol\":646:708  if (!votingFinished) revert(\"La votacion aun no ha terminado\") */\n    tag_41:\n        /* \"lab3/DhondtPollingStation.sol\":740:747  results */\n      0x03\n        /* \"lab3/DhondtPollingStation.sol\":733:747  return results */\n      dup1\n      sload\n      dup1\n      0x20\n      mul\n      0x20\n      add\n      mload(0x40)\n      swap1\n      dup2\n      add\n      0x40\n      mstore\n      dup1\n      swap3\n      swap2\n      swap1\n      dup2\n      dup2\n      mstore\n      0x20\n      add\n      dup3\n      dup1\n      sload\n      dup1\n      iszero\n      tag_44\n      jumpi\n      0x20\n      mul\n      dup3\n      add\n      swap2\n      swap1\n      0x00\n      mstore\n      keccak256(0x00, 0x20)\n      swap1\n    tag_45:\n      dup2\n      sload\n      dup2\n      mstore\n      0x20\n      add\n      swap1\n      0x01\n      add\n      swap1\n      dup1\n      dup4\n      gt\n      tag_45\n      jumpi\n    tag_44:\n      pop\n      pop\n      pop\n      pop\n      pop\n      swap1\n      pop\n        /* \"lab3/DhondtPollingStation.sol\":566:769  function getResults() external view override returns (uint[] memory) {... */\n      swap1\n      jump\t// out\n        /* \"lab3/PollingStation.sol\":85:119  bool public votingFinished = false */\n    tag_22:\n      0x00\n      0x14\n      swap1\n      sload\n      swap1\n      0x0100\n      exp\n      swap1\n      div\n      0xff\n      and\n      dup2\n      jump\t// out\n        /* \"lab3/PollingStation.sol\":586:743  function openVoting() external onlyPresident {... */\n    tag_26:\n        /* \"lab3/PollingStation.sol\":252:261  president */\n      0x00\n      0x00\n      swap1\n      sload\n      swap1\n      0x0100\n      exp\n      swap1\n      div\n      0xffffffffffffffffffffffffffffffffffffffff\n      and\n        /* \"lab3/PollingStation.sol\":238:261  msg.sender == president */\n      0xffffffffffffffffffffffffffffffffffffffff\n      and\n        /* \"lab3/PollingStation.sol\":238:248  msg.sender */\n      caller\n        /* \"lab3/PollingStation.sol\":238:261  msg.sender == president */\n      0xffffffffffffffffffffffffffffffffffffffff\n      and\n      eq\n        /* \"lab3/PollingStation.sol\":230:301  require(msg.sender == president, \"Solo el presidente puede hacer esto\") */\n      tag_47\n      jumpi\n      mload(0x40)\n      0x08c379a000000000000000000000000000000000000000000000000000000000\n      dup2\n      mstore\n      0x04\n      add\n      tag_48\n      swap1\n      tag_49\n      jump\t// in\n    tag_48:\n      mload(0x40)\n      dup1\n      swap2\n      sub\n      swap1\n      revert\n    tag_47:\n        /* \"lab3/PollingStation.sol\":651:665  votingFinished */\n      0x00\n      0x14\n      swap1\n      sload\n      swap1\n      0x0100\n      exp\n      swap1\n      div\n      0xff\n      and\n        /* \"lab3/PollingStation.sol\":650:665  !votingFinished */\n      iszero\n        /* \"lab3/PollingStation.sol\":642:693  require(!votingFinished, \"La votacion ya finalizo\") */\n      tag_51\n      jumpi\n      mload(0x40)\n      0x08c379a000000000000000000000000000000000000000000000000000000000\n      dup2\n      mstore\n      0x04\n      add\n      tag_52\n      swap1\n      tag_53\n      jump\t// in\n    tag_52:\n      mload(0x40)\n      dup1\n      swap2\n      sub\n      swap1\n      revert\n    tag_51:\n        /* \"lab3/PollingStation.sol\":717:721  true */\n      0x01\n        /* \"lab3/PollingStation.sol\":704:714  votingOpen */\n      0x00\n      0x15\n        /* \"lab3/PollingStation.sol\":704:721  votingOpen = true */\n      0x0100\n      exp\n      dup2\n      sload\n      dup2\n      0xff\n      mul\n      not\n      and\n      swap1\n      dup4\n      iszero\n      iszero\n      mul\n      or\n      swap1\n      sstore\n      pop\n        /* \"lab3/PollingStation.sol\":586:743  function openVoting() external onlyPresident {... */\n      jump\t// out\n        /* \"lab3/PollingStation.sol\":751:884  function closeVoting() external onlyPresident {... */\n    tag_28:\n        /* \"lab3/PollingStation.sol\":252:261  president */\n      0x00\n      0x00\n      swap1\n      sload\n      swap1\n      0x0100\n      exp\n      swap1\n      div\n      0xffffffffffffffffffffffffffffffffffffffff\n      and\n        /* \"lab3/PollingStation.sol\":238:261  msg.sender == president */\n      0xffffffffffffffffffffffffffffffffffffffff\n      and\n        /* \"lab3/PollingStation.sol\":238:248  msg.sender */\n      caller\n        /* \"lab3/PollingStation.sol\":238:261  msg.sender == president */\n      0xffffffffffffffffffffffffffffffffffffffff\n      and\n      eq\n        /* \"lab3/PollingStation.sol\":230:301  require(msg.sender == president, \"Solo el presidente puede hacer esto\") */\n      tag_55\n      jumpi\n      mload(0x40)\n      0x08c379a000000000000000000000000000000000000000000000000000000000\n      dup2\n      mstore\n      0x04\n      add\n      tag_56\n      swap1\n      tag_49\n      jump\t// in\n    tag_56:\n      mload(0x40)\n      dup1\n      swap2\n      sub\n      swap1\n      revert\n    tag_55:\n        /* \"lab3/PollingStation.sol\":821:826  false */\n      0x00\n        /* \"lab3/PollingStation.sol\":808:818  votingOpen */\n      0x00\n      0x15\n        /* \"lab3/PollingStation.sol\":808:826  votingOpen = false */\n      0x0100\n      exp\n      dup2\n      sload\n      dup2\n      0xff\n      mul\n      not\n      and\n      swap1\n      dup4\n      iszero\n      iszero\n      mul\n      or\n      swap1\n      sstore\n      pop\n        /* \"lab3/PollingStation.sol\":854:858  true */\n      0x01\n        /* \"lab3/PollingStation.sol\":837:851  votingFinished */\n      0x00\n      0x14\n        /* \"lab3/PollingStation.sol\":837:858  votingFinished = true */\n      0x0100\n      exp\n      dup2\n      sload\n      dup2\n      0xff\n      mul\n      not\n      and\n      swap1\n      dup4\n      iszero\n      iszero\n      mul\n      or\n      swap1\n      sstore\n      pop\n        /* \"lab3/PollingStation.sol\":751:884  function closeVoting() external onlyPresident {... */\n      jump\t// out\n        /* \"lab3/DhondtElectionRegion.sol\":961:1261  function registerVote(uint _party) internal returns (bool) {... */\n    tag_36:\n        /* \"lab3/DhondtElectionRegion.sol\":1014:1018  bool */\n      0x00\n        /* \"lab3/DhondtElectionRegion.sol\":1045:1052  results */\n      0x03\n        /* \"lab3/DhondtElectionRegion.sol\":1045:1059  results.length */\n      dup1\n      sload\n      swap1\n      pop\n        /* \"lab3/DhondtElectionRegion.sol\":1035:1041  _party */\n      dup3\n        /* \"lab3/DhondtElectionRegion.sol\":1035:1059  _party >= results.length */\n      lt\n        /* \"lab3/DhondtElectionRegion.sol\":1031:1073  if (_party >= results.length) return false */\n      tag_59\n      jumpi\n        /* \"lab3/DhondtElectionRegion.sol\":1068:1073  false */\n      0x00\n        /* \"lab3/DhondtElectionRegion.sol\":1061:1073  return false */\n      swap1\n      pop\n      jump(tag_58)\n        /* \"lab3/DhondtElectionRegion.sol\":1031:1073  if (_party >= results.length) return false */\n    tag_59:\n        /* \"lab3/DhondtElectionRegion.sol\":1108:1119  uint weight */\n      0x00\n        /* \"lab3/DhondtElectionRegion.sol\":1142:1143  0 */\n      0x00\n        /* \"lab3/DhondtElectionRegion.sol\":1122:1129  weights */\n      0x02\n        /* \"lab3/DhondtElectionRegion.sol\":1122:1139  weights[regionId] */\n      0x00\n        /* \"lab3/DhondtElectionRegion.sol\":1130:1138  regionId */\n      sload(0x01)\n        /* \"lab3/DhondtElectionRegion.sol\":1122:1139  weights[regionId] */\n      dup2\n      mstore\n      0x20\n      add\n      swap1\n      dup2\n      mstore\n      0x20\n      add\n      0x00\n      keccak256\n      sload\n        /* \"lab3/DhondtElectionRegion.sol\":1122:1143  weights[regionId] > 0 */\n      gt\n        /* \"lab3/DhondtElectionRegion.sol\":1122:1167  weights[regionId] > 0 ? weights[regionId] : 1 */\n      tag_60\n      jumpi\n        /* \"lab3/DhondtElectionRegion.sol\":1166:1167  1 */\n      0x01\n        /* \"lab3/DhondtElectionRegion.sol\":1122:1167  weights[regionId] > 0 ? weights[regionId] : 1 */\n      jump(tag_61)\n    tag_60:\n        /* \"lab3/DhondtElectionRegion.sol\":1146:1153  weights */\n      0x02\n        /* \"lab3/DhondtElectionRegion.sol\":1146:1163  weights[regionId] */\n      0x00\n        /* \"lab3/DhondtElectionRegion.sol\":1154:1162  regionId */\n      sload(0x01)\n        /* \"lab3/DhondtElectionRegion.sol\":1146:1163  weights[regionId] */\n      dup2\n      mstore\n      0x20\n      add\n      swap1\n      dup2\n      mstore\n      0x20\n      add\n      0x00\n      keccak256\n      sload\n        /* \"lab3/DhondtElectionRegion.sol\":1122:1167  weights[regionId] > 0 ? weights[regionId] : 1 */\n    tag_61:\n        /* \"lab3/DhondtElectionRegion.sol\":1108:1167  uint weight = weights[regionId] > 0 ? weights[regionId] : 1 */\n      swap1\n      pop\n        /* \"lab3/DhondtElectionRegion.sol\":1197:1203  weight */\n      dup1\n        /* \"lab3/DhondtElectionRegion.sol\":1178:1185  results */\n      0x03\n        /* \"lab3/DhondtElectionRegion.sol\":1186:1192  _party */\n      dup5\n        /* \"lab3/DhondtElectionRegion.sol\":1178:1193  results[_party] */\n      dup2\n      sload\n      dup2\n      lt\n      tag_62\n      jumpi\n      tag_63\n      tag_64\n      jump\t// in\n    tag_63:\n    tag_62:\n      swap1\n      0x00\n      mstore\n      keccak256(0x00, 0x20)\n      add\n      0x00\n        /* \"lab3/DhondtElectionRegion.sol\":1178:1203  results[_party] += weight */\n      dup3\n      dup3\n      sload\n      tag_66\n      swap2\n      swap1\n      tag_67\n      jump\t// in\n    tag_66:\n      swap3\n      pop\n      pop\n      dup2\n      swap1\n      sstore\n      pop\n        /* \"lab3/DhondtElectionRegion.sol\":1235:1239  true */\n      0x01\n        /* \"lab3/DhondtElectionRegion.sol\":1228:1239  return true */\n      swap2\n      pop\n      pop\n        /* \"lab3/DhondtElectionRegion.sol\":961:1261  function registerVote(uint _party) internal returns (bool) {... */\n    tag_58:\n      swap2\n      swap1\n      pop\n      jump\t// out\n        /* \"#utility.yul\":7:133   */\n    tag_68:\n        /* \"#utility.yul\":44:51   */\n      0x00\n        /* \"#utility.yul\":84:126   */\n      0xffffffffffffffffffffffffffffffffffffffff\n        /* \"#utility.yul\":77:82   */\n      dup3\n        /* \"#utility.yul\":73:127   */\n      and\n        /* \"#utility.yul\":62:127   */\n      swap1\n      pop\n        /* \"#utility.yul\":7:133   */\n      swap2\n      swap1\n      pop\n      jump\t// out\n        /* \"#utility.yul\":139:235   */\n    tag_69:\n        /* \"#utility.yul\":176:183   */\n      0x00\n        /* \"#utility.yul\":205:229   */\n      tag_101\n        /* \"#utility.yul\":223:228   */\n      dup3\n        /* \"#utility.yul\":205:229   */\n      tag_68\n      jump\t// in\n    tag_101:\n        /* \"#utility.yul\":194:229   */\n      swap1\n      pop\n        /* \"#utility.yul\":139:235   */\n      swap2\n      swap1\n      pop\n      jump\t// out\n        /* \"#utility.yul\":241:359   */\n    tag_70:\n        /* \"#utility.yul\":328:352   */\n      tag_103\n        /* \"#utility.yul\":346:351   */\n      dup2\n        /* \"#utility.yul\":328:352   */\n      tag_69\n      jump\t// in\n    tag_103:\n        /* \"#utility.yul\":323:326   */\n      dup3\n        /* \"#utility.yul\":316:353   */\n      mstore\n        /* \"#utility.yul\":241:359   */\n      pop\n      pop\n      jump\t// out\n        /* \"#utility.yul\":365:587   */\n    tag_12:\n        /* \"#utility.yul\":458:462   */\n      0x00\n        /* \"#utility.yul\":496:498   */\n      0x20\n        /* \"#utility.yul\":485:494   */\n      dup3\n        /* \"#utility.yul\":481:499   */\n      add\n        /* \"#utility.yul\":473:499   */\n      swap1\n      pop\n        /* \"#utility.yul\":509:580   */\n      tag_105\n        /* \"#utility.yul\":577:578   */\n      0x00\n        /* \"#utility.yul\":566:575   */\n      dup4\n        /* \"#utility.yul\":562:579   */\n      add\n        /* \"#utility.yul\":553:559   */\n      dup5\n        /* \"#utility.yul\":509:580   */\n      tag_70\n      jump\t// in\n    tag_105:\n        /* \"#utility.yul\":365:587   */\n      swap3\n      swap2\n      pop\n      pop\n      jump\t// out\n        /* \"#utility.yul\":674:791   */\n    tag_72:\n        /* \"#utility.yul\":783:784   */\n      0x00\n        /* \"#utility.yul\":780:781   */\n      0x00\n        /* \"#utility.yul\":773:785   */\n      revert\n        /* \"#utility.yul\":920:997   */\n    tag_74:\n        /* \"#utility.yul\":957:964   */\n      0x00\n        /* \"#utility.yul\":986:991   */\n      dup2\n        /* \"#utility.yul\":975:991   */\n      swap1\n      pop\n        /* \"#utility.yul\":920:997   */\n      swap2\n      swap1\n      pop\n      jump\t// out\n        /* \"#utility.yul\":1003:1125   */\n    tag_75:\n        /* \"#utility.yul\":1076:1100   */\n      tag_111\n        /* \"#utility.yul\":1094:1099   */\n      dup2\n        /* \"#utility.yul\":1076:1100   */\n      tag_74\n      jump\t// in\n    tag_111:\n        /* \"#utility.yul\":1069:1074   */\n      dup2\n        /* \"#utility.yul\":1066:1101   */\n      eq\n        /* \"#utility.yul\":1056:1119   */\n      tag_112\n      jumpi\n        /* \"#utility.yul\":1115:1116   */\n      0x00\n        /* \"#utility.yul\":1112:1113   */\n      0x00\n        /* \"#utility.yul\":1105:1117   */\n      revert\n        /* \"#utility.yul\":1056:1119   */\n    tag_112:\n        /* \"#utility.yul\":1003:1125   */\n      pop\n      jump\t// out\n        /* \"#utility.yul\":1131:1270   */\n    tag_76:\n        /* \"#utility.yul\":1177:1182   */\n      0x00\n        /* \"#utility.yul\":1215:1221   */\n      dup2\n        /* \"#utility.yul\":1202:1222   */\n      calldataload\n        /* \"#utility.yul\":1193:1222   */\n      swap1\n      pop\n        /* \"#utility.yul\":1231:1264   */\n      tag_114\n        /* \"#utility.yul\":1258:1263   */\n      dup2\n        /* \"#utility.yul\":1231:1264   */\n      tag_75\n      jump\t// in\n    tag_114:\n        /* \"#utility.yul\":1131:1270   */\n      swap3\n      swap2\n      pop\n      pop\n      jump\t// out\n        /* \"#utility.yul\":1276:1605   */\n    tag_15:\n        /* \"#utility.yul\":1335:1341   */\n      0x00\n        /* \"#utility.yul\":1384:1386   */\n      0x20\n        /* \"#utility.yul\":1372:1381   */\n      dup3\n        /* \"#utility.yul\":1363:1370   */\n      dup5\n        /* \"#utility.yul\":1359:1382   */\n      sub\n        /* \"#utility.yul\":1355:1387   */\n      slt\n        /* \"#utility.yul\":1352:1471   */\n      iszero\n      tag_116\n      jumpi\n        /* \"#utility.yul\":1390:1469   */\n      tag_117\n      tag_72\n      jump\t// in\n    tag_117:\n        /* \"#utility.yul\":1352:1471   */\n    tag_116:\n        /* \"#utility.yul\":1510:1511   */\n      0x00\n        /* \"#utility.yul\":1535:1588   */\n      tag_118\n        /* \"#utility.yul\":1580:1587   */\n      dup5\n        /* \"#utility.yul\":1571:1577   */\n      dup3\n        /* \"#utility.yul\":1560:1569   */\n      dup6\n        /* \"#utility.yul\":1556:1578   */\n      add\n        /* \"#utility.yul\":1535:1588   */\n      tag_76\n      jump\t// in\n    tag_118:\n        /* \"#utility.yul\":1525:1588   */\n      swap2\n      pop\n        /* \"#utility.yul\":1481:1598   */\n      pop\n        /* \"#utility.yul\":1276:1605   */\n      swap3\n      swap2\n      pop\n      pop\n      jump\t// out\n        /* \"#utility.yul\":1611:1725   */\n    tag_77:\n        /* \"#utility.yul\":1678:1684   */\n      0x00\n        /* \"#utility.yul\":1712:1717   */\n      dup2\n        /* \"#utility.yul\":1706:1718   */\n      mload\n        /* \"#utility.yul\":1696:1718   */\n      swap1\n      pop\n        /* \"#utility.yul\":1611:1725   */\n      swap2\n      swap1\n      pop\n      jump\t// out\n        /* \"#utility.yul\":1731:1915   */\n    tag_78:\n        /* \"#utility.yul\":1830:1841   */\n      0x00\n        /* \"#utility.yul\":1864:1870   */\n      dup3\n        /* \"#utility.yul\":1859:1862   */\n      dup3\n        /* \"#utility.yul\":1852:1871   */\n      mstore\n        /* \"#utility.yul\":1904:1908   */\n      0x20\n        /* \"#utility.yul\":1899:1902   */\n      dup3\n        /* \"#utility.yul\":1895:1909   */\n      add\n        /* \"#utility.yul\":1880:1909   */\n      swap1\n      pop\n        /* \"#utility.yul\":1731:1915   */\n      swap3\n      swap2\n      pop\n      pop\n      jump\t// out\n        /* \"#utility.yul\":1921:2053   */\n    tag_79:\n        /* \"#utility.yul\":1988:1992   */\n      0x00\n        /* \"#utility.yul\":2011:2014   */\n      dup2\n        /* \"#utility.yul\":2003:2014   */\n      swap1\n      pop\n        /* \"#utility.yul\":2041:2045   */\n      0x20\n        /* \"#utility.yul\":2036:2039   */\n      dup3\n        /* \"#utility.yul\":2032:2046   */\n      add\n        /* \"#utility.yul\":2024:2046   */\n      swap1\n      pop\n        /* \"#utility.yul\":1921:2053   */\n      swap2\n      swap1\n      pop\n      jump\t// out\n        /* \"#utility.yul\":2059:2167   */\n    tag_80:\n        /* \"#utility.yul\":2136:2160   */\n      tag_123\n        /* \"#utility.yul\":2154:2159   */\n      dup2\n        /* \"#utility.yul\":2136:2160   */\n      tag_74\n      jump\t// in\n    tag_123:\n        /* \"#utility.yul\":2131:2134   */\n      dup3\n        /* \"#utility.yul\":2124:2161   */\n      mstore\n        /* \"#utility.yul\":2059:2167   */\n      pop\n      pop\n      jump\t// out\n        /* \"#utility.yul\":2173:2352   */\n    tag_81:\n        /* \"#utility.yul\":2242:2252   */\n      0x00\n        /* \"#utility.yul\":2263:2309   */\n      tag_125\n        /* \"#utility.yul\":2305:2308   */\n      dup4\n        /* \"#utility.yul\":2297:2303   */\n      dup4\n        /* \"#utility.yul\":2263:2309   */\n      tag_80\n      jump\t// in\n    tag_125:\n        /* \"#utility.yul\":2341:2345   */\n      0x20\n        /* \"#utility.yul\":2336:2339   */\n      dup4\n        /* \"#utility.yul\":2332:2346   */\n      add\n        /* \"#utility.yul\":2318:2346   */\n      swap1\n      pop\n        /* \"#utility.yul\":2173:2352   */\n      swap3\n      swap2\n      pop\n      pop\n      jump\t// out\n        /* \"#utility.yul\":2358:2471   */\n    tag_82:\n        /* \"#utility.yul\":2428:2432   */\n      0x00\n        /* \"#utility.yul\":2460:2464   */\n      0x20\n        /* \"#utility.yul\":2455:2458   */\n      dup3\n        /* \"#utility.yul\":2451:2465   */\n      add\n        /* \"#utility.yul\":2443:2465   */\n      swap1\n      pop\n        /* \"#utility.yul\":2358:2471   */\n      swap2\n      swap1\n      pop\n      jump\t// out\n        /* \"#utility.yul\":2507:3239   */\n    tag_83:\n        /* \"#utility.yul\":2626:2629   */\n      0x00\n        /* \"#utility.yul\":2655:2709   */\n      tag_128\n        /* \"#utility.yul\":2703:2708   */\n      dup3\n        /* \"#utility.yul\":2655:2709   */\n      tag_77\n      jump\t// in\n    tag_128:\n        /* \"#utility.yul\":2725:2811   */\n      tag_129\n        /* \"#utility.yul\":2804:2810   */\n      dup2\n        /* \"#utility.yul\":2799:2802   */\n      dup6\n        /* \"#utility.yul\":2725:2811   */\n      tag_78\n      jump\t// in\n    tag_129:\n        /* \"#utility.yul\":2718:2811   */\n      swap4\n      pop\n        /* \"#utility.yul\":2835:2891   */\n      tag_130\n        /* \"#utility.yul\":2885:2890   */\n      dup4\n        /* \"#utility.yul\":2835:2891   */\n      tag_79\n      jump\t// in\n    tag_130:\n        /* \"#utility.yul\":2914:2921   */\n      dup1\n        /* \"#utility.yul\":2945:2946   */\n      0x00\n        /* \"#utility.yul\":2930:3214   */\n    tag_131:\n        /* \"#utility.yul\":2955:2961   */\n      dup4\n        /* \"#utility.yul\":2952:2953   */\n      dup2\n        /* \"#utility.yul\":2949:2962   */\n      lt\n        /* \"#utility.yul\":2930:3214   */\n      iszero\n      tag_133\n      jumpi\n        /* \"#utility.yul\":3031:3037   */\n      dup2\n        /* \"#utility.yul\":3025:3038   */\n      mload\n        /* \"#utility.yul\":3058:3121   */\n      tag_134\n        /* \"#utility.yul\":3117:3120   */\n      dup9\n        /* \"#utility.yul\":3102:3115   */\n      dup3\n        /* \"#utility.yul\":3058:3121   */\n      tag_81\n      jump\t// in\n    tag_134:\n        /* \"#utility.yul\":3051:3121   */\n      swap8\n      pop\n        /* \"#utility.yul\":3144:3204   */\n      tag_135\n        /* \"#utility.yul\":3197:3203   */\n      dup4\n        /* \"#utility.yul\":3144:3204   */\n      tag_82\n      jump\t// in\n    tag_135:\n        /* \"#utility.yul\":3134:3204   */\n      swap3\n      pop\n        /* \"#utility.yul\":2990:3214   */\n      pop\n        /* \"#utility.yul\":2977:2978   */\n      0x01\n        /* \"#utility.yul\":2974:2975   */\n      dup2\n        /* \"#utility.yul\":2970:2979   */\n      add\n        /* \"#utility.yul\":2965:2979   */\n      swap1\n      pop\n        /* \"#utility.yul\":2930:3214   */\n      jump(tag_131)\n    tag_133:\n        /* \"#utility.yul\":2934:2948   */\n      pop\n        /* \"#utility.yul\":3230:3233   */\n      dup6\n        /* \"#utility.yul\":3223:3233   */\n      swap4\n      pop\n        /* \"#utility.yul\":2631:3239   */\n      pop\n      pop\n      pop\n        /* \"#utility.yul\":2507:3239   */\n      swap3\n      swap2\n      pop\n      pop\n      jump\t// out\n        /* \"#utility.yul\":3245:3618   */\n    tag_20:\n        /* \"#utility.yul\":3388:3392   */\n      0x00\n        /* \"#utility.yul\":3426:3428   */\n      0x20\n        /* \"#utility.yul\":3415:3424   */\n      dup3\n        /* \"#utility.yul\":3411:3429   */\n      add\n        /* \"#utility.yul\":3403:3429   */\n      swap1\n      pop\n        /* \"#utility.yul\":3475:3484   */\n      dup2\n        /* \"#utility.yul\":3469:3473   */\n      dup2\n        /* \"#utility.yul\":3465:3485   */\n      sub\n        /* \"#utility.yul\":3461:3462   */\n      0x00\n        /* \"#utility.yul\":3450:3459   */\n      dup4\n        /* \"#utility.yul\":3446:3463   */\n      add\n        /* \"#utility.yul\":3439:3486   */\n      mstore\n        /* \"#utility.yul\":3503:3611   */\n      tag_137\n        /* \"#utility.yul\":3606:3610   */\n      dup2\n        /* \"#utility.yul\":3597:3603   */\n      dup5\n        /* \"#utility.yul\":3503:3611   */\n      tag_83\n      jump\t// in\n    tag_137:\n        /* \"#utility.yul\":3495:3611   */\n      swap1\n      pop\n        /* \"#utility.yul\":3245:3618   */\n      swap3\n      swap2\n      pop\n      pop\n      jump\t// out\n        /* \"#utility.yul\":3624:3714   */\n    tag_84:\n        /* \"#utility.yul\":3658:3665   */\n      0x00\n        /* \"#utility.yul\":3701:3706   */\n      dup2\n        /* \"#utility.yul\":3694:3707   */\n      iszero\n        /* \"#utility.yul\":3687:3708   */\n      iszero\n        /* \"#utility.yul\":3676:3708   */\n      swap1\n      pop\n        /* \"#utility.yul\":3624:3714   */\n      swap2\n      swap1\n      pop\n      jump\t// out\n        /* \"#utility.yul\":3720:3829   */\n    tag_85:\n        /* \"#utility.yul\":3801:3822   */\n      tag_140\n        /* \"#utility.yul\":3816:3821   */\n      dup2\n        /* \"#utility.yul\":3801:3822   */\n      tag_84\n      jump\t// in\n    tag_140:\n        /* \"#utility.yul\":3796:3799   */\n      dup3\n        /* \"#utility.yul\":3789:3823   */\n      mstore\n        /* \"#utility.yul\":3720:3829   */\n      pop\n      pop\n      jump\t// out\n        /* \"#utility.yul\":3835:4045   */\n    tag_24:\n        /* \"#utility.yul\":3922:3926   */\n      0x00\n        /* \"#utility.yul\":3960:3962   */\n      0x20\n        /* \"#utility.yul\":3949:3958   */\n      dup3\n        /* \"#utility.yul\":3945:3963   */\n      add\n        /* \"#utility.yul\":3937:3963   */\n      swap1\n      pop\n        /* \"#utility.yul\":3973:4038   */\n      tag_142\n        /* \"#utility.yul\":4035:4036   */\n      0x00\n        /* \"#utility.yul\":4024:4033   */\n      dup4\n        /* \"#utility.yul\":4020:4037   */\n      add\n        /* \"#utility.yul\":4011:4017   */\n      dup5\n        /* \"#utility.yul\":3973:4038   */\n      tag_85\n      jump\t// in\n    tag_142:\n        /* \"#utility.yul\":3835:4045   */\n      swap3\n      swap2\n      pop\n      pop\n      jump\t// out\n        /* \"#utility.yul\":4051:4220   */\n    tag_86:\n        /* \"#utility.yul\":4135:4146   */\n      0x00\n        /* \"#utility.yul\":4169:4175   */\n      dup3\n        /* \"#utility.yul\":4164:4167   */\n      dup3\n        /* \"#utility.yul\":4157:4176   */\n      mstore\n        /* \"#utility.yul\":4209:4213   */\n      0x20\n        /* \"#utility.yul\":4204:4207   */\n      dup3\n        /* \"#utility.yul\":4200:4214   */\n      add\n        /* \"#utility.yul\":4185:4214   */\n      swap1\n      pop\n        /* \"#utility.yul\":4051:4220   */\n      swap3\n      swap2\n      pop\n      pop\n      jump\t// out\n        /* \"#utility.yul\":4226:4403   */\n    tag_87:\n        /* \"#utility.yul\":4366:4395   */\n      0x4c6120766f746163696f6e206e6f206573746120616269657274610000000000\n        /* \"#utility.yul\":4362:4363   */\n      0x00\n        /* \"#utility.yul\":4354:4360   */\n      dup3\n        /* \"#utility.yul\":4350:4364   */\n      add\n        /* \"#utility.yul\":4343:4396   */\n      mstore\n        /* \"#utility.yul\":4226:4403   */\n      pop\n      jump\t// out\n        /* \"#utility.yul\":4409:4775   */\n    tag_88:\n        /* \"#utility.yul\":4551:4554   */\n      0x00\n        /* \"#utility.yul\":4572:4639   */\n      tag_146\n        /* \"#utility.yul\":4636:4638   */\n      0x1b\n        /* \"#utility.yul\":4631:4634   */\n      dup4\n        /* \"#utility.yul\":4572:4639   */\n      tag_86\n      jump\t// in\n    tag_146:\n        /* \"#utility.yul\":4565:4639   */\n      swap2\n      pop\n        /* \"#utility.yul\":4648:4741   */\n      tag_147\n        /* \"#utility.yul\":4737:4740   */\n      dup3\n        /* \"#utility.yul\":4648:4741   */\n      tag_87\n      jump\t// in\n    tag_147:\n        /* \"#utility.yul\":4766:4768   */\n      0x20\n        /* \"#utility.yul\":4761:4764   */\n      dup3\n        /* \"#utility.yul\":4757:4769   */\n      add\n        /* \"#utility.yul\":4750:4769   */\n      swap1\n      pop\n        /* \"#utility.yul\":4409:4775   */\n      swap2\n      swap1\n      pop\n      jump\t// out\n        /* \"#utility.yul\":4781:5200   */\n    tag_33:\n        /* \"#utility.yul\":4947:4951   */\n      0x00\n        /* \"#utility.yul\":4985:4987   */\n      0x20\n        /* \"#utility.yul\":4974:4983   */\n      dup3\n        /* \"#utility.yul\":4970:4988   */\n      add\n        /* \"#utility.yul\":4962:4988   */\n      swap1\n      pop\n        /* \"#utility.yul\":5034:5043   */\n      dup2\n        /* \"#utility.yul\":5028:5032   */\n      dup2\n        /* \"#utility.yul\":5024:5044   */\n      sub\n        /* \"#utility.yul\":5020:5021   */\n      0x00\n        /* \"#utility.yul\":5009:5018   */\n      dup4\n        /* \"#utility.yul\":5005:5022   */\n      add\n        /* \"#utility.yul\":4998:5045   */\n      mstore\n        /* \"#utility.yul\":5062:5193   */\n      tag_149\n        /* \"#utility.yul\":5188:5192   */\n      dup2\n        /* \"#utility.yul\":5062:5193   */\n      tag_88\n      jump\t// in\n    tag_149:\n        /* \"#utility.yul\":5054:5193   */\n      swap1\n      pop\n        /* \"#utility.yul\":4781:5200   */\n      swap2\n      swap1\n      pop\n      jump\t// out\n        /* \"#utility.yul\":5206:5427   */\n    tag_89:\n        /* \"#utility.yul\":5346:5380   */\n      0x4964656e746966696361646f72206465207061727469646f206e6f2076616c69\n        /* \"#utility.yul\":5342:5343   */\n      0x00\n        /* \"#utility.yul\":5334:5340   */\n      dup3\n        /* \"#utility.yul\":5330:5344   */\n      add\n        /* \"#utility.yul\":5323:5381   */\n      mstore\n        /* \"#utility.yul\":5415:5419   */\n      0x646f000000000000000000000000000000000000000000000000000000000000\n        /* \"#utility.yul\":5410:5412   */\n      0x20\n        /* \"#utility.yul\":5402:5408   */\n      dup3\n        /* \"#utility.yul\":5398:5413   */\n      add\n        /* \"#utility.yul\":5391:5420   */\n      mstore\n        /* \"#utility.yul\":5206:5427   */\n      pop\n      jump\t// out\n        /* \"#utility.yul\":5433:5799   */\n    tag_90:\n        /* \"#utility.yul\":5575:5578   */\n      0x00\n        /* \"#utility.yul\":5596:5663   */\n      tag_152\n        /* \"#utility.yul\":5660:5662   */\n      0x22\n        /* \"#utility.yul\":5655:5658   */\n      dup4\n        /* \"#utility.yul\":5596:5663   */\n      tag_86\n      jump\t// in\n    tag_152:\n        /* \"#utility.yul\":5589:5663   */\n      swap2\n      pop\n        /* \"#utility.yul\":5672:5765   */\n      tag_153\n        /* \"#utility.yul\":5761:5764   */\n      dup3\n        /* \"#utility.yul\":5672:5765   */\n      tag_89\n      jump\t// in\n    tag_153:\n        /* \"#utility.yul\":5790:5792   */\n      0x40\n        /* \"#utility.yul\":5785:5788   */\n      dup3\n        /* \"#utility.yul\":5781:5793   */\n      add\n        /* \"#utility.yul\":5774:5793   */\n      swap1\n      pop\n        /* \"#utility.yul\":5433:5799   */\n      swap2\n      swap1\n      pop\n      jump\t// out\n        /* \"#utility.yul\":5805:6224   */\n    tag_39:\n        /* \"#utility.yul\":5971:5975   */\n      0x00\n        /* \"#utility.yul\":6009:6011   */\n      0x20\n        /* \"#utility.yul\":5998:6007   */\n      dup3\n        /* \"#utility.yul\":5994:6012   */\n      add\n        /* \"#utility.yul\":5986:6012   */\n      swap1\n      pop\n        /* \"#utility.yul\":6058:6067   */\n      dup2\n        /* \"#utility.yul\":6052:6056   */\n      dup2\n        /* \"#utility.yul\":6048:6068   */\n      sub\n        /* \"#utility.yul\":6044:6045   */\n      0x00\n        /* \"#utility.yul\":6033:6042   */\n      dup4\n        /* \"#utility.yul\":6029:6046   */\n      add\n        /* \"#utility.yul\":6022:6069   */\n      mstore\n        /* \"#utility.yul\":6086:6217   */\n      tag_155\n        /* \"#utility.yul\":6212:6216   */\n      dup2\n        /* \"#utility.yul\":6086:6217   */\n      tag_90\n      jump\t// in\n    tag_155:\n        /* \"#utility.yul\":6078:6217   */\n      swap1\n      pop\n        /* \"#utility.yul\":5805:6224   */\n      swap2\n      swap1\n      pop\n      jump\t// out\n        /* \"#utility.yul\":6230:6411   */\n    tag_91:\n        /* \"#utility.yul\":6370:6403   */\n      0x4c6120766f746163696f6e2061756e206e6f206861207465726d696e61646f00\n        /* \"#utility.yul\":6366:6367   */\n      0x00\n        /* \"#utility.yul\":6358:6364   */\n      dup3\n        /* \"#utility.yul\":6354:6368   */\n      add\n        /* \"#utility.yul\":6347:6404   */\n      mstore\n        /* \"#utility.yul\":6230:6411   */\n      pop\n      jump\t// out\n        /* \"#utility.yul\":6417:6783   */\n    tag_92:\n        /* \"#utility.yul\":6559:6562   */\n      0x00\n        /* \"#utility.yul\":6580:6647   */\n      tag_158\n        /* \"#utility.yul\":6644:6646   */\n      0x1f\n        /* \"#utility.yul\":6639:6642   */\n      dup4\n        /* \"#utility.yul\":6580:6647   */\n      tag_86\n      jump\t// in\n    tag_158:\n        /* \"#utility.yul\":6573:6647   */\n      swap2\n      pop\n        /* \"#utility.yul\":6656:6749   */\n      tag_159\n        /* \"#utility.yul\":6745:6748   */\n      dup3\n        /* \"#utility.yul\":6656:6749   */\n      tag_91\n      jump\t// in\n    tag_159:\n        /* \"#utility.yul\":6774:6776   */\n      0x20\n        /* \"#utility.yul\":6769:6772   */\n      dup3\n        /* \"#utility.yul\":6765:6777   */\n      add\n        /* \"#utility.yul\":6758:6777   */\n      swap1\n      pop\n        /* \"#utility.yul\":6417:6783   */\n      swap2\n      swap1\n      pop\n      jump\t// out\n        /* \"#utility.yul\":6789:7208   */\n    tag_43:\n        /* \"#utility.yul\":6955:6959   */\n      0x00\n        /* \"#utility.yul\":6993:6995   */\n      0x20\n        /* \"#utility.yul\":6982:6991   */\n      dup3\n        /* \"#utility.yul\":6978:6996   */\n      add\n        /* \"#utility.yul\":6970:6996   */\n      swap1\n      pop\n        /* \"#utility.yul\":7042:7051   */\n      dup2\n        /* \"#utility.yul\":7036:7040   */\n      dup2\n        /* \"#utility.yul\":7032:7052   */\n      sub\n        /* \"#utility.yul\":7028:7029   */\n      0x00\n        /* \"#utility.yul\":7017:7026   */\n      dup4\n        /* \"#utility.yul\":7013:7030   */\n      add\n        /* \"#utility.yul\":7006:7053   */\n      mstore\n        /* \"#utility.yul\":7070:7201   */\n      tag_161\n        /* \"#utility.yul\":7196:7200   */\n      dup2\n        /* \"#utility.yul\":7070:7201   */\n      tag_92\n      jump\t// in\n    tag_161:\n        /* \"#utility.yul\":7062:7201   */\n      swap1\n      pop\n        /* \"#utility.yul\":6789:7208   */\n      swap2\n      swap1\n      pop\n      jump\t// out\n        /* \"#utility.yul\":7214:7436   */\n    tag_93:\n        /* \"#utility.yul\":7354:7388   */\n      0x536f6c6f20656c20707265736964656e74652070756564652068616365722065\n        /* \"#utility.yul\":7350:7351   */\n      0x00\n        /* \"#utility.yul\":7342:7348   */\n      dup3\n        /* \"#utility.yul\":7338:7352   */\n      add\n        /* \"#utility.yul\":7331:7389   */\n      mstore\n        /* \"#utility.yul\":7423:7428   */\n      0x73746f0000000000000000000000000000000000000000000000000000000000\n        /* \"#utility.yul\":7418:7420   */\n      0x20\n        /* \"#utility.yul\":7410:7416   */\n      dup3\n        /* \"#utility.yul\":7406:7421   */\n      add\n        /* \"#utility.yul\":7399:7429   */\n      mstore\n        /* \"#utility.yul\":7214:7436   */\n      pop\n      jump\t// out\n        /* \"#utility.yul\":7442:7808   */\n    tag_94:\n        /* \"#utility.yul\":7584:7587   */\n      0x00\n        /* \"#utility.yul\":7605:7672   */\n      tag_164\n        /* \"#utility.yul\":7669:7671   */\n      0x23\n        /* \"#utility.yul\":7664:7667   */\n      dup4\n        /* \"#utility.yul\":7605:7672   */\n      tag_86\n      jump\t// in\n    tag_164:\n        /* \"#utility.yul\":7598:7672   */\n      swap2\n      pop\n        /* \"#utility.yul\":7681:7774   */\n      tag_165\n        /* \"#utility.yul\":7770:7773   */\n      dup3\n        /* \"#utility.yul\":7681:7774   */\n      tag_93\n      jump\t// in\n    tag_165:\n        /* \"#utility.yul\":7799:7801   */\n      0x40\n        /* \"#utility.yul\":7794:7797   */\n      dup3\n        /* \"#utility.yul\":7790:7802   */\n      add\n        /* \"#utility.yul\":7783:7802   */\n      swap1\n      pop\n        /* \"#utility.yul\":7442:7808   */\n      swap2\n      swap1\n      pop\n      jump\t// out\n        /* \"#utility.yul\":7814:8233   */\n    tag_49:\n        /* \"#utility.yul\":7980:7984   */\n      0x00\n        /* \"#utility.yul\":8018:8020   */\n      0x20\n        /* \"#utility.yul\":8007:8016   */\n      dup3\n        /* \"#utility.yul\":8003:8021   */\n      add\n        /* \"#utility.yul\":7995:8021   */\n      swap1\n      pop\n        /* \"#utility.yul\":8067:8076   */\n      dup2\n        /* \"#utility.yul\":8061:8065   */\n      dup2\n        /* \"#utility.yul\":8057:8077   */\n      sub\n        /* \"#utility.yul\":8053:8054   */\n      0x00\n        /* \"#utility.yul\":8042:8051   */\n      dup4\n        /* \"#utility.yul\":8038:8055   */\n      add\n        /* \"#utility.yul\":8031:8078   */\n      mstore\n        /* \"#utility.yul\":8095:8226   */\n      tag_167\n        /* \"#utility.yul\":8221:8225   */\n      dup2\n        /* \"#utility.yul\":8095:8226   */\n      tag_94\n      jump\t// in\n    tag_167:\n        /* \"#utility.yul\":8087:8226   */\n      swap1\n      pop\n        /* \"#utility.yul\":7814:8233   */\n      swap2\n      swap1\n      pop\n      jump\t// out\n        /* \"#utility.yul\":8239:8412   */\n    tag_95:\n        /* \"#utility.yul\":8379:8404   */\n      0x4c6120766f746163696f6e2079612066696e616c697a6f000000000000000000\n        /* \"#utility.yul\":8375:8376   */\n      0x00\n        /* \"#utility.yul\":8367:8373   */\n      dup3\n        /* \"#utility.yul\":8363:8377   */\n      add\n        /* \"#utility.yul\":8356:8405   */\n      mstore\n        /* \"#utility.yul\":8239:8412   */\n      pop\n      jump\t// out\n        /* \"#utility.yul\":8418:8784   */\n    tag_96:\n        /* \"#utility.yul\":8560:8563   */\n      0x00\n        /* \"#utility.yul\":8581:8648   */\n      tag_170\n        /* \"#utility.yul\":8645:8647   */\n      0x17\n        /* \"#utility.yul\":8640:8643   */\n      dup4\n        /* \"#utility.yul\":8581:8648   */\n      tag_86\n      jump\t// in\n    tag_170:\n        /* \"#utility.yul\":8574:8648   */\n      swap2\n      pop\n        /* \"#utility.yul\":8657:8750   */\n      tag_171\n        /* \"#utility.yul\":8746:8749   */\n      dup3\n        /* \"#utility.yul\":8657:8750   */\n      tag_95\n      jump\t// in\n    tag_171:\n        /* \"#utility.yul\":8775:8777   */\n      0x20\n        /* \"#utility.yul\":8770:8773   */\n      dup3\n        /* \"#utility.yul\":8766:8778   */\n      add\n        /* \"#utility.yul\":8759:8778   */\n      swap1\n      pop\n        /* \"#utility.yul\":8418:8784   */\n      swap2\n      swap1\n      pop\n      jump\t// out\n        /* \"#utility.yul\":8790:9209   */\n    tag_53:\n        /* \"#utility.yul\":8956:8960   */\n      0x00\n        /* \"#utility.yul\":8994:8996   */\n      0x20\n        /* \"#utility.yul\":8983:8992   */\n      dup3\n        /* \"#utility.yul\":8979:8997   */\n      add\n        /* \"#utility.yul\":8971:8997   */\n      swap1\n      pop\n        /* \"#utility.yul\":9043:9052   */\n      dup2\n        /* \"#utility.yul\":9037:9041   */\n      dup2\n        /* \"#utility.yul\":9033:9053   */\n      sub\n        /* \"#utility.yul\":9029:9030   */\n      0x00\n        /* \"#utility.yul\":9018:9027   */\n      dup4\n        /* \"#utility.yul\":9014:9031   */\n      add\n        /* \"#utility.yul\":9007:9054   */\n      mstore\n        /* \"#utility.yul\":9071:9202   */\n      tag_173\n        /* \"#utility.yul\":9197:9201   */\n      dup2\n        /* \"#utility.yul\":9071:9202   */\n      tag_96\n      jump\t// in\n    tag_173:\n        /* \"#utility.yul\":9063:9202   */\n      swap1\n      pop\n        /* \"#utility.yul\":8790:9209   */\n      swap2\n      swap1\n      pop\n      jump\t// out\n        /* \"#utility.yul\":9215:9395   */\n    tag_64:\n        /* \"#utility.yul\":9263:9340   */\n      0x4e487b7100000000000000000000000000000000000000000000000000000000\n        /* \"#utility.yul\":9260:9261   */\n      0x00\n        /* \"#utility.yul\":9253:9341   */\n      mstore\n        /* \"#utility.yul\":9360:9364   */\n      0x32\n        /* \"#utility.yul\":9357:9358   */\n      0x04\n        /* \"#utility.yul\":9350:9365   */\n      mstore\n        /* \"#utility.yul\":9384:9388   */\n      0x24\n        /* \"#utility.yul\":9381:9382   */\n      0x00\n        /* \"#utility.yul\":9374:9389   */\n      revert\n        /* \"#utility.yul\":9401:9581   */\n    tag_97:\n        /* \"#utility.yul\":9449:9526   */\n      0x4e487b7100000000000000000000000000000000000000000000000000000000\n        /* \"#utility.yul\":9446:9447   */\n      0x00\n        /* \"#utility.yul\":9439:9527   */\n      mstore\n        /* \"#utility.yul\":9546:9550   */\n      0x11\n        /* \"#utility.yul\":9543:9544   */\n      0x04\n        /* \"#utility.yul\":9536:9551   */\n      mstore\n        /* \"#utility.yul\":9570:9574   */\n      0x24\n        /* \"#utility.yul\":9567:9568   */\n      0x00\n        /* \"#utility.yul\":9560:9575   */\n      revert\n        /* \"#utility.yul\":9587:9778   */\n    tag_67:\n        /* \"#utility.yul\":9627:9630   */\n      0x00\n        /* \"#utility.yul\":9646:9666   */\n      tag_177\n        /* \"#utility.yul\":9664:9665   */\n      dup3\n        /* \"#utility.yul\":9646:9666   */\n      tag_74\n      jump\t// in\n    tag_177:\n        /* \"#utility.yul\":9641:9666   */\n      swap2\n      pop\n        /* \"#utility.yul\":9680:9700   */\n      tag_178\n        /* \"#utility.yul\":9698:9699   */\n      dup4\n        /* \"#utility.yul\":9680:9700   */\n      tag_74\n      jump\t// in\n    tag_178:\n        /* \"#utility.yul\":9675:9700   */\n      swap3\n      pop\n        /* \"#utility.yul\":9723:9724   */\n      dup3\n        /* \"#utility.yul\":9720:9721   */\n      dup3\n        /* \"#utility.yul\":9716:9725   */\n      add\n        /* \"#utility.yul\":9709:9725   */\n      swap1\n      pop\n        /* \"#utility.yul\":9744:9747   */\n      dup1\n        /* \"#utility.yul\":9741:9742   */\n      dup3\n        /* \"#utility.yul\":9738:9748   */\n      gt\n        /* \"#utility.yul\":9735:9771   */\n      iszero\n      tag_179\n      jumpi\n        /* \"#utility.yul\":9751:9769   */\n      tag_180\n      tag_97\n      jump\t// in\n    tag_180:\n        /* \"#utility.yul\":9735:9771   */\n    tag_179:\n        /* \"#utility.yul\":9587:9778   */\n      swap3\n      swap2\n      pop\n      pop\n      jump\t// out\n\n    auxdata: 0xa2646970667358221220ce6127082028f055d9861280a40b7bc8a320e37ec7842ebc98081380afbfdc8a64736f6c634300081f0033\n}\n",
				"bytecode": {
					"linkReferences": {},
					"object": "60806040525f5f60146101000a81548160ff0219169083151502179055505f5f60156101000a81548160ff021916908315150217905550348015610041575f5ffd5b50604051610d16380380610d16833981810160405281019061006391906102dc565b818184805f5f6101000a81548173ffffffffffffffffffffffffffffffffffffffff021916908373ffffffffffffffffffffffffffffffffffffffff16021790555050806001819055508167ffffffffffffffff8111156100c7576100c661032c565b5b6040519080825280602002602001820160405280156100f55781602001602082028036833780820191505090505b506003908051906020019061010b9291906101e5565b5061011a61012460201b60201c565b5050505050610359565b600160025f601c81526020019081526020015f2081905550600160025f600881526020019081526020015f2081905550600160025f602981526020019081526020015f2081905550600560025f602c81526020019081526020015f2081905550600560025f602a81526020019081526020015f2081905550600460025f603181526020019081526020015f2081905550600460025f600981526020019081526020015f20819055506002805f601d81526020019081526020015f2081905550565b828054828255905f5260205f2090810192821561021f579160200282015b8281111561021e578251825591602001919060010190610203565b5b50905061022c9190610230565b5090565b5b80821115610247575f815f905550600101610231565b5090565b5f5ffd5b5f73ffffffffffffffffffffffffffffffffffffffff82169050919050565b5f6102788261024f565b9050919050565b6102888161026e565b8114610292575f5ffd5b50565b5f815190506102a38161027f565b92915050565b5f819050919050565b6102bb816102a9565b81146102c5575f5ffd5b50565b5f815190506102d6816102b2565b92915050565b5f5f5f606084860312156102f3576102f261024b565b5b5f61030086828701610295565b9350506020610311868287016102c8565b9250506040610322868287016102c8565b9150509250925092565b7f4e487b71000000000000000000000000000000000000000000000000000000005f52604160045260245ffd5b6109b0806103665f395ff3fe608060405234801561000f575f5ffd5b5060043610610060575f3560e01c8063324a1376146100645780633eb76b9c146100825780634717f97c1461009e578063789d9e8a146100bc578063affc0670146100da578063c631b292146100e4575b5f5ffd5b61006c6100ee565b6040516100799190610504565b60405180910390f35b61009c60048036038101906100979190610554565b610112565b005b6100a66101c8565b6040516100b39190610636565b60405180910390f35b6100c461026c565b6040516100d19190610670565b60405180910390f35b6100e261027e565b005b6100ec610377565b005b5f5f9054906101000a900473ffffffffffffffffffffffffffffffffffffffff1681565b5f60159054906101000a900460ff16801561013957505f60149054906101000a900460ff16155b610178576040517f08c379a000000000000000000000000000000000000000000000000000000000815260040161016f906106e3565b60405180910390fd5b5f6101828261043a565b9050806101c4576040517f08c379a00000000000000000000000000000000000000000000000000000000081526004016101bb90610771565b60405180910390fd5b5050565b60605f60149054906101000a900460ff16610218576040517f08c379a000000000000000000000000000000000000000000000000000000000815260040161020f906107d9565b60405180910390fd5b600380548060200260200160405190810160405280929190818152602001828054801561026257602002820191905f5260205f20905b81548152602001906001019080831161024e575b5050505050905090565b5f60149054906101000a900460ff1681565b5f5f9054906101000a900473ffffffffffffffffffffffffffffffffffffffff1673ffffffffffffffffffffffffffffffffffffffff163373ffffffffffffffffffffffffffffffffffffffff161461030c576040517f08c379a000000000000000000000000000000000000000000000000000000000815260040161030390610867565b60405180910390fd5b5f60149054906101000a900460ff161561035b576040517f08c379a0000000000000000000000000000000000000000000000000000000008152600401610352906108cf565b60405180910390fd5b60015f60156101000a81548160ff021916908315150217905550565b5f5f9054906101000a900473ffffffffffffffffffffffffffffffffffffffff1673ffffffffffffffffffffffffffffffffffffffff163373ffffffffffffffffffffffffffffffffffffffff1614610405576040517f08c379a00000000000000000000000000000000000000000000000000000000081526004016103fc90610867565b60405180910390fd5b5f5f60156101000a81548160ff02191690831515021790555060015f60146101000a81548160ff021916908315150217905550565b5f600380549050821061044f575f90506104c0565b5f5f60025f60015481526020019081526020015f205411610471576001610486565b60025f60015481526020019081526020015f20545b9050806003848154811061049d5761049c6108ed565b5b905f5260205f20015f8282546104b39190610947565b9250508190555060019150505b919050565b5f73ffffffffffffffffffffffffffffffffffffffff82169050919050565b5f6104ee826104c5565b9050919050565b6104fe816104e4565b82525050565b5f6020820190506105175f8301846104f5565b92915050565b5f5ffd5b5f819050919050565b61053381610521565b811461053d575f5ffd5b50565b5f8135905061054e8161052a565b92915050565b5f602082840312156105695761056861051d565b5b5f61057684828501610540565b91505092915050565b5f81519050919050565b5f82825260208201905092915050565b5f819050602082019050919050565b6105b181610521565b82525050565b5f6105c283836105a8565b60208301905092915050565b5f602082019050919050565b5f6105e48261057f565b6105ee8185610589565b93506105f983610599565b805f5b8381101561062957815161061088826105b7565b975061061b836105ce565b9250506001810190506105fc565b5085935050505092915050565b5f6020820190508181035f83015261064e81846105da565b905092915050565b5f8115159050919050565b61066a81610656565b82525050565b5f6020820190506106835f830184610661565b92915050565b5f82825260208201905092915050565b7f4c6120766f746163696f6e206e6f2065737461206162696572746100000000005f82015250565b5f6106cd601b83610689565b91506106d882610699565b602082019050919050565b5f6020820190508181035f8301526106fa816106c1565b9050919050565b7f4964656e746966696361646f72206465207061727469646f206e6f2076616c695f8201527f646f000000000000000000000000000000000000000000000000000000000000602082015250565b5f61075b602283610689565b915061076682610701565b604082019050919050565b5f6020820190508181035f8301526107888161074f565b9050919050565b7f4c6120766f746163696f6e2061756e206e6f206861207465726d696e61646f005f82015250565b5f6107c3601f83610689565b91506107ce8261078f565b602082019050919050565b5f6020820190508181035f8301526107f0816107b7565b9050919050565b7f536f6c6f20656c20707265736964656e746520707565646520686163657220655f8201527f73746f0000000000000000000000000000000000000000000000000000000000602082015250565b5f610851602383610689565b915061085c826107f7565b604082019050919050565b5f6020820190508181035f83015261087e81610845565b9050919050565b7f4c6120766f746163696f6e2079612066696e616c697a6f0000000000000000005f82015250565b5f6108b9601783610689565b91506108c482610885565b602082019050919050565b5f6020820190508181035f8301526108e6816108ad565b9050919050565b7f4e487b71000000000000000000000000000000000000000000000000000000005f52603260045260245ffd5b7f4e487b71000000000000000000000000000000000000000000000000000000005f52601160045260245ffd5b5f61095182610521565b915061095c83610521565b92508282019050808211156109745761097361091a565b5b9291505056fea2646970667358221220ce6127082028f055d9861280a40b7bc8a320e37ec7842ebc98081380afbfdc8a64736f6c634300081f0033",
					"opcodes": "PUSH1 0x80 PUSH1 0x40 MSTORE PUSH0 PUSH0 PUSH1 0x14 PUSH2 0x100 EXP DUP2 SLOAD DUP2 PUSH1 0xFF MUL NOT AND SWAP1 DUP4 ISZERO ISZERO MUL OR SWAP1 SSTORE POP PUSH0 PUSH0 PUSH1 0x15 PUSH2 0x100 EXP DUP2 SLOAD DUP2 PUSH1 0xFF MUL NOT AND SWAP1 DUP4 ISZERO ISZERO MUL OR SWAP1 SSTORE POP CALLVALUE DUP1 ISZERO PUSH2 0x41 JUMPI PUSH0 PUSH0 REVERT JUMPDEST POP PUSH1 0x40 MLOAD PUSH2 0xD16 CODESIZE SUB DUP1 PUSH2 0xD16 DUP4 CODECOPY DUP2 DUP2 ADD PUSH1 0x40 MSTORE DUP2 ADD SWAP1 PUSH2 0x63 SWAP2 SWAP1 PUSH2 0x2DC JUMP JUMPDEST DUP2 DUP2 DUP5 DUP1 PUSH0 PUSH0 PUSH2 0x100 EXP DUP2 SLOAD DUP2 PUSH20 0xFFFFFFFFFFFFFFFFFFFFFFFFFFFFFFFFFFFFFFFF MUL NOT AND SWAP1 DUP4 PUSH20 0xFFFFFFFFFFFFFFFFFFFFFFFFFFFFFFFFFFFFFFFF AND MUL OR SWAP1 SSTORE POP POP DUP1 PUSH1 0x1 DUP2 SWAP1 SSTORE POP DUP2 PUSH8 0xFFFFFFFFFFFFFFFF DUP2 GT ISZERO PUSH2 0xC7 JUMPI PUSH2 0xC6 PUSH2 0x32C JUMP JUMPDEST JUMPDEST PUSH1 0x40 MLOAD SWAP1 DUP1 DUP3 MSTORE DUP1 PUSH1 0x20 MUL PUSH1 0x20 ADD DUP3 ADD PUSH1 0x40 MSTORE DUP1 ISZERO PUSH2 0xF5 JUMPI DUP2 PUSH1 0x20 ADD PUSH1 0x20 DUP3 MUL DUP1 CALLDATASIZE DUP4 CALLDATACOPY DUP1 DUP3 ADD SWAP2 POP POP SWAP1 POP JUMPDEST POP PUSH1 0x3 SWAP1 DUP1 MLOAD SWAP1 PUSH1 0x20 ADD SWAP1 PUSH2 0x10B SWAP3 SWAP2 SWAP1 PUSH2 0x1E5 JUMP JUMPDEST POP PUSH2 0x11A PUSH2 0x124 PUSH1 0x20 SHL PUSH1 0x20 SHR JUMP JUMPDEST POP POP POP POP POP PUSH2 0x359 JUMP JUMPDEST PUSH1 0x1 PUSH1 0x2 PUSH0 PUSH1 0x1C DUP2 MSTORE PUSH1 0x20 ADD SWAP1 DUP2 MSTORE PUSH1 0x20 ADD PUSH0 KECCAK256 DUP2 SWAP1 SSTORE POP PUSH1 0x1 PUSH1 0x2 PUSH0 PUSH1 0x8 DUP2 MSTORE PUSH1 0x20 ADD SWAP1 DUP2 MSTORE PUSH1 0x20 ADD PUSH0 KECCAK256 DUP2 SWAP1 SSTORE POP PUSH1 0x1 PUSH1 0x2 PUSH0 PUSH1 0x29 DUP2 MSTORE PUSH1 0x20 ADD SWAP1 DUP2 MSTORE PUSH1 0x20 ADD PUSH0 KECCAK256 DUP2 SWAP1 SSTORE POP PUSH1 0x5 PUSH1 0x2 PUSH0 PUSH1 0x2C DUP2 MSTORE PUSH1 0x20 ADD SWAP1 DUP2 MSTORE PUSH1 0x20 ADD PUSH0 KECCAK256 DUP2 SWAP1 SSTORE POP PUSH1 0x5 PUSH1 0x2 PUSH0 PUSH1 0x2A DUP2 MSTORE PUSH1 0x20 ADD SWAP1 DUP2 MSTORE PUSH1 0x20 ADD PUSH0 KECCAK256 DUP2 SWAP1 SSTORE POP PUSH1 0x4 PUSH1 0x2 PUSH0 PUSH1 0x31 DUP2 MSTORE PUSH1 0x20 ADD SWAP1 DUP2 MSTORE PUSH1 0x20 ADD PUSH0 KECCAK256 DUP2 SWAP1 SSTORE POP PUSH1 0x4 PUSH1 0x2 PUSH0 PUSH1 0x9 DUP2 MSTORE PUSH1 0x20 ADD SWAP1 DUP2 MSTORE PUSH1 0x20 ADD PUSH0 KECCAK256 DUP2 SWAP1 SSTORE POP PUSH1 0x2 DUP1 PUSH0 PUSH1 0x1D DUP2 MSTORE PUSH1 0x20 ADD SWAP1 DUP2 MSTORE PUSH1 0x20 ADD PUSH0 KECCAK256 DUP2 SWAP1 SSTORE POP JUMP JUMPDEST DUP3 DUP1 SLOAD DUP3 DUP3 SSTORE SWAP1 PUSH0 MSTORE PUSH1 0x20 PUSH0 KECCAK256 SWAP1 DUP2 ADD SWAP3 DUP3 ISZERO PUSH2 0x21F JUMPI SWAP2 PUSH1 0x20 MUL DUP3 ADD JUMPDEST DUP3 DUP2 GT ISZERO PUSH2 0x21E JUMPI DUP3 MLOAD DUP3 SSTORE SWAP2 PUSH1 0x20 ADD SWAP2 SWAP1 PUSH1 0x1 ADD SWAP1 PUSH2 0x203 JUMP JUMPDEST JUMPDEST POP SWAP1 POP PUSH2 0x22C SWAP2 SWAP1 PUSH2 0x230 JUMP JUMPDEST POP SWAP1 JUMP JUMPDEST JUMPDEST DUP1 DUP3 GT ISZERO PUSH2 0x247 JUMPI PUSH0 DUP2 PUSH0 SWAP1 SSTORE POP PUSH1 0x1 ADD PUSH2 0x231 JUMP JUMPDEST POP SWAP1 JUMP JUMPDEST PUSH0 PUSH0 REVERT JUMPDEST PUSH0 PUSH20 0xFFFFFFFFFFFFFFFFFFFFFFFFFFFFFFFFFFFFFFFF DUP3 AND SWAP1 POP SWAP2 SWAP1 POP JUMP JUMPDEST PUSH0 PUSH2 0x278 DUP3 PUSH2 0x24F JUMP JUMPDEST SWAP1 POP SWAP2 SWAP1 POP JUMP JUMPDEST PUSH2 0x288 DUP2 PUSH2 0x26E JUMP JUMPDEST DUP2 EQ PUSH2 0x292 JUMPI PUSH0 PUSH0 REVERT JUMPDEST POP JUMP JUMPDEST PUSH0 DUP2 MLOAD SWAP1 POP PUSH2 0x2A3 DUP2 PUSH2 0x27F JUMP JUMPDEST SWAP3 SWAP2 POP POP JUMP JUMPDEST PUSH0 DUP2 SWAP1 POP SWAP2 SWAP1 POP JUMP JUMPDEST PUSH2 0x2BB DUP2 PUSH2 0x2A9 JUMP JUMPDEST DUP2 EQ PUSH2 0x2C5 JUMPI PUSH0 PUSH0 REVERT JUMPDEST POP JUMP JUMPDEST PUSH0 DUP2 MLOAD SWAP1 POP PUSH2 0x2D6 DUP2 PUSH2 0x2B2 JUMP JUMPDEST SWAP3 SWAP2 POP POP JUMP JUMPDEST PUSH0 PUSH0 PUSH0 PUSH1 0x60 DUP5 DUP7 SUB SLT ISZERO PUSH2 0x2F3 JUMPI PUSH2 0x2F2 PUSH2 0x24B JUMP JUMPDEST JUMPDEST PUSH0 PUSH2 0x300 DUP7 DUP3 DUP8 ADD PUSH2 0x295 JUMP JUMPDEST SWAP4 POP POP PUSH1 0x20 PUSH2 0x311 DUP7 DUP3 DUP8 ADD PUSH2 0x2C8 JUMP JUMPDEST SWAP3 POP POP PUSH1 0x40 PUSH2 0x322 DUP7 DUP3 DUP8 ADD PUSH2 0x2C8 JUMP JUMPDEST SWAP2 POP POP SWAP3 POP SWAP3 POP SWAP3 JUMP JUMPDEST PUSH32 0x4E487B7100000000000000000000000000000000000000000000000000000000 PUSH0 MSTORE PUSH1 0x41 PUSH1 0x4 MSTORE PUSH1 0x24 PUSH0 REVERT JUMPDEST PUSH2 0x9B0 DUP1 PUSH2 0x366 PUSH0 CODECOPY PUSH0 RETURN INVALID PUSH1 0x80 PUSH1 0x40 MSTORE CALLVALUE DUP1 ISZERO PUSH2 0xF JUMPI PUSH0 PUSH0 REVERT JUMPDEST POP PUSH1 0x4 CALLDATASIZE LT PUSH2 0x60 JUMPI PUSH0 CALLDATALOAD PUSH1 0xE0 SHR DUP1 PUSH4 0x324A1376 EQ PUSH2 0x64 JUMPI DUP1 PUSH4 0x3EB76B9C EQ PUSH2 0x82 JUMPI DUP1 PUSH4 0x4717F97C EQ PUSH2 0x9E JUMPI DUP1 PUSH4 0x789D9E8A EQ PUSH2 0xBC JUMPI DUP1 PUSH4 0xAFFC0670 EQ PUSH2 0xDA JUMPI DUP1 PUSH4 0xC631B292 EQ PUSH2 0xE4 JUMPI JUMPDEST PUSH0 PUSH0 REVERT JUMPDEST PUSH2 0x6C PUSH2 0xEE JUMP JUMPDEST PUSH1 0x40 MLOAD PUSH2 0x79 SWAP2 SWAP1 PUSH2 0x504 JUMP JUMPDEST PUSH1 0x40 MLOAD DUP1 SWAP2 SUB SWAP1 RETURN JUMPDEST PUSH2 0x9C PUSH1 0x4 DUP1 CALLDATASIZE SUB DUP2 ADD SWAP1 PUSH2 0x97 SWAP2 SWAP1 PUSH2 0x554 JUMP JUMPDEST PUSH2 0x112 JUMP JUMPDEST STOP JUMPDEST PUSH2 0xA6 PUSH2 0x1C8 JUMP JUMPDEST PUSH1 0x40 MLOAD PUSH2 0xB3 SWAP2 SWAP1 PUSH2 0x636 JUMP JUMPDEST PUSH1 0x40 MLOAD DUP1 SWAP2 SUB SWAP1 RETURN JUMPDEST PUSH2 0xC4 PUSH2 0x26C JUMP JUMPDEST PUSH1 0x40 MLOAD PUSH2 0xD1 SWAP2 SWAP1 PUSH2 0x670 JUMP JUMPDEST PUSH1 0x40 MLOAD DUP1 SWAP2 SUB SWAP1 RETURN JUMPDEST PUSH2 0xE2 PUSH2 0x27E JUMP JUMPDEST STOP JUMPDEST PUSH2 0xEC PUSH2 0x377 JUMP JUMPDEST STOP JUMPDEST PUSH0 PUSH0 SWAP1 SLOAD SWAP1 PUSH2 0x100 EXP SWAP1 DIV PUSH20 0xFFFFFFFFFFFFFFFFFFFFFFFFFFFFFFFFFFFFFFFF AND DUP2 JUMP JUMPDEST PUSH0 PUSH1 0x15 SWAP1 SLOAD SWAP1 PUSH2 0x100 EXP SWAP1 DIV PUSH1 0xFF AND DUP1 ISZERO PUSH2 0x139 JUMPI POP PUSH0 PUSH1 0x14 SWAP1 SLOAD SWAP1 PUSH2 0x100 EXP SWAP1 DIV PUSH1 0xFF AND ISZERO JUMPDEST PUSH2 0x178 JUMPI PUSH1 0x40 MLOAD PUSH32 0x8C379A000000000000000000000000000000000000000000000000000000000 DUP2 MSTORE PUSH1 0x4 ADD PUSH2 0x16F SWAP1 PUSH2 0x6E3 JUMP JUMPDEST PUSH1 0x40 MLOAD DUP1 SWAP2 SUB SWAP1 REVERT JUMPDEST PUSH0 PUSH2 0x182 DUP3 PUSH2 0x43A JUMP JUMPDEST SWAP1 POP DUP1 PUSH2 0x1C4 JUMPI PUSH1 0x40 MLOAD PUSH32 0x8C379A000000000000000000000000000000000000000000000000000000000 DUP2 MSTORE PUSH1 0x4 ADD PUSH2 0x1BB SWAP1 PUSH2 0x771 JUMP JUMPDEST PUSH1 0x40 MLOAD DUP1 SWAP2 SUB SWAP1 REVERT JUMPDEST POP POP JUMP JUMPDEST PUSH1 0x60 PUSH0 PUSH1 0x14 SWAP1 SLOAD SWAP1 PUSH2 0x100 EXP SWAP1 DIV PUSH1 0xFF AND PUSH2 0x218 JUMPI PUSH1 0x40 MLOAD PUSH32 0x8C379A000000000000000000000000000000000000000000000000000000000 DUP2 MSTORE PUSH1 0x4 ADD PUSH2 0x20F SWAP1 PUSH2 0x7D9 JUMP JUMPDEST PUSH1 0x40 MLOAD DUP1 SWAP2 SUB SWAP1 REVERT JUMPDEST PUSH1 0x3 DUP1 SLOAD DUP1 PUSH1 0x20 MUL PUSH1 0x20 ADD PUSH1 0x40 MLOAD SWAP1 DUP2 ADD PUSH1 0x40 MSTORE DUP1 SWAP3 SWAP2 SWAP1 DUP2 DUP2 MSTORE PUSH1 0x20 ADD DUP3 DUP1 SLOAD DUP1 ISZERO PUSH2 0x262 JUMPI PUSH1 0x20 MUL DUP3 ADD SWAP2 SWAP1 PUSH0 MSTORE PUSH1 0x20 PUSH0 KECCAK256 SWAP1 JUMPDEST DUP2 SLOAD DUP2 MSTORE PUSH1 0x20 ADD SWAP1 PUSH1 0x1 ADD SWAP1 DUP1 DUP4 GT PUSH2 0x24E JUMPI JUMPDEST POP POP POP POP POP SWAP1 POP SWAP1 JUMP JUMPDEST PUSH0 PUSH1 0x14 SWAP1 SLOAD SWAP1 PUSH2 0x100 EXP SWAP1 DIV PUSH1 0xFF AND DUP2 JUMP JUMPDEST PUSH0 PUSH0 SWAP1 SLOAD SWAP1 PUSH2 0x100 EXP SWAP1 DIV PUSH20 0xFFFFFFFFFFFFFFFFFFFFFFFFFFFFFFFFFFFFFFFF AND PUSH20 0xFFFFFFFFFFFFFFFFFFFFFFFFFFFFFFFFFFFFFFFF AND CALLER PUSH20 0xFFFFFFFFFFFFFFFFFFFFFFFFFFFFFFFFFFFFFFFF AND EQ PUSH2 0x30C JUMPI PUSH1 0x40 MLOAD PUSH32 0x8C379A000000000000000000000000000000000000000000000000000000000 DUP2 MSTORE PUSH1 0x4 ADD PUSH2 0x303 SWAP1 PUSH2 0x867 JUMP JUMPDEST PUSH1 0x40 MLOAD DUP1 SWAP2 SUB SWAP1 REVERT JUMPDEST PUSH0 PUSH1 0x14 SWAP1 SLOAD SWAP1 PUSH2 0x100 EXP SWAP1 DIV PUSH1 0xFF AND ISZERO PUSH2 0x35B JUMPI PUSH1 0x40 MLOAD PUSH32 0x8C379A000000000000000000000000000000000000000000000000000000000 DUP2 MSTORE PUSH1 0x4 ADD PUSH2 0x352 SWAP1 PUSH2 0x8CF JUMP JUMPDEST PUSH1 0x40 MLOAD DUP1 SWAP2 SUB SWAP1 REVERT JUMPDEST PUSH1 0x1 PUSH0 PUSH1 0x15 PUSH2 0x100 EXP DUP2 SLOAD DUP2 PUSH1 0xFF MUL NOT AND SWAP1 DUP4 ISZERO ISZERO MUL OR SWAP1 SSTORE POP JUMP JUMPDEST PUSH0 PUSH0 SWAP1 SLOAD SWAP1 PUSH2 0x100 EXP SWAP1 DIV PUSH20 0xFFFFFFFFFFFFFFFFFFFFFFFFFFFFFFFFFFFFFFFF AND PUSH20 0xFFFFFFFFFFFFFFFFFFFFFFFFFFFFFFFFFFFFFFFF AND CALLER PUSH20 0xFFFFFFFFFFFFFFFFFFFFFFFFFFFFFFFFFFFFFFFF AND EQ PUSH2 0x405 JUMPI PUSH1 0x40 MLOAD PUSH32 0x8C379A000000000000000000000000000000000000000000000000000000000 DUP2 MSTORE PUSH1 0x4 ADD PUSH2 0x3FC SWAP1 PUSH2 0x867 JUMP JUMPDEST PUSH1 0x40 MLOAD DUP1 SWAP2 SUB SWAP1 REVERT JUMPDEST PUSH0 PUSH0 PUSH1 0x15 PUSH2 0x100 EXP DUP2 SLOAD DUP2 PUSH1 0xFF MUL NOT AND SWAP1 DUP4 ISZERO ISZERO MUL OR SWAP1 SSTORE POP PUSH1 0x1 PUSH0 PUSH1 0x14 PUSH2 0x100 EXP DUP2 SLOAD DUP2 PUSH1 0xFF MUL NOT AND SWAP1 DUP4 ISZERO ISZERO MUL OR SWAP1 SSTORE POP JUMP JUMPDEST PUSH0 PUSH1 0x3 DUP1 SLOAD SWAP1 POP DUP3 LT PUSH2 0x44F JUMPI PUSH0 SWAP1 POP PUSH2 0x4C0 JUMP JUMPDEST PUSH0 PUSH0 PUSH1 0x2 PUSH0 PUSH1 0x1 SLOAD DUP2 MSTORE PUSH1 0x20 ADD SWAP1 DUP2 MSTORE PUSH1 0x20 ADD PUSH0 KECCAK256 SLOAD GT PUSH2 0x471 JUMPI PUSH1 0x1 PUSH2 0x486 JUMP JUMPDEST PUSH1 0x2 PUSH0 PUSH1 0x1 SLOAD DUP2 MSTORE PUSH1 0x20 ADD SWAP1 DUP2 MSTORE PUSH1 0x20 ADD PUSH0 KECCAK256 SLOAD JUMPDEST SWAP1 POP DUP1 PUSH1 0x3 DUP5 DUP2 SLOAD DUP2 LT PUSH2 0x49D JUMPI PUSH2 0x49C PUSH2 0x8ED JUMP JUMPDEST JUMPDEST SWAP1 PUSH0 MSTORE PUSH1 0x20 PUSH0 KECCAK256 ADD PUSH0 DUP3 DUP3 SLOAD PUSH2 0x4B3 SWAP2 SWAP1 PUSH2 0x947 JUMP JUMPDEST SWAP3 POP POP DUP2 SWAP1 SSTORE POP PUSH1 0x1 SWAP2 POP POP JUMPDEST SWAP2 SWAP1 POP JUMP JUMPDEST PUSH0 PUSH20 0xFFFFFFFFFFFFFFFFFFFFFFFFFFFFFFFFFFFFFFFF DUP3 AND SWAP1 POP SWAP2 SWAP1 POP JUMP JUMPDEST PUSH0 PUSH2 0x4EE DUP3 PUSH2 0x4C5 JUMP JUMPDEST SWAP1 POP SWAP2 SWAP1 POP JUMP JUMPDEST PUSH2 0x4FE DUP2 PUSH2 0x4E4 JUMP JUMPDEST DUP3 MSTORE POP POP JUMP JUMPDEST PUSH0 PUSH1 0x20 DUP3 ADD SWAP1 POP PUSH2 0x517 PUSH0 DUP4 ADD DUP5 PUSH2 0x4F5 JUMP JUMPDEST SWAP3 SWAP2 POP POP JUMP JUMPDEST PUSH0 PUSH0 REVERT JUMPDEST PUSH0 DUP2 SWAP1 POP SWAP2 SWAP1 POP JUMP JUMPDEST PUSH2 0x533 DUP2 PUSH2 0x521 JUMP JUMPDEST DUP2 EQ PUSH2 0x53D JUMPI PUSH0 PUSH0 REVERT JUMPDEST POP JUMP JUMPDEST PUSH0 DUP2 CALLDATALOAD SWAP1 POP PUSH2 0x54E DUP2 PUSH2 0x52A JUMP JUMPDEST SWAP3 SWAP2 POP POP JUMP JUMPDEST PUSH0 PUSH1 0x20 DUP3 DUP5 SUB SLT ISZERO PUSH2 0x569 JUMPI PUSH2 0x568 PUSH2 0x51D JUMP JUMPDEST JUMPDEST PUSH0 PUSH2 0x576 DUP5 DUP3 DUP6 ADD PUSH2 0x540 JUMP JUMPDEST SWAP2 POP POP SWAP3 SWAP2 POP POP JUMP JUMPDEST PUSH0 DUP2 MLOAD SWAP1 POP SWAP2 SWAP1 POP JUMP JUMPDEST PUSH0 DUP3 DUP3 MSTORE PUSH1 0x20 DUP3 ADD SWAP1 POP SWAP3 SWAP2 POP POP JUMP JUMPDEST PUSH0 DUP2 SWAP1 POP PUSH1 0x20 DUP3 ADD SWAP1 POP SWAP2 SWAP1 POP JUMP JUMPDEST PUSH2 0x5B1 DUP2 PUSH2 0x521 JUMP JUMPDEST DUP3 MSTORE POP POP JUMP JUMPDEST PUSH0 PUSH2 0x5C2 DUP4 DUP4 PUSH2 0x5A8 JUMP JUMPDEST PUSH1 0x20 DUP4 ADD SWAP1 POP SWAP3 SWAP2 POP POP JUMP JUMPDEST PUSH0 PUSH1 0x20 DUP3 ADD SWAP1 POP SWAP2 SWAP1 POP JUMP JUMPDEST PUSH0 PUSH2 0x5E4 DUP3 PUSH2 0x57F JUMP JUMPDEST PUSH2 0x5EE DUP2 DUP6 PUSH2 0x589 JUMP JUMPDEST SWAP4 POP PUSH2 0x5F9 DUP4 PUSH2 0x599 JUMP JUMPDEST DUP1 PUSH0 JUMPDEST DUP4 DUP2 LT ISZERO PUSH2 0x629 JUMPI DUP2 MLOAD PUSH2 0x610 DUP9 DUP3 PUSH2 0x5B7 JUMP JUMPDEST SWAP8 POP PUSH2 0x61B DUP4 PUSH2 0x5CE JUMP JUMPDEST SWAP3 POP POP PUSH1 0x1 DUP2 ADD SWAP1 POP PUSH2 0x5FC JUMP JUMPDEST POP DUP6 SWAP4 POP POP POP POP SWAP3 SWAP2 POP POP JUMP JUMPDEST PUSH0 PUSH1 0x20 DUP3 ADD SWAP1 POP DUP2 DUP2 SUB PUSH0 DUP4 ADD MSTORE PUSH2 0x64E DUP2 DUP5 PUSH2 0x5DA JUMP JUMPDEST SWAP1 POP SWAP3 SWAP2 POP POP JUMP JUMPDEST PUSH0 DUP2 ISZERO ISZERO SWAP1 POP SWAP2 SWAP1 POP JUMP JUMPDEST PUSH2 0x66A DUP2 PUSH2 0x656 JUMP JUMPDEST DUP3 MSTORE POP POP JUMP JUMPDEST PUSH0 PUSH1 0x20 DUP3 ADD SWAP1 POP PUSH2 0x683 PUSH0 DUP4 ADD DUP5 PUSH2 0x661 JUMP JUMPDEST SWAP3 SWAP2 POP POP JUMP JUMPDEST PUSH0 DUP3 DUP3 MSTORE PUSH1 0x20 DUP3 ADD SWAP1 POP SWAP3 SWAP2 POP POP JUMP JUMPDEST PUSH32 0x4C6120766F746163696F6E206E6F206573746120616269657274610000000000 PUSH0 DUP3 ADD MSTORE POP JUMP JUMPDEST PUSH0 PUSH2 0x6CD PUSH1 0x1B DUP4 PUSH2 0x689 JUMP JUMPDEST SWAP2 POP PUSH2 0x6D8 DUP3 PUSH2 0x699 JUMP JUMPDEST PUSH1 0x20 DUP3 ADD SWAP1 POP SWAP2 SWAP1 POP JUMP JUMPDEST PUSH0 PUSH1 0x20 DUP3 ADD SWAP1 POP DUP2 DUP2 SUB PUSH0 DUP4 ADD MSTORE PUSH2 0x6FA DUP2 PUSH2 0x6C1 JUMP JUMPDEST SWAP1 POP SWAP2 SWAP1 POP JUMP JUMPDEST PUSH32 0x4964656E746966696361646F72206465207061727469646F206E6F2076616C69 PUSH0 DUP3 ADD MSTORE PUSH32 0x646F000000000000000000000000000000000000000000000000000000000000 PUSH1 0x20 DUP3 ADD MSTORE POP JUMP JUMPDEST PUSH0 PUSH2 0x75B PUSH1 0x22 DUP4 PUSH2 0x689 JUMP JUMPDEST SWAP2 POP PUSH2 0x766 DUP3 PUSH2 0x701 JUMP JUMPDEST PUSH1 0x40 DUP3 ADD SWAP1 POP SWAP2 SWAP1 POP JUMP JUMPDEST PUSH0 PUSH1 0x20 DUP3 ADD SWAP1 POP DUP2 DUP2 SUB PUSH0 DUP4 ADD MSTORE PUSH2 0x788 DUP2 PUSH2 0x74F JUMP JUMPDEST SWAP1 POP SWAP2 SWAP1 POP JUMP JUMPDEST PUSH32 0x4C6120766F746163696F6E2061756E206E6F206861207465726D696E61646F00 PUSH0 DUP3 ADD MSTORE POP JUMP JUMPDEST PUSH0 PUSH2 0x7C3 PUSH1 0x1F DUP4 PUSH2 0x689 JUMP JUMPDEST SWAP2 POP PUSH2 0x7CE DUP3 PUSH2 0x78F JUMP JUMPDEST PUSH1 0x20 DUP3 ADD SWAP1 POP SWAP2 SWAP1 POP JUMP JUMPDEST PUSH0 PUSH1 0x20 DUP3 ADD SWAP1 POP DUP2 DUP2 SUB PUSH0 DUP4 ADD MSTORE PUSH2 0x7F0 DUP2 PUSH2 0x7B7 JUMP JUMPDEST SWAP1 POP SWAP2 SWAP1 POP JUMP JUMPDEST PUSH32 0x536F6C6F20656C20707265736964656E74652070756564652068616365722065 PUSH0 DUP3 ADD MSTORE PUSH32 0x73746F0000000000000000000000000000000000000000000000000000000000 PUSH1 0x20 DUP3 ADD MSTORE POP JUMP JUMPDEST PUSH0 PUSH2 0x851 PUSH1 0x23 DUP4 PUSH2 0x689 JUMP JUMPDEST SWAP2 POP PUSH2 0x85C DUP3 PUSH2 0x7F7 JUMP JUMPDEST PUSH1 0x40 DUP3 ADD SWAP1 POP SWAP2 SWAP1 POP JUMP JUMPDEST PUSH0 PUSH1 0x20 DUP3 ADD SWAP1 POP DUP2 DUP2 SUB PUSH0 DUP4 ADD MSTORE PUSH2 0x87E DUP2 PUSH2 0x845 JUMP JUMPDEST SWAP1 POP SWAP2 SWAP1 POP JUMP JUMPDEST PUSH32 0x4C6120766F746163696F6E2079612066696E616C697A6F000000000000000000 PUSH0 DUP3 ADD MSTORE POP JUMP JUMPDEST PUSH0 PUSH2 0x8B9 PUSH1 0x17 DUP4 PUSH2 0x689 JUMP JUMPDEST SWAP2 POP PUSH2 0x8C4 DUP3 PUSH2 0x885 JUMP JUMPDEST PUSH1 0x20 DUP3 ADD SWAP1 POP SWAP2 SWAP1 POP JUMP JUMPDEST PUSH0 PUSH1 0x20 DUP3 ADD SWAP1 POP DUP2 DUP2 SUB PUSH0 DUP4 ADD MSTORE PUSH2 0x8E6 DUP2 PUSH2 0x8AD JUMP JUMPDEST SWAP1 POP SWAP2 SWAP1 POP JUMP JUMPDEST PUSH32 0x4E487B7100000000000000000000000000000000000000000000000000000000 PUSH0 MSTORE PUSH1 0x32 PUSH1 0x4 MSTORE PUSH1 0x24 PUSH0 REVERT JUMPDEST PUSH32 0x4E487B7100000000000000000000000000000000000000000000000000000000 PUSH0 MSTORE PUSH1 0x11 PUSH1 0x4 MSTORE PUSH1 0x24 PUSH0 REVERT JUMPDEST PUSH0 PUSH2 0x951 DUP3 PUSH2 0x521 JUMP JUMPDEST SWAP2 POP PUSH2 0x95C DUP4 PUSH2 0x521 JUMP JUMPDEST SWAP3 POP DUP3 DUP3 ADD SWAP1 POP DUP1 DUP3 GT ISZERO PUSH2 0x974 JUMPI PUSH2 0x973 PUSH2 0x91A JUMP JUMPDEST JUMPDEST SWAP3 SWAP2 POP POP JUMP INVALID LOG2 PUSH5 0x6970667358 0x22 SLT KECCAK256 0xCE PUSH2 0x2708 KECCAK256 0x28 CREATE SSTORE 0xD9 DUP7 SLT DUP1 LOG4 SIGNEXTEND PUSH28 0xC8A320E37EC7842EBC98081380AFBFDC8A64736F6C634300081F0033 "
				},
				"gasEstimates": {
					"creation": {
						"codeDepositCost": "496000",
						"executionCost": "infinite",
						"totalCost": "infinite"
					},
					"external": {
						"castVote(uint256)": "infinite",
						"closeVoting()": "51030",
						"getResults()": "infinite",
						"openVoting()": "28898",
						"president()": "2485",
						"votingFinished()": "2560"
					}
				},
				"methodIdentifiers": {
					"castVote(uint256)": "3eb76b9c",
					"closeVoting()": "c631b292",
					"getResults()": "4717f97c",
					"openVoting()": "affc0670",
					"president()": "324a1376",
					"votingFinished()": "789d9e8a"
				}
			},
			"storageLayout": {
				"storage": [
					{
						"astId": 189,
						"contract": "lab3/DhondtPollingStation.sol:DhondtPollingStation",
						"label": "president",
						"offset": 0,
						"slot": "0",
						"type": "t_address"
					},
					{
						"astId": 192,
						"contract": "lab3/DhondtPollingStation.sol:DhondtPollingStation",
						"label": "votingFinished",
						"offset": 20,
						"slot": "0",
						"type": "t_bool"
					},
					{
						"astId": 195,
						"contract": "lab3/DhondtPollingStation.sol:DhondtPollingStation",
						"label": "votingOpen",
						"offset": 21,
						"slot": "0",
						"type": "t_bool"
					},
					{
						"astId": 3,
						"contract": "lab3/DhondtPollingStation.sol:DhondtPollingStation",
						"label": "regionId",
						"offset": 0,
						"slot": "1",
						"type": "t_uint256"
					},
					{
						"astId": 7,
						"contract": "lab3/DhondtPollingStation.sol:DhondtPollingStation",
						"label": "weights",
						"offset": 0,
						"slot": "2",
						"type": "t_mapping(t_uint256,t_uint256)"
					},
					{
						"astId": 10,
						"contract": "lab3/DhondtPollingStation.sol:DhondtPollingStation",
						"label": "results",
						"offset": 0,
						"slot": "3",
						"type": "t_array(t_uint256)dyn_storage"
					}
				],
				"types": {
					"t_address": {
						"encoding": "inplace",
						"label": "address",
						"numberOfBytes": "20"
					},
					"t_array(t_uint256)dyn_storage": {
						"base": "t_uint256",
						"encoding": "dynamic_array",
						"label": "uint256[]",
						"numberOfBytes": "32"
					},
					"t_bool": {
						"encoding": "inplace",
						"label": "bool",
						"numberOfBytes": "1"
					},
					"t_mapping(t_uint256,t_uint256)": {
						"encoding": "mapping",
						"key": "t_uint256",
						"label": "mapping(uint256 => uint256)",
						"numberOfBytes": "32",
						"value": "t_uint256"
					},
					"t_uint256": {
						"encoding": "inplace",
						"label": "uint256",
						"numberOfBytes": "32"
					}
				}
			},
			"userdoc": {
				"kind": "user",
				"methods": {},
				"version": 1
			}
		}
	}
}