{
	"lab2/hello.sol": {
		"hello": {
			"abi": [
				{
					"anonymous": false,
					"inputs": [
						{
							"indexed": false,
							"internalType": "string",
							"name": "message",
							"type": "string"
						}
					],
					"name": "Print",
					"type": "event"
				},
				{
					"inputs": [
						{
							"internalType": "uint256",
							"name": "n",
							"type": "uint256"
						}
					],
					"name": "factorial",
					"outputs": [
						{
							"internalType": "uint256",
							"name": "",
							"type": "uint256"
						}
					],
					"stateMutability": "pure",
					"type": "function"
				},
				{
					"inputs": [],
					"name": "helloWorld",
					"outputs": [],
					"stateMutability": "nonpayable",
					"type": "function"
				}
			],
			"devdoc": {
				"kind": "dev",
				"methods": {},
				"version": 1
			},
			"evm": {
				"assembly": "    /* \"lab2/hello.sol\":64:441  contract hello {... */\n  mstore(0x40, 0x80)\n  callvalue\n  dup1\n  iszero\n  tag_1\n  jumpi\n  revert(0x00, 0x00)\ntag_1:\n  pop\n  dataSize(sub_0)\n  dup1\n  dataOffset(sub_0)\n  0x00\n  codecopy\n  0x00\n  return\nstop\n\nsub_0: assembly {\n        /* \"lab2/hello.sol\":64:441  contract hello {... */\n      mstore(0x40, 0x80)\n      callvalue\n      dup1\n      iszero\n      tag_1\n      jumpi\n      revert(0x00, 0x00)\n    tag_1:\n      pop\n      jumpi(tag_2, lt(calldatasize, 0x04))\n      shr(0xe0, calldataload(0x00))\n      dup1\n      0x83714834\n      eq\n      tag_3\n      jumpi\n      dup1\n      0xc605f76c\n      eq\n      tag_4\n      jumpi\n    tag_2:\n      revert(0x00, 0x00)\n        /* \"lab2/hello.sol\":226:438  function factorial(uint n) public pure returns (uint) {... */\n    tag_3:\n      tag_5\n      0x04\n      dup1\n      calldatasize\n      sub\n      dup2\n      add\n      swap1\n      tag_6\n      swap2\n      swap1\n      tag_7\n      jump\t// in\n    tag_6:\n      tag_8\n      jump\t// in\n    tag_5:\n      mload(0x40)\n      tag_9\n      swap2\n      swap1\n      tag_10\n      jump\t// in\n    tag_9:\n      mload(0x40)\n      dup1\n      swap2\n      sub\n      swap1\n      return\n        /* \"lab2/hello.sol\":123:198  function helloWorld() public {... */\n    tag_4:\n      tag_11\n      tag_12\n      jump\t// in\n    tag_11:\n      stop\n        /* \"lab2/hello.sol\":226:438  function factorial(uint n) public pure returns (uint) {... */\n    tag_8:\n        /* \"lab2/hello.sol\":274:278  uint */\n      0x00\n        /* \"lab2/hello.sol\":300:301  0 */\n      0x00\n        /* \"lab2/hello.sol\":295:296  n */\n      dup3\n        /* \"lab2/hello.sol\":295:301  n == 0 */\n      sub\n        /* \"lab2/hello.sol\":291:311  if (n == 0) return 1 */\n      tag_14\n      jumpi\n        /* \"lab2/hello.sol\":310:311  1 */\n      0x01\n        /* \"lab2/hello.sol\":303:311  return 1 */\n      swap1\n      pop\n      jump(tag_13)\n        /* \"lab2/hello.sol\":291:311  if (n == 0) return 1 */\n    tag_14:\n        /* \"lab2/hello.sol\":322:330  uint res */\n      0x00\n        /* \"lab2/hello.sol\":333:334  1 */\n      0x01\n        /* \"lab2/hello.sol\":322:334  uint res = 1 */\n      swap1\n      pop\n        /* \"lab2/hello.sol\":350:356  uint i */\n      0x00\n        /* \"lab2/hello.sol\":359:360  1 */\n      0x01\n        /* \"lab2/hello.sol\":350:360  uint i = 1 */\n      swap1\n      pop\n        /* \"lab2/hello.sol\":345:410  for (uint i = 1; i <= n; i++) {... */\n    tag_15:\n        /* \"lab2/hello.sol\":367:368  n */\n      dup4\n        /* \"lab2/hello.sol\":362:363  i */\n      dup2\n        /* \"lab2/hello.sol\":362:368  i <= n */\n      gt\n        /* \"lab2/hello.sol\":345:410  for (uint i = 1; i <= n; i++) {... */\n      tag_16\n      jumpi\n        /* \"lab2/hello.sol\":397:398  i */\n      dup1\n        /* \"lab2/hello.sol\":390:398  res *= i */\n      dup3\n      tag_18\n      swap2\n      swap1\n      tag_19\n      jump\t// in\n    tag_18:\n      swap2\n      pop\n        /* \"lab2/hello.sol\":370:373  i++ */\n      dup1\n      dup1\n      tag_20\n      swap1\n      tag_21\n      jump\t// in\n    tag_20:\n      swap2\n      pop\n      pop\n        /* \"lab2/hello.sol\":345:410  for (uint i = 1; i <= n; i++) {... */\n      jump(tag_15)\n    tag_16:\n      pop\n        /* \"lab2/hello.sol\":427:430  res */\n      dup1\n        /* \"lab2/hello.sol\":420:430  return res */\n      swap2\n      pop\n      pop\n        /* \"lab2/hello.sol\":226:438  function factorial(uint n) public pure returns (uint) {... */\n    tag_13:\n      swap2\n      swap1\n      pop\n      jump\t// out\n        /* \"lab2/hello.sol\":123:198  function helloWorld() public {... */\n    tag_12:\n        /* \"lab2/hello.sol\":168:190  Print(\"Hello, World!\") */\n      0x241ba3bafc919fb4308284ce03a8f4867a8ec2f0401445d3cf41a468e7db4ae0\n      mload(0x40)\n      tag_23\n      swap1\n      tag_24\n      jump\t// in\n    tag_23:\n      mload(0x40)\n      dup1\n      swap2\n      sub\n      swap1\n      log1\n        /* \"lab2/hello.sol\":123:198  function helloWorld() public {... */\n      jump\t// out\n        /* \"#utility.yul\":88:205   */\n    tag_26:\n        /* \"#utility.yul\":197:198   */\n      0x00\n        /* \"#utility.yul\":194:195   */\n      0x00\n        /* \"#utility.yul\":187:199   */\n      revert\n        /* \"#utility.yul\":334:411   */\n    tag_28:\n        /* \"#utility.yul\":371:378   */\n      0x00\n        /* \"#utility.yul\":400:405   */\n      dup2\n        /* \"#utility.yul\":389:405   */\n      swap1\n      pop\n        /* \"#utility.yul\":334:411   */\n      swap2\n      swap1\n      pop\n      jump\t// out\n        /* \"#utility.yul\":417:539   */\n    tag_29:\n        /* \"#utility.yul\":490:514   */\n      tag_42\n        /* \"#utility.yul\":508:513   */\n      dup2\n        /* \"#utility.yul\":490:514   */\n      tag_28\n      jump\t// in\n    tag_42:\n        /* \"#utility.yul\":483:488   */\n      dup2\n        /* \"#utility.yul\":480:515   */\n      eq\n        /* \"#utility.yul\":470:533   */\n      tag_43\n      jumpi\n        /* \"#utility.yul\":529:530   */\n      0x00\n        /* \"#utility.yul\":526:527   */\n      0x00\n        /* \"#utility.yul\":519:531   */\n      revert\n        /* \"#utility.yul\":470:533   */\n    tag_43:\n        /* \"#utility.yul\":417:539   */\n      pop\n      jump\t// out\n        /* \"#utility.yul\":545:684   */\n    tag_30:\n        /* \"#utility.yul\":591:596   */\n      0x00\n        /* \"#utility.yul\":629:635   */\n      dup2\n        /* \"#utility.yul\":616:636   */\n      calldataload\n        /* \"#utility.yul\":607:636   */\n      swap1\n      pop\n        /* \"#utility.yul\":645:678   */\n      tag_45\n        /* \"#utility.yul\":672:677   */\n      dup2\n        /* \"#utility.yul\":645:678   */\n      tag_29\n      jump\t// in\n    tag_45:\n        /* \"#utility.yul\":545:684   */\n      swap3\n      swap2\n      pop\n      pop\n      jump\t// out\n        /* \"#utility.yul\":690:1019   */\n    tag_7:\n        /* \"#utility.yul\":749:755   */\n      0x00\n        /* \"#utility.yul\":798:800   */\n      0x20\n        /* \"#utility.yul\":786:795   */\n      dup3\n        /* \"#utility.yul\":777:784   */\n      dup5\n        /* \"#utility.yul\":773:796   */\n      sub\n        /* \"#utility.yul\":769:801   */\n      slt\n        /* \"#utility.yul\":766:885   */\n      iszero\n      tag_47\n      jumpi\n        /* \"#utility.yul\":804:883   */\n      tag_48\n      tag_26\n      jump\t// in\n    tag_48:\n        /* \"#utility.yul\":766:885   */\n    tag_47:\n        /* \"#utility.yul\":924:925   */\n      0x00\n        /* \"#utility.yul\":949:1002   */\n      tag_49\n        /* \"#utility.yul\":994:1001   */\n      dup5\n        /* \"#utility.yul\":985:991   */\n      dup3\n        /* \"#utility.yul\":974:983   */\n      dup6\n        /* \"#utility.yul\":970:992   */\n      add\n        /* \"#utility.yul\":949:1002   */\n      tag_30\n      jump\t// in\n    tag_49:\n        /* \"#utility.yul\":939:1002   */\n      swap2\n      pop\n        /* \"#utility.yul\":895:1012   */\n      pop\n        /* \"#utility.yul\":690:1019   */\n      swap3\n      swap2\n      pop\n      pop\n      jump\t// out\n        /* \"#utility.yul\":1025:1143   */\n    tag_31:\n        /* \"#utility.yul\":1112:1136   */\n      tag_51\n        /* \"#utility.yul\":1130:1135   */\n      dup2\n        /* \"#utility.yul\":1112:1136   */\n      tag_28\n      jump\t// in\n    tag_51:\n        /* \"#utility.yul\":1107:1110   */\n      dup3\n        /* \"#utility.yul\":1100:1137   */\n      mstore\n        /* \"#utility.yul\":1025:1143   */\n      pop\n      pop\n      jump\t// out\n        /* \"#utility.yul\":1149:1371   */\n    tag_10:\n        /* \"#utility.yul\":1242:1246   */\n      0x00\n        /* \"#utility.yul\":1280:1282   */\n      0x20\n        /* \"#utility.yul\":1269:1278   */\n      dup3\n        /* \"#utility.yul\":1265:1283   */\n      add\n        /* \"#utility.yul\":1257:1283   */\n      swap1\n      pop\n        /* \"#utility.yul\":1293:1364   */\n      tag_53\n        /* \"#utility.yul\":1361:1362   */\n      0x00\n        /* \"#utility.yul\":1350:1359   */\n      dup4\n        /* \"#utility.yul\":1346:1363   */\n      add\n        /* \"#utility.yul\":1337:1343   */\n      dup5\n        /* \"#utility.yul\":1293:1364   */\n      tag_31\n      jump\t// in\n    tag_53:\n        /* \"#utility.yul\":1149:1371   */\n      swap3\n      swap2\n      pop\n      pop\n      jump\t// out\n        /* \"#utility.yul\":1377:1557   */\n    tag_32:\n        /* \"#utility.yul\":1425:1502   */\n      0x4e487b7100000000000000000000000000000000000000000000000000000000\n        /* \"#utility.yul\":1422:1423   */\n      0x00\n        /* \"#utility.yul\":1415:1503   */\n      mstore\n        /* \"#utility.yul\":1522:1526   */\n      0x11\n        /* \"#utility.yul\":1519:1520   */\n      0x04\n        /* \"#utility.yul\":1512:1527   */\n      mstore\n        /* \"#utility.yul\":1546:1550   */\n      0x24\n        /* \"#utility.yul\":1543:1544   */\n      0x00\n        /* \"#utility.yul\":1536:1551   */\n      revert\n        /* \"#utility.yul\":1563:1973   */\n    tag_19:\n        /* \"#utility.yul\":1603:1610   */\n      0x00\n        /* \"#utility.yul\":1626:1646   */\n      tag_56\n        /* \"#utility.yul\":1644:1645   */\n      dup3\n        /* \"#utility.yul\":1626:1646   */\n      tag_28\n      jump\t// in\n    tag_56:\n        /* \"#utility.yul\":1621:1646   */\n      swap2\n      pop\n        /* \"#utility.yul\":1660:1680   */\n      tag_57\n        /* \"#utility.yul\":1678:1679   */\n      dup4\n        /* \"#utility.yul\":1660:1680   */\n      tag_28\n      jump\t// in\n    tag_57:\n        /* \"#utility.yul\":1655:1680   */\n      swap3\n      pop\n        /* \"#utility.yul\":1715:1716   */\n      dup3\n        /* \"#utility.yul\":1712:1713   */\n      dup3\n        /* \"#utility.yul\":1708:1717   */\n      mul\n        /* \"#utility.yul\":1737:1767   */\n      tag_58\n        /* \"#utility.yul\":1755:1766   */\n      dup2\n        /* \"#utility.yul\":1737:1767   */\n      tag_28\n      jump\t// in\n    tag_58:\n        /* \"#utility.yul\":1726:1767   */\n      swap2\n      pop\n        /* \"#utility.yul\":1916:1917   */\n      dup3\n        /* \"#utility.yul\":1907:1914   */\n      dup3\n        /* \"#utility.yul\":1903:1918   */\n      div\n        /* \"#utility.yul\":1900:1901   */\n      dup5\n        /* \"#utility.yul\":1897:1919   */\n      eq\n        /* \"#utility.yul\":1877:1878   */\n      dup4\n        /* \"#utility.yul\":1870:1879   */\n      iszero\n        /* \"#utility.yul\":1850:1933   */\n      or\n        /* \"#utility.yul\":1827:1966   */\n      tag_59\n      jumpi\n        /* \"#utility.yul\":1946:1964   */\n      tag_60\n      tag_32\n      jump\t// in\n    tag_60:\n        /* \"#utility.yul\":1827:1966   */\n    tag_59:\n        /* \"#utility.yul\":1611:1973   */\n      pop\n        /* \"#utility.yul\":1563:1973   */\n      swap3\n      swap2\n      pop\n      pop\n      jump\t// out\n        /* \"#utility.yul\":1979:2212   */\n    tag_21:\n        /* \"#utility.yul\":2018:2021   */\n      0x00\n        /* \"#utility.yul\":2041:2065   */\n      tag_62\n        /* \"#utility.yul\":2059:2064   */\n      dup3\n        /* \"#utility.yul\":2041:2065   */\n      tag_28\n      jump\t// in\n    tag_62:\n        /* \"#utility.yul\":2032:2065   */\n      swap2\n      pop\n        /* \"#utility.yul\":2087:2153   */\n      0xffffffffffffffffffffffffffffffffffffffffffffffffffffffffffffffff\n        /* \"#utility.yul\":2080:2085   */\n      dup3\n        /* \"#utility.yul\":2077:2154   */\n      sub\n        /* \"#utility.yul\":2074:2177   */\n      tag_63\n      jumpi\n        /* \"#utility.yul\":2157:2175   */\n      tag_64\n      tag_32\n      jump\t// in\n    tag_64:\n        /* \"#utility.yul\":2074:2177   */\n    tag_63:\n        /* \"#utility.yul\":2204:2205   */\n      0x01\n        /* \"#utility.yul\":2197:2202   */\n      dup3\n        /* \"#utility.yul\":2193:2206   */\n      add\n        /* \"#utility.yul\":2186:2206   */\n      swap1\n      pop\n        /* \"#utility.yul\":1979:2212   */\n      swap2\n      swap1\n      pop\n      jump\t// out\n        /* \"#utility.yul\":2218:2387   */\n    tag_33:\n        /* \"#utility.yul\":2302:2313   */\n      0x00\n        /* \"#utility.yul\":2336:2342   */\n      dup3\n        /* \"#utility.yul\":2331:2334   */\n      dup3\n        /* \"#utility.yul\":2324:2343   */\n      mstore\n        /* \"#utility.yul\":2376:2380   */\n      0x20\n        /* \"#utility.yul\":2371:2374   */\n      dup3\n        /* \"#utility.yul\":2367:2381   */\n      add\n        /* \"#utility.yul\":2352:2381   */\n      swap1\n      pop\n        /* \"#utility.yul\":2218:2387   */\n      swap3\n      swap2\n      pop\n      pop\n      jump\t// out\n        /* \"#utility.yul\":2393:2556   */\n    tag_34:\n        /* \"#utility.yul\":2533:2548   */\n      0x48656c6c6f2c20576f726c642100000000000000000000000000000000000000\n        /* \"#utility.yul\":2529:2530   */\n      0x00\n        /* \"#utility.yul\":2521:2527   */\n      dup3\n        /* \"#utility.yul\":2517:2531   */\n      add\n        /* \"#utility.yul\":2510:2549   */\n      mstore\n        /* \"#utility.yul\":2393:2556   */\n      pop\n      jump\t// out\n        /* \"#utility.yul\":2562:2928   */\n    tag_35:\n        /* \"#utility.yul\":2704:2707   */\n      0x00\n        /* \"#utility.yul\":2725:2792   */\n      tag_68\n        /* \"#utility.yul\":2789:2791   */\n      0x0d\n        /* \"#utility.yul\":2784:2787   */\n      dup4\n        /* \"#utility.yul\":2725:2792   */\n      tag_33\n      jump\t// in\n    tag_68:\n        /* \"#utility.yul\":2718:2792   */\n      swap2\n      pop\n        /* \"#utility.yul\":2801:2894   */\n      tag_69\n        /* \"#utility.yul\":2890:2893   */\n      dup3\n        /* \"#utility.yul\":2801:2894   */\n      tag_34\n      jump\t// in\n    tag_69:\n        /* \"#utility.yul\":2919:2921   */\n      0x20\n        /* \"#utility.yul\":2914:2917   */\n      dup3\n        /* \"#utility.yul\":2910:2922   */\n      add\n        /* \"#utility.yul\":2903:2922   */\n      swap1\n      pop\n        /* \"#utility.yul\":2562:2928   */\n      swap2\n      swap1\n      pop\n      jump\t// out\n        /* \"#utility.yul\":2934:3353   */\n    tag_24:\n        /* \"#utility.yul\":3100:3104   */\n      0x00\n        /* \"#utility.yul\":3138:3140   */\n      0x20\n        /* \"#utility.yul\":3127:3136   */\n      dup3\n        /* \"#utility.yul\":3123:3141   */\n      add\n        /* \"#utility.yul\":3115:3141   */\n      swap1\n      pop\n        /* \"#utility.yul\":3187:3196   */\n      dup2\n        /* \"#utility.yul\":3181:3185   */\n      dup2\n        /* \"#utility.yul\":3177:3197   */\n      sub\n        /* \"#utility.yul\":3173:3174   */\n      0x00\n        /* \"#utility.yul\":3162:3171   */\n      dup4\n        /* \"#utility.yul\":3158:3175   */\n      add\n        /* \"#utility.yul\":3151:3198   */\n      mstore\n        /* \"#utility.yul\":3215:3346   */\n      tag_71\n        /* \"#utility.yul\":3341:3345   */\n      dup2\n        /* \"#utility.yul\":3215:3346   */\n      tag_35\n      jump\t// in\n    tag_71:\n        /* \"#utility.yul\":3207:3346   */\n      swap1\n      pop\n        /* \"#utility.yul\":2934:3353   */\n      swap2\n      swap1\n      pop\n      jump\t// out\n\n    auxdata: 0xa2646970667358221220e8c5f92ac6afa7e9fb5e5799d3697a07cc9971184100b9e3fb81585198f8d2e364736f6c634300081f0033\n}\n",
				"bytecode": {
					"linkReferences": {},
					"object": "6080604052348015600e575f5ffd5b506102e58061001c5f395ff3fe608060405234801561000f575f5ffd5b5060043610610034575f3560e01c80638371483414610038578063c605f76c14610068575b5f5ffd5b610052600480360381019061004d919061012f565b610072565b60405161005f9190610169565b60405180910390f35b6100706100c1565b005b5f5f820361008357600190506100bc565b5f600190505f600190505b8381116100b65780826100a191906101af565b915080806100ae906101f0565b91505061008e565b50809150505b919050565b7f241ba3bafc919fb4308284ce03a8f4867a8ec2f0401445d3cf41a468e7db4ae06040516100ee90610291565b60405180910390a1565b5f5ffd5b5f819050919050565b61010e816100fc565b8114610118575f5ffd5b50565b5f8135905061012981610105565b92915050565b5f60208284031215610144576101436100f8565b5b5f6101518482850161011b565b91505092915050565b610163816100fc565b82525050565b5f60208201905061017c5f83018461015a565b92915050565b7f4e487b71000000000000000000000000000000000000000000000000000000005f52601160045260245ffd5b5f6101b9826100fc565b91506101c4836100fc565b92508282026101d2816100fc565b915082820484148315176101e9576101e8610182565b5b5092915050565b5f6101fa826100fc565b91507fffffffffffffffffffffffffffffffffffffffffffffffffffffffffffffffff820361022c5761022b610182565b5b600182019050919050565b5f82825260208201905092915050565b7f48656c6c6f2c20576f726c6421000000000000000000000000000000000000005f82015250565b5f61027b600d83610237565b915061028682610247565b602082019050919050565b5f6020820190508181035f8301526102a88161026f565b905091905056fea2646970667358221220e8c5f92ac6afa7e9fb5e5799d3697a07cc9971184100b9e3fb81585198f8d2e364736f6c634300081f0033",
					"opcodes": "PUSH1 0x80 PUSH1 0x40 MSTORE CALLVALUE DUP1 ISZERO PUSH1 0xE JUMPI PUSH0 PUSH0 REVERT JUMPDEST POP PUSH2 0x2E5 DUP1 PUSH2 0x1C PUSH0 CODECOPY PUSH0 RETURN INVALID PUSH1 0x80 PUSH1 0x40 MSTORE CALLVALUE DUP1 ISZERO PUSH2 0xF JUMPI PUSH0 PUSH0 REVERT JUMPDEST POP PUSH1 0x4 CALLDATASIZE LT PUSH2 0x34 JUMPI PUSH0 CALLDATALOAD PUSH1 0xE0 SHR DUP1 PUSH4 0x83714834 EQ PUSH2 0x38 JUMPI DUP1 PUSH4 0xC605F76C EQ PUSH2 0x68 JUMPI JUMPDEST PUSH0 PUSH0 REVERT JUMPDEST PUSH2 0x52 PUSH1 0x4 DUP1 CALLDATASIZE SUB DUP2 ADD SWAP1 PUSH2 0x4D SWAP2 SWAP1 PUSH2 0x12F JUMP JUMPDEST PUSH2 0x72 JUMP JUMPDEST PUSH1 0x40 MLOAD PUSH2 0x5F SWAP2 SWAP1 PUSH2 0x169 JUMP JUMPDEST PUSH1 0x40 MLOAD DUP1 SWAP2 SUB SWAP1 RETURN JUMPDEST PUSH2 0x70 PUSH2 0xC1 JUMP JUMPDEST STOP JUMPDEST PUSH0 PUSH0 DUP3 SUB PUSH2 0x83 JUMPI PUSH1 0x1 SWAP1 POP PUSH2 0xBC JUMP JUMPDEST PUSH0 PUSH1 0x1 SWAP1 POP PUSH0 PUSH1 0x1 SWAP1 POP JUMPDEST DUP4 DUP2 GT PUSH2 0xB6 JUMPI DUP1 DUP3 PUSH2 0xA1 SWAP2 SWAP1 PUSH2 0x1AF JUMP JUMPDEST SWAP2 POP DUP1 DUP1 PUSH2 0xAE SWAP1 PUSH2 0x1F0 JUMP JUMPDEST SWAP2 POP POP PUSH2 0x8E JUMP JUMPDEST POP DUP1 SWAP2 POP POP JUMPDEST SWAP2 SWAP1 POP JUMP JUMPDEST PUSH32 0x241BA3BAFC919FB4308284CE03A8F4867A8EC2F0401445D3CF41A468E7DB4AE0 PUSH1 0x40 MLOAD PUSH2 0xEE SWAP1 PUSH2 0x291 JUMP JUMPDEST PUSH1 0x40 MLOAD DUP1 SWAP2 SUB SWAP1 LOG1 JUMP JUMPDEST PUSH0 PUSH0 REVERT JUMPDEST PUSH0 DUP2 SWAP1 POP SWAP2 SWAP1 POP JUMP JUMPDEST PUSH2 0x10E DUP2 PUSH2 0xFC JUMP JUMPDEST DUP2 EQ PUSH2 0x118 JUMPI PUSH0 PUSH0 REVERT JUMPDEST POP JUMP JUMPDEST PUSH0 DUP2 CALLDATALOAD SWAP1 POP PUSH2 0x129 DUP2 PUSH2 0x105 JUMP JUMPDEST SWAP3 SWAP2 POP POP JUMP JUMPDEST PUSH0 PUSH1 0x20 DUP3 DUP5 SUB SLT ISZERO PUSH2 0x144 JUMPI PUSH2 0x143 PUSH2 0xF8 JUMP JUMPDEST JUMPDEST PUSH0 PUSH2 0x151 DUP5 DUP3 DUP6 ADD PUSH2 0x11B JUMP JUMPDEST SWAP2 POP POP SWAP3 SWAP2 POP POP JUMP JUMPDEST PUSH2 0x163 DUP2 PUSH2 0xFC JUMP JUMPDEST DUP3 MSTORE POP POP JUMP JUMPDEST PUSH0 PUSH1 0x20 DUP3 ADD SWAP1 POP PUSH2 0x17C PUSH0 DUP4 ADD DUP5 PUSH2 0x15A JUMP JUMPDEST SWAP3 SWAP2 POP POP JUMP JUMPDEST PUSH32 0x4E487B7100000000000000000000000000000000000000000000000000000000 PUSH0 MSTORE PUSH1 0x11 PUSH1 0x4 MSTORE PUSH1 0x24 PUSH0 REVERT JUMPDEST PUSH0 PUSH2 0x1B9 DUP3 PUSH2 0xFC JUMP JUMPDEST SWAP2 POP PUSH2 0x1C4 DUP4 PUSH2 0xFC JUMP JUMPDEST SWAP3 POP DUP3 DUP3 MUL PUSH2 0x1D2 DUP2 PUSH2 0xFC JUMP JUMPDEST SWAP2 POP DUP3 DUP3 DIV DUP5 EQ DUP4 ISZERO OR PUSH2 0x1E9 JUMPI PUSH2 0x1E8 PUSH2 0x182 JUMP JUMPDEST JUMPDEST POP SWAP3 SWAP2 POP POP JUMP JUMPDEST PUSH0 PUSH2 0x1FA DUP3 PUSH2 0xFC JUMP JUMPDEST SWAP2 POP PUSH32 0xFFFFFFFFFFFFFFFFFFFFFFFFFFFFFFFFFFFFFFFFFFFFFFFFFFFFFFFFFFFFFFFF DUP3 SUB PUSH2 0x22C JUMPI PUSH2 0x22B PUSH2 0x182 JUMP JUMPDEST JUMPDEST PUSH1 0x1 DUP3 ADD SWAP1 POP SWAP2 SWAP1 POP JUMP JUMPDEST PUSH0 DUP3 DUP3 MSTORE PUSH1 0x20 DUP3 ADD SWAP1 POP SWAP3 SWAP2 POP POP JUMP JUMPDEST PUSH32 0x48656C6C6F2C20576F726C642100000000000000000000000000000000000000 PUSH0 DUP3 ADD MSTORE POP JUMP JUMPDEST PUSH0 PUSH2 0x27B PUSH1 0xD DUP4 PUSH2 0x237 JUMP JUMPDEST SWAP2 POP PUSH2 0x286 DUP3 PUSH2 0x247 JUMP JUMPDEST PUSH1 0x20 DUP3 ADD SWAP1 POP SWAP2 SWAP1 POP JUMP JUMPDEST PUSH0 PUSH1 0x20 DUP3 ADD SWAP1 POP DUP2 DUP2 SUB PUSH0 DUP4 ADD MSTORE PUSH2 0x2A8 DUP2 PUSH2 0x26F JUMP JUMPDEST SWAP1 POP SWAP2 SWAP1 POP JUMP INVALID LOG2 PUSH5 0x6970667358 0x22 SLT KECCAK256 0xE8 0xC5 EXTDELEGATECALL 0x2A 0xC6 0xAF 0xA7 0xE9 EXTSTATICCALL MCOPY JUMPI SWAP10 0xD3 PUSH10 0x7A07CC9971184100B9E3 EXTSTATICCALL DUP2 PC MLOAD SWAP9 EXTCALL 0xD2 CALLF 0x6473 PUSH16 0x6C634300081F00330000000000000000 "
				},
				"gasEstimates": {
					"creation": {
						"codeDepositCost": "148200",
						"executionCost": "194",
						"totalCost": "148394"
					},
					"external": {
						"factorial(uint256)": "infinite",
						"helloWorld()": "1940"
					}
				},
				"methodIdentifiers": {
					"factorial(uint256)": "83714834",
					"helloWorld()": "c605f76c"
				}
			},
			"storageLayout": {
				"storage": [],
				"types": null
			},
			"userdoc": {
				"kind": "user",
				"methods": {},
				"version": 1
			}
		}
	}
}