{
	"lab3/Election.sol": {
		"Election": {
			"abi": [
				{
					"inputs": [
						{
							"internalType": "uint256",
							"name": "_numParties",
							"type": "uint256"
						}
					],
					"stateMutability": "nonpayable",
					"type": "constructor"
				},
				{
					"inputs": [],
					"name": "authority",
					"outputs": [
						{
							"internalType": "address",
							"name": "",
							"type": "address"
						}
					],
					"stateMutability": "view",
					"type": "function"
				},
				{
					"inputs": [
						{
							"internalType": "uint256",
							"name": "_regionId",
							"type": "uint256"
						},
						{
							"internalType": "uint256",
							"name": "_partyId",
							"type": "uint256"
						}
					],
					"name": "castVote",
					"outputs": [],
					"stateMutability": "nonpayable",
					"type": "function"
				},
				{
					"inputs": [
						{
							"internalType": "uint256",
							"name": "_regionId",
							"type": "uint256"
						},
						{
							"internalType": "address",
							"name": "_president",
							"type": "address"
						}
					],
					"name": "createPollingStation",
					"outputs": [],
					"stateMutability": "nonpayable",
					"type": "function"
				},
				{
					"inputs": [],
					"name": "getResults",
					"outputs": [
						{
							"internalType": "uint256[]",
							"name": "",
							"type": "uint256[]"
						}
					],
					"stateMutability": "view",
					"type": "function"
				},
				{
					"inputs": [
						{
							"internalType": "address",
							"name": "",
							"type": "address"
						}
					],
					"name": "hasVoted",
					"outputs": [
						{
							"internalType": "bool",
							"name": "",
							"type": "bool"
						}
					],
					"stateMutability": "view",
					"type": "function"
				},
				{
					"inputs": [],
					"name": "numParties",
					"outputs": [
						{
							"internalType": "uint256",
							"name": "",
							"type": "uint256"
						}
					],
					"stateMutability": "view",
					"type": "function"
				},
				{
					"inputs": [
						{
							"internalType": "uint256",
							"name": "",
							"type": "uint256"
						}
					],
					"name": "stations",
					"outputs": [
						{
							"internalType": "contract DhondtPollingStation",
							"name": "",
							"type": "address"
						}
					],
					"stateMutability": "view",
					"type": "function"
				}
			],
			"devdoc": {
				"kind": "dev",
				"methods": {},
				"version": 1
			},
			"evm": {
				"assembly": "    /* \"lab3/Election.sol\":42:2166  contract Election {... */\n  mstore(0x40, 0x80)\n    /* \"lab3/Election.sol\":469:603  constructor(uint _numParties) {... */\n  callvalue\n  dup1\n  iszero\n  tag_1\n  jumpi\n  revert(0x00, 0x00)\ntag_1:\n  pop\n  mload(0x40)\n  sub(codesize, bytecodeSize)\n  dup1\n  bytecodeSize\n  dup4\n  codecopy\n  dup2\n  dup2\n  add\n  0x40\n  mstore\n  dup2\n  add\n  swap1\n  tag_2\n  swap2\n  swap1\n  tag_3\n  jump\t// in\ntag_2:\n    /* \"lab3/Election.sol\":522:532  msg.sender */\n  caller\n    /* \"lab3/Election.sol\":510:519  authority */\n  0x00\n  0x00\n    /* \"lab3/Election.sol\":510:532  authority = msg.sender */\n  0x0100\n  exp\n  dup2\n  sload\n  dup2\n  0xffffffffffffffffffffffffffffffffffffffff\n  mul\n  not\n  and\n  swap1\n  dup4\n  0xffffffffffffffffffffffffffffffffffffffff\n  and\n  mul\n  or\n  swap1\n  sstore\n  pop\n    /* \"lab3/Election.sol\":570:581  _numParties */\n  dup1\n    /* \"lab3/Election.sol\":557:567  numParties */\n  0x01\n    /* \"lab3/Election.sol\":557:581  numParties = _numParties */\n  dup2\n  swap1\n  sstore\n  pop\n    /* \"lab3/Election.sol\":469:603  constructor(uint _numParties) {... */\n  pop\n    /* \"lab3/Election.sol\":42:2166  contract Election {... */\n  jump(tag_6)\n    /* \"#utility.yul\":88:205   */\ntag_8:\n    /* \"#utility.yul\":197:198   */\n  0x00\n    /* \"#utility.yul\":194:195   */\n  0x00\n    /* \"#utility.yul\":187:199   */\n  revert\n    /* \"#utility.yul\":334:411   */\ntag_10:\n    /* \"#utility.yul\":371:378   */\n  0x00\n    /* \"#utility.yul\":400:405   */\n  dup2\n    /* \"#utility.yul\":389:405   */\n  swap1\n  pop\n    /* \"#utility.yul\":334:411   */\n  swap2\n  swap1\n  pop\n  jump\t// out\n    /* \"#utility.yul\":417:539   */\ntag_11:\n    /* \"#utility.yul\":490:514   */\n  tag_19\n    /* \"#utility.yul\":508:513   */\n  dup2\n    /* \"#utility.yul\":490:514   */\n  tag_10\n  jump\t// in\ntag_19:\n    /* \"#utility.yul\":483:488   */\n  dup2\n    /* \"#utility.yul\":480:515   */\n  eq\n    /* \"#utility.yul\":470:533   */\n  tag_20\n  jumpi\n    /* \"#utility.yul\":529:530   */\n  0x00\n    /* \"#utility.yul\":526:527   */\n  0x00\n    /* \"#utility.yul\":519:531   */\n  revert\n    /* \"#utility.yul\":470:533   */\ntag_20:\n    /* \"#utility.yul\":417:539   */\n  pop\n  jump\t// out\n    /* \"#utility.yul\":545:688   */\ntag_12:\n    /* \"#utility.yul\":602:607   */\n  0x00\n    /* \"#utility.yul\":633:639   */\n  dup2\n    /* \"#utility.yul\":627:640   */\n  mload\n    /* \"#utility.yul\":618:640   */\n  swap1\n  pop\n    /* \"#utility.yul\":649:682   */\n  tag_22\n    /* \"#utility.yul\":676:681   */\n  dup2\n    /* \"#utility.yul\":649:682   */\n  tag_11\n  jump\t// in\ntag_22:\n    /* \"#utility.yul\":545:688   */\n  swap3\n  swap2\n  pop\n  pop\n  jump\t// out\n    /* \"#utility.yul\":694:1045   */\ntag_3:\n    /* \"#utility.yul\":764:770   */\n  0x00\n    /* \"#utility.yul\":813:815   */\n  0x20\n    /* \"#utility.yul\":801:810   */\n  dup3\n    /* \"#utility.yul\":792:799   */\n  dup5\n    /* \"#utility.yul\":788:811   */\n  sub\n    /* \"#utility.yul\":784:816   */\n  slt\n    /* \"#utility.yul\":781:900   */\n  iszero\n  tag_24\n  jumpi\n    /* \"#utility.yul\":819:898   */\n  tag_25\n  tag_8\n  jump\t// in\ntag_25:\n    /* \"#utility.yul\":781:900   */\ntag_24:\n    /* \"#utility.yul\":939:940   */\n  0x00\n    /* \"#utility.yul\":964:1028   */\n  tag_26\n    /* \"#utility.yul\":1020:1027   */\n  dup5\n    /* \"#utility.yul\":1011:1017   */\n  dup3\n    /* \"#utility.yul\":1000:1009   */\n  dup6\n    /* \"#utility.yul\":996:1018   */\n  add\n    /* \"#utility.yul\":964:1028   */\n  tag_12\n  jump\t// in\ntag_26:\n    /* \"#utility.yul\":954:1028   */\n  swap2\n  pop\n    /* \"#utility.yul\":910:1038   */\n  pop\n    /* \"#utility.yul\":694:1045   */\n  swap3\n  swap2\n  pop\n  pop\n  jump\t// out\n    /* \"lab3/Election.sol\":42:2166  contract Election {... */\ntag_6:\n  dataSize(sub_0)\n  dup1\n  dataOffset(sub_0)\n  0x00\n  codecopy\n  0x00\n  return\nstop\n\nsub_0: assembly {\n        /* \"lab3/Election.sol\":42:2166  contract Election {... */\n      mstore(0x40, 0x80)\n      callvalue\n      dup1\n      iszero\n      tag_1\n      jumpi\n      revert(0x00, 0x00)\n    tag_1:\n      pop\n      jumpi(tag_2, lt(calldatasize, 0x04))\n      shr(0xe0, calldataload(0x00))\n      dup1\n      0x92f859db\n      gt\n      tag_10\n      jumpi\n      dup1\n      0x92f859db\n      eq\n      tag_6\n      jumpi\n      dup1\n      0xa44fe131\n      eq\n      tag_7\n      jumpi\n      dup1\n      0xa6782c2b\n      eq\n      tag_8\n      jumpi\n      dup1\n      0xbf7e214f\n      eq\n      tag_9\n      jumpi\n      jump(tag_2)\n    tag_10:\n      dup1\n      0x09eef43e\n      eq\n      tag_3\n      jumpi\n      dup1\n      0x2c0a3f89\n      eq\n      tag_4\n      jumpi\n      dup1\n      0x4717f97c\n      eq\n      tag_5\n      jumpi\n    tag_2:\n      revert(0x00, 0x00)\n        /* \"lab3/Election.sol\":237:277  mapping(address => bool) public hasVoted */\n    tag_3:\n      tag_11\n      0x04\n      dup1\n      calldatasize\n      sub\n      dup2\n      add\n      swap1\n      tag_12\n      swap2\n      swap1\n      tag_13\n      jump\t// in\n    tag_12:\n      tag_14\n      jump\t// in\n    tag_11:\n      mload(0x40)\n      tag_15\n      swap2\n      swap1\n      tag_16\n      jump\t// in\n    tag_15:\n      mload(0x40)\n      dup1\n      swap2\n      sub\n      swap1\n      return\n        /* \"lab3/Election.sol\":1055:1426  function castVote(uint _regionId, uint _partyId) external {... */\n    tag_4:\n      tag_17\n      0x04\n      dup1\n      calldatasize\n      sub\n      dup2\n      add\n      swap1\n      tag_18\n      swap2\n      swap1\n      tag_19\n      jump\t// in\n    tag_18:\n      tag_20\n      jump\t// in\n    tag_17:\n      stop\n        /* \"lab3/Election.sol\":1434:2163  function getResults() external view onlyAuthority returns (uint[] memory) {... */\n    tag_5:\n      tag_21\n      tag_22\n      jump\t// in\n    tag_21:\n      mload(0x40)\n      tag_23\n      swap2\n      swap1\n      tag_24\n      jump\t// in\n    tag_23:\n      mload(0x40)\n      dup1\n      swap2\n      sub\n      swap1\n      return\n        /* \"lab3/Election.sol\":147:200  mapping(uint => DhondtPollingStation) public stations */\n    tag_6:\n      tag_25\n      0x04\n      dup1\n      calldatasize\n      sub\n      dup2\n      add\n      swap1\n      tag_26\n      swap2\n      swap1\n      tag_27\n      jump\t// in\n    tag_26:\n      tag_28\n      jump\t// in\n    tag_25:\n      mload(0x40)\n      tag_29\n      swap2\n      swap1\n      tag_30\n      jump\t// in\n    tag_29:\n      mload(0x40)\n      dup1\n      swap2\n      sub\n      swap1\n      return\n        /* \"lab3/Election.sol\":611:1047  function createPollingStation(uint _regionId, address _president) external onlyAuthority {... */\n    tag_7:\n      tag_31\n      0x04\n      dup1\n      calldatasize\n      sub\n      dup2\n      add\n      swap1\n      tag_32\n      swap2\n      swap1\n      tag_33\n      jump\t// in\n    tag_32:\n      tag_34\n      jump\t// in\n    tag_31:\n      stop\n        /* \"lab3/Election.sol\":112:134  uint public numParties */\n    tag_8:\n      tag_35\n      tag_36\n      jump\t// in\n    tag_35:\n      mload(0x40)\n      tag_37\n      swap2\n      swap1\n      tag_38\n      jump\t// in\n    tag_37:\n      mload(0x40)\n      dup1\n      swap2\n      sub\n      swap1\n      return\n        /* \"lab3/Election.sol\":67:91  address public authority */\n    tag_9:\n      tag_39\n      tag_40\n      jump\t// in\n    tag_39:\n      mload(0x40)\n      tag_41\n      swap2\n      swap1\n      tag_42\n      jump\t// in\n    tag_41:\n      mload(0x40)\n      dup1\n      swap2\n      sub\n      swap1\n      return\n        /* \"lab3/Election.sol\":237:277  mapping(address => bool) public hasVoted */\n    tag_14:\n      mstore(0x20, 0x03)\n      dup1\n      0x00\n      mstore\n      keccak256(0x00, 0x40)\n      0x00\n      swap2\n      pop\n      sload\n      swap1\n      0x0100\n      exp\n      swap1\n      div\n      0xff\n      and\n      dup2\n      jump\t// out\n        /* \"lab3/Election.sol\":1055:1426  function castVote(uint _regionId, uint _partyId) external {... */\n    tag_20:\n        /* \"lab3/Election.sol\":1172:1173  0 */\n      0x00\n        /* \"lab3/Election.sol\":1132:1174  address(stations[_regionId]) != address(0) */\n      0xffffffffffffffffffffffffffffffffffffffff\n      and\n        /* \"lab3/Election.sol\":1140:1148  stations */\n      0x02\n        /* \"lab3/Election.sol\":1140:1159  stations[_regionId] */\n      0x00\n        /* \"lab3/Election.sol\":1149:1158  _regionId */\n      dup5\n        /* \"lab3/Election.sol\":1140:1159  stations[_regionId] */\n      dup2\n      mstore\n      0x20\n      add\n      swap1\n      dup2\n      mstore\n      0x20\n      add\n      0x00\n      keccak256\n      0x00\n      swap1\n      sload\n      swap1\n      0x0100\n      exp\n      swap1\n      div\n      0xffffffffffffffffffffffffffffffffffffffff\n      and\n        /* \"lab3/Election.sol\":1132:1174  address(stations[_regionId]) != address(0) */\n      0xffffffffffffffffffffffffffffffffffffffff\n      and\n      sub\n        /* \"lab3/Election.sol\":1124:1193  require(address(stations[_regionId]) != address(0), \"Sede no valida\") */\n      tag_44\n      jumpi\n      mload(0x40)\n      0x08c379a000000000000000000000000000000000000000000000000000000000\n      dup2\n      mstore\n      0x04\n      add\n      tag_45\n      swap1\n      tag_46\n      jump\t// in\n    tag_45:\n      mload(0x40)\n      dup1\n      swap2\n      sub\n      swap1\n      revert\n    tag_44:\n        /* \"lab3/Election.sol\":1231:1239  hasVoted */\n      0x03\n        /* \"lab3/Election.sol\":1231:1251  hasVoted[msg.sender] */\n      0x00\n        /* \"lab3/Election.sol\":1240:1250  msg.sender */\n      caller\n        /* \"lab3/Election.sol\":1231:1251  hasVoted[msg.sender] */\n      0xffffffffffffffffffffffffffffffffffffffff\n      and\n      0xffffffffffffffffffffffffffffffffffffffff\n      and\n      dup2\n      mstore\n      0x20\n      add\n      swap1\n      dup2\n      mstore\n      0x20\n      add\n      0x00\n      keccak256\n      0x00\n      swap1\n      sload\n      swap1\n      0x0100\n      exp\n      swap1\n      div\n      0xff\n      and\n        /* \"lab3/Election.sol\":1230:1251  !hasVoted[msg.sender] */\n      iszero\n        /* \"lab3/Election.sol\":1222:1269  require(!hasVoted[msg.sender], \"Ya has votado\") */\n      tag_47\n      jumpi\n      mload(0x40)\n      0x08c379a000000000000000000000000000000000000000000000000000000000\n      dup2\n      mstore\n      0x04\n      add\n      tag_48\n      swap1\n      tag_49\n      jump\t// in\n    tag_48:\n      mload(0x40)\n      dup1\n      swap2\n      sub\n      swap1\n      revert\n    tag_47:\n        /* \"lab3/Election.sol\":1319:1323  true */\n      0x01\n        /* \"lab3/Election.sol\":1296:1304  hasVoted */\n      0x03\n        /* \"lab3/Election.sol\":1296:1316  hasVoted[msg.sender] */\n      0x00\n        /* \"lab3/Election.sol\":1305:1315  msg.sender */\n      caller\n        /* \"lab3/Election.sol\":1296:1316  hasVoted[msg.sender] */\n      0xffffffffffffffffffffffffffffffffffffffff\n      and\n      0xffffffffffffffffffffffffffffffffffffffff\n      and\n      dup2\n      mstore\n      0x20\n      add\n      swap1\n      dup2\n      mstore\n      0x20\n      add\n      0x00\n      keccak256\n      0x00\n        /* \"lab3/Election.sol\":1296:1323  hasVoted[msg.sender] = true */\n      0x0100\n      exp\n      dup2\n      sload\n      dup2\n      0xff\n      mul\n      not\n      and\n      swap1\n      dup4\n      iszero\n      iszero\n      mul\n      or\n      swap1\n      sstore\n      pop\n        /* \"lab3/Election.sol\":1334:1342  stations */\n      0x02\n        /* \"lab3/Election.sol\":1334:1353  stations[_regionId] */\n      0x00\n        /* \"lab3/Election.sol\":1343:1352  _regionId */\n      dup4\n        /* \"lab3/Election.sol\":1334:1353  stations[_regionId] */\n      dup2\n      mstore\n      0x20\n      add\n      swap1\n      dup2\n      mstore\n      0x20\n      add\n      0x00\n      keccak256\n      0x00\n      swap1\n      sload\n      swap1\n      0x0100\n      exp\n      swap1\n      div\n      0xffffffffffffffffffffffffffffffffffffffff\n      and\n        /* \"lab3/Election.sol\":1334:1362  stations[_regionId].castVote */\n      0xffffffffffffffffffffffffffffffffffffffff\n      and\n      0x3eb76b9c\n        /* \"lab3/Election.sol\":1363:1371  _partyId */\n      dup3\n        /* \"lab3/Election.sol\":1334:1372  stations[_regionId].castVote(_partyId) */\n      mload(0x40)\n      dup3\n      0xffffffff\n      and\n      0xe0\n      shl\n      dup2\n      mstore\n      0x04\n      add\n      tag_50\n      swap2\n      swap1\n      tag_38\n      jump\t// in\n    tag_50:\n      0x00\n      mload(0x40)\n      dup1\n      dup4\n      sub\n      dup2\n      0x00\n      dup8\n      dup1\n      extcodesize\n      iszero\n      dup1\n      iszero\n      tag_51\n      jumpi\n      revert(0x00, 0x00)\n    tag_51:\n      pop\n      gas\n      call\n      iszero\n      dup1\n      iszero\n      tag_53\n      jumpi\n      returndatacopy(0x00, 0x00, returndatasize)\n      revert(0x00, returndatasize)\n    tag_53:\n      pop\n      pop\n      pop\n      pop\n        /* \"lab3/Election.sol\":1055:1426  function castVote(uint _regionId, uint _partyId) external {... */\n      pop\n      pop\n      jump\t// out\n        /* \"lab3/Election.sol\":1434:2163  function getResults() external view onlyAuthority returns (uint[] memory) {... */\n    tag_22:\n        /* \"lab3/Election.sol\":1493:1506  uint[] memory */\n      0x60\n        /* \"lab3/Election.sol\":379:388  authority */\n      0x00\n      0x00\n      swap1\n      sload\n      swap1\n      0x0100\n      exp\n      swap1\n      div\n      0xffffffffffffffffffffffffffffffffffffffff\n      and\n        /* \"lab3/Election.sol\":365:388  msg.sender == authority */\n      0xffffffffffffffffffffffffffffffffffffffff\n      and\n        /* \"lab3/Election.sol\":365:375  msg.sender */\n      caller\n        /* \"lab3/Election.sol\":365:388  msg.sender == authority */\n      0xffffffffffffffffffffffffffffffffffffffff\n      and\n      eq\n        /* \"lab3/Election.sol\":357:427  require(msg.sender == authority, \"Solo la autoridad puede hacer esto\") */\n      tag_55\n      jumpi\n      mload(0x40)\n      0x08c379a000000000000000000000000000000000000000000000000000000000\n      dup2\n      mstore\n      0x04\n      add\n      tag_56\n      swap1\n      tag_57\n      jump\t// in\n    tag_56:\n      mload(0x40)\n      dup1\n      swap2\n      sub\n      swap1\n      revert\n    tag_55:\n        /* \"lab3/Election.sol\":1519:1545  uint[] memory totalResults */\n      0x00\n        /* \"lab3/Election.sol\":1559:1569  numParties */\n      sload(0x01)\n        /* \"lab3/Election.sol\":1548:1570  new uint[](numParties) */\n      0xffffffffffffffff\n      dup2\n      gt\n      iszero\n      tag_59\n      jumpi\n      tag_60\n      tag_61\n      jump\t// in\n    tag_60:\n    tag_59:\n      mload(0x40)\n      swap1\n      dup1\n      dup3\n      mstore\n      dup1\n      0x20\n      mul\n      0x20\n      add\n      dup3\n      add\n      0x40\n      mstore\n      dup1\n      iszero\n      tag_62\n      jumpi\n      dup2\n      0x20\n      add\n      0x20\n      dup3\n      mul\n      dup1\n      calldatasize\n      dup4\n      calldatacopy\n      dup1\n      dup3\n      add\n      swap2\n      pop\n      pop\n      swap1\n      pop\n    tag_62:\n      pop\n        /* \"lab3/Election.sol\":1519:1570  uint[] memory totalResults = new uint[](numParties) */\n      swap1\n      pop\n        /* \"lab3/Election.sol\":1783:1805  uint[2] memory regions */\n      0x00\n        /* \"lab3/Election.sol\":1783:1822  uint[2] memory regions = [uint(28), 44] */\n      mload(0x40)\n      dup1\n      0x40\n      add\n      0x40\n      mstore\n      dup1\n        /* \"lab3/Election.sol\":1814:1816  28 */\n      0x1c\n        /* \"lab3/Election.sol\":1783:1822  uint[2] memory regions = [uint(28), 44] */\n      dup2\n      mstore\n      0x20\n      add\n        /* \"lab3/Election.sol\":1819:1821  44 */\n      0x2c\n        /* \"lab3/Election.sol\":1783:1822  uint[2] memory regions = [uint(28), 44] */\n      dup2\n      mstore\n      pop\n      swap1\n      pop\n        /* \"lab3/Election.sol\":1841:1847  uint i */\n      0x00\n        /* \"lab3/Election.sol\":1850:1851  0 */\n      0x00\n        /* \"lab3/Election.sol\":1841:1851  uint i = 0 */\n      swap1\n      pop\n        /* \"lab3/Election.sol\":1836:2126  for (uint i = 0; i < regions.length; i++) {... */\n    tag_63:\n        /* \"lab3/Election.sol\":1857:1871  regions.length */\n      0x02\n        /* \"lab3/Election.sol\":1853:1854  i */\n      dup2\n        /* \"lab3/Election.sol\":1853:1871  i < regions.length */\n      lt\n        /* \"lab3/Election.sol\":1836:2126  for (uint i = 0; i < regions.length; i++) {... */\n      iszero\n      tag_64\n      jumpi\n        /* \"lab3/Election.sol\":1893:1917  uint[] memory stationRes */\n      0x00\n        /* \"lab3/Election.sol\":1920:1928  stations */\n      0x02\n        /* \"lab3/Election.sol\":1920:1940  stations[regions[i]] */\n      0x00\n        /* \"lab3/Election.sol\":1929:1936  regions */\n      dup5\n        /* \"lab3/Election.sol\":1937:1938  i */\n      dup5\n        /* \"lab3/Election.sol\":1929:1939  regions[i] */\n      0x02\n      dup2\n      lt\n      tag_66\n      jumpi\n      tag_67\n      tag_68\n      jump\t// in\n    tag_67:\n    tag_66:\n      0x20\n      mul\n      add\n      mload\n        /* \"lab3/Election.sol\":1920:1940  stations[regions[i]] */\n      dup2\n      mstore\n      0x20\n      add\n      swap1\n      dup2\n      mstore\n      0x20\n      add\n      0x00\n      keccak256\n      0x00\n      swap1\n      sload\n      swap1\n      0x0100\n      exp\n      swap1\n      div\n      0xffffffffffffffffffffffffffffffffffffffff\n      and\n        /* \"lab3/Election.sol\":1920:1951  stations[regions[i]].getResults */\n      0xffffffffffffffffffffffffffffffffffffffff\n      and\n      0x4717f97c\n        /* \"lab3/Election.sol\":1920:1953  stations[regions[i]].getResults() */\n      mload(0x40)\n      dup2\n      0xffffffff\n      and\n      0xe0\n      shl\n      dup2\n      mstore\n      0x04\n      add\n      0x00\n      mload(0x40)\n      dup1\n      dup4\n      sub\n      dup2\n      dup7\n      gas\n      staticcall\n      iszero\n      dup1\n      iszero\n      tag_70\n      jumpi\n      returndatacopy(0x00, 0x00, returndatasize)\n      revert(0x00, returndatasize)\n    tag_70:\n      pop\n      pop\n      pop\n      pop\n      mload(0x40)\n      returndatasize\n      0x00\n      dup3\n      returndatacopy\n      returndatasize\n      not(0x1f)\n      0x1f\n      dup3\n      add\n      and\n      dup3\n      add\n      dup1\n      0x40\n      mstore\n      pop\n      dup2\n      add\n      swap1\n      tag_71\n      swap2\n      swap1\n      tag_72\n      jump\t// in\n    tag_71:\n        /* \"lab3/Election.sol\":1893:1953  uint[] memory stationRes = stations[regions[i]].getResults() */\n      swap1\n      pop\n        /* \"lab3/Election.sol\":1987:1993  uint j */\n      0x00\n        /* \"lab3/Election.sol\":1996:1997  0 */\n      0x00\n        /* \"lab3/Election.sol\":1987:1997  uint j = 0 */\n      swap1\n      pop\n        /* \"lab3/Election.sol\":1982:2115  for (uint j = 0; j < numParties; j++) {... */\n    tag_73:\n        /* \"lab3/Election.sol\":2003:2013  numParties */\n      sload(0x01)\n        /* \"lab3/Election.sol\":1999:2000  j */\n      dup2\n        /* \"lab3/Election.sol\":1999:2013  j < numParties */\n      lt\n        /* \"lab3/Election.sol\":1982:2115  for (uint j = 0; j < numParties; j++) {... */\n      iszero\n      tag_74\n      jumpi\n        /* \"lab3/Election.sol\":2058:2068  stationRes */\n      dup2\n        /* \"lab3/Election.sol\":2069:2070  j */\n      dup2\n        /* \"lab3/Election.sol\":2058:2071  stationRes[j] */\n      dup2\n      mload\n      dup2\n      lt\n      tag_76\n      jumpi\n      tag_77\n      tag_68\n      jump\t// in\n    tag_77:\n    tag_76:\n      0x20\n      mul\n      0x20\n      add\n      add\n      mload\n        /* \"lab3/Election.sol\":2039:2051  totalResults */\n      dup6\n        /* \"lab3/Election.sol\":2052:2053  j */\n      dup3\n        /* \"lab3/Election.sol\":2039:2054  totalResults[j] */\n      dup2\n      mload\n      dup2\n      lt\n      tag_78\n      jumpi\n      tag_79\n      tag_68\n      jump\t// in\n    tag_79:\n    tag_78:\n      0x20\n      mul\n      0x20\n      add\n      add\n        /* \"lab3/Election.sol\":2039:2071  totalResults[j] += stationRes[j] */\n      dup2\n      dup2\n      mload\n      tag_80\n      swap2\n      swap1\n      tag_81\n      jump\t// in\n    tag_80:\n      swap2\n      pop\n      dup2\n      dup2\n      mstore\n      pop\n      pop\n        /* \"lab3/Election.sol\":2015:2018  j++ */\n      dup1\n      dup1\n      0x01\n      add\n      swap2\n      pop\n      pop\n        /* \"lab3/Election.sol\":1982:2115  for (uint j = 0; j < numParties; j++) {... */\n      jump(tag_73)\n    tag_74:\n      pop\n        /* \"lab3/Election.sol\":1878:2126  {... */\n      pop\n        /* \"lab3/Election.sol\":1873:1876  i++ */\n      dup1\n      dup1\n      0x01\n      add\n      swap2\n      pop\n      pop\n        /* \"lab3/Election.sol\":1836:2126  for (uint i = 0; i < regions.length; i++) {... */\n      jump(tag_63)\n    tag_64:\n      pop\n        /* \"lab3/Election.sol\":2143:2155  totalResults */\n      dup2\n        /* \"lab3/Election.sol\":2136:2155  return totalResults */\n      swap3\n      pop\n      pop\n      pop\n        /* \"lab3/Election.sol\":1434:2163  function getResults() external view onlyAuthority returns (uint[] memory) {... */\n      swap1\n      jump\t// out\n        /* \"lab3/Election.sol\":147:200  mapping(uint => DhondtPollingStation) public stations */\n    tag_28:\n      mstore(0x20, 0x02)\n      dup1\n      0x00\n      mstore\n      keccak256(0x00, 0x40)\n      0x00\n      swap2\n      pop\n      sload\n      swap1\n      0x0100\n      exp\n      swap1\n      div\n      0xffffffffffffffffffffffffffffffffffffffff\n      and\n      dup2\n      jump\t// out\n        /* \"lab3/Election.sol\":611:1047  function createPollingStation(uint _regionId, address _president) external onlyAuthority {... */\n    tag_34:\n        /* \"lab3/Election.sol\":379:388  authority */\n      0x00\n      0x00\n      swap1\n      sload\n      swap1\n      0x0100\n      exp\n      swap1\n      div\n      0xffffffffffffffffffffffffffffffffffffffff\n      and\n        /* \"lab3/Election.sol\":365:388  msg.sender == authority */\n      0xffffffffffffffffffffffffffffffffffffffff\n      and\n        /* \"lab3/Election.sol\":365:375  msg.sender */\n      caller\n        /* \"lab3/Election.sol\":365:388  msg.sender == authority */\n      0xffffffffffffffffffffffffffffffffffffffff\n      and\n      eq\n        /* \"lab3/Election.sol\":357:427  require(msg.sender == authority, \"Solo la autoridad puede hacer esto\") */\n      tag_83\n      jumpi\n      mload(0x40)\n      0x08c379a000000000000000000000000000000000000000000000000000000000\n      dup2\n      mstore\n      0x04\n      add\n      tag_84\n      swap1\n      tag_57\n      jump\t// in\n    tag_84:\n      mload(0x40)\n      dup1\n      swap2\n      sub\n      swap1\n      revert\n    tag_83:\n        /* \"lab3/Election.sol\":759:760  0 */\n      0x00\n        /* \"lab3/Election.sol\":719:761  address(stations[_regionId]) == address(0) */\n      0xffffffffffffffffffffffffffffffffffffffff\n      and\n        /* \"lab3/Election.sol\":727:735  stations */\n      0x02\n        /* \"lab3/Election.sol\":727:746  stations[_regionId] */\n      0x00\n        /* \"lab3/Election.sol\":736:745  _regionId */\n      dup5\n        /* \"lab3/Election.sol\":727:746  stations[_regionId] */\n      dup2\n      mstore\n      0x20\n      add\n      swap1\n      dup2\n      mstore\n      0x20\n      add\n      0x00\n      keccak256\n      0x00\n      swap1\n      sload\n      swap1\n      0x0100\n      exp\n      swap1\n      div\n      0xffffffffffffffffffffffffffffffffffffffff\n      and\n        /* \"lab3/Election.sol\":719:761  address(stations[_regionId]) == address(0) */\n      0xffffffffffffffffffffffffffffffffffffffff\n      and\n      eq\n        /* \"lab3/Election.sol\":711:795  require(address(stations[_regionId]) == address(0), \"Ya existe sede en esta region\") */\n      tag_86\n      jumpi\n      mload(0x40)\n      0x08c379a000000000000000000000000000000000000000000000000000000000\n      dup2\n      mstore\n      0x04\n      add\n      tag_87\n      swap1\n      tag_88\n      jump\t// in\n    tag_87:\n      mload(0x40)\n      dup1\n      swap2\n      sub\n      swap1\n      revert\n    tag_86:\n        /* \"lab3/Election.sol\":903:934  DhondtPollingStation newStation */\n      0x00\n        /* \"lab3/Election.sol\":962:972  _president */\n      dup2\n        /* \"lab3/Election.sol\":974:984  numParties */\n      sload(0x01)\n        /* \"lab3/Election.sol\":986:995  _regionId */\n      dup5\n        /* \"lab3/Election.sol\":937:996  new DhondtPollingStation(_president, numParties, _regionId) */\n      mload(0x40)\n      tag_89\n      swap1\n      tag_90\n      jump\t// in\n    tag_89:\n      tag_91\n      swap4\n      swap3\n      swap2\n      swap1\n      tag_92\n      jump\t// in\n    tag_91:\n      mload(0x40)\n      dup1\n      swap2\n      sub\n      swap1\n      0x00\n      create\n      dup1\n      iszero\n      dup1\n      iszero\n      tag_93\n      jumpi\n      returndatacopy(0x00, 0x00, returndatasize)\n      revert(0x00, returndatasize)\n    tag_93:\n      pop\n        /* \"lab3/Election.sol\":903:996  DhondtPollingStation newStation = new DhondtPollingStation(_president, numParties, _regionId) */\n      swap1\n      pop\n        /* \"lab3/Election.sol\":1029:1039  newStation */\n      dup1\n        /* \"lab3/Election.sol\":1007:1015  stations */\n      0x02\n        /* \"lab3/Election.sol\":1007:1026  stations[_regionId] */\n      0x00\n        /* \"lab3/Election.sol\":1016:1025  _regionId */\n      dup6\n        /* \"lab3/Election.sol\":1007:1026  stations[_regionId] */\n      dup2\n      mstore\n      0x20\n      add\n      swap1\n      dup2\n      mstore\n      0x20\n      add\n      0x00\n      keccak256\n      0x00\n        /* \"lab3/Election.sol\":1007:1039  stations[_regionId] = newStation */\n      0x0100\n      exp\n      dup2\n      sload\n      dup2\n      0xffffffffffffffffffffffffffffffffffffffff\n      mul\n      not\n      and\n      swap1\n      dup4\n      0xffffffffffffffffffffffffffffffffffffffff\n      and\n      mul\n      or\n      swap1\n      sstore\n      pop\n        /* \"lab3/Election.sol\":700:1047  {... */\n      pop\n        /* \"lab3/Election.sol\":611:1047  function createPollingStation(uint _regionId, address _president) external onlyAuthority {... */\n      pop\n      pop\n      jump\t// out\n        /* \"lab3/Election.sol\":112:134  uint public numParties */\n    tag_36:\n      sload(0x01)\n      dup2\n      jump\t// out\n        /* \"lab3/Election.sol\":67:91  address public authority */\n    tag_40:\n      0x00\n      0x00\n      swap1\n      sload\n      swap1\n      0x0100\n      exp\n      swap1\n      div\n      0xffffffffffffffffffffffffffffffffffffffff\n      and\n      dup2\n      jump\t// out\n    tag_90:\n      dataSize(sub_0)\n      dup1\n      dataOffset(sub_0)\n      dup4\n      codecopy\n      add\n      swap1\n      jump\t// out\n        /* \"#utility.yul\":7:82   */\n    tag_94:\n        /* \"#utility.yul\":40:46   */\n      0x00\n        /* \"#utility.yul\":73:75   */\n      0x40\n        /* \"#utility.yul\":67:76   */\n      mload\n        /* \"#utility.yul\":57:76   */\n      swap1\n      pop\n        /* \"#utility.yul\":7:82   */\n      swap1\n      jump\t// out\n        /* \"#utility.yul\":88:205   */\n    tag_95:\n        /* \"#utility.yul\":197:198   */\n      0x00\n        /* \"#utility.yul\":194:195   */\n      0x00\n        /* \"#utility.yul\":187:199   */\n      revert\n        /* \"#utility.yul\":211:328   */\n    tag_96:\n        /* \"#utility.yul\":320:321   */\n      0x00\n        /* \"#utility.yul\":317:318   */\n      0x00\n        /* \"#utility.yul\":310:322   */\n      revert\n        /* \"#utility.yul\":334:460   */\n    tag_97:\n        /* \"#utility.yul\":371:378   */\n      0x00\n        /* \"#utility.yul\":411:453   */\n      0xffffffffffffffffffffffffffffffffffffffff\n        /* \"#utility.yul\":404:409   */\n      dup3\n        /* \"#utility.yul\":400:454   */\n      and\n        /* \"#utility.yul\":389:454   */\n      swap1\n      pop\n        /* \"#utility.yul\":334:460   */\n      swap2\n      swap1\n      pop\n      jump\t// out\n        /* \"#utility.yul\":466:562   */\n    tag_98:\n        /* \"#utility.yul\":503:510   */\n      0x00\n        /* \"#utility.yul\":532:556   */\n      tag_145\n        /* \"#utility.yul\":550:555   */\n      dup3\n        /* \"#utility.yul\":532:556   */\n      tag_97\n      jump\t// in\n    tag_145:\n        /* \"#utility.yul\":521:556   */\n      swap1\n      pop\n        /* \"#utility.yul\":466:562   */\n      swap2\n      swap1\n      pop\n      jump\t// out\n        /* \"#utility.yul\":568:690   */\n    tag_99:\n        /* \"#utility.yul\":641:665   */\n      tag_147\n        /* \"#utility.yul\":659:664   */\n      dup2\n        /* \"#utility.yul\":641:665   */\n      tag_98\n      jump\t// in\n    tag_147:\n        /* \"#utility.yul\":634:639   */\n      dup2\n        /* \"#utility.yul\":631:666   */\n      eq\n        /* \"#utility.yul\":621:684   */\n      tag_148\n      jumpi\n        /* \"#utility.yul\":680:681   */\n      0x00\n        /* \"#utility.yul\":677:678   */\n      0x00\n        /* \"#utility.yul\":670:682   */\n      revert\n        /* \"#utility.yul\":621:684   */\n    tag_148:\n        /* \"#utility.yul\":568:690   */\n      pop\n      jump\t// out\n        /* \"#utility.yul\":696:835   */\n    tag_100:\n        /* \"#utility.yul\":742:747   */\n      0x00\n        /* \"#utility.yul\":780:786   */\n      dup2\n        /* \"#utility.yul\":767:787   */\n      calldataload\n        /* \"#utility.yul\":758:787   */\n      swap1\n      pop\n        /* \"#utility.yul\":796:829   */\n      tag_150\n        /* \"#utility.yul\":823:828   */\n      dup2\n        /* \"#utility.yul\":796:829   */\n      tag_99\n      jump\t// in\n    tag_150:\n        /* \"#utility.yul\":696:835   */\n      swap3\n      swap2\n      pop\n      pop\n      jump\t// out\n        /* \"#utility.yul\":841:1170   */\n    tag_13:\n        /* \"#utility.yul\":900:906   */\n      0x00\n        /* \"#utility.yul\":949:951   */\n      0x20\n        /* \"#utility.yul\":937:946   */\n      dup3\n        /* \"#utility.yul\":928:935   */\n      dup5\n        /* \"#utility.yul\":924:947   */\n      sub\n        /* \"#utility.yul\":920:952   */\n      slt\n        /* \"#utility.yul\":917:1036   */\n      iszero\n      tag_152\n      jumpi\n        /* \"#utility.yul\":955:1034   */\n      tag_153\n      tag_95\n      jump\t// in\n    tag_153:\n        /* \"#utility.yul\":917:1036   */\n    tag_152:\n        /* \"#utility.yul\":1075:1076   */\n      0x00\n        /* \"#utility.yul\":1100:1153   */\n      tag_154\n        /* \"#utility.yul\":1145:1152   */\n      dup5\n        /* \"#utility.yul\":1136:1142   */\n      dup3\n        /* \"#utility.yul\":1125:1134   */\n      dup6\n        /* \"#utility.yul\":1121:1143   */\n      add\n        /* \"#utility.yul\":1100:1153   */\n      tag_100\n      jump\t// in\n    tag_154:\n        /* \"#utility.yul\":1090:1153   */\n      swap2\n      pop\n        /* \"#utility.yul\":1046:1163   */\n      pop\n        /* \"#utility.yul\":841:1170   */\n      swap3\n      swap2\n      pop\n      pop\n      jump\t// out\n        /* \"#utility.yul\":1176:1266   */\n    tag_101:\n        /* \"#utility.yul\":1210:1217   */\n      0x00\n        /* \"#utility.yul\":1253:1258   */\n      dup2\n        /* \"#utility.yul\":1246:1259   */\n      iszero\n        /* \"#utility.yul\":1239:1260   */\n      iszero\n        /* \"#utility.yul\":1228:1260   */\n      swap1\n      pop\n        /* \"#utility.yul\":1176:1266   */\n      swap2\n      swap1\n      pop\n      jump\t// out\n        /* \"#utility.yul\":1272:1381   */\n    tag_102:\n        /* \"#utility.yul\":1353:1374   */\n      tag_157\n        /* \"#utility.yul\":1368:1373   */\n      dup2\n        /* \"#utility.yul\":1353:1374   */\n      tag_101\n      jump\t// in\n    tag_157:\n        /* \"#utility.yul\":1348:1351   */\n      dup3\n        /* \"#utility.yul\":1341:1375   */\n      mstore\n        /* \"#utility.yul\":1272:1381   */\n      pop\n      pop\n      jump\t// out\n        /* \"#utility.yul\":1387:1597   */\n    tag_16:\n        /* \"#utility.yul\":1474:1478   */\n      0x00\n        /* \"#utility.yul\":1512:1514   */\n      0x20\n        /* \"#utility.yul\":1501:1510   */\n      dup3\n        /* \"#utility.yul\":1497:1515   */\n      add\n        /* \"#utility.yul\":1489:1515   */\n      swap1\n      pop\n        /* \"#utility.yul\":1525:1590   */\n      tag_159\n        /* \"#utility.yul\":1587:1588   */\n      0x00\n        /* \"#utility.yul\":1576:1585   */\n      dup4\n        /* \"#utility.yul\":1572:1589   */\n      add\n        /* \"#utility.yul\":1563:1569   */\n      dup5\n        /* \"#utility.yul\":1525:1590   */\n      tag_102\n      jump\t// in\n    tag_159:\n        /* \"#utility.yul\":1387:1597   */\n      swap3\n      swap2\n      pop\n      pop\n      jump\t// out\n        /* \"#utility.yul\":1603:1680   */\n    tag_103:\n        /* \"#utility.yul\":1640:1647   */\n      0x00\n        /* \"#utility.yul\":1669:1674   */\n      dup2\n        /* \"#utility.yul\":1658:1674   */\n      swap1\n      pop\n        /* \"#utility.yul\":1603:1680   */\n      swap2\n      swap1\n      pop\n      jump\t// out\n        /* \"#utility.yul\":1686:1808   */\n    tag_104:\n        /* \"#utility.yul\":1759:1783   */\n      tag_162\n        /* \"#utility.yul\":1777:1782   */\n      dup2\n        /* \"#utility.yul\":1759:1783   */\n      tag_103\n      jump\t// in\n    tag_162:\n        /* \"#utility.yul\":1752:1757   */\n      dup2\n        /* \"#utility.yul\":1749:1784   */\n      eq\n        /* \"#utility.yul\":1739:1802   */\n      tag_163\n      jumpi\n        /* \"#utility.yul\":1798:1799   */\n      0x00\n        /* \"#utility.yul\":1795:1796   */\n      0x00\n        /* \"#utility.yul\":1788:1800   */\n      revert\n        /* \"#utility.yul\":1739:1802   */\n    tag_163:\n        /* \"#utility.yul\":1686:1808   */\n      pop\n      jump\t// out\n        /* \"#utility.yul\":1814:1953   */\n    tag_105:\n        /* \"#utility.yul\":1860:1865   */\n      0x00\n        /* \"#utility.yul\":1898:1904   */\n      dup2\n        /* \"#utility.yul\":1885:1905   */\n      calldataload\n        /* \"#utility.yul\":1876:1905   */\n      swap1\n      pop\n        /* \"#utility.yul\":1914:1947   */\n      tag_165\n        /* \"#utility.yul\":1941:1946   */\n      dup2\n        /* \"#utility.yul\":1914:1947   */\n      tag_104\n      jump\t// in\n    tag_165:\n        /* \"#utility.yul\":1814:1953   */\n      swap3\n      swap2\n      pop\n      pop\n      jump\t// out\n        /* \"#utility.yul\":1959:2433   */\n    tag_19:\n        /* \"#utility.yul\":2027:2033   */\n      0x00\n        /* \"#utility.yul\":2035:2041   */\n      0x00\n        /* \"#utility.yul\":2084:2086   */\n      0x40\n        /* \"#utility.yul\":2072:2081   */\n      dup4\n        /* \"#utility.yul\":2063:2070   */\n      dup6\n        /* \"#utility.yul\":2059:2082   */\n      sub\n        /* \"#utility.yul\":2055:2087   */\n      slt\n        /* \"#utility.yul\":2052:2171   */\n      iszero\n      tag_167\n      jumpi\n        /* \"#utility.yul\":2090:2169   */\n      tag_168\n      tag_95\n      jump\t// in\n    tag_168:\n        /* \"#utility.yul\":2052:2171   */\n    tag_167:\n        /* \"#utility.yul\":2210:2211   */\n      0x00\n        /* \"#utility.yul\":2235:2288   */\n      tag_169\n        /* \"#utility.yul\":2280:2287   */\n      dup6\n        /* \"#utility.yul\":2271:2277   */\n      dup3\n        /* \"#utility.yul\":2260:2269   */\n      dup7\n        /* \"#utility.yul\":2256:2278   */\n      add\n        /* \"#utility.yul\":2235:2288   */\n      tag_105\n      jump\t// in\n    tag_169:\n        /* \"#utility.yul\":2225:2288   */\n      swap3\n      pop\n        /* \"#utility.yul\":2181:2298   */\n      pop\n        /* \"#utility.yul\":2337:2339   */\n      0x20\n        /* \"#utility.yul\":2363:2416   */\n      tag_170\n        /* \"#utility.yul\":2408:2415   */\n      dup6\n        /* \"#utility.yul\":2399:2405   */\n      dup3\n        /* \"#utility.yul\":2388:2397   */\n      dup7\n        /* \"#utility.yul\":2384:2406   */\n      add\n        /* \"#utility.yul\":2363:2416   */\n      tag_105\n      jump\t// in\n    tag_170:\n        /* \"#utility.yul\":2353:2416   */\n      swap2\n      pop\n        /* \"#utility.yul\":2308:2426   */\n      pop\n        /* \"#utility.yul\":1959:2433   */\n      swap3\n      pop\n      swap3\n      swap1\n      pop\n      jump\t// out\n        /* \"#utility.yul\":2439:2553   */\n    tag_106:\n        /* \"#utility.yul\":2506:2512   */\n      0x00\n        /* \"#utility.yul\":2540:2545   */\n      dup2\n        /* \"#utility.yul\":2534:2546   */\n      mload\n        /* \"#utility.yul\":2524:2546   */\n      swap1\n      pop\n        /* \"#utility.yul\":2439:2553   */\n      swap2\n      swap1\n      pop\n      jump\t// out\n        /* \"#utility.yul\":2559:2743   */\n    tag_107:\n        /* \"#utility.yul\":2658:2669   */\n      0x00\n        /* \"#utility.yul\":2692:2698   */\n      dup3\n        /* \"#utility.yul\":2687:2690   */\n      dup3\n        /* \"#utility.yul\":2680:2699   */\n      mstore\n        /* \"#utility.yul\":2732:2736   */\n      0x20\n        /* \"#utility.yul\":2727:2730   */\n      dup3\n        /* \"#utility.yul\":2723:2737   */\n      add\n        /* \"#utility.yul\":2708:2737   */\n      swap1\n      pop\n        /* \"#utility.yul\":2559:2743   */\n      swap3\n      swap2\n      pop\n      pop\n      jump\t// out\n        /* \"#utility.yul\":2749:2881   */\n    tag_108:\n        /* \"#utility.yul\":2816:2820   */\n      0x00\n        /* \"#utility.yul\":2839:2842   */\n      dup2\n        /* \"#utility.yul\":2831:2842   */\n      swap1\n      pop\n        /* \"#utility.yul\":2869:2873   */\n      0x20\n        /* \"#utility.yul\":2864:2867   */\n      dup3\n        /* \"#utility.yul\":2860:2874   */\n      add\n        /* \"#utility.yul\":2852:2874   */\n      swap1\n      pop\n        /* \"#utility.yul\":2749:2881   */\n      swap2\n      swap1\n      pop\n      jump\t// out\n        /* \"#utility.yul\":2887:2995   */\n    tag_109:\n        /* \"#utility.yul\":2964:2988   */\n      tag_175\n        /* \"#utility.yul\":2982:2987   */\n      dup2\n        /* \"#utility.yul\":2964:2988   */\n      tag_103\n      jump\t// in\n    tag_175:\n        /* \"#utility.yul\":2959:2962   */\n      dup3\n        /* \"#utility.yul\":2952:2989   */\n      mstore\n        /* \"#utility.yul\":2887:2995   */\n      pop\n      pop\n      jump\t// out\n        /* \"#utility.yul\":3001:3180   */\n    tag_110:\n        /* \"#utility.yul\":3070:3080   */\n      0x00\n        /* \"#utility.yul\":3091:3137   */\n      tag_177\n        /* \"#utility.yul\":3133:3136   */\n      dup4\n        /* \"#utility.yul\":3125:3131   */\n      dup4\n        /* \"#utility.yul\":3091:3137   */\n      tag_109\n      jump\t// in\n    tag_177:\n        /* \"#utility.yul\":3169:3173   */\n      0x20\n        /* \"#utility.yul\":3164:3167   */\n      dup4\n        /* \"#utility.yul\":3160:3174   */\n      add\n        /* \"#utility.yul\":3146:3174   */\n      swap1\n      pop\n        /* \"#utility.yul\":3001:3180   */\n      swap3\n      swap2\n      pop\n      pop\n      jump\t// out\n        /* \"#utility.yul\":3186:3299   */\n    tag_111:\n        /* \"#utility.yul\":3256:3260   */\n      0x00\n        /* \"#utility.yul\":3288:3292   */\n      0x20\n        /* \"#utility.yul\":3283:3286   */\n      dup3\n        /* \"#utility.yul\":3279:3293   */\n      add\n        /* \"#utility.yul\":3271:3293   */\n      swap1\n      pop\n        /* \"#utility.yul\":3186:3299   */\n      swap2\n      swap1\n      pop\n      jump\t// out\n        /* \"#utility.yul\":3335:4067   */\n    tag_112:\n        /* \"#utility.yul\":3454:3457   */\n      0x00\n        /* \"#utility.yul\":3483:3537   */\n      tag_180\n        /* \"#utility.yul\":3531:3536   */\n      dup3\n        /* \"#utility.yul\":3483:3537   */\n      tag_106\n      jump\t// in\n    tag_180:\n        /* \"#utility.yul\":3553:3639   */\n      tag_181\n        /* \"#utility.yul\":3632:3638   */\n      dup2\n        /* \"#utility.yul\":3627:3630   */\n      dup6\n        /* \"#utility.yul\":3553:3639   */\n      tag_107\n      jump\t// in\n    tag_181:\n        /* \"#utility.yul\":3546:3639   */\n      swap4\n      pop\n        /* \"#utility.yul\":3663:3719   */\n      tag_182\n        /* \"#utility.yul\":3713:3718   */\n      dup4\n        /* \"#utility.yul\":3663:3719   */\n      tag_108\n      jump\t// in\n    tag_182:\n        /* \"#utility.yul\":3742:3749   */\n      dup1\n        /* \"#utility.yul\":3773:3774   */\n      0x00\n        /* \"#utility.yul\":3758:4042   */\n    tag_183:\n        /* \"#utility.yul\":3783:3789   */\n      dup4\n        /* \"#utility.yul\":3780:3781   */\n      dup2\n        /* \"#utility.yul\":3777:3790   */\n      lt\n        /* \"#utility.yul\":3758:4042   */\n      iszero\n      tag_185\n      jumpi\n        /* \"#utility.yul\":3859:3865   */\n      dup2\n        /* \"#utility.yul\":3853:3866   */\n      mload\n        /* \"#utility.yul\":3886:3949   */\n      tag_186\n        /* \"#utility.yul\":3945:3948   */\n      dup9\n        /* \"#utility.yul\":3930:3943   */\n      dup3\n        /* \"#utility.yul\":3886:3949   */\n      tag_110\n      jump\t// in\n    tag_186:\n        /* \"#utility.yul\":3879:3949   */\n      swap8\n      pop\n        /* \"#utility.yul\":3972:4032   */\n      tag_187\n        /* \"#utility.yul\":4025:4031   */\n      dup4\n        /* \"#utility.yul\":3972:4032   */\n      tag_111\n      jump\t// in\n    tag_187:\n        /* \"#utility.yul\":3962:4032   */\n      swap3\n      pop\n        /* \"#utility.yul\":3818:4042   */\n      pop\n        /* \"#utility.yul\":3805:3806   */\n      0x01\n        /* \"#utility.yul\":3802:3803   */\n      dup2\n        /* \"#utility.yul\":3798:3807   */\n      add\n        /* \"#utility.yul\":3793:3807   */\n      swap1\n      pop\n        /* \"#utility.yul\":3758:4042   */\n      jump(tag_183)\n    tag_185:\n        /* \"#utility.yul\":3762:3776   */\n      pop\n        /* \"#utility.yul\":4058:4061   */\n      dup6\n        /* \"#utility.yul\":4051:4061   */\n      swap4\n      pop\n        /* \"#utility.yul\":3459:4067   */\n      pop\n      pop\n      pop\n        /* \"#utility.yul\":3335:4067   */\n      swap3\n      swap2\n      pop\n      pop\n      jump\t// out\n        /* \"#utility.yul\":4073:4446   */\n    tag_24:\n        /* \"#utility.yul\":4216:4220   */\n      0x00\n        /* \"#utility.yul\":4254:4256   */\n      0x20\n        /* \"#utility.yul\":4243:4252   */\n      dup3\n        /* \"#utility.yul\":4239:4257   */\n      add\n        /* \"#utility.yul\":4231:4257   */\n      swap1\n      pop\n        /* \"#utility.yul\":4303:4312   */\n      dup2\n        /* \"#utility.yul\":4297:4301   */\n      dup2\n        /* \"#utility.yul\":4293:4313   */\n      sub\n        /* \"#utility.yul\":4289:4290   */\n      0x00\n        /* \"#utility.yul\":4278:4287   */\n      dup4\n        /* \"#utility.yul\":4274:4291   */\n      add\n        /* \"#utility.yul\":4267:4314   */\n      mstore\n        /* \"#utility.yul\":4331:4439   */\n      tag_189\n        /* \"#utility.yul\":4434:4438   */\n      dup2\n        /* \"#utility.yul\":4425:4431   */\n      dup5\n        /* \"#utility.yul\":4331:4439   */\n      tag_112\n      jump\t// in\n    tag_189:\n        /* \"#utility.yul\":4323:4439   */\n      swap1\n      pop\n        /* \"#utility.yul\":4073:4446   */\n      swap3\n      swap2\n      pop\n      pop\n      jump\t// out\n        /* \"#utility.yul\":4452:4781   */\n    tag_27:\n        /* \"#utility.yul\":4511:4517   */\n      0x00\n        /* \"#utility.yul\":4560:4562   */\n      0x20\n        /* \"#utility.yul\":4548:4557   */\n      dup3\n        /* \"#utility.yul\":4539:4546   */\n      dup5\n        /* \"#utility.yul\":4535:4558   */\n      sub\n        /* \"#utility.yul\":4531:4563   */\n      slt\n        /* \"#utility.yul\":4528:4647   */\n      iszero\n      tag_191\n      jumpi\n        /* \"#utility.yul\":4566:4645   */\n      tag_192\n      tag_95\n      jump\t// in\n    tag_192:\n        /* \"#utility.yul\":4528:4647   */\n    tag_191:\n        /* \"#utility.yul\":4686:4687   */\n      0x00\n        /* \"#utility.yul\":4711:4764   */\n      tag_193\n        /* \"#utility.yul\":4756:4763   */\n      dup5\n        /* \"#utility.yul\":4747:4753   */\n      dup3\n        /* \"#utility.yul\":4736:4745   */\n      dup6\n        /* \"#utility.yul\":4732:4754   */\n      add\n        /* \"#utility.yul\":4711:4764   */\n      tag_105\n      jump\t// in\n    tag_193:\n        /* \"#utility.yul\":4701:4764   */\n      swap2\n      pop\n        /* \"#utility.yul\":4657:4774   */\n      pop\n        /* \"#utility.yul\":4452:4781   */\n      swap3\n      swap2\n      pop\n      pop\n      jump\t// out\n        /* \"#utility.yul\":4787:4847   */\n    tag_113:\n        /* \"#utility.yul\":4815:4818   */\n      0x00\n        /* \"#utility.yul\":4836:4841   */\n      dup2\n        /* \"#utility.yul\":4829:4841   */\n      swap1\n      pop\n        /* \"#utility.yul\":4787:4847   */\n      swap2\n      swap1\n      pop\n      jump\t// out\n        /* \"#utility.yul\":4853:4995   */\n    tag_114:\n        /* \"#utility.yul\":4903:4912   */\n      0x00\n        /* \"#utility.yul\":4936:4989   */\n      tag_196\n        /* \"#utility.yul\":4954:4988   */\n      tag_197\n        /* \"#utility.yul\":4963:4987   */\n      tag_198\n        /* \"#utility.yul\":4981:4986   */\n      dup5\n        /* \"#utility.yul\":4963:4987   */\n      tag_97\n      jump\t// in\n    tag_198:\n        /* \"#utility.yul\":4954:4988   */\n      tag_113\n      jump\t// in\n    tag_197:\n        /* \"#utility.yul\":4936:4989   */\n      tag_97\n      jump\t// in\n    tag_196:\n        /* \"#utility.yul\":4923:4989   */\n      swap1\n      pop\n        /* \"#utility.yul\":4853:4995   */\n      swap2\n      swap1\n      pop\n      jump\t// out\n        /* \"#utility.yul\":5001:5127   */\n    tag_115:\n        /* \"#utility.yul\":5051:5060   */\n      0x00\n        /* \"#utility.yul\":5084:5121   */\n      tag_200\n        /* \"#utility.yul\":5115:5120   */\n      dup3\n        /* \"#utility.yul\":5084:5121   */\n      tag_114\n      jump\t// in\n    tag_200:\n        /* \"#utility.yul\":5071:5121   */\n      swap1\n      pop\n        /* \"#utility.yul\":5001:5127   */\n      swap2\n      swap1\n      pop\n      jump\t// out\n        /* \"#utility.yul\":5133:5287   */\n    tag_116:\n        /* \"#utility.yul\":5211:5220   */\n      0x00\n        /* \"#utility.yul\":5244:5281   */\n      tag_202\n        /* \"#utility.yul\":5275:5280   */\n      dup3\n        /* \"#utility.yul\":5244:5281   */\n      tag_115\n      jump\t// in\n    tag_202:\n        /* \"#utility.yul\":5231:5281   */\n      swap1\n      pop\n        /* \"#utility.yul\":5133:5287   */\n      swap2\n      swap1\n      pop\n      jump\t// out\n        /* \"#utility.yul\":5293:5480   */\n    tag_117:\n        /* \"#utility.yul\":5408:5473   */\n      tag_204\n        /* \"#utility.yul\":5467:5472   */\n      dup2\n        /* \"#utility.yul\":5408:5473   */\n      tag_116\n      jump\t// in\n    tag_204:\n        /* \"#utility.yul\":5403:5406   */\n      dup3\n        /* \"#utility.yul\":5396:5474   */\n      mstore\n        /* \"#utility.yul\":5293:5480   */\n      pop\n      pop\n      jump\t// out\n        /* \"#utility.yul\":5486:5764   */\n    tag_30:\n        /* \"#utility.yul\":5607:5611   */\n      0x00\n        /* \"#utility.yul\":5645:5647   */\n      0x20\n        /* \"#utility.yul\":5634:5643   */\n      dup3\n        /* \"#utility.yul\":5630:5648   */\n      add\n        /* \"#utility.yul\":5622:5648   */\n      swap1\n      pop\n        /* \"#utility.yul\":5658:5757   */\n      tag_206\n        /* \"#utility.yul\":5754:5755   */\n      0x00\n        /* \"#utility.yul\":5743:5752   */\n      dup4\n        /* \"#utility.yul\":5739:5756   */\n      add\n        /* \"#utility.yul\":5730:5736   */\n      dup5\n        /* \"#utility.yul\":5658:5757   */\n      tag_117\n      jump\t// in\n    tag_206:\n        /* \"#utility.yul\":5486:5764   */\n      swap3\n      swap2\n      pop\n      pop\n      jump\t// out\n        /* \"#utility.yul\":5770:6244   */\n    tag_33:\n        /* \"#utility.yul\":5838:5844   */\n      0x00\n        /* \"#utility.yul\":5846:5852   */\n      0x00\n        /* \"#utility.yul\":5895:5897   */\n      0x40\n        /* \"#utility.yul\":5883:5892   */\n      dup4\n        /* \"#utility.yul\":5874:5881   */\n      dup6\n        /* \"#utility.yul\":5870:5893   */\n      sub\n        /* \"#utility.yul\":5866:5898   */\n      slt\n        /* \"#utility.yul\":5863:5982   */\n      iszero\n      tag_208\n      jumpi\n        /* \"#utility.yul\":5901:5980   */\n      tag_209\n      tag_95\n      jump\t// in\n    tag_209:\n        /* \"#utility.yul\":5863:5982   */\n    tag_208:\n        /* \"#utility.yul\":6021:6022   */\n      0x00\n        /* \"#utility.yul\":6046:6099   */\n      tag_210\n        /* \"#utility.yul\":6091:6098   */\n      dup6\n        /* \"#utility.yul\":6082:6088   */\n      dup3\n        /* \"#utility.yul\":6071:6080   */\n      dup7\n        /* \"#utility.yul\":6067:6089   */\n      add\n        /* \"#utility.yul\":6046:6099   */\n      tag_105\n      jump\t// in\n    tag_210:\n        /* \"#utility.yul\":6036:6099   */\n      swap3\n      pop\n        /* \"#utility.yul\":5992:6109   */\n      pop\n        /* \"#utility.yul\":6148:6150   */\n      0x20\n        /* \"#utility.yul\":6174:6227   */\n      tag_211\n        /* \"#utility.yul\":6219:6226   */\n      dup6\n        /* \"#utility.yul\":6210:6216   */\n      dup3\n        /* \"#utility.yul\":6199:6208   */\n      dup7\n        /* \"#utility.yul\":6195:6217   */\n      add\n        /* \"#utility.yul\":6174:6227   */\n      tag_100\n      jump\t// in\n    tag_211:\n        /* \"#utility.yul\":6164:6227   */\n      swap2\n      pop\n        /* \"#utility.yul\":6119:6237   */\n      pop\n        /* \"#utility.yul\":5770:6244   */\n      swap3\n      pop\n      swap3\n      swap1\n      pop\n      jump\t// out\n        /* \"#utility.yul\":6250:6368   */\n    tag_118:\n        /* \"#utility.yul\":6337:6361   */\n      tag_213\n        /* \"#utility.yul\":6355:6360   */\n      dup2\n        /* \"#utility.yul\":6337:6361   */\n      tag_103\n      jump\t// in\n    tag_213:\n        /* \"#utility.yul\":6332:6335   */\n      dup3\n        /* \"#utility.yul\":6325:6362   */\n      mstore\n        /* \"#utility.yul\":6250:6368   */\n      pop\n      pop\n      jump\t// out\n        /* \"#utility.yul\":6374:6596   */\n    tag_38:\n        /* \"#utility.yul\":6467:6471   */\n      0x00\n        /* \"#utility.yul\":6505:6507   */\n      0x20\n        /* \"#utility.yul\":6494:6503   */\n      dup3\n        /* \"#utility.yul\":6490:6508   */\n      add\n        /* \"#utility.yul\":6482:6508   */\n      swap1\n      pop\n        /* \"#utility.yul\":6518:6589   */\n      tag_215\n        /* \"#utility.yul\":6586:6587   */\n      0x00\n        /* \"#utility.yul\":6575:6584   */\n      dup4\n        /* \"#utility.yul\":6571:6588   */\n      add\n        /* \"#utility.yul\":6562:6568   */\n      dup5\n        /* \"#utility.yul\":6518:6589   */\n      tag_118\n      jump\t// in\n    tag_215:\n        /* \"#utility.yul\":6374:6596   */\n      swap3\n      swap2\n      pop\n      pop\n      jump\t// out\n        /* \"#utility.yul\":6602:6720   */\n    tag_119:\n        /* \"#utility.yul\":6689:6713   */\n      tag_217\n        /* \"#utility.yul\":6707:6712   */\n      dup2\n        /* \"#utility.yul\":6689:6713   */\n      tag_98\n      jump\t// in\n    tag_217:\n        /* \"#utility.yul\":6684:6687   */\n      dup3\n        /* \"#utility.yul\":6677:6714   */\n      mstore\n        /* \"#utility.yul\":6602:6720   */\n      pop\n      pop\n      jump\t// out\n        /* \"#utility.yul\":6726:6948   */\n    tag_42:\n        /* \"#utility.yul\":6819:6823   */\n      0x00\n        /* \"#utility.yul\":6857:6859   */\n      0x20\n        /* \"#utility.yul\":6846:6855   */\n      dup3\n        /* \"#utility.yul\":6842:6860   */\n      add\n        /* \"#utility.yul\":6834:6860   */\n      swap1\n      pop\n        /* \"#utility.yul\":6870:6941   */\n      tag_219\n        /* \"#utility.yul\":6938:6939   */\n      0x00\n        /* \"#utility.yul\":6927:6936   */\n      dup4\n        /* \"#utility.yul\":6923:6940   */\n      add\n        /* \"#utility.yul\":6914:6920   */\n      dup5\n        /* \"#utility.yul\":6870:6941   */\n      tag_119\n      jump\t// in\n    tag_219:\n        /* \"#utility.yul\":6726:6948   */\n      swap3\n      swap2\n      pop\n      pop\n      jump\t// out\n        /* \"#utility.yul\":6954:7123   */\n    tag_120:\n        /* \"#utility.yul\":7038:7049   */\n      0x00\n        /* \"#utility.yul\":7072:7078   */\n      dup3\n        /* \"#utility.yul\":7067:7070   */\n      dup3\n        /* \"#utility.yul\":7060:7079   */\n      mstore\n        /* \"#utility.yul\":7112:7116   */\n      0x20\n        /* \"#utility.yul\":7107:7110   */\n      dup3\n        /* \"#utility.yul\":7103:7117   */\n      add\n        /* \"#utility.yul\":7088:7117   */\n      swap1\n      pop\n        /* \"#utility.yul\":6954:7123   */\n      swap3\n      swap2\n      pop\n      pop\n      jump\t// out\n        /* \"#utility.yul\":7129:7293   */\n    tag_121:\n        /* \"#utility.yul\":7269:7285   */\n      0x53656465206e6f2076616c696461000000000000000000000000000000000000\n        /* \"#utility.yul\":7265:7266   */\n      0x00\n        /* \"#utility.yul\":7257:7263   */\n      dup3\n        /* \"#utility.yul\":7253:7267   */\n      add\n        /* \"#utility.yul\":7246:7286   */\n      mstore\n        /* \"#utility.yul\":7129:7293   */\n      pop\n      jump\t// out\n        /* \"#utility.yul\":7299:7665   */\n    tag_122:\n        /* \"#utility.yul\":7441:7444   */\n      0x00\n        /* \"#utility.yul\":7462:7529   */\n      tag_223\n        /* \"#utility.yul\":7526:7528   */\n      0x0e\n        /* \"#utility.yul\":7521:7524   */\n      dup4\n        /* \"#utility.yul\":7462:7529   */\n      tag_120\n      jump\t// in\n    tag_223:\n        /* \"#utility.yul\":7455:7529   */\n      swap2\n      pop\n        /* \"#utility.yul\":7538:7631   */\n      tag_224\n        /* \"#utility.yul\":7627:7630   */\n      dup3\n        /* \"#utility.yul\":7538:7631   */\n      tag_121\n      jump\t// in\n    tag_224:\n        /* \"#utility.yul\":7656:7658   */\n      0x20\n        /* \"#utility.yul\":7651:7654   */\n      dup3\n        /* \"#utility.yul\":7647:7659   */\n      add\n        /* \"#utility.yul\":7640:7659   */\n      swap1\n      pop\n        /* \"#utility.yul\":7299:7665   */\n      swap2\n      swap1\n      pop\n      jump\t// out\n        /* \"#utility.yul\":7671:8090   */\n    tag_46:\n        /* \"#utility.yul\":7837:7841   */\n      0x00\n        /* \"#utility.yul\":7875:7877   */\n      0x20\n        /* \"#utility.yul\":7864:7873   */\n      dup3\n        /* \"#utility.yul\":7860:7878   */\n      add\n        /* \"#utility.yul\":7852:7878   */\n      swap1\n      pop\n        /* \"#utility.yul\":7924:7933   */\n      dup2\n        /* \"#utility.yul\":7918:7922   */\n      dup2\n        /* \"#utility.yul\":7914:7934   */\n      sub\n        /* \"#utility.yul\":7910:7911   */\n      0x00\n        /* \"#utility.yul\":7899:7908   */\n      dup4\n        /* \"#utility.yul\":7895:7912   */\n      add\n        /* \"#utility.yul\":7888:7935   */\n      mstore\n        /* \"#utility.yul\":7952:8083   */\n      tag_226\n        /* \"#utility.yul\":8078:8082   */\n      dup2\n        /* \"#utility.yul\":7952:8083   */\n      tag_122\n      jump\t// in\n    tag_226:\n        /* \"#utility.yul\":7944:8083   */\n      swap1\n      pop\n        /* \"#utility.yul\":7671:8090   */\n      swap2\n      swap1\n      pop\n      jump\t// out\n        /* \"#utility.yul\":8096:8259   */\n    tag_123:\n        /* \"#utility.yul\":8236:8251   */\n      0x59612068617320766f7461646f00000000000000000000000000000000000000\n        /* \"#utility.yul\":8232:8233   */\n      0x00\n        /* \"#utility.yul\":8224:8230   */\n      dup3\n        /* \"#utility.yul\":8220:8234   */\n      add\n        /* \"#utility.yul\":8213:8252   */\n      mstore\n        /* \"#utility.yul\":8096:8259   */\n      pop\n      jump\t// out\n        /* \"#utility.yul\":8265:8631   */\n    tag_124:\n        /* \"#utility.yul\":8407:8410   */\n      0x00\n        /* \"#utility.yul\":8428:8495   */\n      tag_229\n        /* \"#utility.yul\":8492:8494   */\n      0x0d\n        /* \"#utility.yul\":8487:8490   */\n      dup4\n        /* \"#utility.yul\":8428:8495   */\n      tag_120\n      jump\t// in\n    tag_229:\n        /* \"#utility.yul\":8421:8495   */\n      swap2\n      pop\n        /* \"#utility.yul\":8504:8597   */\n      tag_230\n        /* \"#utility.yul\":8593:8596   */\n      dup3\n        /* \"#utility.yul\":8504:8597   */\n      tag_123\n      jump\t// in\n    tag_230:\n        /* \"#utility.yul\":8622:8624   */\n      0x20\n        /* \"#utility.yul\":8617:8620   */\n      dup3\n        /* \"#utility.yul\":8613:8625   */\n      add\n        /* \"#utility.yul\":8606:8625   */\n      swap1\n      pop\n        /* \"#utility.yul\":8265:8631   */\n      swap2\n      swap1\n      pop\n      jump\t// out\n        /* \"#utility.yul\":8637:9056   */\n    tag_49:\n        /* \"#utility.yul\":8803:8807   */\n      0x00\n        /* \"#utility.yul\":8841:8843   */\n      0x20\n        /* \"#utility.yul\":8830:8839   */\n      dup3\n        /* \"#utility.yul\":8826:8844   */\n      add\n        /* \"#utility.yul\":8818:8844   */\n      swap1\n      pop\n        /* \"#utility.yul\":8890:8899   */\n      dup2\n        /* \"#utility.yul\":8884:8888   */\n      dup2\n        /* \"#utility.yul\":8880:8900   */\n      sub\n        /* \"#utility.yul\":8876:8877   */\n      0x00\n        /* \"#utility.yul\":8865:8874   */\n      dup4\n        /* \"#utility.yul\":8861:8878   */\n      add\n        /* \"#utility.yul\":8854:8901   */\n      mstore\n        /* \"#utility.yul\":8918:9049   */\n      tag_232\n        /* \"#utility.yul\":9044:9048   */\n      dup2\n        /* \"#utility.yul\":8918:9049   */\n      tag_124\n      jump\t// in\n    tag_232:\n        /* \"#utility.yul\":8910:9049   */\n      swap1\n      pop\n        /* \"#utility.yul\":8637:9056   */\n      swap2\n      swap1\n      pop\n      jump\t// out\n        /* \"#utility.yul\":9062:9283   */\n    tag_125:\n        /* \"#utility.yul\":9202:9236   */\n      0x536f6c6f206c61206175746f7269646164207075656465206861636572206573\n        /* \"#utility.yul\":9198:9199   */\n      0x00\n        /* \"#utility.yul\":9190:9196   */\n      dup3\n        /* \"#utility.yul\":9186:9200   */\n      add\n        /* \"#utility.yul\":9179:9237   */\n      mstore\n        /* \"#utility.yul\":9271:9275   */\n      0x746f000000000000000000000000000000000000000000000000000000000000\n        /* \"#utility.yul\":9266:9268   */\n      0x20\n        /* \"#utility.yul\":9258:9264   */\n      dup3\n        /* \"#utility.yul\":9254:9269   */\n      add\n        /* \"#utility.yul\":9247:9276   */\n      mstore\n        /* \"#utility.yul\":9062:9283   */\n      pop\n      jump\t// out\n        /* \"#utility.yul\":9289:9655   */\n    tag_126:\n        /* \"#utility.yul\":9431:9434   */\n      0x00\n        /* \"#utility.yul\":9452:9519   */\n      tag_235\n        /* \"#utility.yul\":9516:9518   */\n      0x22\n        /* \"#utility.yul\":9511:9514   */\n      dup4\n        /* \"#utility.yul\":9452:9519   */\n      tag_120\n      jump\t// in\n    tag_235:\n        /* \"#utility.yul\":9445:9519   */\n      swap2\n      pop\n        /* \"#utility.yul\":9528:9621   */\n      tag_236\n        /* \"#utility.yul\":9617:9620   */\n      dup3\n        /* \"#utility.yul\":9528:9621   */\n      tag_125\n      jump\t// in\n    tag_236:\n        /* \"#utility.yul\":9646:9648   */\n      0x40\n        /* \"#utility.yul\":9641:9644   */\n      dup3\n        /* \"#utility.yul\":9637:9649   */\n      add\n        /* \"#utility.yul\":9630:9649   */\n      swap1\n      pop\n        /* \"#utility.yul\":9289:9655   */\n      swap2\n      swap1\n      pop\n      jump\t// out\n        /* \"#utility.yul\":9661:10080   */\n    tag_57:\n        /* \"#utility.yul\":9827:9831   */\n      0x00\n        /* \"#utility.yul\":9865:9867   */\n      0x20\n        /* \"#utility.yul\":9854:9863   */\n      dup3\n        /* \"#utility.yul\":9850:9868   */\n      add\n        /* \"#utility.yul\":9842:9868   */\n      swap1\n      pop\n        /* \"#utility.yul\":9914:9923   */\n      dup2\n        /* \"#utility.yul\":9908:9912   */\n      dup2\n        /* \"#utility.yul\":9904:9924   */\n      sub\n        /* \"#utility.yul\":9900:9901   */\n      0x00\n        /* \"#utility.yul\":9889:9898   */\n      dup4\n        /* \"#utility.yul\":9885:9902   */\n      add\n        /* \"#utility.yul\":9878:9925   */\n      mstore\n        /* \"#utility.yul\":9942:10073   */\n      tag_238\n        /* \"#utility.yul\":10068:10072   */\n      dup2\n        /* \"#utility.yul\":9942:10073   */\n      tag_126\n      jump\t// in\n    tag_238:\n        /* \"#utility.yul\":9934:10073   */\n      swap1\n      pop\n        /* \"#utility.yul\":9661:10080   */\n      swap2\n      swap1\n      pop\n      jump\t// out\n        /* \"#utility.yul\":10086:10266   */\n    tag_61:\n        /* \"#utility.yul\":10134:10211   */\n      0x4e487b7100000000000000000000000000000000000000000000000000000000\n        /* \"#utility.yul\":10131:10132   */\n      0x00\n        /* \"#utility.yul\":10124:10212   */\n      mstore\n        /* \"#utility.yul\":10231:10235   */\n      0x41\n        /* \"#utility.yul\":10228:10229   */\n      0x04\n        /* \"#utility.yul\":10221:10236   */\n      mstore\n        /* \"#utility.yul\":10255:10259   */\n      0x24\n        /* \"#utility.yul\":10252:10253   */\n      0x00\n        /* \"#utility.yul\":10245:10260   */\n      revert\n        /* \"#utility.yul\":10272:10452   */\n    tag_68:\n        /* \"#utility.yul\":10320:10397   */\n      0x4e487b7100000000000000000000000000000000000000000000000000000000\n        /* \"#utility.yul\":10317:10318   */\n      0x00\n        /* \"#utility.yul\":10310:10398   */\n      mstore\n        /* \"#utility.yul\":10417:10421   */\n      0x32\n        /* \"#utility.yul\":10414:10415   */\n      0x04\n        /* \"#utility.yul\":10407:10422   */\n      mstore\n        /* \"#utility.yul\":10441:10445   */\n      0x24\n        /* \"#utility.yul\":10438:10439   */\n      0x00\n        /* \"#utility.yul\":10431:10446   */\n      revert\n        /* \"#utility.yul\":10458:10575   */\n    tag_127:\n        /* \"#utility.yul\":10567:10568   */\n      0x00\n        /* \"#utility.yul\":10564:10565   */\n      0x00\n        /* \"#utility.yul\":10557:10569   */\n      revert\n        /* \"#utility.yul\":10581:10683   */\n    tag_128:\n        /* \"#utility.yul\":10622:10628   */\n      0x00\n        /* \"#utility.yul\":10673:10675   */\n      0x1f\n        /* \"#utility.yul\":10669:10676   */\n      not\n        /* \"#utility.yul\":10664:10666   */\n      0x1f\n        /* \"#utility.yul\":10657:10662   */\n      dup4\n        /* \"#utility.yul\":10653:10667   */\n      add\n        /* \"#utility.yul\":10649:10677   */\n      and\n        /* \"#utility.yul\":10639:10677   */\n      swap1\n      pop\n        /* \"#utility.yul\":10581:10683   */\n      swap2\n      swap1\n      pop\n      jump\t// out\n        /* \"#utility.yul\":10689:10970   */\n    tag_129:\n        /* \"#utility.yul\":10772:10799   */\n      tag_244\n        /* \"#utility.yul\":10794:10798   */\n      dup3\n        /* \"#utility.yul\":10772:10799   */\n      tag_128\n      jump\t// in\n    tag_244:\n        /* \"#utility.yul\":10764:10770   */\n      dup2\n        /* \"#utility.yul\":10760:10800   */\n      add\n        /* \"#utility.yul\":10902:10908   */\n      dup2\n        /* \"#utility.yul\":10890:10900   */\n      dup2\n        /* \"#utility.yul\":10887:10909   */\n      lt\n        /* \"#utility.yul\":10866:10884   */\n      0xffffffffffffffff\n        /* \"#utility.yul\":10854:10864   */\n      dup3\n        /* \"#utility.yul\":10851:10885   */\n      gt\n        /* \"#utility.yul\":10848:10910   */\n      or\n        /* \"#utility.yul\":10845:10933   */\n      iszero\n      tag_245\n      jumpi\n        /* \"#utility.yul\":10913:10931   */\n      tag_246\n      tag_61\n      jump\t// in\n    tag_246:\n        /* \"#utility.yul\":10845:10933   */\n    tag_245:\n        /* \"#utility.yul\":10953:10963   */\n      dup1\n        /* \"#utility.yul\":10949:10951   */\n      0x40\n        /* \"#utility.yul\":10942:10964   */\n      mstore\n        /* \"#utility.yul\":10732:10970   */\n      pop\n        /* \"#utility.yul\":10689:10970   */\n      pop\n      pop\n      jump\t// out\n        /* \"#utility.yul\":10976:11105   */\n    tag_130:\n        /* \"#utility.yul\":11010:11016   */\n      0x00\n        /* \"#utility.yul\":11037:11057   */\n      tag_248\n      tag_94\n      jump\t// in\n    tag_248:\n        /* \"#utility.yul\":11027:11057   */\n      swap1\n      pop\n        /* \"#utility.yul\":11066:11099   */\n      tag_249\n        /* \"#utility.yul\":11094:11098   */\n      dup3\n        /* \"#utility.yul\":11086:11092   */\n      dup3\n        /* \"#utility.yul\":11066:11099   */\n      tag_129\n      jump\t// in\n    tag_249:\n        /* \"#utility.yul\":10976:11105   */\n      swap2\n      swap1\n      pop\n      jump\t// out\n        /* \"#utility.yul\":11111:11422   */\n    tag_131:\n        /* \"#utility.yul\":11188:11192   */\n      0x00\n        /* \"#utility.yul\":11278:11296   */\n      0xffffffffffffffff\n        /* \"#utility.yul\":11270:11276   */\n      dup3\n        /* \"#utility.yul\":11267:11297   */\n      gt\n        /* \"#utility.yul\":11264:11320   */\n      iszero\n      tag_251\n      jumpi\n        /* \"#utility.yul\":11300:11318   */\n      tag_252\n      tag_61\n      jump\t// in\n    tag_252:\n        /* \"#utility.yul\":11264:11320   */\n    tag_251:\n        /* \"#utility.yul\":11350:11354   */\n      0x20\n        /* \"#utility.yul\":11342:11348   */\n      dup3\n        /* \"#utility.yul\":11338:11355   */\n      mul\n        /* \"#utility.yul\":11330:11355   */\n      swap1\n      pop\n        /* \"#utility.yul\":11410:11414   */\n      0x20\n        /* \"#utility.yul\":11404:11408   */\n      dup2\n        /* \"#utility.yul\":11400:11415   */\n      add\n        /* \"#utility.yul\":11392:11415   */\n      swap1\n      pop\n        /* \"#utility.yul\":11111:11422   */\n      swap2\n      swap1\n      pop\n      jump\t// out\n        /* \"#utility.yul\":11428:11545   */\n    tag_132:\n        /* \"#utility.yul\":11537:11538   */\n      0x00\n        /* \"#utility.yul\":11534:11535   */\n      0x00\n        /* \"#utility.yul\":11527:11539   */\n      revert\n        /* \"#utility.yul\":11551:11694   */\n    tag_133:\n        /* \"#utility.yul\":11608:11613   */\n      0x00\n        /* \"#utility.yul\":11639:11645   */\n      dup2\n        /* \"#utility.yul\":11633:11646   */\n      mload\n        /* \"#utility.yul\":11624:11646   */\n      swap1\n      pop\n        /* \"#utility.yul\":11655:11688   */\n      tag_255\n        /* \"#utility.yul\":11682:11687   */\n      dup2\n        /* \"#utility.yul\":11655:11688   */\n      tag_104\n      jump\t// in\n    tag_255:\n        /* \"#utility.yul\":11551:11694   */\n      swap3\n      swap2\n      pop\n      pop\n      jump\t// out\n        /* \"#utility.yul\":11717:12449   */\n    tag_134:\n        /* \"#utility.yul\":11824:11829   */\n      0x00\n        /* \"#utility.yul\":11849:11930   */\n      tag_257\n        /* \"#utility.yul\":11865:11929   */\n      tag_258\n        /* \"#utility.yul\":11922:11928   */\n      dup5\n        /* \"#utility.yul\":11865:11929   */\n      tag_131\n      jump\t// in\n    tag_258:\n        /* \"#utility.yul\":11849:11930   */\n      tag_130\n      jump\t// in\n    tag_257:\n        /* \"#utility.yul\":11840:11930   */\n      swap1\n      pop\n        /* \"#utility.yul\":11950:11955   */\n      dup1\n        /* \"#utility.yul\":11979:11985   */\n      dup4\n        /* \"#utility.yul\":11972:11977   */\n      dup3\n        /* \"#utility.yul\":11965:11986   */\n      mstore\n        /* \"#utility.yul\":12013:12017   */\n      0x20\n        /* \"#utility.yul\":12006:12011   */\n      dup3\n        /* \"#utility.yul\":12002:12018   */\n      add\n        /* \"#utility.yul\":11995:12018   */\n      swap1\n      pop\n        /* \"#utility.yul\":12066:12070   */\n      0x20\n        /* \"#utility.yul\":12058:12064   */\n      dup5\n        /* \"#utility.yul\":12054:12071   */\n      mul\n        /* \"#utility.yul\":12046:12052   */\n      dup4\n        /* \"#utility.yul\":12042:12072   */\n      add\n        /* \"#utility.yul\":12095:12098   */\n      dup6\n        /* \"#utility.yul\":12087:12093   */\n      dup2\n        /* \"#utility.yul\":12084:12099   */\n      gt\n        /* \"#utility.yul\":12081:12203   */\n      iszero\n      tag_259\n      jumpi\n        /* \"#utility.yul\":12114:12193   */\n      tag_260\n      tag_132\n      jump\t// in\n    tag_260:\n        /* \"#utility.yul\":12081:12203   */\n    tag_259:\n        /* \"#utility.yul\":12229:12235   */\n      dup4\n        /* \"#utility.yul\":12212:12443   */\n    tag_261:\n        /* \"#utility.yul\":12246:12252   */\n      dup2\n        /* \"#utility.yul\":12241:12244   */\n      dup2\n        /* \"#utility.yul\":12238:12253   */\n      lt\n        /* \"#utility.yul\":12212:12443   */\n      iszero\n      tag_263\n      jumpi\n        /* \"#utility.yul\":12321:12324   */\n      dup1\n        /* \"#utility.yul\":12350:12398   */\n      tag_264\n        /* \"#utility.yul\":12394:12397   */\n      dup9\n        /* \"#utility.yul\":12382:12392   */\n      dup3\n        /* \"#utility.yul\":12350:12398   */\n      tag_133\n      jump\t// in\n    tag_264:\n        /* \"#utility.yul\":12345:12348   */\n      dup5\n        /* \"#utility.yul\":12338:12399   */\n      mstore\n        /* \"#utility.yul\":12428:12432   */\n      0x20\n        /* \"#utility.yul\":12423:12426   */\n      dup5\n        /* \"#utility.yul\":12419:12433   */\n      add\n        /* \"#utility.yul\":12412:12433   */\n      swap4\n      pop\n        /* \"#utility.yul\":12288:12443   */\n      pop\n        /* \"#utility.yul\":12272:12276   */\n      0x20\n        /* \"#utility.yul\":12267:12270   */\n      dup2\n        /* \"#utility.yul\":12263:12277   */\n      add\n        /* \"#utility.yul\":12256:12277   */\n      swap1\n      pop\n        /* \"#utility.yul\":12212:12443   */\n      jump(tag_261)\n    tag_263:\n        /* \"#utility.yul\":12216:12237   */\n      pop\n        /* \"#utility.yul\":11830:12449   */\n      pop\n      pop\n        /* \"#utility.yul\":11717:12449   */\n      swap4\n      swap3\n      pop\n      pop\n      pop\n      jump\t// out\n        /* \"#utility.yul\":12472:12857   */\n    tag_135:\n        /* \"#utility.yul\":12554:12559   */\n      0x00\n        /* \"#utility.yul\":12603:12606   */\n      dup3\n        /* \"#utility.yul\":12596:12600   */\n      0x1f\n        /* \"#utility.yul\":12588:12594   */\n      dup4\n        /* \"#utility.yul\":12584:12601   */\n      add\n        /* \"#utility.yul\":12580:12607   */\n      slt\n        /* \"#utility.yul\":12570:12692   */\n      tag_266\n      jumpi\n        /* \"#utility.yul\":12611:12690   */\n      tag_267\n      tag_127\n      jump\t// in\n    tag_267:\n        /* \"#utility.yul\":12570:12692   */\n    tag_266:\n        /* \"#utility.yul\":12721:12727   */\n      dup2\n        /* \"#utility.yul\":12715:12728   */\n      mload\n        /* \"#utility.yul\":12746:12851   */\n      tag_268\n        /* \"#utility.yul\":12847:12850   */\n      dup5\n        /* \"#utility.yul\":12839:12845   */\n      dup3\n        /* \"#utility.yul\":12832:12836   */\n      0x20\n        /* \"#utility.yul\":12824:12830   */\n      dup7\n        /* \"#utility.yul\":12820:12837   */\n      add\n        /* \"#utility.yul\":12746:12851   */\n      tag_134\n      jump\t// in\n    tag_268:\n        /* \"#utility.yul\":12737:12851   */\n      swap2\n      pop\n        /* \"#utility.yul\":12560:12857   */\n      pop\n        /* \"#utility.yul\":12472:12857   */\n      swap3\n      swap2\n      pop\n      pop\n      jump\t// out\n        /* \"#utility.yul\":12863:13417   */\n    tag_72:\n        /* \"#utility.yul\":12958:12964   */\n      0x00\n        /* \"#utility.yul\":13007:13009   */\n      0x20\n        /* \"#utility.yul\":12995:13004   */\n      dup3\n        /* \"#utility.yul\":12986:12993   */\n      dup5\n        /* \"#utility.yul\":12982:13005   */\n      sub\n        /* \"#utility.yul\":12978:13010   */\n      slt\n        /* \"#utility.yul\":12975:13094   */\n      iszero\n      tag_270\n      jumpi\n        /* \"#utility.yul\":13013:13092   */\n      tag_271\n      tag_95\n      jump\t// in\n    tag_271:\n        /* \"#utility.yul\":12975:13094   */\n    tag_270:\n        /* \"#utility.yul\":13154:13155   */\n      0x00\n        /* \"#utility.yul\":13143:13152   */\n      dup3\n        /* \"#utility.yul\":13139:13156   */\n      add\n        /* \"#utility.yul\":13133:13157   */\n      mload\n        /* \"#utility.yul\":13184:13202   */\n      0xffffffffffffffff\n        /* \"#utility.yul\":13176:13182   */\n      dup2\n        /* \"#utility.yul\":13173:13203   */\n      gt\n        /* \"#utility.yul\":13170:13287   */\n      iszero\n      tag_272\n      jumpi\n        /* \"#utility.yul\":13206:13285   */\n      tag_273\n      tag_96\n      jump\t// in\n    tag_273:\n        /* \"#utility.yul\":13170:13287   */\n    tag_272:\n        /* \"#utility.yul\":13311:13400   */\n      tag_274\n        /* \"#utility.yul\":13392:13399   */\n      dup5\n        /* \"#utility.yul\":13383:13389   */\n      dup3\n        /* \"#utility.yul\":13372:13381   */\n      dup6\n        /* \"#utility.yul\":13368:13390   */\n      add\n        /* \"#utility.yul\":13311:13400   */\n      tag_135\n      jump\t// in\n    tag_274:\n        /* \"#utility.yul\":13301:13400   */\n      swap2\n      pop\n        /* \"#utility.yul\":13104:13410   */\n      pop\n        /* \"#utility.yul\":12863:13417   */\n      swap3\n      swap2\n      pop\n      pop\n      jump\t// out\n        /* \"#utility.yul\":13423:13603   */\n    tag_136:\n        /* \"#utility.yul\":13471:13548   */\n      0x4e487b7100000000000000000000000000000000000000000000000000000000\n        /* \"#utility.yul\":13468:13469   */\n      0x00\n        /* \"#utility.yul\":13461:13549   */\n      mstore\n        /* \"#utility.yul\":13568:13572   */\n      0x11\n        /* \"#utility.yul\":13565:13566   */\n      0x04\n        /* \"#utility.yul\":13558:13573   */\n      mstore\n        /* \"#utility.yul\":13592:13596   */\n      0x24\n        /* \"#utility.yul\":13589:13590   */\n      0x00\n        /* \"#utility.yul\":13582:13597   */\n      revert\n        /* \"#utility.yul\":13609:13800   */\n    tag_81:\n        /* \"#utility.yul\":13649:13652   */\n      0x00\n        /* \"#utility.yul\":13668:13688   */\n      tag_277\n        /* \"#utility.yul\":13686:13687   */\n      dup3\n        /* \"#utility.yul\":13668:13688   */\n      tag_103\n      jump\t// in\n    tag_277:\n        /* \"#utility.yul\":13663:13688   */\n      swap2\n      pop\n        /* \"#utility.yul\":13702:13722   */\n      tag_278\n        /* \"#utility.yul\":13720:13721   */\n      dup4\n        /* \"#utility.yul\":13702:13722   */\n      tag_103\n      jump\t// in\n    tag_278:\n        /* \"#utility.yul\":13697:13722   */\n      swap3\n      pop\n        /* \"#utility.yul\":13745:13746   */\n      dup3\n        /* \"#utility.yul\":13742:13743   */\n      dup3\n        /* \"#utility.yul\":13738:13747   */\n      add\n        /* \"#utility.yul\":13731:13747   */\n      swap1\n      pop\n        /* \"#utility.yul\":13766:13769   */\n      dup1\n        /* \"#utility.yul\":13763:13764   */\n      dup3\n        /* \"#utility.yul\":13760:13770   */\n      gt\n        /* \"#utility.yul\":13757:13793   */\n      iszero\n      tag_279\n      jumpi\n        /* \"#utility.yul\":13773:13791   */\n      tag_280\n      tag_136\n      jump\t// in\n    tag_280:\n        /* \"#utility.yul\":13757:13793   */\n    tag_279:\n        /* \"#utility.yul\":13609:13800   */\n      swap3\n      swap2\n      pop\n      pop\n      jump\t// out\n        /* \"#utility.yul\":13806:13985   */\n    tag_137:\n        /* \"#utility.yul\":13946:13977   */\n      0x596120657869737465207365646520656e206573746120726567696f6e000000\n        /* \"#utility.yul\":13942:13943   */\n      0x00\n        /* \"#utility.yul\":13934:13940   */\n      dup3\n        /* \"#utility.yul\":13930:13944   */\n      add\n        /* \"#utility.yul\":13923:13978   */\n      mstore\n        /* \"#utility.yul\":13806:13985   */\n      pop\n      jump\t// out\n        /* \"#utility.yul\":13991:14357   */\n    tag_138:\n        /* \"#utility.yul\":14133:14136   */\n      0x00\n        /* \"#utility.yul\":14154:14221   */\n      tag_283\n        /* \"#utility.yul\":14218:14220   */\n      0x1d\n        /* \"#utility.yul\":14213:14216   */\n      dup4\n        /* \"#utility.yul\":14154:14221   */\n      tag_120\n      jump\t// in\n    tag_283:\n        /* \"#utility.yul\":14147:14221   */\n      swap2\n      pop\n        /* \"#utility.yul\":14230:14323   */\n      tag_284\n        /* \"#utility.yul\":14319:14322   */\n      dup3\n        /* \"#utility.yul\":14230:14323   */\n      tag_137\n      jump\t// in\n    tag_284:\n        /* \"#utility.yul\":14348:14350   */\n      0x20\n        /* \"#utility.yul\":14343:14346   */\n      dup3\n        /* \"#utility.yul\":14339:14351   */\n      add\n        /* \"#utility.yul\":14332:14351   */\n      swap1\n      pop\n        /* \"#utility.yul\":13991:14357   */\n      swap2\n      swap1\n      pop\n      jump\t// out\n        /* \"#utility.yul\":14363:14782   */\n    tag_88:\n        /* \"#utility.yul\":14529:14533   */\n      0x00\n        /* \"#utility.yul\":14567:14569   */\n      0x20\n        /* \"#utility.yul\":14556:14565   */\n      dup3\n        /* \"#utility.yul\":14552:14570   */\n      add\n        /* \"#utility.yul\":14544:14570   */\n      swap1\n      pop\n        /* \"#utility.yul\":14616:14625   */\n      dup2\n        /* \"#utility.yul\":14610:14614   */\n      dup2\n        /* \"#utility.yul\":14606:14626   */\n      sub\n        /* \"#utility.yul\":14602:14603   */\n      0x00\n        /* \"#utility.yul\":14591:14600   */\n      dup4\n        /* \"#utility.yul\":14587:14604   */\n      add\n        /* \"#utility.yul\":14580:14627   */\n      mstore\n        /* \"#utility.yul\":14644:14775   */\n      tag_286\n        /* \"#utility.yul\":14770:14774   */\n      dup2\n        /* \"#utility.yul\":14644:14775   */\n      tag_138\n      jump\t// in\n    tag_286:\n        /* \"#utility.yul\":14636:14775   */\n      swap1\n      pop\n        /* \"#utility.yul\":14363:14782   */\n      swap2\n      swap1\n      pop\n      jump\t// out\n        /* \"#utility.yul\":14788:15230   */\n    tag_92:\n        /* \"#utility.yul\":14937:14941   */\n      0x00\n        /* \"#utility.yul\":14975:14977   */\n      0x60\n        /* \"#utility.yul\":14964:14973   */\n      dup3\n        /* \"#utility.yul\":14960:14978   */\n      add\n        /* \"#utility.yul\":14952:14978   */\n      swap1\n      pop\n        /* \"#utility.yul\":14988:15059   */\n      tag_288\n        /* \"#utility.yul\":15056:15057   */\n      0x00\n        /* \"#utility.yul\":15045:15054   */\n      dup4\n        /* \"#utility.yul\":15041:15058   */\n      add\n        /* \"#utility.yul\":15032:15038   */\n      dup7\n        /* \"#utility.yul\":14988:15059   */\n      tag_119\n      jump\t// in\n    tag_288:\n        /* \"#utility.yul\":15069:15141   */\n      tag_289\n        /* \"#utility.yul\":15137:15139   */\n      0x20\n        /* \"#utility.yul\":15126:15135   */\n      dup4\n        /* \"#utility.yul\":15122:15140   */\n      add\n        /* \"#utility.yul\":15113:15119   */\n      dup6\n        /* \"#utility.yul\":15069:15141   */\n      tag_118\n      jump\t// in\n    tag_289:\n        /* \"#utility.yul\":15151:15223   */\n      tag_290\n        /* \"#utility.yul\":15219:15221   */\n      0x40\n        /* \"#utility.yul\":15208:15217   */\n      dup4\n        /* \"#utility.yul\":15204:15222   */\n      add\n        /* \"#utility.yul\":15195:15201   */\n      dup5\n        /* \"#utility.yul\":15151:15223   */\n      tag_118\n      jump\t// in\n    tag_290:\n        /* \"#utility.yul\":14788:15230   */\n      swap5\n      swap4\n      pop\n      pop\n      pop\n      pop\n      jump\t// out\n    stop\n\n    sub_0: assembly {\n            /* \"lab3/DhondtPollingStation.sol\":72:1208  contract DhondtPollingStation is PollingStation, DhondtElectionRegion {... */\n          mstore(0x40, 0x80)\n            /* \"lab3/PollingStation.sol\":114:119  false */\n          0x00\n            /* \"lab3/PollingStation.sol\":85:119  bool public votingFinished = false */\n          0x00\n          exp(0x0100, 0x14)\n          dup2\n          sload\n          dup2\n          0xff\n          mul\n          not\n          and\n          swap1\n          dup4\n          iszero\n          iszero\n          mul\n          or\n          swap1\n          sstore\n          pop\n            /* \"lab3/PollingStation.sol\":166:171  false */\n          0x00\n            /* \"lab3/PollingStation.sol\":140:171  bool private votingOpen = false */\n          0x00\n          exp(0x0100, 0x15)\n          dup2\n          sload\n          dup2\n          0xff\n          mul\n          not\n          and\n          swap1\n          dup4\n          iszero\n          iszero\n          mul\n          or\n          swap1\n          sstore\n          pop\n            /* \"lab3/DhondtPollingStation.sol\":263:546  constructor(address _president, uint _numParties, uint _regionId) ... */\n          callvalue\n          dup1\n          iszero\n          tag_1\n          jumpi\n          revert(0x00, 0x00)\n        tag_1:\n          pop\n          mload(0x40)\n          sub(codesize, bytecodeSize)\n          dup1\n          bytecodeSize\n          dup4\n          codecopy\n          dup2\n          dup2\n          add\n          0x40\n          mstore\n          dup2\n          add\n          swap1\n          tag_2\n          swap2\n          swap1\n          tag_3\n          jump\t// in\n        tag_2:\n            /* \"lab3/DhondtPollingStation.sol\":397:408  _numParties */\n          dup2\n            /* \"lab3/DhondtPollingStation.sol\":410:419  _regionId */\n          dup2\n            /* \"lab3/DhondtPollingStation.sol\":354:364  _president */\n          dup5\n            /* \"lab3/PollingStation.sol\":546:556  _president */\n          dup1\n            /* \"lab3/PollingStation.sol\":534:543  president */\n          0x00\n          0x00\n            /* \"lab3/PollingStation.sol\":534:556  president = _president */\n          0x0100\n          exp\n          dup2\n          sload\n          dup2\n          0xffffffffffffffffffffffffffffffffffffffff\n          mul\n          not\n          and\n          swap1\n          dup4\n          0xffffffffffffffffffffffffffffffffffffffff\n          and\n          mul\n          or\n          swap1\n          sstore\n          pop\n            /* \"lab3/PollingStation.sol\":491:578  constructor(address _president) {... */\n          pop\n            /* \"lab3/DhondtElectionRegion.sol\":303:312  _regionId */\n          dup1\n            /* \"lab3/DhondtElectionRegion.sol\":292:300  regionId */\n          0x01\n            /* \"lab3/DhondtElectionRegion.sol\":292:312  regionId = _regionId */\n          dup2\n          swap1\n          sstore\n          pop\n            /* \"lab3/DhondtElectionRegion.sol\":358:369  _numParties */\n          dup2\n            /* \"lab3/DhondtElectionRegion.sol\":347:370  new uint[](_numParties) */\n          0xffffffffffffffff\n          dup2\n          gt\n          iszero\n          tag_9\n          jumpi\n          tag_10\n          tag_11\n          jump\t// in\n        tag_10:\n        tag_9:\n          mload(0x40)\n          swap1\n          dup1\n          dup3\n          mstore\n          dup1\n          0x20\n          mul\n          0x20\n          add\n          dup3\n          add\n          0x40\n          mstore\n          dup1\n          iszero\n          tag_12\n          jumpi\n          dup2\n          0x20\n          add\n          0x20\n          dup3\n          mul\n          dup1\n          calldatasize\n          dup4\n          calldatacopy\n          dup1\n          dup3\n          add\n          swap2\n          pop\n          pop\n          swap1\n          pop\n        tag_12:\n          pop\n            /* \"lab3/DhondtElectionRegion.sol\":337:344  results */\n          0x03\n            /* \"lab3/DhondtElectionRegion.sol\":337:370  results = new uint[](_numParties) */\n          swap1\n          dup1\n          mload\n          swap1\n          0x20\n          add\n          swap1\n          tag_13\n          swap3\n          swap2\n          swap1\n          tag_14\n          jump\t// in\n        tag_13:\n          pop\n            /* \"lab3/DhondtElectionRegion.sol\":395:412  savedRegionInfo() */\n          tag_15\n            /* \"lab3/DhondtElectionRegion.sol\":395:410  savedRegionInfo */\n          shl(0x20, tag_16)\n            /* \"lab3/DhondtElectionRegion.sol\":395:412  savedRegionInfo() */\n          0x20\n          shr\n          jump\t// in\n        tag_15:\n            /* \"lab3/DhondtElectionRegion.sol\":235:455  constructor(uint _numParties, uint _regionId) {... */\n          pop\n          pop\n            /* \"lab3/DhondtPollingStation.sol\":527:537  msg.sender */\n          caller\n            /* \"lab3/DhondtPollingStation.sol\":517:524  creador */\n          0x04\n          0x00\n            /* \"lab3/DhondtPollingStation.sol\":517:537  creador = msg.sender */\n          0x0100\n          exp\n          dup2\n          sload\n          dup2\n          0xffffffffffffffffffffffffffffffffffffffff\n          mul\n          not\n          and\n          swap1\n          dup4\n          0xffffffffffffffffffffffffffffffffffffffff\n          and\n          mul\n          or\n          swap1\n          sstore\n          pop\n            /* \"lab3/DhondtPollingStation.sol\":263:546  constructor(address _president, uint _numParties, uint _regionId) ... */\n          pop\n          pop\n          pop\n            /* \"lab3/DhondtPollingStation.sol\":72:1208  contract DhondtPollingStation is PollingStation, DhondtElectionRegion {... */\n          jump(tag_18)\n            /* \"lab3/DhondtElectionRegion.sol\":463:885  function savedRegionInfo() private {... */\n        tag_16:\n            /* \"lab3/DhondtElectionRegion.sol\":523:524  1 */\n          0x01\n            /* \"lab3/DhondtElectionRegion.sol\":509:516  weights */\n          0x02\n            /* \"lab3/DhondtElectionRegion.sol\":509:520  weights[28] */\n          0x00\n            /* \"lab3/DhondtElectionRegion.sol\":517:519  28 */\n          0x1c\n            /* \"lab3/DhondtElectionRegion.sol\":509:520  weights[28] */\n          dup2\n          mstore\n          0x20\n          add\n          swap1\n          dup2\n          mstore\n          0x20\n          add\n          0x00\n          keccak256\n            /* \"lab3/DhondtElectionRegion.sol\":509:524  weights[28] = 1 */\n          dup2\n          swap1\n          sstore\n          pop\n            /* \"lab3/DhondtElectionRegion.sol\":569:570  1 */\n          0x01\n            /* \"lab3/DhondtElectionRegion.sol\":556:563  weights */\n          0x02\n            /* \"lab3/DhondtElectionRegion.sol\":556:566  weights[8] */\n          0x00\n            /* \"lab3/DhondtElectionRegion.sol\":564:565  8 */\n          0x08\n            /* \"lab3/DhondtElectionRegion.sol\":556:566  weights[8] */\n          dup2\n          mstore\n          0x20\n          add\n          swap1\n          dup2\n          mstore\n          0x20\n          add\n          0x00\n          keccak256\n            /* \"lab3/DhondtElectionRegion.sol\":556:570  weights[8] = 1 */\n          dup2\n          swap1\n          sstore\n          pop\n            /* \"lab3/DhondtElectionRegion.sol\":620:621  1 */\n          0x01\n            /* \"lab3/DhondtElectionRegion.sol\":606:613  weights */\n          0x02\n            /* \"lab3/DhondtElectionRegion.sol\":606:617  weights[41] */\n          0x00\n            /* \"lab3/DhondtElectionRegion.sol\":614:616  41 */\n          0x29\n            /* \"lab3/DhondtElectionRegion.sol\":606:617  weights[41] */\n          dup2\n          mstore\n          0x20\n          add\n          swap1\n          dup2\n          mstore\n          0x20\n          add\n          0x00\n          keccak256\n            /* \"lab3/DhondtElectionRegion.sol\":606:621  weights[41] = 1 */\n          dup2\n          swap1\n          sstore\n          pop\n            /* \"lab3/DhondtElectionRegion.sol\":668:669  5 */\n          0x05\n            /* \"lab3/DhondtElectionRegion.sol\":654:661  weights */\n          0x02\n            /* \"lab3/DhondtElectionRegion.sol\":654:665  weights[44] */\n          0x00\n            /* \"lab3/DhondtElectionRegion.sol\":662:664  44 */\n          0x2c\n            /* \"lab3/DhondtElectionRegion.sol\":654:665  weights[44] */\n          dup2\n          mstore\n          0x20\n          add\n          swap1\n          dup2\n          mstore\n          0x20\n          add\n          0x00\n          keccak256\n            /* \"lab3/DhondtElectionRegion.sol\":654:669  weights[44] = 5 */\n          dup2\n          swap1\n          sstore\n          pop\n            /* \"lab3/DhondtElectionRegion.sol\":715:716  5 */\n          0x05\n            /* \"lab3/DhondtElectionRegion.sol\":701:708  weights */\n          0x02\n            /* \"lab3/DhondtElectionRegion.sol\":701:712  weights[42] */\n          0x00\n            /* \"lab3/DhondtElectionRegion.sol\":709:711  42 */\n          0x2a\n            /* \"lab3/DhondtElectionRegion.sol\":701:712  weights[42] */\n          dup2\n          mstore\n          0x20\n          add\n          swap1\n          dup2\n          mstore\n          0x20\n          add\n          0x00\n          keccak256\n            /* \"lab3/DhondtElectionRegion.sol\":701:716  weights[42] = 5 */\n          dup2\n          swap1\n          sstore\n          pop\n            /* \"lab3/DhondtElectionRegion.sol\":761:762  4 */\n          0x04\n            /* \"lab3/DhondtElectionRegion.sol\":747:754  weights */\n          0x02\n            /* \"lab3/DhondtElectionRegion.sol\":747:758  weights[49] */\n          0x00\n            /* \"lab3/DhondtElectionRegion.sol\":755:757  49 */\n          0x31\n            /* \"lab3/DhondtElectionRegion.sol\":747:758  weights[49] */\n          dup2\n          mstore\n          0x20\n          add\n          swap1\n          dup2\n          mstore\n          0x20\n          add\n          0x00\n          keccak256\n            /* \"lab3/DhondtElectionRegion.sol\":747:762  weights[49] = 4 */\n          dup2\n          swap1\n          sstore\n          pop\n            /* \"lab3/DhondtElectionRegion.sol\":807:808  4 */\n          0x04\n            /* \"lab3/DhondtElectionRegion.sol\":794:801  weights */\n          0x02\n            /* \"lab3/DhondtElectionRegion.sol\":794:804  weights[9] */\n          0x00\n            /* \"lab3/DhondtElectionRegion.sol\":802:803  9 */\n          0x09\n            /* \"lab3/DhondtElectionRegion.sol\":794:804  weights[9] */\n          dup2\n          mstore\n          0x20\n          add\n          swap1\n          dup2\n          mstore\n          0x20\n          add\n          0x00\n          keccak256\n            /* \"lab3/DhondtElectionRegion.sol\":794:808  weights[9] = 4 */\n          dup2\n          swap1\n          sstore\n          pop\n            /* \"lab3/DhondtElectionRegion.sol\":855:856  2 */\n          0x02\n            /* \"lab3/DhondtElectionRegion.sol\":841:848  weights */\n          dup1\n            /* \"lab3/DhondtElectionRegion.sol\":841:852  weights[29] */\n          0x00\n            /* \"lab3/DhondtElectionRegion.sol\":849:851  29 */\n          0x1d\n            /* \"lab3/DhondtElectionRegion.sol\":841:852  weights[29] */\n          dup2\n          mstore\n          0x20\n          add\n          swap1\n          dup2\n          mstore\n          0x20\n          add\n          0x00\n          keccak256\n            /* \"lab3/DhondtElectionRegion.sol\":841:856  weights[29] = 2 */\n          dup2\n          swap1\n          sstore\n          pop\n            /* \"lab3/DhondtElectionRegion.sol\":463:885  function savedRegionInfo() private {... */\n          jump\t// out\n            /* \"lab3/DhondtPollingStation.sol\":72:1208  contract DhondtPollingStation is PollingStation, DhondtElectionRegion {... */\n        tag_14:\n          dup3\n          dup1\n          sload\n          dup3\n          dup3\n          sstore\n          swap1\n          0x00\n          mstore\n          keccak256(0x00, 0x20)\n          swap1\n          dup2\n          add\n          swap3\n          dup3\n          iszero\n          tag_20\n          jumpi\n          swap2\n          0x20\n          mul\n          dup3\n          add\n        tag_21:\n          dup3\n          dup2\n          gt\n          iszero\n          tag_22\n          jumpi\n          dup3\n          mload\n          dup3\n          sstore\n          swap2\n          0x20\n          add\n          swap2\n          swap1\n          0x01\n          add\n          swap1\n          jump(tag_21)\n        tag_22:\n        tag_20:\n          pop\n          swap1\n          pop\n          tag_23\n          swap2\n          swap1\n          tag_24\n          jump\t// in\n        tag_23:\n          pop\n          swap1\n          jump\t// out\n        tag_24:\n        tag_25:\n          dup1\n          dup3\n          gt\n          iszero\n          tag_26\n          jumpi\n          0x00\n          dup2\n          0x00\n          swap1\n          sstore\n          pop\n          0x01\n          add\n          jump(tag_25)\n        tag_26:\n          pop\n          swap1\n          jump\t// out\n            /* \"#utility.yul\":88:205   */\n        tag_28:\n            /* \"#utility.yul\":197:198   */\n          0x00\n            /* \"#utility.yul\":194:195   */\n          0x00\n            /* \"#utility.yul\":187:199   */\n          revert\n            /* \"#utility.yul\":334:460   */\n        tag_30:\n            /* \"#utility.yul\":371:378   */\n          0x00\n            /* \"#utility.yul\":411:453   */\n          0xffffffffffffffffffffffffffffffffffffffff\n            /* \"#utility.yul\":404:409   */\n          dup3\n            /* \"#utility.yul\":400:454   */\n          and\n            /* \"#utility.yul\":389:454   */\n          swap1\n          pop\n            /* \"#utility.yul\":334:460   */\n          swap2\n          swap1\n          pop\n          jump\t// out\n            /* \"#utility.yul\":466:562   */\n        tag_31:\n            /* \"#utility.yul\":503:510   */\n          0x00\n            /* \"#utility.yul\":532:556   */\n          tag_43\n            /* \"#utility.yul\":550:555   */\n          dup3\n            /* \"#utility.yul\":532:556   */\n          tag_30\n          jump\t// in\n        tag_43:\n            /* \"#utility.yul\":521:556   */\n          swap1\n          pop\n            /* \"#utility.yul\":466:562   */\n          swap2\n          swap1\n          pop\n          jump\t// out\n            /* \"#utility.yul\":568:690   */\n        tag_32:\n            /* \"#utility.yul\":641:665   */\n          tag_45\n            /* \"#utility.yul\":659:664   */\n          dup2\n            /* \"#utility.yul\":641:665   */\n          tag_31\n          jump\t// in\n        tag_45:\n            /* \"#utility.yul\":634:639   */\n          dup2\n            /* \"#utility.yul\":631:666   */\n          eq\n            /* \"#utility.yul\":621:684   */\n          tag_46\n          jumpi\n            /* \"#utility.yul\":680:681   */\n          0x00\n            /* \"#utility.yul\":677:678   */\n          0x00\n            /* \"#utility.yul\":670:682   */\n          revert\n            /* \"#utility.yul\":621:684   */\n        tag_46:\n            /* \"#utility.yul\":568:690   */\n          pop\n          jump\t// out\n            /* \"#utility.yul\":696:839   */\n        tag_33:\n            /* \"#utility.yul\":753:758   */\n          0x00\n            /* \"#utility.yul\":784:790   */\n          dup2\n            /* \"#utility.yul\":778:791   */\n          mload\n            /* \"#utility.yul\":769:791   */\n          swap1\n          pop\n            /* \"#utility.yul\":800:833   */\n          tag_48\n            /* \"#utility.yul\":827:832   */\n          dup2\n            /* \"#utility.yul\":800:833   */\n          tag_32\n          jump\t// in\n        tag_48:\n            /* \"#utility.yul\":696:839   */\n          swap3\n          swap2\n          pop\n          pop\n          jump\t// out\n            /* \"#utility.yul\":845:922   */\n        tag_34:\n            /* \"#utility.yul\":882:889   */\n          0x00\n            /* \"#utility.yul\":911:916   */\n          dup2\n            /* \"#utility.yul\":900:916   */\n          swap1\n          pop\n            /* \"#utility.yul\":845:922   */\n          swap2\n          swap1\n          pop\n          jump\t// out\n            /* \"#utility.yul\":928:1050   */\n        tag_35:\n            /* \"#utility.yul\":1001:1025   */\n          tag_51\n            /* \"#utility.yul\":1019:1024   */\n          dup2\n            /* \"#utility.yul\":1001:1025   */\n          tag_34\n          jump\t// in\n        tag_51:\n            /* \"#utility.yul\":994:999   */\n          dup2\n            /* \"#utility.yul\":991:1026   */\n          eq\n            /* \"#utility.yul\":981:1044   */\n          tag_52\n          jumpi\n            /* \"#utility.yul\":1040:1041   */\n          0x00\n            /* \"#utility.yul\":1037:1038   */\n          0x00\n            /* \"#utility.yul\":1030:1042   */\n          revert\n            /* \"#utility.yul\":981:1044   */\n        tag_52:\n            /* \"#utility.yul\":928:1050   */\n          pop\n          jump\t// out\n            /* \"#utility.yul\":1056:1199   */\n        tag_36:\n            /* \"#utility.yul\":1113:1118   */\n          0x00\n            /* \"#utility.yul\":1144:1150   */\n          dup2\n            /* \"#utility.yul\":1138:1151   */\n          mload\n            /* \"#utility.yul\":1129:1151   */\n          swap1\n          pop\n            /* \"#utility.yul\":1160:1193   */\n          tag_54\n            /* \"#utility.yul\":1187:1192   */\n          dup2\n            /* \"#utility.yul\":1160:1193   */\n          tag_35\n          jump\t// in\n        tag_54:\n            /* \"#utility.yul\":1056:1199   */\n          swap3\n          swap2\n          pop\n          pop\n          jump\t// out\n            /* \"#utility.yul\":1205:1868   */\n        tag_3:\n            /* \"#utility.yul\":1293:1299   */\n          0x00\n            /* \"#utility.yul\":1301:1307   */\n          0x00\n            /* \"#utility.yul\":1309:1315   */\n          0x00\n            /* \"#utility.yul\":1358:1360   */\n          0x60\n            /* \"#utility.yul\":1346:1355   */\n          dup5\n            /* \"#utility.yul\":1337:1344   */\n          dup7\n            /* \"#utility.yul\":1333:1356   */\n          sub\n            /* \"#utility.yul\":1329:1361   */\n          slt\n            /* \"#utility.yul\":1326:1445   */\n          iszero\n          tag_56\n          jumpi\n            /* \"#utility.yul\":1364:1443   */\n          tag_57\n          tag_28\n          jump\t// in\n        tag_57:\n            /* \"#utility.yul\":1326:1445   */\n        tag_56:\n            /* \"#utility.yul\":1484:1485   */\n          0x00\n            /* \"#utility.yul\":1509:1573   */\n          tag_58\n            /* \"#utility.yul\":1565:1572   */\n          dup7\n            /* \"#utility.yul\":1556:1562   */\n          dup3\n            /* \"#utility.yul\":1545:1554   */\n          dup8\n            /* \"#utility.yul\":1541:1563   */\n          add\n            /* \"#utility.yul\":1509:1573   */\n          tag_33\n          jump\t// in\n        tag_58:\n            /* \"#utility.yul\":1499:1573   */\n          swap4\n          pop\n            /* \"#utility.yul\":1455:1583   */\n          pop\n            /* \"#utility.yul\":1622:1624   */\n          0x20\n            /* \"#utility.yul\":1648:1712   */\n          tag_59\n            /* \"#utility.yul\":1704:1711   */\n          dup7\n            /* \"#utility.yul\":1695:1701   */\n          dup3\n            /* \"#utility.yul\":1684:1693   */\n          dup8\n            /* \"#utility.yul\":1680:1702   */\n          add\n            /* \"#utility.yul\":1648:1712   */\n          tag_36\n          jump\t// in\n        tag_59:\n            /* \"#utility.yul\":1638:1712   */\n          swap3\n          pop\n            /* \"#utility.yul\":1593:1722   */\n          pop\n            /* \"#utility.yul\":1761:1763   */\n          0x40\n            /* \"#utility.yul\":1787:1851   */\n          tag_60\n            /* \"#utility.yul\":1843:1850   */\n          dup7\n            /* \"#utility.yul\":1834:1840   */\n          dup3\n            /* \"#utility.yul\":1823:1832   */\n          dup8\n            /* \"#utility.yul\":1819:1841   */\n          add\n            /* \"#utility.yul\":1787:1851   */\n          tag_36\n          jump\t// in\n        tag_60:\n            /* \"#utility.yul\":1777:1851   */\n          swap2\n          pop\n            /* \"#utility.yul\":1732:1861   */\n          pop\n            /* \"#utility.yul\":1205:1868   */\n          swap3\n          pop\n          swap3\n          pop\n          swap3\n          jump\t// out\n            /* \"#utility.yul\":1874:2054   */\n        tag_11:\n            /* \"#utility.yul\":1922:1999   */\n          0x4e487b7100000000000000000000000000000000000000000000000000000000\n            /* \"#utility.yul\":1919:1920   */\n          0x00\n            /* \"#utility.yul\":1912:2000   */\n          mstore\n            /* \"#utility.yul\":2019:2023   */\n          0x41\n            /* \"#utility.yul\":2016:2017   */\n          0x04\n            /* \"#utility.yul\":2009:2024   */\n          mstore\n            /* \"#utility.yul\":2043:2047   */\n          0x24\n            /* \"#utility.yul\":2040:2041   */\n          0x00\n            /* \"#utility.yul\":2033:2048   */\n          revert\n            /* \"lab3/DhondtPollingStation.sol\":72:1208  contract DhondtPollingStation is PollingStation, DhondtElectionRegion {... */\n        tag_18:\n          dataSize(sub_0)\n          dup1\n          dataOffset(sub_0)\n          0x00\n          codecopy\n          0x00\n          return\n        stop\n\n        sub_0: assembly {\n                /* \"lab3/DhondtPollingStation.sol\":72:1208  contract DhondtPollingStation is PollingStation, DhondtElectionRegion {... */\n              mstore(0x40, 0x80)\n              callvalue\n              dup1\n              iszero\n              tag_1\n              jumpi\n              revert(0x00, 0x00)\n            tag_1:\n              pop\n              jumpi(tag_2, lt(calldatasize, 0x04))\n              shr(0xe0, calldataload(0x00))\n              dup1\n              0x324a1376\n              eq\n              tag_3\n              jumpi\n              dup1\n              0x3eb76b9c\n              eq\n              tag_4\n              jumpi\n              dup1\n              0x4717f97c\n              eq\n              tag_5\n              jumpi\n              dup1\n              0x789d9e8a\n              eq\n              tag_6\n              jumpi\n              dup1\n              0xaffc0670\n              eq\n              tag_7\n              jumpi\n              dup1\n              0xc631b292\n              eq\n              tag_8\n              jumpi\n            tag_2:\n              revert(0x00, 0x00)\n                /* \"lab3/PollingStation.sol\":40:64  address public president */\n            tag_3:\n              tag_9\n              tag_10\n              jump\t// in\n            tag_9:\n              mload(0x40)\n              tag_11\n              swap2\n              swap1\n              tag_12\n              jump\t// in\n            tag_11:\n              mload(0x40)\n              dup1\n              swap2\n              sub\n              swap1\n              return\n                /* \"lab3/DhondtPollingStation.sol\":738:926  function castVote(uint _partyId) external override onlyIfOpen {... */\n            tag_4:\n              tag_13\n              0x04\n              dup1\n              calldatasize\n              sub\n              dup2\n              add\n              swap1\n              tag_14\n              swap2\n              swap1\n              tag_15\n              jump\t// in\n            tag_14:\n              tag_16\n              jump\t// in\n            tag_13:\n              stop\n                /* \"lab3/DhondtPollingStation.sol\":1014:1205  function getResults() external view override onlyAuthority returns (uint[] memory) {... */\n            tag_5:\n              tag_17\n              tag_18\n              jump\t// in\n            tag_17:\n              mload(0x40)\n              tag_19\n              swap2\n              swap1\n              tag_20\n              jump\t// in\n            tag_19:\n              mload(0x40)\n              dup1\n              swap2\n              sub\n              swap1\n              return\n                /* \"lab3/PollingStation.sol\":85:119  bool public votingFinished = false */\n            tag_6:\n              tag_21\n              tag_22\n              jump\t// in\n            tag_21:\n              mload(0x40)\n              tag_23\n              swap2\n              swap1\n              tag_24\n              jump\t// in\n            tag_23:\n              mload(0x40)\n              dup1\n              swap2\n              sub\n              swap1\n              return\n                /* \"lab3/PollingStation.sol\":586:743  function openVoting() external onlyPresident {... */\n            tag_7:\n              tag_25\n              tag_26\n              jump\t// in\n            tag_25:\n              stop\n                /* \"lab3/PollingStation.sol\":751:884  function closeVoting() external onlyPresident {... */\n            tag_8:\n              tag_27\n              tag_28\n              jump\t// in\n            tag_27:\n              stop\n                /* \"lab3/PollingStation.sol\":40:64  address public president */\n            tag_10:\n              0x00\n              0x00\n              swap1\n              sload\n              swap1\n              0x0100\n              exp\n              swap1\n              div\n              0xffffffffffffffffffffffffffffffffffffffff\n              and\n              dup2\n              jump\t// out\n                /* \"lab3/DhondtPollingStation.sol\":738:926  function castVote(uint _partyId) external override onlyIfOpen {... */\n            tag_16:\n                /* \"lab3/PollingStation.sol\":384:394  votingOpen */\n              0x00\n              0x15\n              swap1\n              sload\n              swap1\n              0x0100\n              exp\n              swap1\n              div\n              0xff\n              and\n                /* \"lab3/PollingStation.sol\":384:413  votingOpen && !votingFinished */\n              dup1\n              iszero\n              tag_30\n              jumpi\n              pop\n                /* \"lab3/PollingStation.sol\":399:413  votingFinished */\n              0x00\n              0x14\n              swap1\n              sload\n              swap1\n              0x0100\n              exp\n              swap1\n              div\n              0xff\n              and\n                /* \"lab3/PollingStation.sol\":398:413  !votingFinished */\n              iszero\n                /* \"lab3/PollingStation.sol\":384:413  votingOpen && !votingFinished */\n            tag_30:\n                /* \"lab3/PollingStation.sol\":376:445  require(votingOpen && !votingFinished, \"La votacion no esta abierta\") */\n              tag_31\n              jumpi\n              mload(0x40)\n              0x08c379a000000000000000000000000000000000000000000000000000000000\n              dup2\n              mstore\n              0x04\n              add\n              tag_32\n              swap1\n              tag_33\n              jump\t// in\n            tag_32:\n              mload(0x40)\n              dup1\n              swap2\n              sub\n              swap1\n              revert\n            tag_31:\n                /* \"lab3/DhondtPollingStation.sol\":811:823  bool success */\n              0x00\n                /* \"lab3/DhondtPollingStation.sol\":826:848  registerVote(_partyId) */\n              tag_35\n                /* \"lab3/DhondtPollingStation.sol\":839:847  _partyId */\n              dup3\n                /* \"lab3/DhondtPollingStation.sol\":826:838  registerVote */\n              tag_36\n                /* \"lab3/DhondtPollingStation.sol\":826:848  registerVote(_partyId) */\n              jump\t// in\n            tag_35:\n                /* \"lab3/DhondtPollingStation.sol\":811:848  bool success = registerVote(_partyId) */\n              swap1\n              pop\n                /* \"lab3/DhondtPollingStation.sol\":865:872  success */\n              dup1\n                /* \"lab3/DhondtPollingStation.sol\":860:918  if (!success) revert(\"Identificador de partido no valido\") */\n              tag_37\n              jumpi\n                /* \"lab3/DhondtPollingStation.sol\":874:918  revert(\"Identificador de partido no valido\") */\n              mload(0x40)\n              0x08c379a000000000000000000000000000000000000000000000000000000000\n              dup2\n              mstore\n              0x04\n              add\n              tag_38\n              swap1\n              tag_39\n              jump\t// in\n            tag_38:\n              mload(0x40)\n              dup1\n              swap2\n              sub\n              swap1\n              revert\n                /* \"lab3/DhondtPollingStation.sol\":860:918  if (!success) revert(\"Identificador de partido no valido\") */\n            tag_37:\n                /* \"lab3/DhondtPollingStation.sol\":800:926  {... */\n              pop\n                /* \"lab3/DhondtPollingStation.sol\":738:926  function castVote(uint _partyId) external override onlyIfOpen {... */\n              pop\n              jump\t// out\n                /* \"lab3/DhondtPollingStation.sol\":1014:1205  function getResults() external view override onlyAuthority returns (uint[] memory) {... */\n            tag_18:\n                /* \"lab3/DhondtPollingStation.sol\":1082:1095  uint[] memory */\n              0x60\n                /* \"lab3/DhondtPollingStation.sol\":678:685  creador */\n              0x04\n              0x00\n              swap1\n              sload\n              swap1\n              0x0100\n              exp\n              swap1\n              div\n              0xffffffffffffffffffffffffffffffffffffffff\n              and\n                /* \"lab3/DhondtPollingStation.sol\":664:685  msg.sender == creador */\n              0xffffffffffffffffffffffffffffffffffffffff\n              and\n                /* \"lab3/DhondtPollingStation.sol\":664:674  msg.sender */\n              caller\n                /* \"lab3/DhondtPollingStation.sol\":664:685  msg.sender == creador */\n              0xffffffffffffffffffffffffffffffffffffffff\n              and\n              eq\n                /* \"lab3/DhondtPollingStation.sol\":656:709  require(msg.sender == creador, \"error no autorizado\") */\n              tag_41\n              jumpi\n              mload(0x40)\n              0x08c379a000000000000000000000000000000000000000000000000000000000\n              dup2\n              mstore\n              0x04\n              add\n              tag_42\n              swap1\n              tag_43\n              jump\t// in\n            tag_42:\n              mload(0x40)\n              dup1\n              swap2\n              sub\n              swap1\n              revert\n            tag_41:\n                /* \"lab3/DhondtPollingStation.sol\":1113:1127  votingFinished */\n              0x00\n              0x14\n              swap1\n              sload\n              swap1\n              0x0100\n              exp\n              swap1\n              div\n              0xff\n              and\n                /* \"lab3/DhondtPollingStation.sol\":1108:1170  if (!votingFinished) revert(\"La votacion aun no ha terminado\") */\n              tag_45\n              jumpi\n                /* \"lab3/DhondtPollingStation.sol\":1129:1170  revert(\"La votacion aun no ha terminado\") */\n              mload(0x40)\n              0x08c379a000000000000000000000000000000000000000000000000000000000\n              dup2\n              mstore\n              0x04\n              add\n              tag_46\n              swap1\n              tag_47\n              jump\t// in\n            tag_46:\n              mload(0x40)\n              dup1\n              swap2\n              sub\n              swap1\n              revert\n                /* \"lab3/DhondtPollingStation.sol\":1108:1170  if (!votingFinished) revert(\"La votacion aun no ha terminado\") */\n            tag_45:\n                /* \"lab3/DhondtPollingStation.sol\":1189:1196  results */\n              0x03\n                /* \"lab3/DhondtPollingStation.sol\":1182:1196  return results */\n              dup1\n              sload\n              dup1\n              0x20\n              mul\n              0x20\n              add\n              mload(0x40)\n              swap1\n              dup2\n              add\n              0x40\n              mstore\n              dup1\n              swap3\n              swap2\n              swap1\n              dup2\n              dup2\n              mstore\n              0x20\n              add\n              dup3\n              dup1\n              sload\n              dup1\n              iszero\n              tag_48\n              jumpi\n              0x20\n              mul\n              dup3\n              add\n              swap2\n              swap1\n              0x00\n              mstore\n              keccak256(0x00, 0x20)\n              swap1\n            tag_49:\n              dup2\n              sload\n              dup2\n              mstore\n              0x20\n              add\n              swap1\n              0x01\n              add\n              swap1\n              dup1\n              dup4\n              gt\n              tag_49\n              jumpi\n            tag_48:\n              pop\n              pop\n              pop\n              pop\n              pop\n              swap1\n              pop\n                /* \"lab3/DhondtPollingStation.sol\":1014:1205  function getResults() external view override onlyAuthority returns (uint[] memory) {... */\n              swap1\n              jump\t// out\n                /* \"lab3/PollingStation.sol\":85:119  bool public votingFinished = false */\n            tag_22:\n              0x00\n              0x14\n              swap1\n              sload\n              swap1\n              0x0100\n              exp\n              swap1\n              div\n              0xff\n              and\n              dup2\n              jump\t// out\n                /* \"lab3/PollingStation.sol\":586:743  function openVoting() external onlyPresident {... */\n            tag_26:\n                /* \"lab3/PollingStation.sol\":252:261  president */\n              0x00\n              0x00\n              swap1\n              sload\n              swap1\n              0x0100\n              exp\n              swap1\n              div\n              0xffffffffffffffffffffffffffffffffffffffff\n              and\n                /* \"lab3/PollingStation.sol\":238:261  msg.sender == president */\n              0xffffffffffffffffffffffffffffffffffffffff\n              and\n                /* \"lab3/PollingStation.sol\":238:248  msg.sender */\n              caller\n                /* \"lab3/PollingStation.sol\":238:261  msg.sender == president */\n              0xffffffffffffffffffffffffffffffffffffffff\n              and\n              eq\n                /* \"lab3/PollingStation.sol\":230:301  require(msg.sender == president, \"Solo el presidente puede hacer esto\") */\n              tag_51\n              jumpi\n              mload(0x40)\n              0x08c379a000000000000000000000000000000000000000000000000000000000\n              dup2\n              mstore\n              0x04\n              add\n              tag_52\n              swap1\n              tag_53\n              jump\t// in\n            tag_52:\n              mload(0x40)\n              dup1\n              swap2\n              sub\n              swap1\n              revert\n            tag_51:\n                /* \"lab3/PollingStation.sol\":651:665  votingFinished */\n              0x00\n              0x14\n              swap1\n              sload\n              swap1\n              0x0100\n              exp\n              swap1\n              div\n              0xff\n              and\n                /* \"lab3/PollingStation.sol\":650:665  !votingFinished */\n              iszero\n                /* \"lab3/PollingStation.sol\":642:693  require(!votingFinished, \"La votacion ya finalizo\") */\n              tag_55\n              jumpi\n              mload(0x40)\n              0x08c379a000000000000000000000000000000000000000000000000000000000\n              dup2\n              mstore\n              0x04\n              add\n              tag_56\n              swap1\n              tag_57\n              jump\t// in\n            tag_56:\n              mload(0x40)\n              dup1\n              swap2\n              sub\n              swap1\n              revert\n            tag_55:\n                /* \"lab3/PollingStation.sol\":717:721  true */\n              0x01\n                /* \"lab3/PollingStation.sol\":704:714  votingOpen */\n              0x00\n              0x15\n                /* \"lab3/PollingStation.sol\":704:721  votingOpen = true */\n              0x0100\n              exp\n              dup2\n              sload\n              dup2\n              0xff\n              mul\n              not\n              and\n              swap1\n              dup4\n              iszero\n              iszero\n              mul\n              or\n              swap1\n              sstore\n              pop\n                /* \"lab3/PollingStation.sol\":586:743  function openVoting() external onlyPresident {... */\n              jump\t// out\n                /* \"lab3/PollingStation.sol\":751:884  function closeVoting() external onlyPresident {... */\n            tag_28:\n                /* \"lab3/PollingStation.sol\":252:261  president */\n              0x00\n              0x00\n              swap1\n              sload\n              swap1\n              0x0100\n              exp\n              swap1\n              div\n              0xffffffffffffffffffffffffffffffffffffffff\n              and\n                /* \"lab3/PollingStation.sol\":238:261  msg.sender == president */\n              0xffffffffffffffffffffffffffffffffffffffff\n              and\n                /* \"lab3/PollingStation.sol\":238:248  msg.sender */\n              caller\n                /* \"lab3/PollingStation.sol\":238:261  msg.sender == president */\n              0xffffffffffffffffffffffffffffffffffffffff\n              and\n              eq\n                /* \"lab3/PollingStation.sol\":230:301  require(msg.sender == president, \"Solo el presidente puede hacer esto\") */\n              tag_59\n              jumpi\n              mload(0x40)\n              0x08c379a000000000000000000000000000000000000000000000000000000000\n              dup2\n              mstore\n              0x04\n              add\n              tag_60\n              swap1\n              tag_53\n              jump\t// in\n            tag_60:\n              mload(0x40)\n              dup1\n              swap2\n              sub\n              swap1\n              revert\n            tag_59:\n                /* \"lab3/PollingStation.sol\":821:826  false */\n              0x00\n                /* \"lab3/PollingStation.sol\":808:818  votingOpen */\n              0x00\n              0x15\n                /* \"lab3/PollingStation.sol\":808:826  votingOpen = false */\n              0x0100\n              exp\n              dup2\n              sload\n              dup2\n              0xff\n              mul\n              not\n              and\n              swap1\n              dup4\n              iszero\n              iszero\n              mul\n              or\n              swap1\n              sstore\n              pop\n                /* \"lab3/PollingStation.sol\":854:858  true */\n              0x01\n                /* \"lab3/PollingStation.sol\":837:851  votingFinished */\n              0x00\n              0x14\n                /* \"lab3/PollingStation.sol\":837:858  votingFinished = true */\n              0x0100\n              exp\n              dup2\n              sload\n              dup2\n              0xff\n              mul\n              not\n              and\n              swap1\n              dup4\n              iszero\n              iszero\n              mul\n              or\n              swap1\n              sstore\n              pop\n                /* \"lab3/PollingStation.sol\":751:884  function closeVoting() external onlyPresident {... */\n              jump\t// out\n                /* \"lab3/DhondtElectionRegion.sol\":961:1261  function registerVote(uint _party) internal returns (bool) {... */\n            tag_36:\n                /* \"lab3/DhondtElectionRegion.sol\":1014:1018  bool */\n              0x00\n                /* \"lab3/DhondtElectionRegion.sol\":1045:1052  results */\n              0x03\n                /* \"lab3/DhondtElectionRegion.sol\":1045:1059  results.length */\n              dup1\n              sload\n              swap1\n              pop\n                /* \"lab3/DhondtElectionRegion.sol\":1035:1041  _party */\n              dup3\n                /* \"lab3/DhondtElectionRegion.sol\":1035:1059  _party >= results.length */\n              lt\n                /* \"lab3/DhondtElectionRegion.sol\":1031:1073  if (_party >= results.length) return false */\n              tag_63\n              jumpi\n                /* \"lab3/DhondtElectionRegion.sol\":1068:1073  false */\n              0x00\n                /* \"lab3/DhondtElectionRegion.sol\":1061:1073  return false */\n              swap1\n              pop\n              jump(tag_62)\n                /* \"lab3/DhondtElectionRegion.sol\":1031:1073  if (_party >= results.length) return false */\n            tag_63:\n                /* \"lab3/DhondtElectionRegion.sol\":1108:1119  uint weight */\n              0x00\n                /* \"lab3/DhondtElectionRegion.sol\":1142:1143  0 */\n              0x00\n                /* \"lab3/DhondtElectionRegion.sol\":1122:1129  weights */\n              0x02\n                /* \"lab3/DhondtElectionRegion.sol\":1122:1139  weights[regionId] */\n              0x00\n                /* \"lab3/DhondtElectionRegion.sol\":1130:1138  regionId */\n              sload(0x01)\n                /* \"lab3/DhondtElectionRegion.sol\":1122:1139  weights[regionId] */\n              dup2\n              mstore\n              0x20\n              add\n              swap1\n              dup2\n              mstore\n              0x20\n              add\n              0x00\n              keccak256\n              sload\n                /* \"lab3/DhondtElectionRegion.sol\":1122:1143  weights[regionId] > 0 */\n              gt\n                /* \"lab3/DhondtElectionRegion.sol\":1122:1167  weights[regionId] > 0 ? weights[regionId] : 1 */\n              tag_64\n              jumpi\n                /* \"lab3/DhondtElectionRegion.sol\":1166:1167  1 */\n              0x01\n                /* \"lab3/DhondtElectionRegion.sol\":1122:1167  weights[regionId] > 0 ? weights[regionId] : 1 */\n              jump(tag_65)\n            tag_64:\n                /* \"lab3/DhondtElectionRegion.sol\":1146:1153  weights */\n              0x02\n                /* \"lab3/DhondtElectionRegion.sol\":1146:1163  weights[regionId] */\n              0x00\n                /* \"lab3/DhondtElectionRegion.sol\":1154:1162  regionId */\n              sload(0x01)\n                /* \"lab3/DhondtElectionRegion.sol\":1146:1163  weights[regionId] */\n              dup2\n              mstore\n              0x20\n              add\n              swap1\n              dup2\n              mstore\n              0x20\n              add\n              0x00\n              keccak256\n              sload\n                /* \"lab3/DhondtElectionRegion.sol\":1122:1167  weights[regionId] > 0 ? weights[regionId] : 1 */\n            tag_65:\n                /* \"lab3/DhondtElectionRegion.sol\":1108:1167  uint weight = weights[regionId] > 0 ? weights[regionId] : 1 */\n              swap1\n              pop\n                /* \"lab3/DhondtElectionRegion.sol\":1197:1203  weight */\n              dup1\n                /* \"lab3/DhondtElectionRegion.sol\":1178:1185  results */\n              0x03\n                /* \"lab3/DhondtElectionRegion.sol\":1186:1192  _party */\n              dup5\n                /* \"lab3/DhondtElectionRegion.sol\":1178:1193  results[_party] */\n              dup2\n              sload\n              dup2\n              lt\n              tag_66\n              jumpi\n              tag_67\n              tag_68\n              jump\t// in\n            tag_67:\n            tag_66:\n              swap1\n              0x00\n              mstore\n              keccak256(0x00, 0x20)\n              add\n              0x00\n                /* \"lab3/DhondtElectionRegion.sol\":1178:1203  results[_party] += weight */\n              dup3\n              dup3\n              sload\n              tag_70\n              swap2\n              swap1\n              tag_71\n              jump\t// in\n            tag_70:\n              swap3\n              pop\n              pop\n              dup2\n              swap1\n              sstore\n              pop\n                /* \"lab3/DhondtElectionRegion.sol\":1235:1239  true */\n              0x01\n                /* \"lab3/DhondtElectionRegion.sol\":1228:1239  return true */\n              swap2\n              pop\n              pop\n                /* \"lab3/DhondtElectionRegion.sol\":961:1261  function registerVote(uint _party) internal returns (bool) {... */\n            tag_62:\n              swap2\n              swap1\n              pop\n              jump\t// out\n                /* \"#utility.yul\":7:133   */\n            tag_72:\n                /* \"#utility.yul\":44:51   */\n              0x00\n                /* \"#utility.yul\":84:126   */\n              0xffffffffffffffffffffffffffffffffffffffff\n                /* \"#utility.yul\":77:82   */\n              dup3\n                /* \"#utility.yul\":73:127   */\n              and\n                /* \"#utility.yul\":62:127   */\n              swap1\n              pop\n                /* \"#utility.yul\":7:133   */\n              swap2\n              swap1\n              pop\n              jump\t// out\n                /* \"#utility.yul\":139:235   */\n            tag_73:\n                /* \"#utility.yul\":176:183   */\n              0x00\n                /* \"#utility.yul\":205:229   */\n              tag_107\n                /* \"#utility.yul\":223:228   */\n              dup3\n                /* \"#utility.yul\":205:229   */\n              tag_72\n              jump\t// in\n            tag_107:\n                /* \"#utility.yul\":194:229   */\n              swap1\n              pop\n                /* \"#utility.yul\":139:235   */\n              swap2\n              swap1\n              pop\n              jump\t// out\n                /* \"#utility.yul\":241:359   */\n            tag_74:\n                /* \"#utility.yul\":328:352   */\n              tag_109\n                /* \"#utility.yul\":346:351   */\n              dup2\n                /* \"#utility.yul\":328:352   */\n              tag_73\n              jump\t// in\n            tag_109:\n                /* \"#utility.yul\":323:326   */\n              dup3\n                /* \"#utility.yul\":316:353   */\n              mstore\n                /* \"#utility.yul\":241:359   */\n              pop\n              pop\n              jump\t// out\n                /* \"#utility.yul\":365:587   */\n            tag_12:\n                /* \"#utility.yul\":458:462   */\n              0x00\n                /* \"#utility.yul\":496:498   */\n              0x20\n                /* \"#utility.yul\":485:494   */\n              dup3\n                /* \"#utility.yul\":481:499   */\n              add\n                /* \"#utility.yul\":473:499   */\n              swap1\n              pop\n                /* \"#utility.yul\":509:580   */\n              tag_111\n                /* \"#utility.yul\":577:578   */\n              0x00\n                /* \"#utility.yul\":566:575   */\n              dup4\n                /* \"#utility.yul\":562:579   */\n              add\n                /* \"#utility.yul\":553:559   */\n              dup5\n                /* \"#utility.yul\":509:580   */\n              tag_74\n              jump\t// in\n            tag_111:\n                /* \"#utility.yul\":365:587   */\n              swap3\n              swap2\n              pop\n              pop\n              jump\t// out\n                /* \"#utility.yul\":674:791   */\n            tag_76:\n                /* \"#utility.yul\":783:784   */\n              0x00\n                /* \"#utility.yul\":780:781   */\n              0x00\n                /* \"#utility.yul\":773:785   */\n              revert\n                /* \"#utility.yul\":920:997   */\n            tag_78:\n                /* \"#utility.yul\":957:964   */\n              0x00\n                /* \"#utility.yul\":986:991   */\n              dup2\n                /* \"#utility.yul\":975:991   */\n              swap1\n              pop\n                /* \"#utility.yul\":920:997   */\n              swap2\n              swap1\n              pop\n              jump\t// out\n                /* \"#utility.yul\":1003:1125   */\n            tag_79:\n                /* \"#utility.yul\":1076:1100   */\n              tag_117\n                /* \"#utility.yul\":1094:1099   */\n              dup2\n                /* \"#utility.yul\":1076:1100   */\n              tag_78\n              jump\t// in\n            tag_117:\n                /* \"#utility.yul\":1069:1074   */\n              dup2\n                /* \"#utility.yul\":1066:1101   */\n              eq\n                /* \"#utility.yul\":1056:1119   */\n              tag_118\n              jumpi\n                /* \"#utility.yul\":1115:1116   */\n              0x00\n                /* \"#utility.yul\":1112:1113   */\n              0x00\n                /* \"#utility.yul\":1105:1117   */\n              revert\n                /* \"#utility.yul\":1056:1119   */\n            tag_118:\n                /* \"#utility.yul\":1003:1125   */\n              pop\n              jump\t// out\n                /* \"#utility.yul\":1131:1270   */\n            tag_80:\n                /* \"#utility.yul\":1177:1182   */\n              0x00\n                /* \"#utility.yul\":1215:1221   */\n              dup2\n                /* \"#utility.yul\":1202:1222   */\n              calldataload\n                /* \"#utility.yul\":1193:1222   */\n              swap1\n              pop\n                /* \"#utility.yul\":1231:1264   */\n              tag_120\n                /* \"#utility.yul\":1258:1263   */\n              dup2\n                /* \"#utility.yul\":1231:1264   */\n              tag_79\n              jump\t// in\n            tag_120:\n                /* \"#utility.yul\":1131:1270   */\n              swap3\n              swap2\n              pop\n              pop\n              jump\t// out\n                /* \"#utility.yul\":1276:1605   */\n            tag_15:\n                /* \"#utility.yul\":1335:1341   */\n              0x00\n                /* \"#utility.yul\":1384:1386   */\n              0x20\n                /* \"#utility.yul\":1372:1381   */\n              dup3\n                /* \"#utility.yul\":1363:1370   */\n              dup5\n                /* \"#utility.yul\":1359:1382   */\n              sub\n                /* \"#utility.yul\":1355:1387   */\n              slt\n                /* \"#utility.yul\":1352:1471   */\n              iszero\n              tag_122\n              jumpi\n                /* \"#utility.yul\":1390:1469   */\n              tag_123\n              tag_76\n              jump\t// in\n            tag_123:\n                /* \"#utility.yul\":1352:1471   */\n            tag_122:\n                /* \"#utility.yul\":1510:1511   */\n              0x00\n                /* \"#utility.yul\":1535:1588   */\n              tag_124\n                /* \"#utility.yul\":1580:1587   */\n              dup5\n                /* \"#utility.yul\":1571:1577   */\n              dup3\n                /* \"#utility.yul\":1560:1569   */\n              dup6\n                /* \"#utility.yul\":1556:1578   */\n              add\n                /* \"#utility.yul\":1535:1588   */\n              tag_80\n              jump\t// in\n            tag_124:\n                /* \"#utility.yul\":1525:1588   */\n              swap2\n              pop\n                /* \"#utility.yul\":1481:1598   */\n              pop\n                /* \"#utility.yul\":1276:1605   */\n              swap3\n              swap2\n              pop\n              pop\n              jump\t// out\n                /* \"#utility.yul\":1611:1725   */\n            tag_81:\n                /* \"#utility.yul\":1678:1684   */\n              0x00\n                /* \"#utility.yul\":1712:1717   */\n              dup2\n                /* \"#utility.yul\":1706:1718   */\n              mload\n                /* \"#utility.yul\":1696:1718   */\n              swap1\n              pop\n                /* \"#utility.yul\":1611:1725   */\n              swap2\n              swap1\n              pop\n              jump\t// out\n                /* \"#utility.yul\":1731:1915   */\n            tag_82:\n                /* \"#utility.yul\":1830:1841   */\n              0x00\n                /* \"#utility.yul\":1864:1870   */\n              dup3\n                /* \"#utility.yul\":1859:1862   */\n              dup3\n                /* \"#utility.yul\":1852:1871   */\n              mstore\n                /* \"#utility.yul\":1904:1908   */\n              0x20\n                /* \"#utility.yul\":1899:1902   */\n              dup3\n                /* \"#utility.yul\":1895:1909   */\n              add\n                /* \"#utility.yul\":1880:1909   */\n              swap1\n              pop\n                /* \"#utility.yul\":1731:1915   */\n              swap3\n              swap2\n              pop\n              pop\n              jump\t// out\n                /* \"#utility.yul\":1921:2053   */\n            tag_83:\n                /* \"#utility.yul\":1988:1992   */\n              0x00\n                /* \"#utility.yul\":2011:2014   */\n              dup2\n                /* \"#utility.yul\":2003:2014   */\n              swap1\n              pop\n                /* \"#utility.yul\":2041:2045   */\n              0x20\n                /* \"#utility.yul\":2036:2039   */\n              dup3\n                /* \"#utility.yul\":2032:2046   */\n              add\n                /* \"#utility.yul\":2024:2046   */\n              swap1\n              pop\n                /* \"#utility.yul\":1921:2053   */\n              swap2\n              swap1\n              pop\n              jump\t// out\n                /* \"#utility.yul\":2059:2167   */\n            tag_84:\n                /* \"#utility.yul\":2136:2160   */\n              tag_129\n                /* \"#utility.yul\":2154:2159   */\n              dup2\n                /* \"#utility.yul\":2136:2160   */\n              tag_78\n              jump\t// in\n            tag_129:\n                /* \"#utility.yul\":2131:2134   */\n              dup3\n                /* \"#utility.yul\":2124:2161   */\n              mstore\n                /* \"#utility.yul\":2059:2167   */\n              pop\n              pop\n              jump\t// out\n                /* \"#utility.yul\":2173:2352   */\n            tag_85:\n                /* \"#utility.yul\":2242:2252   */\n              0x00\n                /* \"#utility.yul\":2263:2309   */\n              tag_131\n                /* \"#utility.yul\":2305:2308   */\n              dup4\n                /* \"#utility.yul\":2297:2303   */\n              dup4\n                /* \"#utility.yul\":2263:2309   */\n              tag_84\n              jump\t// in\n            tag_131:\n                /* \"#utility.yul\":2341:2345   */\n              0x20\n                /* \"#utility.yul\":2336:2339   */\n              dup4\n                /* \"#utility.yul\":2332:2346   */\n              add\n                /* \"#utility.yul\":2318:2346   */\n              swap1\n              pop\n                /* \"#utility.yul\":2173:2352   */\n              swap3\n              swap2\n              pop\n              pop\n              jump\t// out\n                /* \"#utility.yul\":2358:2471   */\n            tag_86:\n                /* \"#utility.yul\":2428:2432   */\n              0x00\n                /* \"#utility.yul\":2460:2464   */\n              0x20\n                /* \"#utility.yul\":2455:2458   */\n              dup3\n                /* \"#utility.yul\":2451:2465   */\n              add\n                /* \"#utility.yul\":2443:2465   */\n              swap1\n              pop\n                /* \"#utility.yul\":2358:2471   */\n              swap2\n              swap1\n              pop\n              jump\t// out\n                /* \"#utility.yul\":2507:3239   */\n            tag_87:\n                /* \"#utility.yul\":2626:2629   */\n              0x00\n                /* \"#utility.yul\":2655:2709   */\n              tag_134\n                /* \"#utility.yul\":2703:2708   */\n              dup3\n                /* \"#utility.yul\":2655:2709   */\n              tag_81\n              jump\t// in\n            tag_134:\n                /* \"#utility.yul\":2725:2811   */\n              tag_135\n                /* \"#utility.yul\":2804:2810   */\n              dup2\n                /* \"#utility.yul\":2799:2802   */\n              dup6\n                /* \"#utility.yul\":2725:2811   */\n              tag_82\n              jump\t// in\n            tag_135:\n                /* \"#utility.yul\":2718:2811   */\n              swap4\n              pop\n                /* \"#utility.yul\":2835:2891   */\n              tag_136\n                /* \"#utility.yul\":2885:2890   */\n              dup4\n                /* \"#utility.yul\":2835:2891   */\n              tag_83\n              jump\t// in\n            tag_136:\n                /* \"#utility.yul\":2914:2921   */\n              dup1\n                /* \"#utility.yul\":2945:2946   */\n              0x00\n                /* \"#utility.yul\":2930:3214   */\n            tag_137:\n                /* \"#utility.yul\":2955:2961   */\n              dup4\n                /* \"#utility.yul\":2952:2953   */\n              dup2\n                /* \"#utility.yul\":2949:2962   */\n              lt\n                /* \"#utility.yul\":2930:3214   */\n              iszero\n              tag_139\n              jumpi\n                /* \"#utility.yul\":3031:3037   */\n              dup2\n                /* \"#utility.yul\":3025:3038   */\n              mload\n                /* \"#utility.yul\":3058:3121   */\n              tag_140\n                /* \"#utility.yul\":3117:3120   */\n              dup9\n                /* \"#utility.yul\":3102:3115   */\n              dup3\n                /* \"#utility.yul\":3058:3121   */\n              tag_85\n              jump\t// in\n            tag_140:\n                /* \"#utility.yul\":3051:3121   */\n              swap8\n              pop\n                /* \"#utility.yul\":3144:3204   */\n              tag_141\n                /* \"#utility.yul\":3197:3203   */\n              dup4\n                /* \"#utility.yul\":3144:3204   */\n              tag_86\n              jump\t// in\n            tag_141:\n                /* \"#utility.yul\":3134:3204   */\n              swap3\n              pop\n                /* \"#utility.yul\":2990:3214   */\n              pop\n                /* \"#utility.yul\":2977:2978   */\n              0x01\n                /* \"#utility.yul\":2974:2975   */\n              dup2\n                /* \"#utility.yul\":2970:2979   */\n              add\n                /* \"#utility.yul\":2965:2979   */\n              swap1\n              pop\n                /* \"#utility.yul\":2930:3214   */\n              jump(tag_137)\n            tag_139:\n                /* \"#utility.yul\":2934:2948   */\n              pop\n                /* \"#utility.yul\":3230:3233   */\n              dup6\n                /* \"#utility.yul\":3223:3233   */\n              swap4\n              pop\n                /* \"#utility.yul\":2631:3239   */\n              pop\n              pop\n              pop\n                /* \"#utility.yul\":2507:3239   */\n              swap3\n              swap2\n              pop\n              pop\n              jump\t// out\n                /* \"#utility.yul\":3245:3618   */\n            tag_20:\n                /* \"#utility.yul\":3388:3392   */\n              0x00\n                /* \"#utility.yul\":3426:3428   */\n              0x20\n                /* \"#utility.yul\":3415:3424   */\n              dup3\n                /* \"#utility.yul\":3411:3429   */\n              add\n                /* \"#utility.yul\":3403:3429   */\n              swap1\n              pop\n                /* \"#utility.yul\":3475:3484   */\n              dup2\n                /* \"#utility.yul\":3469:3473   */\n              dup2\n                /* \"#utility.yul\":3465:3485   */\n              sub\n                /* \"#utility.yul\":3461:3462   */\n              0x00\n                /* \"#utility.yul\":3450:3459   */\n              dup4\n                /* \"#utility.yul\":3446:3463   */\n              add\n                /* \"#utility.yul\":3439:3486   */\n              mstore\n                /* \"#utility.yul\":3503:3611   */\n              tag_143\n                /* \"#utility.yul\":3606:3610   */\n              dup2\n                /* \"#utility.yul\":3597:3603   */\n              dup5\n                /* \"#utility.yul\":3503:3611   */\n              tag_87\n              jump\t// in\n            tag_143:\n                /* \"#utility.yul\":3495:3611   */\n              swap1\n              pop\n                /* \"#utility.yul\":3245:3618   */\n              swap3\n              swap2\n              pop\n              pop\n              jump\t// out\n                /* \"#utility.yul\":3624:3714   */\n            tag_88:\n                /* \"#utility.yul\":3658:3665   */\n              0x00\n                /* \"#utility.yul\":3701:3706   */\n              dup2\n                /* \"#utility.yul\":3694:3707   */\n              iszero\n                /* \"#utility.yul\":3687:3708   */\n              iszero\n                /* \"#utility.yul\":3676:3708   */\n              swap1\n              pop\n                /* \"#utility.yul\":3624:3714   */\n              swap2\n              swap1\n              pop\n              jump\t// out\n                /* \"#utility.yul\":3720:3829   */\n            tag_89:\n                /* \"#utility.yul\":3801:3822   */\n              tag_146\n                /* \"#utility.yul\":3816:3821   */\n              dup2\n                /* \"#utility.yul\":3801:3822   */\n              tag_88\n              jump\t// in\n            tag_146:\n                /* \"#utility.yul\":3796:3799   */\n              dup3\n                /* \"#utility.yul\":3789:3823   */\n              mstore\n                /* \"#utility.yul\":3720:3829   */\n              pop\n              pop\n              jump\t// out\n                /* \"#utility.yul\":3835:4045   */\n            tag_24:\n                /* \"#utility.yul\":3922:3926   */\n              0x00\n                /* \"#utility.yul\":3960:3962   */\n              0x20\n                /* \"#utility.yul\":3949:3958   */\n              dup3\n                /* \"#utility.yul\":3945:3963   */\n              add\n                /* \"#utility.yul\":3937:3963   */\n              swap1\n              pop\n                /* \"#utility.yul\":3973:4038   */\n              tag_148\n                /* \"#utility.yul\":4035:4036   */\n              0x00\n                /* \"#utility.yul\":4024:4033   */\n              dup4\n                /* \"#utility.yul\":4020:4037   */\n              add\n                /* \"#utility.yul\":4011:4017   */\n              dup5\n                /* \"#utility.yul\":3973:4038   */\n              tag_89\n              jump\t// in\n            tag_148:\n                /* \"#utility.yul\":3835:4045   */\n              swap3\n              swap2\n              pop\n              pop\n              jump\t// out\n                /* \"#utility.yul\":4051:4220   */\n            tag_90:\n                /* \"#utility.yul\":4135:4146   */\n              0x00\n                /* \"#utility.yul\":4169:4175   */\n              dup3\n                /* \"#utility.yul\":4164:4167   */\n              dup3\n                /* \"#utility.yul\":4157:4176   */\n              mstore\n                /* \"#utility.yul\":4209:4213   */\n              0x20\n                /* \"#utility.yul\":4204:4207   */\n              dup3\n                /* \"#utility.yul\":4200:4214   */\n              add\n                /* \"#utility.yul\":4185:4214   */\n              swap1\n              pop\n                /* \"#utility.yul\":4051:4220   */\n              swap3\n              swap2\n              pop\n              pop\n              jump\t// out\n                /* \"#utility.yul\":4226:4403   */\n            tag_91:\n                /* \"#utility.yul\":4366:4395   */\n              0x4c6120766f746163696f6e206e6f206573746120616269657274610000000000\n                /* \"#utility.yul\":4362:4363   */\n              0x00\n                /* \"#utility.yul\":4354:4360   */\n              dup3\n                /* \"#utility.yul\":4350:4364   */\n              add\n                /* \"#utility.yul\":4343:4396   */\n              mstore\n                /* \"#utility.yul\":4226:4403   */\n              pop\n              jump\t// out\n                /* \"#utility.yul\":4409:4775   */\n            tag_92:\n                /* \"#utility.yul\":4551:4554   */\n              0x00\n                /* \"#utility.yul\":4572:4639   */\n              tag_152\n                /* \"#utility.yul\":4636:4638   */\n              0x1b\n                /* \"#utility.yul\":4631:4634   */\n              dup4\n                /* \"#utility.yul\":4572:4639   */\n              tag_90\n              jump\t// in\n            tag_152:\n                /* \"#utility.yul\":4565:4639   */\n              swap2\n              pop\n                /* \"#utility.yul\":4648:4741   */\n              tag_153\n                /* \"#utility.yul\":4737:4740   */\n              dup3\n                /* \"#utility.yul\":4648:4741   */\n              tag_91\n              jump\t// in\n            tag_153:\n                /* \"#utility.yul\":4766:4768   */\n              0x20\n                /* \"#utility.yul\":4761:4764   */\n              dup3\n                /* \"#utility.yul\":4757:4769   */\n              add\n                /* \"#utility.yul\":4750:4769   */\n              swap1\n              pop\n                /* \"#utility.yul\":4409:4775   */\n              swap2\n              swap1\n              pop\n              jump\t// out\n                /* \"#utility.yul\":4781:5200   */\n            tag_33:\n                /* \"#utility.yul\":4947:4951   */\n              0x00\n                /* \"#utility.yul\":4985:4987   */\n              0x20\n                /* \"#utility.yul\":4974:4983   */\n              dup3\n                /* \"#utility.yul\":4970:4988   */\n              add\n                /* \"#utility.yul\":4962:4988   */\n              swap1\n              pop\n                /* \"#utility.yul\":5034:5043   */\n              dup2\n                /* \"#utility.yul\":5028:5032   */\n              dup2\n                /* \"#utility.yul\":5024:5044   */\n              sub\n                /* \"#utility.yul\":5020:5021   */\n              0x00\n                /* \"#utility.yul\":5009:5018   */\n              dup4\n                /* \"#utility.yul\":5005:5022   */\n              add\n                /* \"#utility.yul\":4998:5045   */\n              mstore\n                /* \"#utility.yul\":5062:5193   */\n              tag_155\n                /* \"#utility.yul\":5188:5192   */\n              dup2\n                /* \"#utility.yul\":5062:5193   */\n              tag_92\n              jump\t// in\n            tag_155:\n                /* \"#utility.yul\":5054:5193   */\n              swap1\n              pop\n                /* \"#utility.yul\":4781:5200   */\n              swap2\n              swap1\n              pop\n              jump\t// out\n                /* \"#utility.yul\":5206:5427   */\n            tag_93:\n                /* \"#utility.yul\":5346:5380   */\n              0x4964656e746966696361646f72206465207061727469646f206e6f2076616c69\n                /* \"#utility.yul\":5342:5343   */\n              0x00\n                /* \"#utility.yul\":5334:5340   */\n              dup3\n                /* \"#utility.yul\":5330:5344   */\n              add\n                /* \"#utility.yul\":5323:5381   */\n              mstore\n                /* \"#utility.yul\":5415:5419   */\n              0x646f000000000000000000000000000000000000000000000000000000000000\n                /* \"#utility.yul\":5410:5412   */\n              0x20\n                /* \"#utility.yul\":5402:5408   */\n              dup3\n                /* \"#utility.yul\":5398:5413   */\n              add\n                /* \"#utility.yul\":5391:5420   */\n              mstore\n                /* \"#utility.yul\":5206:5427   */\n              pop\n              jump\t// out\n                /* \"#utility.yul\":5433:5799   */\n            tag_94:\n                /* \"#utility.yul\":5575:5578   */\n              0x00\n                /* \"#utility.yul\":5596:5663   */\n              tag_158\n                /* \"#utility.yul\":5660:5662   */\n              0x22\n                /* \"#utility.yul\":5655:5658   */\n              dup4\n                /* \"#utility.yul\":5596:5663   */\n              tag_90\n              jump\t// in\n            tag_158:\n                /* \"#utility.yul\":5589:5663   */\n              swap2\n              pop\n                /* \"#utility.yul\":5672:5765   */\n              tag_159\n                /* \"#utility.yul\":5761:5764   */\n              dup3\n                /* \"#utility.yul\":5672:5765   */\n              tag_93\n              jump\t// in\n            tag_159:\n                /* \"#utility.yul\":5790:5792   */\n              0x40\n                /* \"#utility.yul\":5785:5788   */\n              dup3\n                /* \"#utility.yul\":5781:5793   */\n              add\n                /* \"#utility.yul\":5774:5793   */\n              swap1\n              pop\n                /* \"#utility.yul\":5433:5799   */\n              swap2\n              swap1\n              pop\n              jump\t// out\n                /* \"#utility.yul\":5805:6224   */\n            tag_39:\n                /* \"#utility.yul\":5971:5975   */\n              0x00\n                /* \"#utility.yul\":6009:6011   */\n              0x20\n                /* \"#utility.yul\":5998:6007   */\n              dup3\n                /* \"#utility.yul\":5994:6012   */\n              add\n                /* \"#utility.yul\":5986:6012   */\n              swap1\n              pop\n                /* \"#utility.yul\":6058:6067   */\n              dup2\n                /* \"#utility.yul\":6052:6056   */\n              dup2\n                /* \"#utility.yul\":6048:6068   */\n              sub\n                /* \"#utility.yul\":6044:6045   */\n              0x00\n                /* \"#utility.yul\":6033:6042   */\n              dup4\n                /* \"#utility.yul\":6029:6046   */\n              add\n                /* \"#utility.yul\":6022:6069   */\n              mstore\n                /* \"#utility.yul\":6086:6217   */\n              tag_161\n                /* \"#utility.yul\":6212:6216   */\n              dup2\n                /* \"#utility.yul\":6086:6217   */\n              tag_94\n              jump\t// in\n            tag_161:\n                /* \"#utility.yul\":6078:6217   */\n              swap1\n              pop\n                /* \"#utility.yul\":5805:6224   */\n              swap2\n              swap1\n              pop\n              jump\t// out\n                /* \"#utility.yul\":6230:6399   */\n            tag_95:\n                /* \"#utility.yul\":6370:6391   */\n              0x6572726f72206e6f206175746f72697a61646f00000000000000000000000000\n                /* \"#utility.yul\":6366:6367   */\n              0x00\n                /* \"#utility.yul\":6358:6364   */\n              dup3\n                /* \"#utility.yul\":6354:6368   */\n              add\n                /* \"#utility.yul\":6347:6392   */\n              mstore\n                /* \"#utility.yul\":6230:6399   */\n              pop\n              jump\t// out\n                /* \"#utility.yul\":6405:6771   */\n            tag_96:\n                /* \"#utility.yul\":6547:6550   */\n              0x00\n                /* \"#utility.yul\":6568:6635   */\n              tag_164\n                /* \"#utility.yul\":6632:6634   */\n              0x13\n                /* \"#utility.yul\":6627:6630   */\n              dup4\n                /* \"#utility.yul\":6568:6635   */\n              tag_90\n              jump\t// in\n            tag_164:\n                /* \"#utility.yul\":6561:6635   */\n              swap2\n              pop\n                /* \"#utility.yul\":6644:6737   */\n              tag_165\n                /* \"#utility.yul\":6733:6736   */\n              dup3\n                /* \"#utility.yul\":6644:6737   */\n              tag_95\n              jump\t// in\n            tag_165:\n                /* \"#utility.yul\":6762:6764   */\n              0x20\n                /* \"#utility.yul\":6757:6760   */\n              dup3\n                /* \"#utility.yul\":6753:6765   */\n              add\n                /* \"#utility.yul\":6746:6765   */\n              swap1\n              pop\n                /* \"#utility.yul\":6405:6771   */\n              swap2\n              swap1\n              pop\n              jump\t// out\n                /* \"#utility.yul\":6777:7196   */\n            tag_43:\n                /* \"#utility.yul\":6943:6947   */\n              0x00\n                /* \"#utility.yul\":6981:6983   */\n              0x20\n                /* \"#utility.yul\":6970:6979   */\n              dup3\n                /* \"#utility.yul\":6966:6984   */\n              add\n                /* \"#utility.yul\":6958:6984   */\n              swap1\n              pop\n                /* \"#utility.yul\":7030:7039   */\n              dup2\n                /* \"#utility.yul\":7024:7028   */\n              dup2\n                /* \"#utility.yul\":7020:7040   */\n              sub\n                /* \"#utility.yul\":7016:7017   */\n              0x00\n                /* \"#utility.yul\":7005:7014   */\n              dup4\n                /* \"#utility.yul\":7001:7018   */\n              add\n                /* \"#utility.yul\":6994:7041   */\n              mstore\n                /* \"#utility.yul\":7058:7189   */\n              tag_167\n                /* \"#utility.yul\":7184:7188   */\n              dup2\n                /* \"#utility.yul\":7058:7189   */\n              tag_96\n              jump\t// in\n            tag_167:\n                /* \"#utility.yul\":7050:7189   */\n              swap1\n              pop\n                /* \"#utility.yul\":6777:7196   */\n              swap2\n              swap1\n              pop\n              jump\t// out\n                /* \"#utility.yul\":7202:7383   */\n            tag_97:\n                /* \"#utility.yul\":7342:7375   */\n              0x4c6120766f746163696f6e2061756e206e6f206861207465726d696e61646f00\n                /* \"#utility.yul\":7338:7339   */\n              0x00\n                /* \"#utility.yul\":7330:7336   */\n              dup3\n                /* \"#utility.yul\":7326:7340   */\n              add\n                /* \"#utility.yul\":7319:7376   */\n              mstore\n                /* \"#utility.yul\":7202:7383   */\n              pop\n              jump\t// out\n                /* \"#utility.yul\":7389:7755   */\n            tag_98:\n                /* \"#utility.yul\":7531:7534   */\n              0x00\n                /* \"#utility.yul\":7552:7619   */\n              tag_170\n                /* \"#utility.yul\":7616:7618   */\n              0x1f\n                /* \"#utility.yul\":7611:7614   */\n              dup4\n                /* \"#utility.yul\":7552:7619   */\n              tag_90\n              jump\t// in\n            tag_170:\n                /* \"#utility.yul\":7545:7619   */\n              swap2\n              pop\n                /* \"#utility.yul\":7628:7721   */\n              tag_171\n                /* \"#utility.yul\":7717:7720   */\n              dup3\n                /* \"#utility.yul\":7628:7721   */\n              tag_97\n              jump\t// in\n            tag_171:\n                /* \"#utility.yul\":7746:7748   */\n              0x20\n                /* \"#utility.yul\":7741:7744   */\n              dup3\n                /* \"#utility.yul\":7737:7749   */\n              add\n                /* \"#utility.yul\":7730:7749   */\n              swap1\n              pop\n                /* \"#utility.yul\":7389:7755   */\n              swap2\n              swap1\n              pop\n              jump\t// out\n                /* \"#utility.yul\":7761:8180   */\n            tag_47:\n                /* \"#utility.yul\":7927:7931   */\n              0x00\n                /* \"#utility.yul\":7965:7967   */\n              0x20\n                /* \"#utility.yul\":7954:7963   */\n              dup3\n                /* \"#utility.yul\":7950:7968   */\n              add\n                /* \"#utility.yul\":7942:7968   */\n              swap1\n              pop\n                /* \"#utility.yul\":8014:8023   */\n              dup2\n                /* \"#utility.yul\":8008:8012   */\n              dup2\n                /* \"#utility.yul\":8004:8024   */\n              sub\n                /* \"#utility.yul\":8000:8001   */\n              0x00\n                /* \"#utility.yul\":7989:7998   */\n              dup4\n                /* \"#utility.yul\":7985:8002   */\n              add\n                /* \"#utility.yul\":7978:8025   */\n              mstore\n                /* \"#utility.yul\":8042:8173   */\n              tag_173\n                /* \"#utility.yul\":8168:8172   */\n              dup2\n                /* \"#utility.yul\":8042:8173   */\n              tag_98\n              jump\t// in\n            tag_173:\n                /* \"#utility.yul\":8034:8173   */\n              swap1\n              pop\n                /* \"#utility.yul\":7761:8180   */\n              swap2\n              swap1\n              pop\n              jump\t// out\n                /* \"#utility.yul\":8186:8408   */\n            tag_99:\n                /* \"#utility.yul\":8326:8360   */\n              0x536f6c6f20656c20707265736964656e74652070756564652068616365722065\n                /* \"#utility.yul\":8322:8323   */\n              0x00\n                /* \"#utility.yul\":8314:8320   */\n              dup3\n                /* \"#utility.yul\":8310:8324   */\n              add\n                /* \"#utility.yul\":8303:8361   */\n              mstore\n                /* \"#utility.yul\":8395:8400   */\n              0x73746f0000000000000000000000000000000000000000000000000000000000\n                /* \"#utility.yul\":8390:8392   */\n              0x20\n                /* \"#utility.yul\":8382:8388   */\n              dup3\n                /* \"#utility.yul\":8378:8393   */\n              add\n                /* \"#utility.yul\":8371:8401   */\n              mstore\n                /* \"#utility.yul\":8186:8408   */\n              pop\n              jump\t// out\n                /* \"#utility.yul\":8414:8780   */\n            tag_100:\n                /* \"#utility.yul\":8556:8559   */\n              0x00\n                /* \"#utility.yul\":8577:8644   */\n              tag_176\n                /* \"#utility.yul\":8641:8643   */\n              0x23\n                /* \"#utility.yul\":8636:8639   */\n              dup4\n                /* \"#utility.yul\":8577:8644   */\n              tag_90\n              jump\t// in\n            tag_176:\n                /* \"#utility.yul\":8570:8644   */\n              swap2\n              pop\n                /* \"#utility.yul\":8653:8746   */\n              tag_177\n                /* \"#utility.yul\":8742:8745   */\n              dup3\n                /* \"#utility.yul\":8653:8746   */\n              tag_99\n              jump\t// in\n            tag_177:\n                /* \"#utility.yul\":8771:8773   */\n              0x40\n                /* \"#utility.yul\":8766:8769   */\n              dup3\n                /* \"#utility.yul\":8762:8774   */\n              add\n                /* \"#utility.yul\":8755:8774   */\n              swap1\n              pop\n                /* \"#utility.yul\":8414:8780   */\n              swap2\n              swap1\n              pop\n              jump\t// out\n                /* \"#utility.yul\":8786:9205   */\n            tag_53:\n                /* \"#utility.yul\":8952:8956   */\n              0x00\n                /* \"#utility.yul\":8990:8992   */\n              0x20\n                /* \"#utility.yul\":8979:8988   */\n              dup3\n                /* \"#utility.yul\":8975:8993   */\n              add\n                /* \"#utility.yul\":8967:8993   */\n              swap1\n              pop\n                /* \"#utility.yul\":9039:9048   */\n              dup2\n                /* \"#utility.yul\":9033:9037   */\n              dup2\n                /* \"#utility.yul\":9029:9049   */\n              sub\n                /* \"#utility.yul\":9025:9026   */\n              0x00\n                /* \"#utility.yul\":9014:9023   */\n              dup4\n                /* \"#utility.yul\":9010:9027   */\n              add\n                /* \"#utility.yul\":9003:9050   */\n              mstore\n                /* \"#utility.yul\":9067:9198   */\n              tag_179\n                /* \"#utility.yul\":9193:9197   */\n              dup2\n                /* \"#utility.yul\":9067:9198   */\n              tag_100\n              jump\t// in\n            tag_179:\n                /* \"#utility.yul\":9059:9198   */\n              swap1\n              pop\n                /* \"#utility.yul\":8786:9205   */\n              swap2\n              swap1\n              pop\n              jump\t// out\n                /* \"#utility.yul\":9211:9384   */\n            tag_101:\n                /* \"#utility.yul\":9351:9376   */\n              0x4c6120766f746163696f6e2079612066696e616c697a6f000000000000000000\n                /* \"#utility.yul\":9347:9348   */\n              0x00\n                /* \"#utility.yul\":9339:9345   */\n              dup3\n                /* \"#utility.yul\":9335:9349   */\n              add\n                /* \"#utility.yul\":9328:9377   */\n              mstore\n                /* \"#utility.yul\":9211:9384   */\n              pop\n              jump\t// out\n                /* \"#utility.yul\":9390:9756   */\n            tag_102:\n                /* \"#utility.yul\":9532:9535   */\n              0x00\n                /* \"#utility.yul\":9553:9620   */\n              tag_182\n                /* \"#utility.yul\":9617:9619   */\n              0x17\n                /* \"#utility.yul\":9612:9615   */\n              dup4\n                /* \"#utility.yul\":9553:9620   */\n              tag_90\n              jump\t// in\n            tag_182:\n                /* \"#utility.yul\":9546:9620   */\n              swap2\n              pop\n                /* \"#utility.yul\":9629:9722   */\n              tag_183\n                /* \"#utility.yul\":9718:9721   */\n              dup3\n                /* \"#utility.yul\":9629:9722   */\n              tag_101\n              jump\t// in\n            tag_183:\n                /* \"#utility.yul\":9747:9749   */\n              0x20\n                /* \"#utility.yul\":9742:9745   */\n              dup3\n                /* \"#utility.yul\":9738:9750   */\n              add\n                /* \"#utility.yul\":9731:9750   */\n              swap1\n              pop\n                /* \"#utility.yul\":9390:9756   */\n              swap2\n              swap1\n              pop\n              jump\t// out\n                /* \"#utility.yul\":9762:10181   */\n            tag_57:\n                /* \"#utility.yul\":9928:9932   */\n              0x00\n                /* \"#utility.yul\":9966:9968   */\n              0x20\n                /* \"#utility.yul\":9955:9964   */\n              dup3\n                /* \"#utility.yul\":9951:9969   */\n              add\n                /* \"#utility.yul\":9943:9969   */\n              swap1\n              pop\n                /* \"#utility.yul\":10015:10024   */\n              dup2\n                /* \"#utility.yul\":10009:10013   */\n              dup2\n                /* \"#utility.yul\":10005:10025   */\n              sub\n                /* \"#utility.yul\":10001:10002   */\n              0x00\n                /* \"#utility.yul\":9990:9999   */\n              dup4\n                /* \"#utility.yul\":9986:10003   */\n              add\n                /* \"#utility.yul\":9979:10026   */\n              mstore\n                /* \"#utility.yul\":10043:10174   */\n              tag_185\n                /* \"#utility.yul\":10169:10173   */\n              dup2\n                /* \"#utility.yul\":10043:10174   */\n              tag_102\n              jump\t// in\n            tag_185:\n                /* \"#utility.yul\":10035:10174   */\n              swap1\n              pop\n                /* \"#utility.yul\":9762:10181   */\n              swap2\n              swap1\n              pop\n              jump\t// out\n                /* \"#utility.yul\":10187:10367   */\n            tag_68:\n                /* \"#utility.yul\":10235:10312   */\n              0x4e487b7100000000000000000000000000000000000000000000000000000000\n                /* \"#utility.yul\":10232:10233   */\n              0x00\n                /* \"#utility.yul\":10225:10313   */\n              mstore\n                /* \"#utility.yul\":10332:10336   */\n              0x32\n                /* \"#utility.yul\":10329:10330   */\n              0x04\n                /* \"#utility.yul\":10322:10337   */\n              mstore\n                /* \"#utility.yul\":10356:10360   */\n              0x24\n                /* \"#utility.yul\":10353:10354   */\n              0x00\n                /* \"#utility.yul\":10346:10361   */\n              revert\n                /* \"#utility.yul\":10373:10553   */\n            tag_103:\n                /* \"#utility.yul\":10421:10498   */\n              0x4e487b7100000000000000000000000000000000000000000000000000000000\n                /* \"#utility.yul\":10418:10419   */\n              0x00\n                /* \"#utility.yul\":10411:10499   */\n              mstore\n                /* \"#utility.yul\":10518:10522   */\n              0x11\n                /* \"#utility.yul\":10515:10516   */\n              0x04\n                /* \"#utility.yul\":10508:10523   */\n              mstore\n                /* \"#utility.yul\":10542:10546   */\n              0x24\n                /* \"#utility.yul\":10539:10540   */\n              0x00\n                /* \"#utility.yul\":10532:10547   */\n              revert\n                /* \"#utility.yul\":10559:10750   */\n            tag_71:\n                /* \"#utility.yul\":10599:10602   */\n              0x00\n                /* \"#utility.yul\":10618:10638   */\n              tag_189\n                /* \"#utility.yul\":10636:10637   */\n              dup3\n                /* \"#utility.yul\":10618:10638   */\n              tag_78\n              jump\t// in\n            tag_189:\n                /* \"#utility.yul\":10613:10638   */\n              swap2\n              pop\n                /* \"#utility.yul\":10652:10672   */\n              tag_190\n                /* \"#utility.yul\":10670:10671   */\n              dup4\n                /* \"#utility.yul\":10652:10672   */\n              tag_78\n              jump\t// in\n            tag_190:\n                /* \"#utility.yul\":10647:10672   */\n              swap3\n              pop\n                /* \"#utility.yul\":10695:10696   */\n              dup3\n                /* \"#utility.yul\":10692:10693   */\n              dup3\n                /* \"#utility.yul\":10688:10697   */\n              add\n                /* \"#utility.yul\":10681:10697   */\n              swap1\n              pop\n                /* \"#utility.yul\":10716:10719   */\n              dup1\n                /* \"#utility.yul\":10713:10714   */\n              dup3\n                /* \"#utility.yul\":10710:10720   */\n              gt\n                /* \"#utility.yul\":10707:10743   */\n              iszero\n              tag_191\n              jumpi\n                /* \"#utility.yul\":10723:10741   */\n              tag_192\n              tag_103\n              jump\t// in\n            tag_192:\n                /* \"#utility.yul\":10707:10743   */\n            tag_191:\n                /* \"#utility.yul\":10559:10750   */\n              swap3\n              swap2\n              pop\n              pop\n              jump\t// out\n\n            auxdata: 0xa2646970667358221220729f1e99bec75f3c245439fea28ff59b049f253f73b17211c3a319d2739e262764736f6c634300081f0033\n        }\n    }\n\n    auxdata: 0xa2646970667358221220cc1980cff004b9306f7d4032e76a6e5edea1355bd58ad6d840e90d6aea2df77564736f6c634300081f0033\n}\n",
				"bytecode": {
					"linkReferences": {},
					"object": "6080604052348015600e575f5ffd5b50604051611ee5380380611ee58339818101604052810190602e919060ab565b335f5f6101000a81548173ffffffffffffffffffffffffffffffffffffffff021916908373ffffffffffffffffffffffffffffffffffffffff160217905550806001819055505060d1565b5f5ffd5b5f819050919050565b608d81607d565b81146096575f5ffd5b50565b5f8151905060a5816086565b92915050565b5f6020828403121560bd5760bc6079565b5b5f60c8848285016099565b91505092915050565b611e07806100de5f395ff3fe608060405234801561000f575f5ffd5b506004361061007b575f3560e01c806392f859db1161005957806392f859db146100e9578063a44fe13114610119578063a6782c2b14610135578063bf7e214f146101535761007b565b806309eef43e1461007f5780632c0a3f89146100af5780634717f97c146100cb575b5f5ffd5b6100996004803603810190610094919061086e565b610171565b6040516100a691906108b3565b60405180910390f35b6100c960048036038101906100c491906108ff565b61018e565b005b6100d36103a5565b6040516100e091906109f4565b60405180910390f35b61010360048036038101906100fe9190610a14565b6105e2565b6040516101109190610a9a565b60405180910390f35b610133600480360381019061012e9190610ab3565b610612565b005b61013d6107cc565b60405161014a9190610b00565b60405180910390f35b61015b6107d2565b6040516101689190610b28565b60405180910390f35b6003602052805f5260405f205f915054906101000a900460ff1681565b5f73ffffffffffffffffffffffffffffffffffffffff1660025f8481526020019081526020015f205f9054906101000a900473ffffffffffffffffffffffffffffffffffffffff1673ffffffffffffffffffffffffffffffffffffffff160361022c576040517f08c379a000000000000000000000000000000000000000000000000000000000815260040161022390610b9b565b60405180910390fd5b60035f3373ffffffffffffffffffffffffffffffffffffffff1673ffffffffffffffffffffffffffffffffffffffff1681526020019081526020015f205f9054906101000a900460ff16156102b6576040517f08c379a00000000000000000000000000000000000000000000000000000000081526004016102ad90610c03565b60405180910390fd5b600160035f3373ffffffffffffffffffffffffffffffffffffffff1673ffffffffffffffffffffffffffffffffffffffff1681526020019081526020015f205f6101000a81548160ff02191690831515021790555060025f8381526020019081526020015f205f9054906101000a900473ffffffffffffffffffffffffffffffffffffffff1673ffffffffffffffffffffffffffffffffffffffff16633eb76b9c826040518263ffffffff1660e01b81526004016103749190610b00565b5f604051808303815f87803b15801561038b575f5ffd5b505af115801561039d573d5f5f3e3d5ffd5b505050505050565b60605f5f9054906101000a900473ffffffffffffffffffffffffffffffffffffffff1673ffffffffffffffffffffffffffffffffffffffff163373ffffffffffffffffffffffffffffffffffffffff1614610435576040517f08c379a000000000000000000000000000000000000000000000000000000000815260040161042c90610c91565b60405180910390fd5b5f60015467ffffffffffffffff81111561045257610451610caf565b5b6040519080825280602002602001820160405280156104805781602001602082028036833780820191505090505b5090505f6040518060400160405280601c8152602001602c81525090505f5f90505b60028110156105d9575f60025f8484600281106104c2576104c1610cdc565b5b602002015181526020019081526020015f205f9054906101000a900473ffffffffffffffffffffffffffffffffffffffff1673ffffffffffffffffffffffffffffffffffffffff16634717f97c6040518163ffffffff1660e01b81526004015f60405180830381865afa15801561053b573d5f5f3e3d5ffd5b505050506040513d5f823e3d601f19601f820116820180604052508101906105639190610e40565b90505f5f90505b6001548110156105ca5781818151811061058757610586610cdc565b5b60200260200101518582815181106105a2576105a1610cdc565b5b602002602001018181516105b69190610eb4565b91508181525050808060010191505061056a565b505080806001019150506104a2565b50819250505090565b6002602052805f5260405f205f915054906101000a900473ffffffffffffffffffffffffffffffffffffffff1681565b5f5f9054906101000a900473ffffffffffffffffffffffffffffffffffffffff1673ffffffffffffffffffffffffffffffffffffffff163373ffffffffffffffffffffffffffffffffffffffff16146106a0576040517f08c379a000000000000000000000000000000000000000000000000000000000815260040161069790610c91565b60405180910390fd5b5f73ffffffffffffffffffffffffffffffffffffffff1660025f8481526020019081526020015f205f9054906101000a900473ffffffffffffffffffffffffffffffffffffffff1673ffffffffffffffffffffffffffffffffffffffff161461073e576040517f08c379a000000000000000000000000000000000000000000000000000000000815260040161073590610f31565b60405180910390fd5b5f8160015484604051610750906107f6565b61075c93929190610f4f565b604051809103905ff080158015610775573d5f5f3e3d5ffd5b5090508060025f8581526020019081526020015f205f6101000a81548173ffffffffffffffffffffffffffffffffffffffff021916908373ffffffffffffffffffffffffffffffffffffffff160217905550505050565b60015481565b5f5f9054906101000a900473ffffffffffffffffffffffffffffffffffffffff1681565b610e4d80610f8583390190565b5f604051905090565b5f5ffd5b5f5ffd5b5f73ffffffffffffffffffffffffffffffffffffffff82169050919050565b5f61083d82610814565b9050919050565b61084d81610833565b8114610857575f5ffd5b50565b5f8135905061086881610844565b92915050565b5f602082840312156108835761088261080c565b5b5f6108908482850161085a565b91505092915050565b5f8115159050919050565b6108ad81610899565b82525050565b5f6020820190506108c65f8301846108a4565b92915050565b5f819050919050565b6108de816108cc565b81146108e8575f5ffd5b50565b5f813590506108f9816108d5565b92915050565b5f5f604083850312156109155761091461080c565b5b5f610922858286016108eb565b9250506020610933858286016108eb565b9150509250929050565b5f81519050919050565b5f82825260208201905092915050565b5f819050602082019050919050565b61096f816108cc565b82525050565b5f6109808383610966565b60208301905092915050565b5f602082019050919050565b5f6109a28261093d565b6109ac8185610947565b93506109b783610957565b805f5b838110156109e75781516109ce8882610975565b97506109d98361098c565b9250506001810190506109ba565b5085935050505092915050565b5f6020820190508181035f830152610a0c8184610998565b905092915050565b5f60208284031215610a2957610a2861080c565b5b5f610a36848285016108eb565b91505092915050565b5f819050919050565b5f610a62610a5d610a5884610814565b610a3f565b610814565b9050919050565b5f610a7382610a48565b9050919050565b5f610a8482610a69565b9050919050565b610a9481610a7a565b82525050565b5f602082019050610aad5f830184610a8b565b92915050565b5f5f60408385031215610ac957610ac861080c565b5b5f610ad6858286016108eb565b9250506020610ae78582860161085a565b9150509250929050565b610afa816108cc565b82525050565b5f602082019050610b135f830184610af1565b92915050565b610b2281610833565b82525050565b5f602082019050610b3b5f830184610b19565b92915050565b5f82825260208201905092915050565b7f53656465206e6f2076616c6964610000000000000000000000000000000000005f82015250565b5f610b85600e83610b41565b9150610b9082610b51565b602082019050919050565b5f6020820190508181035f830152610bb281610b79565b9050919050565b7f59612068617320766f7461646f000000000000000000000000000000000000005f82015250565b5f610bed600d83610b41565b9150610bf882610bb9565b602082019050919050565b5f6020820190508181035f830152610c1a81610be1565b9050919050565b7f536f6c6f206c61206175746f72696461642070756564652068616365722065735f8201527f746f000000000000000000000000000000000000000000000000000000000000602082015250565b5f610c7b602283610b41565b9150610c8682610c21565b604082019050919050565b5f6020820190508181035f830152610ca881610c6f565b9050919050565b7f4e487b71000000000000000000000000000000000000000000000000000000005f52604160045260245ffd5b7f4e487b71000000000000000000000000000000000000000000000000000000005f52603260045260245ffd5b5f5ffd5b5f601f19601f8301169050919050565b610d2682610d0d565b810181811067ffffffffffffffff82111715610d4557610d44610caf565b5b80604052505050565b5f610d57610803565b9050610d638282610d1d565b919050565b5f67ffffffffffffffff821115610d8257610d81610caf565b5b602082029050602081019050919050565b5f5ffd5b5f81519050610da5816108d5565b92915050565b5f610dbd610db884610d68565b610d4e565b90508083825260208201905060208402830185811115610de057610ddf610d93565b5b835b81811015610e095780610df58882610d97565b845260208401935050602081019050610de2565b5050509392505050565b5f82601f830112610e2757610e26610d09565b5b8151610e37848260208601610dab565b91505092915050565b5f60208284031215610e5557610e5461080c565b5b5f82015167ffffffffffffffff811115610e7257610e71610810565b5b610e7e84828501610e13565b91505092915050565b7f4e487b71000000000000000000000000000000000000000000000000000000005f52601160045260245ffd5b5f610ebe826108cc565b9150610ec9836108cc565b9250828201905080821115610ee157610ee0610e87565b5b92915050565b7f596120657869737465207365646520656e206573746120726567696f6e0000005f82015250565b5f610f1b601d83610b41565b9150610f2682610ee7565b602082019050919050565b5f6020820190508181035f830152610f4881610f0f565b9050919050565b5f606082019050610f625f830186610b19565b610f6f6020830185610af1565b610f7c6040830184610af1565b94935050505056fe60806040525f5f60146101000a81548160ff0219169083151502179055505f5f60156101000a81548160ff021916908315150217905550348015610041575f5ffd5b50604051610e4d380380610e4d8339818101604052810190610063919061031c565b818184805f5f6101000a81548173ffffffffffffffffffffffffffffffffffffffff021916908373ffffffffffffffffffffffffffffffffffffffff16021790555050806001819055508167ffffffffffffffff8111156100c7576100c661036c565b5b6040519080825280602002602001820160405280156100f55781602001602082028036833780820191505090505b506003908051906020019061010b929190610225565b5061011a61016460201b60201c565b50503360045f6101000a81548173ffffffffffffffffffffffffffffffffffffffff021916908373ffffffffffffffffffffffffffffffffffffffff160217905550505050610399565b600160025f601c81526020019081526020015f2081905550600160025f600881526020019081526020015f2081905550600160025f602981526020019081526020015f2081905550600560025f602c81526020019081526020015f2081905550600560025f602a81526020019081526020015f2081905550600460025f603181526020019081526020015f2081905550600460025f600981526020019081526020015f20819055506002805f601d81526020019081526020015f2081905550565b828054828255905f5260205f2090810192821561025f579160200282015b8281111561025e578251825591602001919060010190610243565b5b50905061026c9190610270565b5090565b5b80821115610287575f815f905550600101610271565b5090565b5f5ffd5b5f73ffffffffffffffffffffffffffffffffffffffff82169050919050565b5f6102b88261028f565b9050919050565b6102c8816102ae565b81146102d2575f5ffd5b50565b5f815190506102e3816102bf565b92915050565b5f819050919050565b6102fb816102e9565b8114610305575f5ffd5b50565b5f81519050610316816102f2565b92915050565b5f5f5f606084860312156103335761033261028b565b5b5f610340868287016102d5565b935050602061035186828701610308565b925050604061036286828701610308565b9150509250925092565b7f4e487b71000000000000000000000000000000000000000000000000000000005f52604160045260245ffd5b610aa7806103a65f395ff3fe608060405234801561000f575f5ffd5b5060043610610060575f3560e01c8063324a1376146100645780633eb76b9c146100825780634717f97c1461009e578063789d9e8a146100bc578063affc0670146100da578063c631b292146100e4575b5f5ffd5b61006c6100ee565b6040516100799190610593565b60405180910390f35b61009c600480360381019061009791906105e3565b610112565b005b6100a66101c8565b6040516100b391906106c5565b60405180910390f35b6100c46102fb565b6040516100d191906106ff565b60405180910390f35b6100e261030d565b005b6100ec610406565b005b5f5f9054906101000a900473ffffffffffffffffffffffffffffffffffffffff1681565b5f60159054906101000a900460ff16801561013957505f60149054906101000a900460ff16155b610178576040517f08c379a000000000000000000000000000000000000000000000000000000000815260040161016f90610772565b60405180910390fd5b5f610182826104c9565b9050806101c4576040517f08c379a00000000000000000000000000000000000000000000000000000000081526004016101bb90610800565b60405180910390fd5b5050565b606060045f9054906101000a900473ffffffffffffffffffffffffffffffffffffffff1673ffffffffffffffffffffffffffffffffffffffff163373ffffffffffffffffffffffffffffffffffffffff1614610259576040517f08c379a000000000000000000000000000000000000000000000000000000000815260040161025090610868565b60405180910390fd5b5f60149054906101000a900460ff166102a7576040517f08c379a000000000000000000000000000000000000000000000000000000000815260040161029e906108d0565b60405180910390fd5b60038054806020026020016040519081016040528092919081815260200182805480156102f157602002820191905f5260205f20905b8154815260200190600101908083116102dd575b5050505050905090565b5f60149054906101000a900460ff1681565b5f5f9054906101000a900473ffffffffffffffffffffffffffffffffffffffff1673ffffffffffffffffffffffffffffffffffffffff163373ffffffffffffffffffffffffffffffffffffffff161461039b576040517f08c379a00000000000000000000000000000000000000000000000000000000081526004016103929061095e565b60405180910390fd5b5f60149054906101000a900460ff16156103ea576040517f08c379a00000000000000000000000000000000000000000000000000000000081526004016103e1906109c6565b60405180910390fd5b60015f60156101000a81548160ff021916908315150217905550565b5f5f9054906101000a900473ffffffffffffffffffffffffffffffffffffffff1673ffffffffffffffffffffffffffffffffffffffff163373ffffffffffffffffffffffffffffffffffffffff1614610494576040517f08c379a000000000000000000000000000000000000000000000000000000000815260040161048b9061095e565b60405180910390fd5b5f5f60156101000a81548160ff02191690831515021790555060015f60146101000a81548160ff021916908315150217905550565b5f60038054905082106104de575f905061054f565b5f5f60025f60015481526020019081526020015f205411610500576001610515565b60025f60015481526020019081526020015f20545b9050806003848154811061052c5761052b6109e4565b5b905f5260205f20015f8282546105429190610a3e565b9250508190555060019150505b919050565b5f73ffffffffffffffffffffffffffffffffffffffff82169050919050565b5f61057d82610554565b9050919050565b61058d81610573565b82525050565b5f6020820190506105a65f830184610584565b92915050565b5f5ffd5b5f819050919050565b6105c2816105b0565b81146105cc575f5ffd5b50565b5f813590506105dd816105b9565b92915050565b5f602082840312156105f8576105f76105ac565b5b5f610605848285016105cf565b91505092915050565b5f81519050919050565b5f82825260208201905092915050565b5f819050602082019050919050565b610640816105b0565b82525050565b5f6106518383610637565b60208301905092915050565b5f602082019050919050565b5f6106738261060e565b61067d8185610618565b935061068883610628565b805f5b838110156106b857815161069f8882610646565b97506106aa8361065d565b92505060018101905061068b565b5085935050505092915050565b5f6020820190508181035f8301526106dd8184610669565b905092915050565b5f8115159050919050565b6106f9816106e5565b82525050565b5f6020820190506107125f8301846106f0565b92915050565b5f82825260208201905092915050565b7f4c6120766f746163696f6e206e6f2065737461206162696572746100000000005f82015250565b5f61075c601b83610718565b915061076782610728565b602082019050919050565b5f6020820190508181035f83015261078981610750565b9050919050565b7f4964656e746966696361646f72206465207061727469646f206e6f2076616c695f8201527f646f000000000000000000000000000000000000000000000000000000000000602082015250565b5f6107ea602283610718565b91506107f582610790565b604082019050919050565b5f6020820190508181035f830152610817816107de565b9050919050565b7f6572726f72206e6f206175746f72697a61646f000000000000000000000000005f82015250565b5f610852601383610718565b915061085d8261081e565b602082019050919050565b5f6020820190508181035f83015261087f81610846565b9050919050565b7f4c6120766f746163696f6e2061756e206e6f206861207465726d696e61646f005f82015250565b5f6108ba601f83610718565b91506108c582610886565b602082019050919050565b5f6020820190508181035f8301526108e7816108ae565b9050919050565b7f536f6c6f20656c20707265736964656e746520707565646520686163657220655f8201527f73746f0000000000000000000000000000000000000000000000000000000000602082015250565b5f610948602383610718565b9150610953826108ee565b604082019050919050565b5f6020820190508181035f8301526109758161093c565b9050919050565b7f4c6120766f746163696f6e2079612066696e616c697a6f0000000000000000005f82015250565b5f6109b0601783610718565b91506109bb8261097c565b602082019050919050565b5f6020820190508181035f8301526109dd816109a4565b9050919050565b7f4e487b71000000000000000000000000000000000000000000000000000000005f52603260045260245ffd5b7f4e487b71000000000000000000000000000000000000000000000000000000005f52601160045260245ffd5b5f610a48826105b0565b9150610a53836105b0565b9250828201905080821115610a6b57610a6a610a11565b5b9291505056fea2646970667358221220729f1e99bec75f3c245439fea28ff59b049f253f73b17211c3a319d2739e262764736f6c634300081f0033a2646970667358221220cc1980cff004b9306f7d4032e76a6e5edea1355bd58ad6d840e90d6aea2df77564736f6c634300081f0033",
					"opcodes": "PUSH1 0x80 PUSH1 0x40 MSTORE CALLVALUE DUP1 ISZERO PUSH1 0xE JUMPI PUSH0 PUSH0 REVERT JUMPDEST POP PUSH1 0x40 MLOAD PUSH2 0x1EE5 CODESIZE SUB DUP1 PUSH2 0x1EE5 DUP4 CODECOPY DUP2 DUP2 ADD PUSH1 0x40 MSTORE DUP2 ADD SWAP1 PUSH1 0x2E SWAP2 SWAP1 PUSH1 0xAB JUMP JUMPDEST CALLER PUSH0 PUSH0 PUSH2 0x100 EXP DUP2 SLOAD DUP2 PUSH20 0xFFFFFFFFFFFFFFFFFFFFFFFFFFFFFFFFFFFFFFFF MUL NOT AND SWAP1 DUP4 PUSH20 0xFFFFFFFFFFFFFFFFFFFFFFFFFFFFFFFFFFFFFFFF AND MUL OR SWAP1 SSTORE POP DUP1 PUSH1 0x1 DUP2 SWAP1 SSTORE POP POP PUSH1 0xD1 JUMP JUMPDEST PUSH0 PUSH0 REVERT JUMPDEST PUSH0 DUP2 SWAP1 POP SWAP2 SWAP1 POP JUMP JUMPDEST PUSH1 0x8D DUP2 PUSH1 0x7D JUMP JUMPDEST DUP2 EQ PUSH1 0x96 JUMPI PUSH0 PUSH0 REVERT JUMPDEST POP JUMP JUMPDEST PUSH0 DUP2 MLOAD SWAP1 POP PUSH1 0xA5 DUP2 PUSH1 0x86 JUMP JUMPDEST SWAP3 SWAP2 POP POP JUMP JUMPDEST PUSH0 PUSH1 0x20 DUP3 DUP5 SUB SLT ISZERO PUSH1 0xBD JUMPI PUSH1 0xBC PUSH1 0x79 JUMP JUMPDEST JUMPDEST PUSH0 PUSH1 0xC8 DUP5 DUP3 DUP6 ADD PUSH1 0x99 JUMP JUMPDEST SWAP2 POP POP SWAP3 SWAP2 POP POP JUMP JUMPDEST PUSH2 0x1E07 DUP1 PUSH2 0xDE PUSH0 CODECOPY PUSH0 RETURN INVALID PUSH1 0x80 PUSH1 0x40 MSTORE CALLVALUE DUP1 ISZERO PUSH2 0xF JUMPI PUSH0 PUSH0 REVERT JUMPDEST POP PUSH1 0x4 CALLDATASIZE LT PUSH2 0x7B JUMPI PUSH0 CALLDATALOAD PUSH1 0xE0 SHR DUP1 PUSH4 0x92F859DB GT PUSH2 0x59 JUMPI DUP1 PUSH4 0x92F859DB EQ PUSH2 0xE9 JUMPI DUP1 PUSH4 0xA44FE131 EQ PUSH2 0x119 JUMPI DUP1 PUSH4 0xA6782C2B EQ PUSH2 0x135 JUMPI DUP1 PUSH4 0xBF7E214F EQ PUSH2 0x153 JUMPI PUSH2 0x7B JUMP JUMPDEST DUP1 PUSH4 0x9EEF43E EQ PUSH2 0x7F JUMPI DUP1 PUSH4 0x2C0A3F89 EQ PUSH2 0xAF JUMPI DUP1 PUSH4 0x4717F97C EQ PUSH2 0xCB JUMPI JUMPDEST PUSH0 PUSH0 REVERT JUMPDEST PUSH2 0x99 PUSH1 0x4 DUP1 CALLDATASIZE SUB DUP2 ADD SWAP1 PUSH2 0x94 SWAP2 SWAP1 PUSH2 0x86E JUMP JUMPDEST PUSH2 0x171 JUMP JUMPDEST PUSH1 0x40 MLOAD PUSH2 0xA6 SWAP2 SWAP1 PUSH2 0x8B3 JUMP JUMPDEST PUSH1 0x40 MLOAD DUP1 SWAP2 SUB SWAP1 RETURN JUMPDEST PUSH2 0xC9 PUSH1 0x4 DUP1 CALLDATASIZE SUB DUP2 ADD SWAP1 PUSH2 0xC4 SWAP2 SWAP1 PUSH2 0x8FF JUMP JUMPDEST PUSH2 0x18E JUMP JUMPDEST STOP JUMPDEST PUSH2 0xD3 PUSH2 0x3A5 JUMP JUMPDEST PUSH1 0x40 MLOAD PUSH2 0xE0 SWAP2 SWAP1 PUSH2 0x9F4 JUMP JUMPDEST PUSH1 0x40 MLOAD DUP1 SWAP2 SUB SWAP1 RETURN JUMPDEST PUSH2 0x103 PUSH1 0x4 DUP1 CALLDATASIZE SUB DUP2 ADD SWAP1 PUSH2 0xFE SWAP2 SWAP1 PUSH2 0xA14 JUMP JUMPDEST PUSH2 0x5E2 JUMP JUMPDEST PUSH1 0x40 MLOAD PUSH2 0x110 SWAP2 SWAP1 PUSH2 0xA9A JUMP JUMPDEST PUSH1 0x40 MLOAD DUP1 SWAP2 SUB SWAP1 RETURN JUMPDEST PUSH2 0x133 PUSH1 0x4 DUP1 CALLDATASIZE SUB DUP2 ADD SWAP1 PUSH2 0x12E SWAP2 SWAP1 PUSH2 0xAB3 JUMP JUMPDEST PUSH2 0x612 JUMP JUMPDEST STOP JUMPDEST PUSH2 0x13D PUSH2 0x7CC JUMP JUMPDEST PUSH1 0x40 MLOAD PUSH2 0x14A SWAP2 SWAP1 PUSH2 0xB00 JUMP JUMPDEST PUSH1 0x40 MLOAD DUP1 SWAP2 SUB SWAP1 RETURN JUMPDEST PUSH2 0x15B PUSH2 0x7D2 JUMP JUMPDEST PUSH1 0x40 MLOAD PUSH2 0x168 SWAP2 SWAP1 PUSH2 0xB28 JUMP JUMPDEST PUSH1 0x40 MLOAD DUP1 SWAP2 SUB SWAP1 RETURN JUMPDEST PUSH1 0x3 PUSH1 0x20 MSTORE DUP1 PUSH0 MSTORE PUSH1 0x40 PUSH0 KECCAK256 PUSH0 SWAP2 POP SLOAD SWAP1 PUSH2 0x100 EXP SWAP1 DIV PUSH1 0xFF AND DUP2 JUMP JUMPDEST PUSH0 PUSH20 0xFFFFFFFFFFFFFFFFFFFFFFFFFFFFFFFFFFFFFFFF AND PUSH1 0x2 PUSH0 DUP5 DUP2 MSTORE PUSH1 0x20 ADD SWAP1 DUP2 MSTORE PUSH1 0x20 ADD PUSH0 KECCAK256 PUSH0 SWAP1 SLOAD SWAP1 PUSH2 0x100 EXP SWAP1 DIV PUSH20 0xFFFFFFFFFFFFFFFFFFFFFFFFFFFFFFFFFFFFFFFF AND PUSH20 0xFFFFFFFFFFFFFFFFFFFFFFFFFFFFFFFFFFFFFFFF AND SUB PUSH2 0x22C JUMPI PUSH1 0x40 MLOAD PUSH32 0x8C379A000000000000000000000000000000000000000000000000000000000 DUP2 MSTORE PUSH1 0x4 ADD PUSH2 0x223 SWAP1 PUSH2 0xB9B JUMP JUMPDEST PUSH1 0x40 MLOAD DUP1 SWAP2 SUB SWAP1 REVERT JUMPDEST PUSH1 0x3 PUSH0 CALLER PUSH20 0xFFFFFFFFFFFFFFFFFFFFFFFFFFFFFFFFFFFFFFFF AND PUSH20 0xFFFFFFFFFFFFFFFFFFFFFFFFFFFFFFFFFFFFFFFF AND DUP2 MSTORE PUSH1 0x20 ADD SWAP1 DUP2 MSTORE PUSH1 0x20 ADD PUSH0 KECCAK256 PUSH0 SWAP1 SLOAD SWAP1 PUSH2 0x100 EXP SWAP1 DIV PUSH1 0xFF AND ISZERO PUSH2 0x2B6 JUMPI PUSH1 0x40 MLOAD PUSH32 0x8C379A000000000000000000000000000000000000000000000000000000000 DUP2 MSTORE PUSH1 0x4 ADD PUSH2 0x2AD SWAP1 PUSH2 0xC03 JUMP JUMPDEST PUSH1 0x40 MLOAD DUP1 SWAP2 SUB SWAP1 REVERT JUMPDEST PUSH1 0x1 PUSH1 0x3 PUSH0 CALLER PUSH20 0xFFFFFFFFFFFFFFFFFFFFFFFFFFFFFFFFFFFFFFFF AND PUSH20 0xFFFFFFFFFFFFFFFFFFFFFFFFFFFFFFFFFFFFFFFF AND DUP2 MSTORE PUSH1 0x20 ADD SWAP1 DUP2 MSTORE PUSH1 0x20 ADD PUSH0 KECCAK256 PUSH0 PUSH2 0x100 EXP DUP2 SLOAD DUP2 PUSH1 0xFF MUL NOT AND SWAP1 DUP4 ISZERO ISZERO MUL OR SWAP1 SSTORE POP PUSH1 0x2 PUSH0 DUP4 DUP2 MSTORE PUSH1 0x20 ADD SWAP1 DUP2 MSTORE PUSH1 0x20 ADD PUSH0 KECCAK256 PUSH0 SWAP1 SLOAD SWAP1 PUSH2 0x100 EXP SWAP1 DIV PUSH20 0xFFFFFFFFFFFFFFFFFFFFFFFFFFFFFFFFFFFFFFFF AND PUSH20 0xFFFFFFFFFFFFFFFFFFFFFFFFFFFFFFFFFFFFFFFF AND PUSH4 0x3EB76B9C DUP3 PUSH1 0x40 MLOAD DUP3 PUSH4 0xFFFFFFFF AND PUSH1 0xE0 SHL DUP2 MSTORE PUSH1 0x4 ADD PUSH2 0x374 SWAP2 SWAP1 PUSH2 0xB00 JUMP JUMPDEST PUSH0 PUSH1 0x40 MLOAD DUP1 DUP4 SUB DUP2 PUSH0 DUP8 DUP1 EXTCODESIZE ISZERO DUP1 ISZERO PUSH2 0x38B JUMPI PUSH0 PUSH0 REVERT JUMPDEST POP GAS CALL ISZERO DUP1 ISZERO PUSH2 0x39D JUMPI RETURNDATASIZE PUSH0 PUSH0 RETURNDATACOPY RETURNDATASIZE PUSH0 REVERT JUMPDEST POP POP POP POP POP POP JUMP JUMPDEST PUSH1 0x60 PUSH0 PUSH0 SWAP1 SLOAD SWAP1 PUSH2 0x100 EXP SWAP1 DIV PUSH20 0xFFFFFFFFFFFFFFFFFFFFFFFFFFFFFFFFFFFFFFFF AND PUSH20 0xFFFFFFFFFFFFFFFFFFFFFFFFFFFFFFFFFFFFFFFF AND CALLER PUSH20 0xFFFFFFFFFFFFFFFFFFFFFFFFFFFFFFFFFFFFFFFF AND EQ PUSH2 0x435 JUMPI PUSH1 0x40 MLOAD PUSH32 0x8C379A000000000000000000000000000000000000000000000000000000000 DUP2 MSTORE PUSH1 0x4 ADD PUSH2 0x42C SWAP1 PUSH2 0xC91 JUMP JUMPDEST PUSH1 0x40 MLOAD DUP1 SWAP2 SUB SWAP1 REVERT JUMPDEST PUSH0 PUSH1 0x1 SLOAD PUSH8 0xFFFFFFFFFFFFFFFF DUP2 GT ISZERO PUSH2 0x452 JUMPI PUSH2 0x451 PUSH2 0xCAF JUMP JUMPDEST JUMPDEST PUSH1 0x40 MLOAD SWAP1 DUP1 DUP3 MSTORE DUP1 PUSH1 0x20 MUL PUSH1 0x20 ADD DUP3 ADD PUSH1 0x40 MSTORE DUP1 ISZERO PUSH2 0x480 JUMPI DUP2 PUSH1 0x20 ADD PUSH1 0x20 DUP3 MUL DUP1 CALLDATASIZE DUP4 CALLDATACOPY DUP1 DUP3 ADD SWAP2 POP POP SWAP1 POP JUMPDEST POP SWAP1 POP PUSH0 PUSH1 0x40 MLOAD DUP1 PUSH1 0x40 ADD PUSH1 0x40 MSTORE DUP1 PUSH1 0x1C DUP2 MSTORE PUSH1 0x20 ADD PUSH1 0x2C DUP2 MSTORE POP SWAP1 POP PUSH0 PUSH0 SWAP1 POP JUMPDEST PUSH1 0x2 DUP2 LT ISZERO PUSH2 0x5D9 JUMPI PUSH0 PUSH1 0x2 PUSH0 DUP5 DUP5 PUSH1 0x2 DUP2 LT PUSH2 0x4C2 JUMPI PUSH2 0x4C1 PUSH2 0xCDC JUMP JUMPDEST JUMPDEST PUSH1 0x20 MUL ADD MLOAD DUP2 MSTORE PUSH1 0x20 ADD SWAP1 DUP2 MSTORE PUSH1 0x20 ADD PUSH0 KECCAK256 PUSH0 SWAP1 SLOAD SWAP1 PUSH2 0x100 EXP SWAP1 DIV PUSH20 0xFFFFFFFFFFFFFFFFFFFFFFFFFFFFFFFFFFFFFFFF AND PUSH20 0xFFFFFFFFFFFFFFFFFFFFFFFFFFFFFFFFFFFFFFFF AND PUSH4 0x4717F97C PUSH1 0x40 MLOAD DUP2 PUSH4 0xFFFFFFFF AND PUSH1 0xE0 SHL DUP2 MSTORE PUSH1 0x4 ADD PUSH0 PUSH1 0x40 MLOAD DUP1 DUP4 SUB DUP2 DUP7 GAS STATICCALL ISZERO DUP1 ISZERO PUSH2 0x53B JUMPI RETURNDATASIZE PUSH0 PUSH0 RETURNDATACOPY RETURNDATASIZE PUSH0 REVERT JUMPDEST POP POP POP POP PUSH1 0x40 MLOAD RETURNDATASIZE PUSH0 DUP3 RETURNDATACOPY RETURNDATASIZE PUSH1 0x1F NOT PUSH1 0x1F DUP3 ADD AND DUP3 ADD DUP1 PUSH1 0x40 MSTORE POP DUP2 ADD SWAP1 PUSH2 0x563 SWAP2 SWAP1 PUSH2 0xE40 JUMP JUMPDEST SWAP1 POP PUSH0 PUSH0 SWAP1 POP JUMPDEST PUSH1 0x1 SLOAD DUP2 LT ISZERO PUSH2 0x5CA JUMPI DUP2 DUP2 DUP2 MLOAD DUP2 LT PUSH2 0x587 JUMPI PUSH2 0x586 PUSH2 0xCDC JUMP JUMPDEST JUMPDEST PUSH1 0x20 MUL PUSH1 0x20 ADD ADD MLOAD DUP6 DUP3 DUP2 MLOAD DUP2 LT PUSH2 0x5A2 JUMPI PUSH2 0x5A1 PUSH2 0xCDC JUMP JUMPDEST JUMPDEST PUSH1 0x20 MUL PUSH1 0x20 ADD ADD DUP2 DUP2 MLOAD PUSH2 0x5B6 SWAP2 SWAP1 PUSH2 0xEB4 JUMP JUMPDEST SWAP2 POP DUP2 DUP2 MSTORE POP POP DUP1 DUP1 PUSH1 0x1 ADD SWAP2 POP POP PUSH2 0x56A JUMP JUMPDEST POP POP DUP1 DUP1 PUSH1 0x1 ADD SWAP2 POP POP PUSH2 0x4A2 JUMP JUMPDEST POP DUP2 SWAP3 POP POP POP SWAP1 JUMP JUMPDEST PUSH1 0x2 PUSH1 0x20 MSTORE DUP1 PUSH0 MSTORE PUSH1 0x40 PUSH0 KECCAK256 PUSH0 SWAP2 POP SLOAD SWAP1 PUSH2 0x100 EXP SWAP1 DIV PUSH20 0xFFFFFFFFFFFFFFFFFFFFFFFFFFFFFFFFFFFFFFFF AND DUP2 JUMP JUMPDEST PUSH0 PUSH0 SWAP1 SLOAD SWAP1 PUSH2 0x100 EXP SWAP1 DIV PUSH20 0xFFFFFFFFFFFFFFFFFFFFFFFFFFFFFFFFFFFFFFFF AND PUSH20 0xFFFFFFFFFFFFFFFFFFFFFFFFFFFFFFFFFFFFFFFF AND CALLER PUSH20 0xFFFFFFFFFFFFFFFFFFFFFFFFFFFFFFFFFFFFFFFF AND EQ PUSH2 0x6A0 JUMPI PUSH1 0x40 MLOAD PUSH32 0x8C379A000000000000000000000000000000000000000000000000000000000 DUP2 MSTORE PUSH1 0x4 ADD PUSH2 0x697 SWAP1 PUSH2 0xC91 JUMP JUMPDEST PUSH1 0x40 MLOAD DUP1 SWAP2 SUB SWAP1 REVERT JUMPDEST PUSH0 PUSH20 0xFFFFFFFFFFFFFFFFFFFFFFFFFFFFFFFFFFFFFFFF AND PUSH1 0x2 PUSH0 DUP5 DUP2 MSTORE PUSH1 0x20 ADD SWAP1 DUP2 MSTORE PUSH1 0x20 ADD PUSH0 KECCAK256 PUSH0 SWAP1 SLOAD SWAP1 PUSH2 0x100 EXP SWAP1 DIV PUSH20 0xFFFFFFFFFFFFFFFFFFFFFFFFFFFFFFFFFFFFFFFF AND PUSH20 0xFFFFFFFFFFFFFFFFFFFFFFFFFFFFFFFFFFFFFFFF AND EQ PUSH2 0x73E JUMPI PUSH1 0x40 MLOAD PUSH32 0x8C379A000000000000000000000000000000000000000000000000000000000 DUP2 MSTORE PUSH1 0x4 ADD PUSH2 0x735 SWAP1 PUSH2 0xF31 JUMP JUMPDEST PUSH1 0x40 MLOAD DUP1 SWAP2 SUB SWAP1 REVERT JUMPDEST PUSH0 DUP2 PUSH1 0x1 SLOAD DUP5 PUSH1 0x40 MLOAD PUSH2 0x750 SWAP1 PUSH2 0x7F6 JUMP JUMPDEST PUSH2 0x75C SWAP4 SWAP3 SWAP2 SWAP1 PUSH2 0xF4F JUMP JUMPDEST PUSH1 0x40 MLOAD DUP1 SWAP2 SUB SWAP1 PUSH0 CREATE DUP1 ISZERO DUP1 ISZERO PUSH2 0x775 JUMPI RETURNDATASIZE PUSH0 PUSH0 RETURNDATACOPY RETURNDATASIZE PUSH0 REVERT JUMPDEST POP SWAP1 POP DUP1 PUSH1 0x2 PUSH0 DUP6 DUP2 MSTORE PUSH1 0x20 ADD SWAP1 DUP2 MSTORE PUSH1 0x20 ADD PUSH0 KECCAK256 PUSH0 PUSH2 0x100 EXP DUP2 SLOAD DUP2 PUSH20 0xFFFFFFFFFFFFFFFFFFFFFFFFFFFFFFFFFFFFFFFF MUL NOT AND SWAP1 DUP4 PUSH20 0xFFFFFFFFFFFFFFFFFFFFFFFFFFFFFFFFFFFFFFFF AND MUL OR SWAP1 SSTORE POP POP POP POP JUMP JUMPDEST PUSH1 0x1 SLOAD DUP2 JUMP JUMPDEST PUSH0 PUSH0 SWAP1 SLOAD SWAP1 PUSH2 0x100 EXP SWAP1 DIV PUSH20 0xFFFFFFFFFFFFFFFFFFFFFFFFFFFFFFFFFFFFFFFF AND DUP2 JUMP JUMPDEST PUSH2 0xE4D DUP1 PUSH2 0xF85 DUP4 CODECOPY ADD SWAP1 JUMP JUMPDEST PUSH0 PUSH1 0x40 MLOAD SWAP1 POP SWAP1 JUMP JUMPDEST PUSH0 PUSH0 REVERT JUMPDEST PUSH0 PUSH0 REVERT JUMPDEST PUSH0 PUSH20 0xFFFFFFFFFFFFFFFFFFFFFFFFFFFFFFFFFFFFFFFF DUP3 AND SWAP1 POP SWAP2 SWAP1 POP JUMP JUMPDEST PUSH0 PUSH2 0x83D DUP3 PUSH2 0x814 JUMP JUMPDEST SWAP1 POP SWAP2 SWAP1 POP JUMP JUMPDEST PUSH2 0x84D DUP2 PUSH2 0x833 JUMP JUMPDEST DUP2 EQ PUSH2 0x857 JUMPI PUSH0 PUSH0 REVERT JUMPDEST POP JUMP JUMPDEST PUSH0 DUP2 CALLDATALOAD SWAP1 POP PUSH2 0x868 DUP2 PUSH2 0x844 JUMP JUMPDEST SWAP3 SWAP2 POP POP JUMP JUMPDEST PUSH0 PUSH1 0x20 DUP3 DUP5 SUB SLT ISZERO PUSH2 0x883 JUMPI PUSH2 0x882 PUSH2 0x80C JUMP JUMPDEST JUMPDEST PUSH0 PUSH2 0x890 DUP5 DUP3 DUP6 ADD PUSH2 0x85A JUMP JUMPDEST SWAP2 POP POP SWAP3 SWAP2 POP POP JUMP JUMPDEST PUSH0 DUP2 ISZERO ISZERO SWAP1 POP SWAP2 SWAP1 POP JUMP JUMPDEST PUSH2 0x8AD DUP2 PUSH2 0x899 JUMP JUMPDEST DUP3 MSTORE POP POP JUMP JUMPDEST PUSH0 PUSH1 0x20 DUP3 ADD SWAP1 POP PUSH2 0x8C6 PUSH0 DUP4 ADD DUP5 PUSH2 0x8A4 JUMP JUMPDEST SWAP3 SWAP2 POP POP JUMP JUMPDEST PUSH0 DUP2 SWAP1 POP SWAP2 SWAP1 POP JUMP JUMPDEST PUSH2 0x8DE DUP2 PUSH2 0x8CC JUMP JUMPDEST DUP2 EQ PUSH2 0x8E8 JUMPI PUSH0 PUSH0 REVERT JUMPDEST POP JUMP JUMPDEST PUSH0 DUP2 CALLDATALOAD SWAP1 POP PUSH2 0x8F9 DUP2 PUSH2 0x8D5 JUMP JUMPDEST SWAP3 SWAP2 POP POP JUMP JUMPDEST PUSH0 PUSH0 PUSH1 0x40 DUP4 DUP6 SUB SLT ISZERO PUSH2 0x915 JUMPI PUSH2 0x914 PUSH2 0x80C JUMP JUMPDEST JUMPDEST PUSH0 PUSH2 0x922 DUP6 DUP3 DUP7 ADD PUSH2 0x8EB JUMP JUMPDEST SWAP3 POP POP PUSH1 0x20 PUSH2 0x933 DUP6 DUP3 DUP7 ADD PUSH2 0x8EB JUMP JUMPDEST SWAP2 POP POP SWAP3 POP SWAP3 SWAP1 POP JUMP JUMPDEST PUSH0 DUP2 MLOAD SWAP1 POP SWAP2 SWAP1 POP JUMP JUMPDEST PUSH0 DUP3 DUP3 MSTORE PUSH1 0x20 DUP3 ADD SWAP1 POP SWAP3 SWAP2 POP POP JUMP JUMPDEST PUSH0 DUP2 SWAP1 POP PUSH1 0x20 DUP3 ADD SWAP1 POP SWAP2 SWAP1 POP JUMP JUMPDEST PUSH2 0x96F DUP2 PUSH2 0x8CC JUMP JUMPDEST DUP3 MSTORE POP POP JUMP JUMPDEST PUSH0 PUSH2 0x980 DUP4 DUP4 PUSH2 0x966 JUMP JUMPDEST PUSH1 0x20 DUP4 ADD SWAP1 POP SWAP3 SWAP2 POP POP JUMP JUMPDEST PUSH0 PUSH1 0x20 DUP3 ADD SWAP1 POP SWAP2 SWAP1 POP JUMP JUMPDEST PUSH0 PUSH2 0x9A2 DUP3 PUSH2 0x93D JUMP JUMPDEST PUSH2 0x9AC DUP2 DUP6 PUSH2 0x947 JUMP JUMPDEST SWAP4 POP PUSH2 0x9B7 DUP4 PUSH2 0x957 JUMP JUMPDEST DUP1 PUSH0 JUMPDEST DUP4 DUP2 LT ISZERO PUSH2 0x9E7 JUMPI DUP2 MLOAD PUSH2 0x9CE DUP9 DUP3 PUSH2 0x975 JUMP JUMPDEST SWAP8 POP PUSH2 0x9D9 DUP4 PUSH2 0x98C JUMP JUMPDEST SWAP3 POP POP PUSH1 0x1 DUP2 ADD SWAP1 POP PUSH2 0x9BA JUMP JUMPDEST POP DUP6 SWAP4 POP POP POP POP SWAP3 SWAP2 POP POP JUMP JUMPDEST PUSH0 PUSH1 0x20 DUP3 ADD SWAP1 POP DUP2 DUP2 SUB PUSH0 DUP4 ADD MSTORE PUSH2 0xA0C DUP2 DUP5 PUSH2 0x998 JUMP JUMPDEST SWAP1 POP SWAP3 SWAP2 POP POP JUMP JUMPDEST PUSH0 PUSH1 0x20 DUP3 DUP5 SUB SLT ISZERO PUSH2 0xA29 JUMPI PUSH2 0xA28 PUSH2 0x80C JUMP JUMPDEST JUMPDEST PUSH0 PUSH2 0xA36 DUP5 DUP3 DUP6 ADD PUSH2 0x8EB JUMP JUMPDEST SWAP2 POP POP SWAP3 SWAP2 POP POP JUMP JUMPDEST PUSH0 DUP2 SWAP1 POP SWAP2 SWAP1 POP JUMP JUMPDEST PUSH0 PUSH2 0xA62 PUSH2 0xA5D PUSH2 0xA58 DUP5 PUSH2 0x814 JUMP JUMPDEST PUSH2 0xA3F JUMP JUMPDEST PUSH2 0x814 JUMP JUMPDEST SWAP1 POP SWAP2 SWAP1 POP JUMP JUMPDEST PUSH0 PUSH2 0xA73 DUP3 PUSH2 0xA48 JUMP JUMPDEST SWAP1 POP SWAP2 SWAP1 POP JUMP JUMPDEST PUSH0 PUSH2 0xA84 DUP3 PUSH2 0xA69 JUMP JUMPDEST SWAP1 POP SWAP2 SWAP1 POP JUMP JUMPDEST PUSH2 0xA94 DUP2 PUSH2 0xA7A JUMP JUMPDEST DUP3 MSTORE POP POP JUMP JUMPDEST PUSH0 PUSH1 0x20 DUP3 ADD SWAP1 POP PUSH2 0xAAD PUSH0 DUP4 ADD DUP5 PUSH2 0xA8B JUMP JUMPDEST SWAP3 SWAP2 POP POP JUMP JUMPDEST PUSH0 PUSH0 PUSH1 0x40 DUP4 DUP6 SUB SLT ISZERO PUSH2 0xAC9 JUMPI PUSH2 0xAC8 PUSH2 0x80C JUMP JUMPDEST JUMPDEST PUSH0 PUSH2 0xAD6 DUP6 DUP3 DUP7 ADD PUSH2 0x8EB JUMP JUMPDEST SWAP3 POP POP PUSH1 0x20 PUSH2 0xAE7 DUP6 DUP3 DUP7 ADD PUSH2 0x85A JUMP JUMPDEST SWAP2 POP POP SWAP3 POP SWAP3 SWAP1 POP JUMP JUMPDEST PUSH2 0xAFA DUP2 PUSH2 0x8CC JUMP JUMPDEST DUP3 MSTORE POP POP JUMP JUMPDEST PUSH0 PUSH1 0x20 DUP3 ADD SWAP1 POP PUSH2 0xB13 PUSH0 DUP4 ADD DUP5 PUSH2 0xAF1 JUMP JUMPDEST SWAP3 SWAP2 POP POP JUMP JUMPDEST PUSH2 0xB22 DUP2 PUSH2 0x833 JUMP JUMPDEST DUP3 MSTORE POP POP JUMP JUMPDEST PUSH0 PUSH1 0x20 DUP3 ADD SWAP1 POP PUSH2 0xB3B PUSH0 DUP4 ADD DUP5 PUSH2 0xB19 JUMP JUMPDEST SWAP3 SWAP2 POP POP JUMP JUMPDEST PUSH0 DUP3 DUP3 MSTORE PUSH1 0x20 DUP3 ADD SWAP1 POP SWAP3 SWAP2 POP POP JUMP JUMPDEST PUSH32 0x53656465206E6F2076616C696461000000000000000000000000000000000000 PUSH0 DUP3 ADD MSTORE POP JUMP JUMPDEST PUSH0 PUSH2 0xB85 PUSH1 0xE DUP4 PUSH2 0xB41 JUMP JUMPDEST SWAP2 POP PUSH2 0xB90 DUP3 PUSH2 0xB51 JUMP JUMPDEST PUSH1 0x20 DUP3 ADD SWAP1 POP SWAP2 SWAP1 POP JUMP JUMPDEST PUSH0 PUSH1 0x20 DUP3 ADD SWAP1 POP DUP2 DUP2 SUB PUSH0 DUP4 ADD MSTORE PUSH2 0xBB2 DUP2 PUSH2 0xB79 JUMP JUMPDEST SWAP1 POP SWAP2 SWAP1 POP JUMP JUMPDEST PUSH32 0x59612068617320766F7461646F00000000000000000000000000000000000000 PUSH0 DUP3 ADD MSTORE POP JUMP JUMPDEST PUSH0 PUSH2 0xBED PUSH1 0xD DUP4 PUSH2 0xB41 JUMP JUMPDEST SWAP2 POP PUSH2 0xBF8 DUP3 PUSH2 0xBB9 JUMP JUMPDEST PUSH1 0x20 DUP3 ADD SWAP1 POP SWAP2 SWAP1 POP JUMP JUMPDEST PUSH0 PUSH1 0x20 DUP3 ADD SWAP1 POP DUP2 DUP2 SUB PUSH0 DUP4 ADD MSTORE PUSH2 0xC1A DUP2 PUSH2 0xBE1 JUMP JUMPDEST SWAP1 POP SWAP2 SWAP1 POP JUMP JUMPDEST PUSH32 0x536F6C6F206C61206175746F7269646164207075656465206861636572206573 PUSH0 DUP3 ADD MSTORE PUSH32 0x746F000000000000000000000000000000000000000000000000000000000000 PUSH1 0x20 DUP3 ADD MSTORE POP JUMP JUMPDEST PUSH0 PUSH2 0xC7B PUSH1 0x22 DUP4 PUSH2 0xB41 JUMP JUMPDEST SWAP2 POP PUSH2 0xC86 DUP3 PUSH2 0xC21 JUMP JUMPDEST PUSH1 0x40 DUP3 ADD SWAP1 POP SWAP2 SWAP1 POP JUMP JUMPDEST PUSH0 PUSH1 0x20 DUP3 ADD SWAP1 POP DUP2 DUP2 SUB PUSH0 DUP4 ADD MSTORE PUSH2 0xCA8 DUP2 PUSH2 0xC6F JUMP JUMPDEST SWAP1 POP SWAP2 SWAP1 POP JUMP JUMPDEST PUSH32 0x4E487B7100000000000000000000000000000000000000000000000000000000 PUSH0 MSTORE PUSH1 0x41 PUSH1 0x4 MSTORE PUSH1 0x24 PUSH0 REVERT JUMPDEST PUSH32 0x4E487B7100000000000000000000000000000000000000000000000000000000 PUSH0 MSTORE PUSH1 0x32 PUSH1 0x4 MSTORE PUSH1 0x24 PUSH0 REVERT JUMPDEST PUSH0 PUSH0 REVERT JUMPDEST PUSH0 PUSH1 0x1F NOT PUSH1 0x1F DUP4 ADD AND SWAP1 POP SWAP2 SWAP1 POP JUMP JUMPDEST PUSH2 0xD26 DUP3 PUSH2 0xD0D JUMP JUMPDEST DUP2 ADD DUP2 DUP2 LT PUSH8 0xFFFFFFFFFFFFFFFF DUP3 GT OR ISZERO PUSH2 0xD45 JUMPI PUSH2 0xD44 PUSH2 0xCAF JUMP JUMPDEST JUMPDEST DUP1 PUSH1 0x40 MSTORE POP POP POP JUMP JUMPDEST PUSH0 PUSH2 0xD57 PUSH2 0x803 JUMP JUMPDEST SWAP1 POP PUSH2 0xD63 DUP3 DUP3 PUSH2 0xD1D JUMP JUMPDEST SWAP2 SWAP1 POP JUMP JUMPDEST PUSH0 PUSH8 0xFFFFFFFFFFFFFFFF DUP3 GT ISZERO PUSH2 0xD82 JUMPI PUSH2 0xD81 PUSH2 0xCAF JUMP JUMPDEST JUMPDEST PUSH1 0x20 DUP3 MUL SWAP1 POP PUSH1 0x20 DUP2 ADD SWAP1 POP SWAP2 SWAP1 POP JUMP JUMPDEST PUSH0 PUSH0 REVERT JUMPDEST PUSH0 DUP2 MLOAD SWAP1 POP PUSH2 0xDA5 DUP2 PUSH2 0x8D5 JUMP JUMPDEST SWAP3 SWAP2 POP POP JUMP JUMPDEST PUSH0 PUSH2 0xDBD PUSH2 0xDB8 DUP5 PUSH2 0xD68 JUMP JUMPDEST PUSH2 0xD4E JUMP JUMPDEST SWAP1 POP DUP1 DUP4 DUP3 MSTORE PUSH1 0x20 DUP3 ADD SWAP1 POP PUSH1 0x20 DUP5 MUL DUP4 ADD DUP6 DUP2 GT ISZERO PUSH2 0xDE0 JUMPI PUSH2 0xDDF PUSH2 0xD93 JUMP JUMPDEST JUMPDEST DUP4 JUMPDEST DUP2 DUP2 LT ISZERO PUSH2 0xE09 JUMPI DUP1 PUSH2 0xDF5 DUP9 DUP3 PUSH2 0xD97 JUMP JUMPDEST DUP5 MSTORE PUSH1 0x20 DUP5 ADD SWAP4 POP POP PUSH1 0x20 DUP2 ADD SWAP1 POP PUSH2 0xDE2 JUMP JUMPDEST POP POP POP SWAP4 SWAP3 POP POP POP JUMP JUMPDEST PUSH0 DUP3 PUSH1 0x1F DUP4 ADD SLT PUSH2 0xE27 JUMPI PUSH2 0xE26 PUSH2 0xD09 JUMP JUMPDEST JUMPDEST DUP2 MLOAD PUSH2 0xE37 DUP5 DUP3 PUSH1 0x20 DUP7 ADD PUSH2 0xDAB JUMP JUMPDEST SWAP2 POP POP SWAP3 SWAP2 POP POP JUMP JUMPDEST PUSH0 PUSH1 0x20 DUP3 DUP5 SUB SLT ISZERO PUSH2 0xE55 JUMPI PUSH2 0xE54 PUSH2 0x80C JUMP JUMPDEST JUMPDEST PUSH0 DUP3 ADD MLOAD PUSH8 0xFFFFFFFFFFFFFFFF DUP2 GT ISZERO PUSH2 0xE72 JUMPI PUSH2 0xE71 PUSH2 0x810 JUMP JUMPDEST JUMPDEST PUSH2 0xE7E DUP5 DUP3 DUP6 ADD PUSH2 0xE13 JUMP JUMPDEST SWAP2 POP POP SWAP3 SWAP2 POP POP JUMP JUMPDEST PUSH32 0x4E487B7100000000000000000000000000000000000000000000000000000000 PUSH0 MSTORE PUSH1 0x11 PUSH1 0x4 MSTORE PUSH1 0x24 PUSH0 REVERT JUMPDEST PUSH0 PUSH2 0xEBE DUP3 PUSH2 0x8CC JUMP JUMPDEST SWAP2 POP PUSH2 0xEC9 DUP4 PUSH2 0x8CC JUMP JUMPDEST SWAP3 POP DUP3 DUP3 ADD SWAP1 POP DUP1 DUP3 GT ISZERO PUSH2 0xEE1 JUMPI PUSH2 0xEE0 PUSH2 0xE87 JUMP JUMPDEST JUMPDEST SWAP3 SWAP2 POP POP JUMP JUMPDEST PUSH32 0x596120657869737465207365646520656E206573746120726567696F6E000000 PUSH0 DUP3 ADD MSTORE POP JUMP JUMPDEST PUSH0 PUSH2 0xF1B PUSH1 0x1D DUP4 PUSH2 0xB41 JUMP JUMPDEST SWAP2 POP PUSH2 0xF26 DUP3 PUSH2 0xEE7 JUMP JUMPDEST PUSH1 0x20 DUP3 ADD SWAP1 POP SWAP2 SWAP1 POP JUMP JUMPDEST PUSH0 PUSH1 0x20 DUP3 ADD SWAP1 POP DUP2 DUP2 SUB PUSH0 DUP4 ADD MSTORE PUSH2 0xF48 DUP2 PUSH2 0xF0F JUMP JUMPDEST SWAP1 POP SWAP2 SWAP1 POP JUMP JUMPDEST PUSH0 PUSH1 0x60 DUP3 ADD SWAP1 POP PUSH2 0xF62 PUSH0 DUP4 ADD DUP7 PUSH2 0xB19 JUMP JUMPDEST PUSH2 0xF6F PUSH1 0x20 DUP4 ADD DUP6 PUSH2 0xAF1 JUMP JUMPDEST PUSH2 0xF7C PUSH1 0x40 DUP4 ADD DUP5 PUSH2 0xAF1 JUMP JUMPDEST SWAP5 SWAP4 POP POP POP POP JUMP INVALID PUSH1 0x80 PUSH1 0x40 MSTORE PUSH0 PUSH0 PUSH1 0x14 PUSH2 0x100 EXP DUP2 SLOAD DUP2 PUSH1 0xFF MUL NOT AND SWAP1 DUP4 ISZERO ISZERO MUL OR SWAP1 SSTORE POP PUSH0 PUSH0 PUSH1 0x15 PUSH2 0x100 EXP DUP2 SLOAD DUP2 PUSH1 0xFF MUL NOT AND SWAP1 DUP4 ISZERO ISZERO MUL OR SWAP1 SSTORE POP CALLVALUE DUP1 ISZERO PUSH2 0x41 JUMPI PUSH0 PUSH0 REVERT JUMPDEST POP PUSH1 0x40 MLOAD PUSH2 0xE4D CODESIZE SUB DUP1 PUSH2 0xE4D DUP4 CODECOPY DUP2 DUP2 ADD PUSH1 0x40 MSTORE DUP2 ADD SWAP1 PUSH2 0x63 SWAP2 SWAP1 PUSH2 0x31C JUMP JUMPDEST DUP2 DUP2 DUP5 DUP1 PUSH0 PUSH0 PUSH2 0x100 EXP DUP2 SLOAD DUP2 PUSH20 0xFFFFFFFFFFFFFFFFFFFFFFFFFFFFFFFFFFFFFFFF MUL NOT AND SWAP1 DUP4 PUSH20 0xFFFFFFFFFFFFFFFFFFFFFFFFFFFFFFFFFFFFFFFF AND MUL OR SWAP1 SSTORE POP POP DUP1 PUSH1 0x1 DUP2 SWAP1 SSTORE POP DUP2 PUSH8 0xFFFFFFFFFFFFFFFF DUP2 GT ISZERO PUSH2 0xC7 JUMPI PUSH2 0xC6 PUSH2 0x36C JUMP JUMPDEST JUMPDEST PUSH1 0x40 MLOAD SWAP1 DUP1 DUP3 MSTORE DUP1 PUSH1 0x20 MUL PUSH1 0x20 ADD DUP3 ADD PUSH1 0x40 MSTORE DUP1 ISZERO PUSH2 0xF5 JUMPI DUP2 PUSH1 0x20 ADD PUSH1 0x20 DUP3 MUL DUP1 CALLDATASIZE DUP4 CALLDATACOPY DUP1 DUP3 ADD SWAP2 POP POP SWAP1 POP JUMPDEST POP PUSH1 0x3 SWAP1 DUP1 MLOAD SWAP1 PUSH1 0x20 ADD SWAP1 PUSH2 0x10B SWAP3 SWAP2 SWAP1 PUSH2 0x225 JUMP JUMPDEST POP PUSH2 0x11A PUSH2 0x164 PUSH1 0x20 SHL PUSH1 0x20 SHR JUMP JUMPDEST POP POP CALLER PUSH1 0x4 PUSH0 PUSH2 0x100 EXP DUP2 SLOAD DUP2 PUSH20 0xFFFFFFFFFFFFFFFFFFFFFFFFFFFFFFFFFFFFFFFF MUL NOT AND SWAP1 DUP4 PUSH20 0xFFFFFFFFFFFFFFFFFFFFFFFFFFFFFFFFFFFFFFFF AND MUL OR SWAP1 SSTORE POP POP POP POP PUSH2 0x399 JUMP JUMPDEST PUSH1 0x1 PUSH1 0x2 PUSH0 PUSH1 0x1C DUP2 MSTORE PUSH1 0x20 ADD SWAP1 DUP2 MSTORE PUSH1 0x20 ADD PUSH0 KECCAK256 DUP2 SWAP1 SSTORE POP PUSH1 0x1 PUSH1 0x2 PUSH0 PUSH1 0x8 DUP2 MSTORE PUSH1 0x20 ADD SWAP1 DUP2 MSTORE PUSH1 0x20 ADD PUSH0 KECCAK256 DUP2 SWAP1 SSTORE POP PUSH1 0x1 PUSH1 0x2 PUSH0 PUSH1 0x29 DUP2 MSTORE PUSH1 0x20 ADD SWAP1 DUP2 MSTORE PUSH1 0x20 ADD PUSH0 KECCAK256 DUP2 SWAP1 SSTORE POP PUSH1 0x5 PUSH1 0x2 PUSH0 PUSH1 0x2C DUP2 MSTORE PUSH1 0x20 ADD SWAP1 DUP2 MSTORE PUSH1 0x20 ADD PUSH0 KECCAK256 DUP2 SWAP1 SSTORE POP PUSH1 0x5 PUSH1 0x2 PUSH0 PUSH1 0x2A DUP2 MSTORE PUSH1 0x20 ADD SWAP1 DUP2 MSTORE PUSH1 0x20 ADD PUSH0 KECCAK256 DUP2 SWAP1 SSTORE POP PUSH1 0x4 PUSH1 0x2 PUSH0 PUSH1 0x31 DUP2 MSTORE PUSH1 0x20 ADD SWAP1 DUP2 MSTORE PUSH1 0x20 ADD PUSH0 KECCAK256 DUP2 SWAP1 SSTORE POP PUSH1 0x4 PUSH1 0x2 PUSH0 PUSH1 0x9 DUP2 MSTORE PUSH1 0x20 ADD SWAP1 DUP2 MSTORE PUSH1 0x20 ADD PUSH0 KECCAK256 DUP2 SWAP1 SSTORE POP PUSH1 0x2 DUP1 PUSH0 PUSH1 0x1D DUP2 MSTORE PUSH1 0x20 ADD SWAP1 DUP2 MSTORE PUSH1 0x20 ADD PUSH0 KECCAK256 DUP2 SWAP1 SSTORE POP JUMP JUMPDEST DUP3 DUP1 SLOAD DUP3 DUP3 SSTORE SWAP1 PUSH0 MSTORE PUSH1 0x20 PUSH0 KECCAK256 SWAP1 DUP2 ADD SWAP3 DUP3 ISZERO PUSH2 0x25F JUMPI SWAP2 PUSH1 0x20 MUL DUP3 ADD JUMPDEST DUP3 DUP2 GT ISZERO PUSH2 0x25E JUMPI DUP3 MLOAD DUP3 SSTORE SWAP2 PUSH1 0x20 ADD SWAP2 SWAP1 PUSH1 0x1 ADD SWAP1 PUSH2 0x243 JUMP JUMPDEST JUMPDEST POP SWAP1 POP PUSH2 0x26C SWAP2 SWAP1 PUSH2 0x270 JUMP JUMPDEST POP SWAP1 JUMP JUMPDEST JUMPDEST DUP1 DUP3 GT ISZERO PUSH2 0x287 JUMPI PUSH0 DUP2 PUSH0 SWAP1 SSTORE POP PUSH1 0x1 ADD PUSH2 0x271 JUMP JUMPDEST POP SWAP1 JUMP JUMPDEST PUSH0 PUSH0 REVERT JUMPDEST PUSH0 PUSH20 0xFFFFFFFFFFFFFFFFFFFFFFFFFFFFFFFFFFFFFFFF DUP3 AND SWAP1 POP SWAP2 SWAP1 POP JUMP JUMPDEST PUSH0 PUSH2 0x2B8 DUP3 PUSH2 0x28F JUMP JUMPDEST SWAP1 POP SWAP2 SWAP1 POP JUMP JUMPDEST PUSH2 0x2C8 DUP2 PUSH2 0x2AE JUMP JUMPDEST DUP2 EQ PUSH2 0x2D2 JUMPI PUSH0 PUSH0 REVERT JUMPDEST POP JUMP JUMPDEST PUSH0 DUP2 MLOAD SWAP1 POP PUSH2 0x2E3 DUP2 PUSH2 0x2BF JUMP JUMPDEST SWAP3 SWAP2 POP POP JUMP JUMPDEST PUSH0 DUP2 SWAP1 POP SWAP2 SWAP1 POP JUMP JUMPDEST PUSH2 0x2FB DUP2 PUSH2 0x2E9 JUMP JUMPDEST DUP2 EQ PUSH2 0x305 JUMPI PUSH0 PUSH0 REVERT JUMPDEST POP JUMP JUMPDEST PUSH0 DUP2 MLOAD SWAP1 POP PUSH2 0x316 DUP2 PUSH2 0x2F2 JUMP JUMPDEST SWAP3 SWAP2 POP POP JUMP JUMPDEST PUSH0 PUSH0 PUSH0 PUSH1 0x60 DUP5 DUP7 SUB SLT ISZERO PUSH2 0x333 JUMPI PUSH2 0x332 PUSH2 0x28B JUMP JUMPDEST JUMPDEST PUSH0 PUSH2 0x340 DUP7 DUP3 DUP8 ADD PUSH2 0x2D5 JUMP JUMPDEST SWAP4 POP POP PUSH1 0x20 PUSH2 0x351 DUP7 DUP3 DUP8 ADD PUSH2 0x308 JUMP JUMPDEST SWAP3 POP POP PUSH1 0x40 PUSH2 0x362 DUP7 DUP3 DUP8 ADD PUSH2 0x308 JUMP JUMPDEST SWAP2 POP POP SWAP3 POP SWAP3 POP SWAP3 JUMP JUMPDEST PUSH32 0x4E487B7100000000000000000000000000000000000000000000000000000000 PUSH0 MSTORE PUSH1 0x41 PUSH1 0x4 MSTORE PUSH1 0x24 PUSH0 REVERT JUMPDEST PUSH2 0xAA7 DUP1 PUSH2 0x3A6 PUSH0 CODECOPY PUSH0 RETURN INVALID PUSH1 0x80 PUSH1 0x40 MSTORE CALLVALUE DUP1 ISZERO PUSH2 0xF JUMPI PUSH0 PUSH0 REVERT JUMPDEST POP PUSH1 0x4 CALLDATASIZE LT PUSH2 0x60 JUMPI PUSH0 CALLDATALOAD PUSH1 0xE0 SHR DUP1 PUSH4 0x324A1376 EQ PUSH2 0x64 JUMPI DUP1 PUSH4 0x3EB76B9C EQ PUSH2 0x82 JUMPI DUP1 PUSH4 0x4717F97C EQ PUSH2 0x9E JUMPI DUP1 PUSH4 0x789D9E8A EQ PUSH2 0xBC JUMPI DUP1 PUSH4 0xAFFC0670 EQ PUSH2 0xDA JUMPI DUP1 PUSH4 0xC631B292 EQ PUSH2 0xE4 JUMPI JUMPDEST PUSH0 PUSH0 REVERT JUMPDEST PUSH2 0x6C PUSH2 0xEE JUMP JUMPDEST PUSH1 0x40 MLOAD PUSH2 0x79 SWAP2 SWAP1 PUSH2 0x593 JUMP JUMPDEST PUSH1 0x40 MLOAD DUP1 SWAP2 SUB SWAP1 RETURN JUMPDEST PUSH2 0x9C PUSH1 0x4 DUP1 CALLDATASIZE SUB DUP2 ADD SWAP1 PUSH2 0x97 SWAP2 SWAP1 PUSH2 0x5E3 JUMP JUMPDEST PUSH2 0x112 JUMP JUMPDEST STOP JUMPDEST PUSH2 0xA6 PUSH2 0x1C8 JUMP JUMPDEST PUSH1 0x40 MLOAD PUSH2 0xB3 SWAP2 SWAP1 PUSH2 0x6C5 JUMP JUMPDEST PUSH1 0x40 MLOAD DUP1 SWAP2 SUB SWAP1 RETURN JUMPDEST PUSH2 0xC4 PUSH2 0x2FB JUMP JUMPDEST PUSH1 0x40 MLOAD PUSH2 0xD1 SWAP2 SWAP1 PUSH2 0x6FF JUMP JUMPDEST PUSH1 0x40 MLOAD DUP1 SWAP2 SUB SWAP1 RETURN JUMPDEST PUSH2 0xE2 PUSH2 0x30D JUMP JUMPDEST STOP JUMPDEST PUSH2 0xEC PUSH2 0x406 JUMP JUMPDEST STOP JUMPDEST PUSH0 PUSH0 SWAP1 SLOAD SWAP1 PUSH2 0x100 EXP SWAP1 DIV PUSH20 0xFFFFFFFFFFFFFFFFFFFFFFFFFFFFFFFFFFFFFFFF AND DUP2 JUMP JUMPDEST PUSH0 PUSH1 0x15 SWAP1 SLOAD SWAP1 PUSH2 0x100 EXP SWAP1 DIV PUSH1 0xFF AND DUP1 ISZERO PUSH2 0x139 JUMPI POP PUSH0 PUSH1 0x14 SWAP1 SLOAD SWAP1 PUSH2 0x100 EXP SWAP1 DIV PUSH1 0xFF AND ISZERO JUMPDEST PUSH2 0x178 JUMPI PUSH1 0x40 MLOAD PUSH32 0x8C379A000000000000000000000000000000000000000000000000000000000 DUP2 MSTORE PUSH1 0x4 ADD PUSH2 0x16F SWAP1 PUSH2 0x772 JUMP JUMPDEST PUSH1 0x40 MLOAD DUP1 SWAP2 SUB SWAP1 REVERT JUMPDEST PUSH0 PUSH2 0x182 DUP3 PUSH2 0x4C9 JUMP JUMPDEST SWAP1 POP DUP1 PUSH2 0x1C4 JUMPI PUSH1 0x40 MLOAD PUSH32 0x8C379A000000000000000000000000000000000000000000000000000000000 DUP2 MSTORE PUSH1 0x4 ADD PUSH2 0x1BB SWAP1 PUSH2 0x800 JUMP JUMPDEST PUSH1 0x40 MLOAD DUP1 SWAP2 SUB SWAP1 REVERT JUMPDEST POP POP JUMP JUMPDEST PUSH1 0x60 PUSH1 0x4 PUSH0 SWAP1 SLOAD SWAP1 PUSH2 0x100 EXP SWAP1 DIV PUSH20 0xFFFFFFFFFFFFFFFFFFFFFFFFFFFFFFFFFFFFFFFF AND PUSH20 0xFFFFFFFFFFFFFFFFFFFFFFFFFFFFFFFFFFFFFFFF AND CALLER PUSH20 0xFFFFFFFFFFFFFFFFFFFFFFFFFFFFFFFFFFFFFFFF AND EQ PUSH2 0x259 JUMPI PUSH1 0x40 MLOAD PUSH32 0x8C379A000000000000000000000000000000000000000000000000000000000 DUP2 MSTORE PUSH1 0x4 ADD PUSH2 0x250 SWAP1 PUSH2 0x868 JUMP JUMPDEST PUSH1 0x40 MLOAD DUP1 SWAP2 SUB SWAP1 REVERT JUMPDEST PUSH0 PUSH1 0x14 SWAP1 SLOAD SWAP1 PUSH2 0x100 EXP SWAP1 DIV PUSH1 0xFF AND PUSH2 0x2A7 JUMPI PUSH1 0x40 MLOAD PUSH32 0x8C379A000000000000000000000000000000000000000000000000000000000 DUP2 MSTORE PUSH1 0x4 ADD PUSH2 0x29E SWAP1 PUSH2 0x8D0 JUMP JUMPDEST PUSH1 0x40 MLOAD DUP1 SWAP2 SUB SWAP1 REVERT JUMPDEST PUSH1 0x3 DUP1 SLOAD DUP1 PUSH1 0x20 MUL PUSH1 0x20 ADD PUSH1 0x40 MLOAD SWAP1 DUP2 ADD PUSH1 0x40 MSTORE DUP1 SWAP3 SWAP2 SWAP1 DUP2 DUP2 MSTORE PUSH1 0x20 ADD DUP3 DUP1 SLOAD DUP1 ISZERO PUSH2 0x2F1 JUMPI PUSH1 0x20 MUL DUP3 ADD SWAP2 SWAP1 PUSH0 MSTORE PUSH1 0x20 PUSH0 KECCAK256 SWAP1 JUMPDEST DUP2 SLOAD DUP2 MSTORE PUSH1 0x20 ADD SWAP1 PUSH1 0x1 ADD SWAP1 DUP1 DUP4 GT PUSH2 0x2DD JUMPI JUMPDEST POP POP POP POP POP SWAP1 POP SWAP1 JUMP JUMPDEST PUSH0 PUSH1 0x14 SWAP1 SLOAD SWAP1 PUSH2 0x100 EXP SWAP1 DIV PUSH1 0xFF AND DUP2 JUMP JUMPDEST PUSH0 PUSH0 SWAP1 SLOAD SWAP1 PUSH2 0x100 EXP SWAP1 DIV PUSH20 0xFFFFFFFFFFFFFFFFFFFFFFFFFFFFFFFFFFFFFFFF AND PUSH20 0xFFFFFFFFFFFFFFFFFFFFFFFFFFFFFFFFFFFFFFFF AND CALLER PUSH20 0xFFFFFFFFFFFFFFFFFFFFFFFFFFFFFFFFFFFFFFFF AND EQ PUSH2 0x39B JUMPI PUSH1 0x40 MLOAD PUSH32 0x8C379A000000000000000000000000000000000000000000000000000000000 DUP2 MSTORE PUSH1 0x4 ADD PUSH2 0x392 SWAP1 PUSH2 0x95E JUMP JUMPDEST PUSH1 0x40 MLOAD DUP1 SWAP2 SUB SWAP1 REVERT JUMPDEST PUSH0 PUSH1 0x14 SWAP1 SLOAD SWAP1 PUSH2 0x100 EXP SWAP1 DIV PUSH1 0xFF AND ISZERO PUSH2 0x3EA JUMPI PUSH1 0x40 MLOAD PUSH32 0x8C379A000000000000000000000000000000000000000000000000000000000 DUP2 MSTORE PUSH1 0x4 ADD PUSH2 0x3E1 SWAP1 PUSH2 0x9C6 JUMP JUMPDEST PUSH1 0x40 MLOAD DUP1 SWAP2 SUB SWAP1 REVERT JUMPDEST PUSH1 0x1 PUSH0 PUSH1 0x15 PUSH2 0x100 EXP DUP2 SLOAD DUP2 PUSH1 0xFF MUL NOT AND SWAP1 DUP4 ISZERO ISZERO MUL OR SWAP1 SSTORE POP JUMP JUMPDEST PUSH0 PUSH0 SWAP1 SLOAD SWAP1 PUSH2 0x100 EXP SWAP1 DIV PUSH20 0xFFFFFFFFFFFFFFFFFFFFFFFFFFFFFFFFFFFFFFFF AND PUSH20 0xFFFFFFFFFFFFFFFFFFFFFFFFFFFFFFFFFFFFFFFF AND CALLER PUSH20 0xFFFFFFFFFFFFFFFFFFFFFFFFFFFFFFFFFFFFFFFF AND EQ PUSH2 0x494 JUMPI PUSH1 0x40 MLOAD PUSH32 0x8C379A000000000000000000000000000000000000000000000000000000000 DUP2 MSTORE PUSH1 0x4 ADD PUSH2 0x48B SWAP1 PUSH2 0x95E JUMP JUMPDEST PUSH1 0x40 MLOAD DUP1 SWAP2 SUB SWAP1 REVERT JUMPDEST PUSH0 PUSH0 PUSH1 0x15 PUSH2 0x100 EXP DUP2 SLOAD DUP2 PUSH1 0xFF MUL NOT AND SWAP1 DUP4 ISZERO ISZERO MUL OR SWAP1 SSTORE POP PUSH1 0x1 PUSH0 PUSH1 0x14 PUSH2 0x100 EXP DUP2 SLOAD DUP2 PUSH1 0xFF MUL NOT AND SWAP1 DUP4 ISZERO ISZERO MUL OR SWAP1 SSTORE POP JUMP JUMPDEST PUSH0 PUSH1 0x3 DUP1 SLOAD SWAP1 POP DUP3 LT PUSH2 0x4DE JUMPI PUSH0 SWAP1 POP PUSH2 0x54F JUMP JUMPDEST PUSH0 PUSH0 PUSH1 0x2 PUSH0 PUSH1 0x1 SLOAD DUP2 MSTORE PUSH1 0x20 ADD SWAP1 DUP2 MSTORE PUSH1 0x20 ADD PUSH0 KECCAK256 SLOAD GT PUSH2 0x500 JUMPI PUSH1 0x1 PUSH2 0x515 JUMP JUMPDEST PUSH1 0x2 PUSH0 PUSH1 0x1 SLOAD DUP2 MSTORE PUSH1 0x20 ADD SWAP1 DUP2 MSTORE PUSH1 0x20 ADD PUSH0 KECCAK256 SLOAD JUMPDEST SWAP1 POP DUP1 PUSH1 0x3 DUP5 DUP2 SLOAD DUP2 LT PUSH2 0x52C JUMPI PUSH2 0x52B PUSH2 0x9E4 JUMP JUMPDEST JUMPDEST SWAP1 PUSH0 MSTORE PUSH1 0x20 PUSH0 KECCAK256 ADD PUSH0 DUP3 DUP3 SLOAD PUSH2 0x542 SWAP2 SWAP1 PUSH2 0xA3E JUMP JUMPDEST SWAP3 POP POP DUP2 SWAP1 SSTORE POP PUSH1 0x1 SWAP2 POP POP JUMPDEST SWAP2 SWAP1 POP JUMP JUMPDEST PUSH0 PUSH20 0xFFFFFFFFFFFFFFFFFFFFFFFFFFFFFFFFFFFFFFFF DUP3 AND SWAP1 POP SWAP2 SWAP1 POP JUMP JUMPDEST PUSH0 PUSH2 0x57D DUP3 PUSH2 0x554 JUMP JUMPDEST SWAP1 POP SWAP2 SWAP1 POP JUMP JUMPDEST PUSH2 0x58D DUP2 PUSH2 0x573 JUMP JUMPDEST DUP3 MSTORE POP POP JUMP JUMPDEST PUSH0 PUSH1 0x20 DUP3 ADD SWAP1 POP PUSH2 0x5A6 PUSH0 DUP4 ADD DUP5 PUSH2 0x584 JUMP JUMPDEST SWAP3 SWAP2 POP POP JUMP JUMPDEST PUSH0 PUSH0 REVERT JUMPDEST PUSH0 DUP2 SWAP1 POP SWAP2 SWAP1 POP JUMP JUMPDEST PUSH2 0x5C2 DUP2 PUSH2 0x5B0 JUMP JUMPDEST DUP2 EQ PUSH2 0x5CC JUMPI PUSH0 PUSH0 REVERT JUMPDEST POP JUMP JUMPDEST PUSH0 DUP2 CALLDATALOAD SWAP1 POP PUSH2 0x5DD DUP2 PUSH2 0x5B9 JUMP JUMPDEST SWAP3 SWAP2 POP POP JUMP JUMPDEST PUSH0 PUSH1 0x20 DUP3 DUP5 SUB SLT ISZERO PUSH2 0x5F8 JUMPI PUSH2 0x5F7 PUSH2 0x5AC JUMP JUMPDEST JUMPDEST PUSH0 PUSH2 0x605 DUP5 DUP3 DUP6 ADD PUSH2 0x5CF JUMP JUMPDEST SWAP2 POP POP SWAP3 SWAP2 POP POP JUMP JUMPDEST PUSH0 DUP2 MLOAD SWAP1 POP SWAP2 SWAP1 POP JUMP JUMPDEST PUSH0 DUP3 DUP3 MSTORE PUSH1 0x20 DUP3 ADD SWAP1 POP SWAP3 SWAP2 POP POP JUMP JUMPDEST PUSH0 DUP2 SWAP1 POP PUSH1 0x20 DUP3 ADD SWAP1 POP SWAP2 SWAP1 POP JUMP JUMPDEST PUSH2 0x640 DUP2 PUSH2 0x5B0 JUMP JUMPDEST DUP3 MSTORE POP POP JUMP JUMPDEST PUSH0 PUSH2 0x651 DUP4 DUP4 PUSH2 0x637 JUMP JUMPDEST PUSH1 0x20 DUP4 ADD SWAP1 POP SWAP3 SWAP2 POP POP JUMP JUMPDEST PUSH0 PUSH1 0x20 DUP3 ADD SWAP1 POP SWAP2 SWAP1 POP JUMP JUMPDEST PUSH0 PUSH2 0x673 DUP3 PUSH2 0x60E JUMP JUMPDEST PUSH2 0x67D DUP2 DUP6 PUSH2 0x618 JUMP JUMPDEST SWAP4 POP PUSH2 0x688 DUP4 PUSH2 0x628 JUMP JUMPDEST DUP1 PUSH0 JUMPDEST DUP4 DUP2 LT ISZERO PUSH2 0x6B8 JUMPI DUP2 MLOAD PUSH2 0x69F DUP9 DUP3 PUSH2 0x646 JUMP JUMPDEST SWAP8 POP PUSH2 0x6AA DUP4 PUSH2 0x65D JUMP JUMPDEST SWAP3 POP POP PUSH1 0x1 DUP2 ADD SWAP1 POP PUSH2 0x68B JUMP JUMPDEST POP DUP6 SWAP4 POP POP POP POP SWAP3 SWAP2 POP POP JUMP JUMPDEST PUSH0 PUSH1 0x20 DUP3 ADD SWAP1 POP DUP2 DUP2 SUB PUSH0 DUP4 ADD MSTORE PUSH2 0x6DD DUP2 DUP5 PUSH2 0x669 JUMP JUMPDEST SWAP1 POP SWAP3 SWAP2 POP POP JUMP JUMPDEST PUSH0 DUP2 ISZERO ISZERO SWAP1 POP SWAP2 SWAP1 POP JUMP JUMPDEST PUSH2 0x6F9 DUP2 PUSH2 0x6E5 JUMP JUMPDEST DUP3 MSTORE POP POP JUMP JUMPDEST PUSH0 PUSH1 0x20 DUP3 ADD SWAP1 POP PUSH2 0x712 PUSH0 DUP4 ADD DUP5 PUSH2 0x6F0 JUMP JUMPDEST SWAP3 SWAP2 POP POP JUMP JUMPDEST PUSH0 DUP3 DUP3 MSTORE PUSH1 0x20 DUP3 ADD SWAP1 POP SWAP3 SWAP2 POP POP JUMP JUMPDEST PUSH32 0x4C6120766F746163696F6E206E6F206573746120616269657274610000000000 PUSH0 DUP3 ADD MSTORE POP JUMP JUMPDEST PUSH0 PUSH2 0x75C PUSH1 0x1B DUP4 PUSH2 0x718 JUMP JUMPDEST SWAP2 POP PUSH2 0x767 DUP3 PUSH2 0x728 JUMP JUMPDEST PUSH1 0x20 DUP3 ADD SWAP1 POP SWAP2 SWAP1 POP JUMP JUMPDEST PUSH0 PUSH1 0x20 DUP3 ADD SWAP1 POP DUP2 DUP2 SUB PUSH0 DUP4 ADD MSTORE PUSH2 0x789 DUP2 PUSH2 0x750 JUMP JUMPDEST SWAP1 POP SWAP2 SWAP1 POP JUMP JUMPDEST PUSH32 0x4964656E746966696361646F72206465207061727469646F206E6F2076616C69 PUSH0 DUP3 ADD MSTORE PUSH32 0x646F000000000000000000000000000000000000000000000000000000000000 PUSH1 0x20 DUP3 ADD MSTORE POP JUMP JUMPDEST PUSH0 PUSH2 0x7EA PUSH1 0x22 DUP4 PUSH2 0x718 JUMP JUMPDEST SWAP2 POP PUSH2 0x7F5 DUP3 PUSH2 0x790 JUMP JUMPDEST PUSH1 0x40 DUP3 ADD SWAP1 POP SWAP2 SWAP1 POP JUMP JUMPDEST PUSH0 PUSH1 0x20 DUP3 ADD SWAP1 POP DUP2 DUP2 SUB PUSH0 DUP4 ADD MSTORE PUSH2 0x817 DUP2 PUSH2 0x7DE JUMP JUMPDEST SWAP1 POP SWAP2 SWAP1 POP JUMP JUMPDEST PUSH32 0x6572726F72206E6F206175746F72697A61646F00000000000000000000000000 PUSH0 DUP3 ADD MSTORE POP JUMP JUMPDEST PUSH0 PUSH2 0x852 PUSH1 0x13 DUP4 PUSH2 0x718 JUMP JUMPDEST SWAP2 POP PUSH2 0x85D DUP3 PUSH2 0x81E JUMP JUMPDEST PUSH1 0x20 DUP3 ADD SWAP1 POP SWAP2 SWAP1 POP JUMP JUMPDEST PUSH0 PUSH1 0x20 DUP3 ADD SWAP1 POP DUP2 DUP2 SUB PUSH0 DUP4 ADD MSTORE PUSH2 0x87F DUP2 PUSH2 0x846 JUMP JUMPDEST SWAP1 POP SWAP2 SWAP1 POP JUMP JUMPDEST PUSH32 0x4C6120766F746163696F6E2061756E206E6F206861207465726D696E61646F00 PUSH0 DUP3 ADD MSTORE POP JUMP JUMPDEST PUSH0 PUSH2 0x8BA PUSH1 0x1F DUP4 PUSH2 0x718 JUMP JUMPDEST SWAP2 POP PUSH2 0x8C5 DUP3 PUSH2 0x886 JUMP JUMPDEST PUSH1 0x20 DUP3 ADD SWAP1 POP SWAP2 SWAP1 POP JUMP JUMPDEST PUSH0 PUSH1 0x20 DUP3 ADD SWAP1 POP DUP2 DUP2 SUB PUSH0 DUP4 ADD MSTORE PUSH2 0x8E7 DUP2 PUSH2 0x8AE JUMP JUMPDEST SWAP1 POP SWAP2 SWAP1 POP JUMP JUMPDEST PUSH32 0x536F6C6F20656C20707265736964656E74652070756564652068616365722065 PUSH0 DUP3 ADD MSTORE PUSH32 0x73746F0000000000000000000000000000000000000000000000000000000000 PUSH1 0x20 DUP3 ADD MSTORE POP JUMP JUMPDEST PUSH0 PUSH2 0x948 PUSH1 0x23 DUP4 PUSH2 0x718 JUMP JUMPDEST SWAP2 POP PUSH2 0x953 DUP3 PUSH2 0x8EE JUMP JUMPDEST PUSH1 0x40 DUP3 ADD SWAP1 POP SWAP2 SWAP1 POP JUMP JUMPDEST PUSH0 PUSH1 0x20 DUP3 ADD SWAP1 POP DUP2 DUP2 SUB PUSH0 DUP4 ADD MSTORE PUSH2 0x975 DUP2 PUSH2 0x93C JUMP JUMPDEST SWAP1 POP SWAP2 SWAP1 POP JUMP JUMPDEST PUSH32 0x4C6120766F746163696F6E2079612066696E616C697A6F000000000000000000 PUSH0 DUP3 ADD MSTORE POP JUMP JUMPDEST PUSH0 PUSH2 0x9B0 PUSH1 0x17 DUP4 PUSH2 0x718 JUMP JUMPDEST SWAP2 POP PUSH2 0x9BB DUP3 PUSH2 0x97C JUMP JUMPDEST PUSH1 0x20 DUP3 ADD SWAP1 POP SWAP2 SWAP1 POP JUMP JUMPDEST PUSH0 PUSH1 0x20 DUP3 ADD SWAP1 POP DUP2 DUP2 SUB PUSH0 DUP4 ADD MSTORE PUSH2 0x9DD DUP2 PUSH2 0x9A4 JUMP JUMPDEST SWAP1 POP SWAP2 SWAP1 POP JUMP JUMPDEST PUSH32 0x4E487B7100000000000000000000000000000000000000000000000000000000 PUSH0 MSTORE PUSH1 0x32 PUSH1 0x4 MSTORE PUSH1 0x24 PUSH0 REVERT JUMPDEST PUSH32 0x4E487B7100000000000000000000000000000000000000000000000000000000 PUSH0 MSTORE PUSH1 0x11 PUSH1 0x4 MSTORE PUSH1 0x24 PUSH0 REVERT JUMPDEST PUSH0 PUSH2 0xA48 DUP3 PUSH2 0x5B0 JUMP JUMPDEST SWAP2 POP PUSH2 0xA53 DUP4 PUSH2 0x5B0 JUMP JUMPDEST SWAP3 POP DUP3 DUP3 ADD SWAP1 POP DUP1 DUP3 GT ISZERO PUSH2 0xA6B JUMPI PUSH2 0xA6A PUSH2 0xA11 JUMP JUMPDEST JUMPDEST SWAP3 SWAP2 POP POP JUMP INVALID LOG2 PUSH5 0x6970667358 0x22 SLT KECCAK256 PUSH19 0x9F1E99BEC75F3C245439FEA28FF59B049F253F PUSH20 0xB17211C3A319D2739E262764736F6C634300081F STOP CALLER LOG2 PUSH5 0x6970667358 0x22 SLT KECCAK256 0xCC NOT DUP1 0xCF CREATE DIV 0xB9 ADDRESS PUSH16 0x7D4032E76A6E5EDEA1355BD58AD6D840 0xE9 0xD PUSH11 0xEA2DF77564736F6C634300 ADDMOD 0x1F STOP CALLER "
				},
				"gasEstimates": {
					"creation": {
						"codeDepositCost": "1537400",
						"executionCost": "infinite",
						"totalCost": "infinite"
					},
					"external": {
						"authority()": "2573",
						"castVote(uint256,uint256)": "infinite",
						"createPollingStation(uint256,address)": "infinite",
						"getResults()": "infinite",
						"hasVoted(address)": "2834",
						"numParties()": "2469",
						"stations(uint256)": "infinite"
					}
				},
				"methodIdentifiers": {
					"authority()": "bf7e214f",
					"castVote(uint256,uint256)": "2c0a3f89",
					"createPollingStation(uint256,address)": "a44fe131",
					"getResults()": "4717f97c",
					"hasVoted(address)": "09eef43e",
					"numParties()": "a6782c2b",
					"stations(uint256)": "92f859db"
				}
			},
			"storageLayout": {
				"storage": [
					{
						"astId": 211,
						"contract": "lab3/Election.sol:Election",
						"label": "authority",
						"offset": 0,
						"slot": "0",
						"type": "t_address"
					},
					{
						"astId": 213,
						"contract": "lab3/Election.sol:Election",
						"label": "numParties",
						"offset": 0,
						"slot": "1",
						"type": "t_uint256"
					},
					{
						"astId": 218,
						"contract": "lab3/Election.sol:Election",
						"label": "stations",
						"offset": 0,
						"slot": "2",
						"type": "t_mapping(t_uint256,t_contract(DhondtPollingStation)207)"
					},
					{
						"astId": 222,
						"contract": "lab3/Election.sol:Election",
						"label": "hasVoted",
						"offset": 0,
						"slot": "3",
						"type": "t_mapping(t_address,t_bool)"
					}
				],
				"types": {
					"t_address": {
						"encoding": "inplace",
						"label": "address",
						"numberOfBytes": "20"
					},
					"t_bool": {
						"encoding": "inplace",
						"label": "bool",
						"numberOfBytes": "1"
					},
					"t_contract(DhondtPollingStation)207": {
						"encoding": "inplace",
						"label": "contract DhondtPollingStation",
						"numberOfBytes": "20"
					},
					"t_mapping(t_address,t_bool)": {
						"encoding": "mapping",
						"key": "t_address",
						"label": "mapping(address => bool)",
						"numberOfBytes": "32",
						"value": "t_bool"
					},
					"t_mapping(t_uint256,t_contract(DhondtPollingStation)207)": {
						"encoding": "mapping",
						"key": "t_uint256",
						"label": "mapping(uint256 => contract DhondtPollingStation)",
						"numberOfBytes": "32",
						"value": "t_contract(DhondtPollingStation)207"
					},
					"t_uint256": {
						"encoding": "inplace",
						"label": "uint256",
						"numberOfBytes": "32"
					}
				}
			},
			"userdoc": {
				"kind": "user",
				"methods": {},
				"version": 1
			}
		}
	}
}