{
	"lab2/piggyMapping.sol": {
		"PiggyMapping": {
			"abi": [
				{
					"inputs": [
						{
							"internalType": "string",
							"name": "name",
							"type": "string"
						}
					],
					"name": "addClient",
					"outputs": [],
					"stateMutability": "payable",
					"type": "function"
				},
				{
					"inputs": [
						{
							"internalType": "address",
							"name": "",
							"type": "address"
						}
					],
					"name": "clients",
					"outputs": [
						{
							"internalType": "string",
							"name": "name",
							"type": "string"
						},
						{
							"internalType": "uint256",
							"name": "balance",
							"type": "uint256"
						}
					],
					"stateMutability": "view",
					"type": "function"
				},
				{
					"inputs": [],
					"name": "deposit",
					"outputs": [],
					"stateMutability": "payable",
					"type": "function"
				},
				{
					"inputs": [],
					"name": "getBalance",
					"outputs": [
						{
							"internalType": "uint256",
							"name": "",
							"type": "uint256"
						}
					],
					"stateMutability": "view",
					"type": "function"
				},
				{
					"inputs": [
						{
							"internalType": "uint256",
							"name": "amountInWei",
							"type": "uint256"
						}
					],
					"name": "withdraw",
					"outputs": [],
					"stateMutability": "nonpayable",
					"type": "function"
				}
			],
			"devdoc": {
				"kind": "dev",
				"methods": {},
				"version": 1
			},
			"evm": {
				"assembly": "    /* \"lab2/piggyMapping.sol\":64:1441  contract PiggyMapping {... */\n  mstore(0x40, 0x80)\n  callvalue\n  dup1\n  iszero\n  tag_1\n  jumpi\n  revert(0x00, 0x00)\ntag_1:\n  pop\n  dataSize(sub_0)\n  dup1\n  dataOffset(sub_0)\n  0x00\n  codecopy\n  0x00\n  return\nstop\n\nsub_0: assembly {\n        /* \"lab2/piggyMapping.sol\":64:1441  contract PiggyMapping {... */\n      mstore(0x40, 0x80)\n      jumpi(tag_1, lt(calldatasize, 0x04))\n      shr(0xe0, calldataload(0x00))\n      dup1\n      0x12065fe0\n      eq\n      tag_2\n      jumpi\n      dup1\n      0x2e1a7d4d\n      eq\n      tag_3\n      jumpi\n      dup1\n      0x61eed2a9\n      eq\n      tag_4\n      jumpi\n      dup1\n      0x79b7f303\n      eq\n      tag_5\n      jumpi\n      dup1\n      0xd0e30db0\n      eq\n      tag_6\n      jumpi\n    tag_1:\n      revert(0x00, 0x00)\n        /* \"lab2/piggyMapping.sol\":1247:1438  function getBalance() external view returns (uint) {... */\n    tag_2:\n      callvalue\n      dup1\n      iszero\n      tag_7\n      jumpi\n      revert(0x00, 0x00)\n    tag_7:\n      pop\n      tag_8\n      tag_9\n      jump\t// in\n    tag_8:\n      mload(0x40)\n      tag_10\n      swap2\n      swap1\n      tag_11\n      jump\t// in\n    tag_10:\n      mload(0x40)\n      dup1\n      swap2\n      sub\n      swap1\n      return\n        /* \"lab2/piggyMapping.sol\":817:1239  function withdraw(uint amountInWei) external {... */\n    tag_3:\n      callvalue\n      dup1\n      iszero\n      tag_12\n      jumpi\n      revert(0x00, 0x00)\n    tag_12:\n      pop\n      tag_13\n      0x04\n      dup1\n      calldatasize\n      sub\n      dup2\n      add\n      swap1\n      tag_14\n      swap2\n      swap1\n      tag_15\n      jump\t// in\n    tag_14:\n      tag_16\n      jump\t// in\n    tag_13:\n      stop\n        /* \"lab2/piggyMapping.sol\":229:270  mapping(address => Client) public clients */\n    tag_4:\n      callvalue\n      dup1\n      iszero\n      tag_17\n      jumpi\n      revert(0x00, 0x00)\n    tag_17:\n      pop\n      tag_18\n      0x04\n      dup1\n      calldatasize\n      sub\n      dup2\n      add\n      swap1\n      tag_19\n      swap2\n      swap1\n      tag_20\n      jump\t// in\n    tag_19:\n      tag_21\n      jump\t// in\n    tag_18:\n      mload(0x40)\n      tag_22\n      swap3\n      swap2\n      swap1\n      tag_23\n      jump\t// in\n    tag_22:\n      mload(0x40)\n      dup1\n      swap2\n      sub\n      swap1\n      return\n        /* \"lab2/piggyMapping.sol\":279:619  function addClient(string memory name) external payable {... */\n    tag_5:\n      tag_24\n      0x04\n      dup1\n      calldatasize\n      sub\n      dup2\n      add\n      swap1\n      tag_25\n      swap2\n      swap1\n      tag_26\n      jump\t// in\n    tag_25:\n      tag_27\n      jump\t// in\n    tag_24:\n      stop\n        /* \"lab2/piggyMapping.sol\":627:809  function deposit() external payable {... */\n    tag_6:\n      tag_28\n      tag_29\n      jump\t// in\n    tag_28:\n      stop\n        /* \"lab2/piggyMapping.sol\":1247:1438  function getBalance() external view returns (uint) {... */\n    tag_9:\n        /* \"lab2/piggyMapping.sol\":1292:1296  uint */\n      0x00\n        /* \"lab2/piggyMapping.sol\":1358:1359  0 */\n      0x00\n        /* \"lab2/piggyMapping.sol\":1323:1330  clients */\n      0x00\n        /* \"lab2/piggyMapping.sol\":1323:1342  clients[msg.sender] */\n      0x00\n        /* \"lab2/piggyMapping.sol\":1331:1341  msg.sender */\n      caller\n        /* \"lab2/piggyMapping.sol\":1323:1342  clients[msg.sender] */\n      0xffffffffffffffffffffffffffffffffffffffff\n      and\n      0xffffffffffffffffffffffffffffffffffffffff\n      and\n      dup2\n      mstore\n      0x20\n      add\n      swap1\n      dup2\n      mstore\n      0x20\n      add\n      0x00\n      keccak256\n        /* \"lab2/piggyMapping.sol\":1323:1347  clients[msg.sender].name */\n      0x00\n      add\n        /* \"lab2/piggyMapping.sol\":1317:1355  bytes(clients[msg.sender].name).length */\n      dup1\n      sload\n      tag_31\n      swap1\n      tag_32\n      jump\t// in\n    tag_31:\n      swap1\n      pop\n        /* \"lab2/piggyMapping.sol\":1317:1359  bytes(clients[msg.sender].name).length > 0 */\n      gt\n        /* \"lab2/piggyMapping.sol\":1309:1385  require(bytes(clients[msg.sender].name).length > 0, \"Cliente no registrado\") */\n      tag_33\n      jumpi\n      mload(0x40)\n      0x08c379a000000000000000000000000000000000000000000000000000000000\n      dup2\n      mstore\n      0x04\n      add\n      tag_34\n      swap1\n      tag_35\n      jump\t// in\n    tag_34:\n      mload(0x40)\n      dup1\n      swap2\n      sub\n      swap1\n      revert\n    tag_33:\n        /* \"lab2/piggyMapping.sol\":1403:1410  clients */\n      0x00\n        /* \"lab2/piggyMapping.sol\":1403:1422  clients[msg.sender] */\n      0x00\n        /* \"lab2/piggyMapping.sol\":1411:1421  msg.sender */\n      caller\n        /* \"lab2/piggyMapping.sol\":1403:1422  clients[msg.sender] */\n      0xffffffffffffffffffffffffffffffffffffffff\n      and\n      0xffffffffffffffffffffffffffffffffffffffff\n      and\n      dup2\n      mstore\n      0x20\n      add\n      swap1\n      dup2\n      mstore\n      0x20\n      add\n      0x00\n      keccak256\n        /* \"lab2/piggyMapping.sol\":1403:1430  clients[msg.sender].balance */\n      0x01\n      add\n      sload\n        /* \"lab2/piggyMapping.sol\":1396:1430  return clients[msg.sender].balance */\n      swap1\n      pop\n        /* \"lab2/piggyMapping.sol\":1247:1438  function getBalance() external view returns (uint) {... */\n      swap1\n      jump\t// out\n        /* \"lab2/piggyMapping.sol\":817:1239  function withdraw(uint amountInWei) external {... */\n    tag_16:\n        /* \"lab2/piggyMapping.sol\":922:923  0 */\n      0x00\n        /* \"lab2/piggyMapping.sol\":887:894  clients */\n      0x00\n        /* \"lab2/piggyMapping.sol\":887:906  clients[msg.sender] */\n      0x00\n        /* \"lab2/piggyMapping.sol\":895:905  msg.sender */\n      caller\n        /* \"lab2/piggyMapping.sol\":887:906  clients[msg.sender] */\n      0xffffffffffffffffffffffffffffffffffffffff\n      and\n      0xffffffffffffffffffffffffffffffffffffffff\n      and\n      dup2\n      mstore\n      0x20\n      add\n      swap1\n      dup2\n      mstore\n      0x20\n      add\n      0x00\n      keccak256\n        /* \"lab2/piggyMapping.sol\":887:911  clients[msg.sender].name */\n      0x00\n      add\n        /* \"lab2/piggyMapping.sol\":881:919  bytes(clients[msg.sender].name).length */\n      dup1\n      sload\n      tag_37\n      swap1\n      tag_32\n      jump\t// in\n    tag_37:\n      swap1\n      pop\n        /* \"lab2/piggyMapping.sol\":881:923  bytes(clients[msg.sender].name).length > 0 */\n      gt\n        /* \"lab2/piggyMapping.sol\":873:946  require(bytes(clients[msg.sender].name).length > 0, \"No eres un cliente\") */\n      tag_38\n      jumpi\n      mload(0x40)\n      0x08c379a000000000000000000000000000000000000000000000000000000000\n      dup2\n      mstore\n      0x04\n      add\n      tag_39\n      swap1\n      tag_40\n      jump\t// in\n    tag_39:\n      mload(0x40)\n      dup1\n      swap2\n      sub\n      swap1\n      revert\n    tag_38:\n        /* \"lab2/piggyMapping.sol\":997:1008  amountInWei */\n      dup1\n        /* \"lab2/piggyMapping.sol\":966:973  clients */\n      0x00\n        /* \"lab2/piggyMapping.sol\":966:985  clients[msg.sender] */\n      0x00\n        /* \"lab2/piggyMapping.sol\":974:984  msg.sender */\n      caller\n        /* \"lab2/piggyMapping.sol\":966:985  clients[msg.sender] */\n      0xffffffffffffffffffffffffffffffffffffffff\n      and\n      0xffffffffffffffffffffffffffffffffffffffff\n      and\n      dup2\n      mstore\n      0x20\n      add\n      swap1\n      dup2\n      mstore\n      0x20\n      add\n      0x00\n      keccak256\n        /* \"lab2/piggyMapping.sol\":966:993  clients[msg.sender].balance */\n      0x01\n      add\n      sload\n        /* \"lab2/piggyMapping.sol\":966:1008  clients[msg.sender].balance >= amountInWei */\n      lt\n      iszero\n        /* \"lab2/piggyMapping.sol\":958:1031  require(clients[msg.sender].balance >= amountInWei, \"Saldo insuficiente\") */\n      tag_41\n      jumpi\n      mload(0x40)\n      0x08c379a000000000000000000000000000000000000000000000000000000000\n      dup2\n      mstore\n      0x04\n      add\n      tag_42\n      swap1\n      tag_43\n      jump\t// in\n    tag_42:\n      mload(0x40)\n      dup1\n      swap2\n      sub\n      swap1\n      revert\n    tag_41:\n        /* \"lab2/piggyMapping.sol\":1076:1087  amountInWei */\n      dup1\n        /* \"lab2/piggyMapping.sol\":1045:1052  clients */\n      0x00\n        /* \"lab2/piggyMapping.sol\":1045:1064  clients[msg.sender] */\n      0x00\n        /* \"lab2/piggyMapping.sol\":1053:1063  msg.sender */\n      caller\n        /* \"lab2/piggyMapping.sol\":1045:1064  clients[msg.sender] */\n      0xffffffffffffffffffffffffffffffffffffffff\n      and\n      0xffffffffffffffffffffffffffffffffffffffff\n      and\n      dup2\n      mstore\n      0x20\n      add\n      swap1\n      dup2\n      mstore\n      0x20\n      add\n      0x00\n      keccak256\n        /* \"lab2/piggyMapping.sol\":1045:1072  clients[msg.sender].balance */\n      0x01\n      add\n      0x00\n        /* \"lab2/piggyMapping.sol\":1045:1087  clients[msg.sender].balance -= amountInWei */\n      dup3\n      dup3\n      sload\n      tag_44\n      swap2\n      swap1\n      tag_45\n      jump\t// in\n    tag_44:\n      swap3\n      pop\n      pop\n      dup2\n      swap1\n      sstore\n      pop\n        /* \"lab2/piggyMapping.sol\":1109:1121  bool success */\n      0x00\n        /* \"lab2/piggyMapping.sol\":1135:1145  msg.sender */\n      caller\n        /* \"lab2/piggyMapping.sol\":1127:1151  payable(msg.sender).call */\n      0xffffffffffffffffffffffffffffffffffffffff\n      and\n        /* \"lab2/piggyMapping.sol\":1159:1170  amountInWei */\n      dup3\n        /* \"lab2/piggyMapping.sol\":1127:1175  payable(msg.sender).call{value: amountInWei}(\"\") */\n      mload(0x40)\n      tag_46\n      swap1\n      tag_47\n      jump\t// in\n    tag_46:\n      0x00\n      mload(0x40)\n      dup1\n      dup4\n      sub\n      dup2\n      dup6\n      dup8\n      gas\n      call\n      swap3\n      pop\n      pop\n      pop\n      returndatasize\n      dup1\n      0x00\n      dup2\n      eq\n      tag_50\n      jumpi\n      mload(0x40)\n      swap2\n      pop\n      and(add(returndatasize, 0x3f), not(0x1f))\n      dup3\n      add\n      0x40\n      mstore\n      returndatasize\n      dup3\n      mstore\n      returndatasize\n      0x00\n      0x20\n      dup5\n      add\n      returndatacopy\n      jump(tag_49)\n    tag_50:\n      0x60\n      swap2\n      pop\n    tag_49:\n      pop\n        /* \"lab2/piggyMapping.sol\":1108:1175  (bool success, ) = payable(msg.sender).call{value: amountInWei}(\"\") */\n      pop\n      swap1\n      pop\n        /* \"lab2/piggyMapping.sol\":1194:1201  success */\n      dup1\n        /* \"lab2/piggyMapping.sol\":1186:1231  require(success, \"Fallo en la transferencia\") */\n      tag_51\n      jumpi\n      mload(0x40)\n      0x08c379a000000000000000000000000000000000000000000000000000000000\n      dup2\n      mstore\n      0x04\n      add\n      tag_52\n      swap1\n      tag_53\n      jump\t// in\n    tag_52:\n      mload(0x40)\n      dup1\n      swap2\n      sub\n      swap1\n      revert\n    tag_51:\n        /* \"lab2/piggyMapping.sol\":862:1239  {... */\n      pop\n        /* \"lab2/piggyMapping.sol\":817:1239  function withdraw(uint amountInWei) external {... */\n      pop\n      jump\t// out\n        /* \"lab2/piggyMapping.sol\":229:270  mapping(address => Client) public clients */\n    tag_21:\n      mstore(0x20, 0x00)\n      dup1\n      0x00\n      mstore\n      keccak256(0x00, 0x40)\n      0x00\n      swap2\n      pop\n      swap1\n      pop\n      dup1\n      0x00\n      add\n      dup1\n      sload\n      tag_54\n      swap1\n      tag_32\n      jump\t// in\n    tag_54:\n      dup1\n      0x1f\n      add\n      0x20\n      dup1\n      swap2\n      div\n      mul\n      0x20\n      add\n      mload(0x40)\n      swap1\n      dup2\n      add\n      0x40\n      mstore\n      dup1\n      swap3\n      swap2\n      swap1\n      dup2\n      dup2\n      mstore\n      0x20\n      add\n      dup3\n      dup1\n      sload\n      tag_55\n      swap1\n      tag_32\n      jump\t// in\n    tag_55:\n      dup1\n      iszero\n      tag_56\n      jumpi\n      dup1\n      0x1f\n      lt\n      tag_57\n      jumpi\n      0x0100\n      dup1\n      dup4\n      sload\n      div\n      mul\n      dup4\n      mstore\n      swap2\n      0x20\n      add\n      swap2\n      jump(tag_56)\n    tag_57:\n      dup3\n      add\n      swap2\n      swap1\n      0x00\n      mstore\n      keccak256(0x00, 0x20)\n      swap1\n    tag_58:\n      dup2\n      sload\n      dup2\n      mstore\n      swap1\n      0x01\n      add\n      swap1\n      0x20\n      add\n      dup1\n      dup4\n      gt\n      tag_58\n      jumpi\n      dup3\n      swap1\n      sub\n      0x1f\n      and\n      dup3\n      add\n      swap2\n    tag_56:\n      pop\n      pop\n      pop\n      pop\n      pop\n      swap1\n      dup1\n      0x01\n      add\n      sload\n      swap1\n      pop\n      dup3\n      jump\t// out\n        /* \"lab2/piggyMapping.sol\":279:619  function addClient(string memory name) external payable {... */\n    tag_27:\n        /* \"lab2/piggyMapping.sol\":375:376  0 */\n      0x00\n        /* \"lab2/piggyMapping.sol\":360:364  name */\n      dup2\n        /* \"lab2/piggyMapping.sol\":354:372  bytes(name).length */\n      mload\n        /* \"lab2/piggyMapping.sol\":354:376  bytes(name).length > 0 */\n      gt\n        /* \"lab2/piggyMapping.sol\":346:405  require(bytes(name).length > 0, \"El nombre es obligatorio\") */\n      tag_60\n      jumpi\n      mload(0x40)\n      0x08c379a000000000000000000000000000000000000000000000000000000000\n      dup2\n      mstore\n      0x04\n      add\n      tag_61\n      swap1\n      tag_62\n      jump\t// in\n    tag_61:\n      mload(0x40)\n      dup1\n      swap2\n      sub\n      swap1\n      revert\n    tag_60:\n        /* \"lab2/piggyMapping.sol\":528:529  0 */\n      0x00\n        /* \"lab2/piggyMapping.sol\":492:499  clients */\n      0x00\n        /* \"lab2/piggyMapping.sol\":492:511  clients[msg.sender] */\n      0x00\n        /* \"lab2/piggyMapping.sol\":500:510  msg.sender */\n      caller\n        /* \"lab2/piggyMapping.sol\":492:511  clients[msg.sender] */\n      0xffffffffffffffffffffffffffffffffffffffff\n      and\n      0xffffffffffffffffffffffffffffffffffffffff\n      and\n      dup2\n      mstore\n      0x20\n      add\n      swap1\n      dup2\n      mstore\n      0x20\n      add\n      0x00\n      keccak256\n        /* \"lab2/piggyMapping.sol\":492:516  clients[msg.sender].name */\n      0x00\n      add\n        /* \"lab2/piggyMapping.sol\":486:524  bytes(clients[msg.sender].name).length */\n      dup1\n      sload\n      tag_63\n      swap1\n      tag_32\n      jump\t// in\n    tag_63:\n      swap1\n      pop\n        /* \"lab2/piggyMapping.sol\":486:529  bytes(clients[msg.sender].name).length == 0 */\n      eq\n        /* \"lab2/piggyMapping.sol\":478:553  require(bytes(clients[msg.sender].name).length == 0, \"Ya estas registrado\") */\n      tag_64\n      jumpi\n      mload(0x40)\n      0x08c379a000000000000000000000000000000000000000000000000000000000\n      dup2\n      mstore\n      0x04\n      add\n      tag_65\n      swap1\n      tag_66\n      jump\t// in\n    tag_65:\n      mload(0x40)\n      dup1\n      swap2\n      sub\n      swap1\n      revert\n    tag_64:\n        /* \"lab2/piggyMapping.sol\":588:611  Client(name, msg.value) */\n      mload(0x40)\n      dup1\n      0x40\n      add\n      0x40\n      mstore\n      dup1\n        /* \"lab2/piggyMapping.sol\":595:599  name */\n      dup3\n        /* \"lab2/piggyMapping.sol\":588:611  Client(name, msg.value) */\n      dup2\n      mstore\n      0x20\n      add\n        /* \"lab2/piggyMapping.sol\":601:610  msg.value */\n      callvalue\n        /* \"lab2/piggyMapping.sol\":588:611  Client(name, msg.value) */\n      dup2\n      mstore\n      pop\n        /* \"lab2/piggyMapping.sol\":566:573  clients */\n      0x00\n        /* \"lab2/piggyMapping.sol\":566:585  clients[msg.sender] */\n      0x00\n        /* \"lab2/piggyMapping.sol\":574:584  msg.sender */\n      caller\n        /* \"lab2/piggyMapping.sol\":566:585  clients[msg.sender] */\n      0xffffffffffffffffffffffffffffffffffffffff\n      and\n      0xffffffffffffffffffffffffffffffffffffffff\n      and\n      dup2\n      mstore\n      0x20\n      add\n      swap1\n      dup2\n      mstore\n      0x20\n      add\n      0x00\n      keccak256\n        /* \"lab2/piggyMapping.sol\":566:611  clients[msg.sender] = Client(name, msg.value) */\n      0x00\n      dup3\n      add\n      mload\n      dup2\n      0x00\n      add\n      swap1\n      dup2\n      tag_67\n      swap2\n      swap1\n      tag_68\n      jump\t// in\n    tag_67:\n      pop\n      0x20\n      dup3\n      add\n      mload\n      dup2\n      0x01\n      add\n      sstore\n      swap1\n      pop\n      pop\n        /* \"lab2/piggyMapping.sol\":279:619  function addClient(string memory name) external payable {... */\n      pop\n      jump\t// out\n        /* \"lab2/piggyMapping.sol\":627:809  function deposit() external payable {... */\n    tag_29:\n        /* \"lab2/piggyMapping.sol\":723:724  0 */\n      0x00\n        /* \"lab2/piggyMapping.sol\":688:695  clients */\n      0x00\n        /* \"lab2/piggyMapping.sol\":688:707  clients[msg.sender] */\n      0x00\n        /* \"lab2/piggyMapping.sol\":696:706  msg.sender */\n      caller\n        /* \"lab2/piggyMapping.sol\":688:707  clients[msg.sender] */\n      0xffffffffffffffffffffffffffffffffffffffff\n      and\n      0xffffffffffffffffffffffffffffffffffffffff\n      and\n      dup2\n      mstore\n      0x20\n      add\n      swap1\n      dup2\n      mstore\n      0x20\n      add\n      0x00\n      keccak256\n        /* \"lab2/piggyMapping.sol\":688:712  clients[msg.sender].name */\n      0x00\n      add\n        /* \"lab2/piggyMapping.sol\":682:720  bytes(clients[msg.sender].name).length */\n      dup1\n      sload\n      tag_70\n      swap1\n      tag_32\n      jump\t// in\n    tag_70:\n      swap1\n      pop\n        /* \"lab2/piggyMapping.sol\":682:724  bytes(clients[msg.sender].name).length > 0 */\n      gt\n        /* \"lab2/piggyMapping.sol\":674:750  require(bytes(clients[msg.sender].name).length > 0, \"Cliente no registrado\") */\n      tag_71\n      jumpi\n      mload(0x40)\n      0x08c379a000000000000000000000000000000000000000000000000000000000\n      dup2\n      mstore\n      0x04\n      add\n      tag_72\n      swap1\n      tag_35\n      jump\t// in\n    tag_72:\n      mload(0x40)\n      dup1\n      swap2\n      sub\n      swap1\n      revert\n    tag_71:\n        /* \"lab2/piggyMapping.sol\":792:801  msg.value */\n      callvalue\n        /* \"lab2/piggyMapping.sol\":761:768  clients */\n      0x00\n        /* \"lab2/piggyMapping.sol\":761:780  clients[msg.sender] */\n      0x00\n        /* \"lab2/piggyMapping.sol\":769:779  msg.sender */\n      caller\n        /* \"lab2/piggyMapping.sol\":761:780  clients[msg.sender] */\n      0xffffffffffffffffffffffffffffffffffffffff\n      and\n      0xffffffffffffffffffffffffffffffffffffffff\n      and\n      dup2\n      mstore\n      0x20\n      add\n      swap1\n      dup2\n      mstore\n      0x20\n      add\n      0x00\n      keccak256\n        /* \"lab2/piggyMapping.sol\":761:788  clients[msg.sender].balance */\n      0x01\n      add\n      0x00\n        /* \"lab2/piggyMapping.sol\":761:801  clients[msg.sender].balance += msg.value */\n      dup3\n      dup3\n      sload\n      tag_73\n      swap2\n      swap1\n      tag_74\n      jump\t// in\n    tag_73:\n      swap3\n      pop\n      pop\n      dup2\n      swap1\n      sstore\n      pop\n        /* \"lab2/piggyMapping.sol\":627:809  function deposit() external payable {... */\n      jump\t// out\n        /* \"#utility.yul\":7:84   */\n    tag_75:\n        /* \"#utility.yul\":44:51   */\n      0x00\n        /* \"#utility.yul\":73:78   */\n      dup2\n        /* \"#utility.yul\":62:78   */\n      swap1\n      pop\n        /* \"#utility.yul\":7:84   */\n      swap2\n      swap1\n      pop\n      jump\t// out\n        /* \"#utility.yul\":90:208   */\n    tag_76:\n        /* \"#utility.yul\":177:201   */\n      tag_135\n        /* \"#utility.yul\":195:200   */\n      dup2\n        /* \"#utility.yul\":177:201   */\n      tag_75\n      jump\t// in\n    tag_135:\n        /* \"#utility.yul\":172:175   */\n      dup3\n        /* \"#utility.yul\":165:202   */\n      mstore\n        /* \"#utility.yul\":90:208   */\n      pop\n      pop\n      jump\t// out\n        /* \"#utility.yul\":214:436   */\n    tag_11:\n        /* \"#utility.yul\":307:311   */\n      0x00\n        /* \"#utility.yul\":345:347   */\n      0x20\n        /* \"#utility.yul\":334:343   */\n      dup3\n        /* \"#utility.yul\":330:348   */\n      add\n        /* \"#utility.yul\":322:348   */\n      swap1\n      pop\n        /* \"#utility.yul\":358:429   */\n      tag_137\n        /* \"#utility.yul\":426:427   */\n      0x00\n        /* \"#utility.yul\":415:424   */\n      dup4\n        /* \"#utility.yul\":411:428   */\n      add\n        /* \"#utility.yul\":402:408   */\n      dup5\n        /* \"#utility.yul\":358:429   */\n      tag_76\n      jump\t// in\n    tag_137:\n        /* \"#utility.yul\":214:436   */\n      swap3\n      swap2\n      pop\n      pop\n      jump\t// out\n        /* \"#utility.yul\":442:517   */\n    tag_77:\n        /* \"#utility.yul\":475:481   */\n      0x00\n        /* \"#utility.yul\":508:510   */\n      0x40\n        /* \"#utility.yul\":502:511   */\n      mload\n        /* \"#utility.yul\":492:511   */\n      swap1\n      pop\n        /* \"#utility.yul\":442:517   */\n      swap1\n      jump\t// out\n        /* \"#utility.yul\":523:640   */\n    tag_78:\n        /* \"#utility.yul\":632:633   */\n      0x00\n        /* \"#utility.yul\":629:630   */\n      0x00\n        /* \"#utility.yul\":622:634   */\n      revert\n        /* \"#utility.yul\":646:763   */\n    tag_79:\n        /* \"#utility.yul\":755:756   */\n      0x00\n        /* \"#utility.yul\":752:753   */\n      0x00\n        /* \"#utility.yul\":745:757   */\n      revert\n        /* \"#utility.yul\":769:891   */\n    tag_80:\n        /* \"#utility.yul\":842:866   */\n      tag_142\n        /* \"#utility.yul\":860:865   */\n      dup2\n        /* \"#utility.yul\":842:866   */\n      tag_75\n      jump\t// in\n    tag_142:\n        /* \"#utility.yul\":835:840   */\n      dup2\n        /* \"#utility.yul\":832:867   */\n      eq\n        /* \"#utility.yul\":822:885   */\n      tag_143\n      jumpi\n        /* \"#utility.yul\":881:882   */\n      0x00\n        /* \"#utility.yul\":878:879   */\n      0x00\n        /* \"#utility.yul\":871:883   */\n      revert\n        /* \"#utility.yul\":822:885   */\n    tag_143:\n        /* \"#utility.yul\":769:891   */\n      pop\n      jump\t// out\n        /* \"#utility.yul\":897:1036   */\n    tag_81:\n        /* \"#utility.yul\":943:948   */\n      0x00\n        /* \"#utility.yul\":981:987   */\n      dup2\n        /* \"#utility.yul\":968:988   */\n      calldataload\n        /* \"#utility.yul\":959:988   */\n      swap1\n      pop\n        /* \"#utility.yul\":997:1030   */\n      tag_145\n        /* \"#utility.yul\":1024:1029   */\n      dup2\n        /* \"#utility.yul\":997:1030   */\n      tag_80\n      jump\t// in\n    tag_145:\n        /* \"#utility.yul\":897:1036   */\n      swap3\n      swap2\n      pop\n      pop\n      jump\t// out\n        /* \"#utility.yul\":1042:1371   */\n    tag_15:\n        /* \"#utility.yul\":1101:1107   */\n      0x00\n        /* \"#utility.yul\":1150:1152   */\n      0x20\n        /* \"#utility.yul\":1138:1147   */\n      dup3\n        /* \"#utility.yul\":1129:1136   */\n      dup5\n        /* \"#utility.yul\":1125:1148   */\n      sub\n        /* \"#utility.yul\":1121:1153   */\n      slt\n        /* \"#utility.yul\":1118:1237   */\n      iszero\n      tag_147\n      jumpi\n        /* \"#utility.yul\":1156:1235   */\n      tag_148\n      tag_78\n      jump\t// in\n    tag_148:\n        /* \"#utility.yul\":1118:1237   */\n    tag_147:\n        /* \"#utility.yul\":1276:1277   */\n      0x00\n        /* \"#utility.yul\":1301:1354   */\n      tag_149\n        /* \"#utility.yul\":1346:1353   */\n      dup5\n        /* \"#utility.yul\":1337:1343   */\n      dup3\n        /* \"#utility.yul\":1326:1335   */\n      dup6\n        /* \"#utility.yul\":1322:1344   */\n      add\n        /* \"#utility.yul\":1301:1354   */\n      tag_81\n      jump\t// in\n    tag_149:\n        /* \"#utility.yul\":1291:1354   */\n      swap2\n      pop\n        /* \"#utility.yul\":1247:1364   */\n      pop\n        /* \"#utility.yul\":1042:1371   */\n      swap3\n      swap2\n      pop\n      pop\n      jump\t// out\n        /* \"#utility.yul\":1377:1503   */\n    tag_82:\n        /* \"#utility.yul\":1414:1421   */\n      0x00\n        /* \"#utility.yul\":1454:1496   */\n      0xffffffffffffffffffffffffffffffffffffffff\n        /* \"#utility.yul\":1447:1452   */\n      dup3\n        /* \"#utility.yul\":1443:1497   */\n      and\n        /* \"#utility.yul\":1432:1497   */\n      swap1\n      pop\n        /* \"#utility.yul\":1377:1503   */\n      swap2\n      swap1\n      pop\n      jump\t// out\n        /* \"#utility.yul\":1509:1605   */\n    tag_83:\n        /* \"#utility.yul\":1546:1553   */\n      0x00\n        /* \"#utility.yul\":1575:1599   */\n      tag_152\n        /* \"#utility.yul\":1593:1598   */\n      dup3\n        /* \"#utility.yul\":1575:1599   */\n      tag_82\n      jump\t// in\n    tag_152:\n        /* \"#utility.yul\":1564:1599   */\n      swap1\n      pop\n        /* \"#utility.yul\":1509:1605   */\n      swap2\n      swap1\n      pop\n      jump\t// out\n        /* \"#utility.yul\":1611:1733   */\n    tag_84:\n        /* \"#utility.yul\":1684:1708   */\n      tag_154\n        /* \"#utility.yul\":1702:1707   */\n      dup2\n        /* \"#utility.yul\":1684:1708   */\n      tag_83\n      jump\t// in\n    tag_154:\n        /* \"#utility.yul\":1677:1682   */\n      dup2\n        /* \"#utility.yul\":1674:1709   */\n      eq\n        /* \"#utility.yul\":1664:1727   */\n      tag_155\n      jumpi\n        /* \"#utility.yul\":1723:1724   */\n      0x00\n        /* \"#utility.yul\":1720:1721   */\n      0x00\n        /* \"#utility.yul\":1713:1725   */\n      revert\n        /* \"#utility.yul\":1664:1727   */\n    tag_155:\n        /* \"#utility.yul\":1611:1733   */\n      pop\n      jump\t// out\n        /* \"#utility.yul\":1739:1878   */\n    tag_85:\n        /* \"#utility.yul\":1785:1790   */\n      0x00\n        /* \"#utility.yul\":1823:1829   */\n      dup2\n        /* \"#utility.yul\":1810:1830   */\n      calldataload\n        /* \"#utility.yul\":1801:1830   */\n      swap1\n      pop\n        /* \"#utility.yul\":1839:1872   */\n      tag_157\n        /* \"#utility.yul\":1866:1871   */\n      dup2\n        /* \"#utility.yul\":1839:1872   */\n      tag_84\n      jump\t// in\n    tag_157:\n        /* \"#utility.yul\":1739:1878   */\n      swap3\n      swap2\n      pop\n      pop\n      jump\t// out\n        /* \"#utility.yul\":1884:2213   */\n    tag_20:\n        /* \"#utility.yul\":1943:1949   */\n      0x00\n        /* \"#utility.yul\":1992:1994   */\n      0x20\n        /* \"#utility.yul\":1980:1989   */\n      dup3\n        /* \"#utility.yul\":1971:1978   */\n      dup5\n        /* \"#utility.yul\":1967:1990   */\n      sub\n        /* \"#utility.yul\":1963:1995   */\n      slt\n        /* \"#utility.yul\":1960:2079   */\n      iszero\n      tag_159\n      jumpi\n        /* \"#utility.yul\":1998:2077   */\n      tag_160\n      tag_78\n      jump\t// in\n    tag_160:\n        /* \"#utility.yul\":1960:2079   */\n    tag_159:\n        /* \"#utility.yul\":2118:2119   */\n      0x00\n        /* \"#utility.yul\":2143:2196   */\n      tag_161\n        /* \"#utility.yul\":2188:2195   */\n      dup5\n        /* \"#utility.yul\":2179:2185   */\n      dup3\n        /* \"#utility.yul\":2168:2177   */\n      dup6\n        /* \"#utility.yul\":2164:2186   */\n      add\n        /* \"#utility.yul\":2143:2196   */\n      tag_85\n      jump\t// in\n    tag_161:\n        /* \"#utility.yul\":2133:2196   */\n      swap2\n      pop\n        /* \"#utility.yul\":2089:2206   */\n      pop\n        /* \"#utility.yul\":1884:2213   */\n      swap3\n      swap2\n      pop\n      pop\n      jump\t// out\n        /* \"#utility.yul\":2219:2318   */\n    tag_86:\n        /* \"#utility.yul\":2271:2277   */\n      0x00\n        /* \"#utility.yul\":2305:2310   */\n      dup2\n        /* \"#utility.yul\":2299:2311   */\n      mload\n        /* \"#utility.yul\":2289:2311   */\n      swap1\n      pop\n        /* \"#utility.yul\":2219:2318   */\n      swap2\n      swap1\n      pop\n      jump\t// out\n        /* \"#utility.yul\":2324:2493   */\n    tag_87:\n        /* \"#utility.yul\":2408:2419   */\n      0x00\n        /* \"#utility.yul\":2442:2448   */\n      dup3\n        /* \"#utility.yul\":2437:2440   */\n      dup3\n        /* \"#utility.yul\":2430:2449   */\n      mstore\n        /* \"#utility.yul\":2482:2486   */\n      0x20\n        /* \"#utility.yul\":2477:2480   */\n      dup3\n        /* \"#utility.yul\":2473:2487   */\n      add\n        /* \"#utility.yul\":2458:2487   */\n      swap1\n      pop\n        /* \"#utility.yul\":2324:2493   */\n      swap3\n      swap2\n      pop\n      pop\n      jump\t// out\n        /* \"#utility.yul\":2499:2638   */\n    tag_88:\n        /* \"#utility.yul\":2588:2594   */\n      dup3\n        /* \"#utility.yul\":2583:2586   */\n      dup2\n        /* \"#utility.yul\":2578:2581   */\n      dup4\n        /* \"#utility.yul\":2572:2595   */\n      mcopy\n        /* \"#utility.yul\":2629:2630   */\n      0x00\n        /* \"#utility.yul\":2620:2626   */\n      dup4\n        /* \"#utility.yul\":2615:2618   */\n      dup4\n        /* \"#utility.yul\":2611:2627   */\n      add\n        /* \"#utility.yul\":2604:2631   */\n      mstore\n        /* \"#utility.yul\":2499:2638   */\n      pop\n      pop\n      pop\n      jump\t// out\n        /* \"#utility.yul\":2644:2746   */\n    tag_89:\n        /* \"#utility.yul\":2685:2691   */\n      0x00\n        /* \"#utility.yul\":2736:2738   */\n      0x1f\n        /* \"#utility.yul\":2732:2739   */\n      not\n        /* \"#utility.yul\":2727:2729   */\n      0x1f\n        /* \"#utility.yul\":2720:2725   */\n      dup4\n        /* \"#utility.yul\":2716:2730   */\n      add\n        /* \"#utility.yul\":2712:2740   */\n      and\n        /* \"#utility.yul\":2702:2740   */\n      swap1\n      pop\n        /* \"#utility.yul\":2644:2746   */\n      swap2\n      swap1\n      pop\n      jump\t// out\n        /* \"#utility.yul\":2752:3129   */\n    tag_90:\n        /* \"#utility.yul\":2840:2843   */\n      0x00\n        /* \"#utility.yul\":2868:2907   */\n      tag_167\n        /* \"#utility.yul\":2901:2906   */\n      dup3\n        /* \"#utility.yul\":2868:2907   */\n      tag_86\n      jump\t// in\n    tag_167:\n        /* \"#utility.yul\":2923:2994   */\n      tag_168\n        /* \"#utility.yul\":2987:2993   */\n      dup2\n        /* \"#utility.yul\":2982:2985   */\n      dup6\n        /* \"#utility.yul\":2923:2994   */\n      tag_87\n      jump\t// in\n    tag_168:\n        /* \"#utility.yul\":2916:2994   */\n      swap4\n      pop\n        /* \"#utility.yul\":3003:3068   */\n      tag_169\n        /* \"#utility.yul\":3061:3067   */\n      dup2\n        /* \"#utility.yul\":3056:3059   */\n      dup6\n        /* \"#utility.yul\":3049:3053   */\n      0x20\n        /* \"#utility.yul\":3042:3047   */\n      dup7\n        /* \"#utility.yul\":3038:3054   */\n      add\n        /* \"#utility.yul\":3003:3068   */\n      tag_88\n      jump\t// in\n    tag_169:\n        /* \"#utility.yul\":3093:3122   */\n      tag_170\n        /* \"#utility.yul\":3115:3121   */\n      dup2\n        /* \"#utility.yul\":3093:3122   */\n      tag_89\n      jump\t// in\n    tag_170:\n        /* \"#utility.yul\":3088:3091   */\n      dup5\n        /* \"#utility.yul\":3084:3123   */\n      add\n        /* \"#utility.yul\":3077:3123   */\n      swap2\n      pop\n        /* \"#utility.yul\":2844:3129   */\n      pop\n        /* \"#utility.yul\":2752:3129   */\n      swap3\n      swap2\n      pop\n      pop\n      jump\t// out\n        /* \"#utility.yul\":3135:3558   */\n    tag_23:\n        /* \"#utility.yul\":3276:3280   */\n      0x00\n        /* \"#utility.yul\":3314:3316   */\n      0x40\n        /* \"#utility.yul\":3303:3312   */\n      dup3\n        /* \"#utility.yul\":3299:3317   */\n      add\n        /* \"#utility.yul\":3291:3317   */\n      swap1\n      pop\n        /* \"#utility.yul\":3363:3372   */\n      dup2\n        /* \"#utility.yul\":3357:3361   */\n      dup2\n        /* \"#utility.yul\":3353:3373   */\n      sub\n        /* \"#utility.yul\":3349:3350   */\n      0x00\n        /* \"#utility.yul\":3338:3347   */\n      dup4\n        /* \"#utility.yul\":3334:3351   */\n      add\n        /* \"#utility.yul\":3327:3374   */\n      mstore\n        /* \"#utility.yul\":3391:3469   */\n      tag_172\n        /* \"#utility.yul\":3464:3468   */\n      dup2\n        /* \"#utility.yul\":3455:3461   */\n      dup6\n        /* \"#utility.yul\":3391:3469   */\n      tag_90\n      jump\t// in\n    tag_172:\n        /* \"#utility.yul\":3383:3469   */\n      swap1\n      pop\n        /* \"#utility.yul\":3479:3551   */\n      tag_173\n        /* \"#utility.yul\":3547:3549   */\n      0x20\n        /* \"#utility.yul\":3536:3545   */\n      dup4\n        /* \"#utility.yul\":3532:3550   */\n      add\n        /* \"#utility.yul\":3523:3529   */\n      dup5\n        /* \"#utility.yul\":3479:3551   */\n      tag_76\n      jump\t// in\n    tag_173:\n        /* \"#utility.yul\":3135:3558   */\n      swap4\n      swap3\n      pop\n      pop\n      pop\n      jump\t// out\n        /* \"#utility.yul\":3564:3681   */\n    tag_91:\n        /* \"#utility.yul\":3673:3674   */\n      0x00\n        /* \"#utility.yul\":3670:3671   */\n      0x00\n        /* \"#utility.yul\":3663:3675   */\n      revert\n        /* \"#utility.yul\":3687:3804   */\n    tag_92:\n        /* \"#utility.yul\":3796:3797   */\n      0x00\n        /* \"#utility.yul\":3793:3794   */\n      0x00\n        /* \"#utility.yul\":3786:3798   */\n      revert\n        /* \"#utility.yul\":3810:3990   */\n    tag_93:\n        /* \"#utility.yul\":3858:3935   */\n      0x4e487b7100000000000000000000000000000000000000000000000000000000\n        /* \"#utility.yul\":3855:3856   */\n      0x00\n        /* \"#utility.yul\":3848:3936   */\n      mstore\n        /* \"#utility.yul\":3955:3959   */\n      0x41\n        /* \"#utility.yul\":3952:3953   */\n      0x04\n        /* \"#utility.yul\":3945:3960   */\n      mstore\n        /* \"#utility.yul\":3979:3983   */\n      0x24\n        /* \"#utility.yul\":3976:3977   */\n      0x00\n        /* \"#utility.yul\":3969:3984   */\n      revert\n        /* \"#utility.yul\":3996:4277   */\n    tag_94:\n        /* \"#utility.yul\":4079:4106   */\n      tag_178\n        /* \"#utility.yul\":4101:4105   */\n      dup3\n        /* \"#utility.yul\":4079:4106   */\n      tag_89\n      jump\t// in\n    tag_178:\n        /* \"#utility.yul\":4071:4077   */\n      dup2\n        /* \"#utility.yul\":4067:4107   */\n      add\n        /* \"#utility.yul\":4209:4215   */\n      dup2\n        /* \"#utility.yul\":4197:4207   */\n      dup2\n        /* \"#utility.yul\":4194:4216   */\n      lt\n        /* \"#utility.yul\":4173:4191   */\n      0xffffffffffffffff\n        /* \"#utility.yul\":4161:4171   */\n      dup3\n        /* \"#utility.yul\":4158:4192   */\n      gt\n        /* \"#utility.yul\":4155:4217   */\n      or\n        /* \"#utility.yul\":4152:4240   */\n      iszero\n      tag_179\n      jumpi\n        /* \"#utility.yul\":4220:4238   */\n      tag_180\n      tag_93\n      jump\t// in\n    tag_180:\n        /* \"#utility.yul\":4152:4240   */\n    tag_179:\n        /* \"#utility.yul\":4260:4270   */\n      dup1\n        /* \"#utility.yul\":4256:4258   */\n      0x40\n        /* \"#utility.yul\":4249:4271   */\n      mstore\n        /* \"#utility.yul\":4039:4277   */\n      pop\n        /* \"#utility.yul\":3996:4277   */\n      pop\n      pop\n      jump\t// out\n        /* \"#utility.yul\":4283:4412   */\n    tag_95:\n        /* \"#utility.yul\":4317:4323   */\n      0x00\n        /* \"#utility.yul\":4344:4364   */\n      tag_182\n      tag_77\n      jump\t// in\n    tag_182:\n        /* \"#utility.yul\":4334:4364   */\n      swap1\n      pop\n        /* \"#utility.yul\":4373:4406   */\n      tag_183\n        /* \"#utility.yul\":4401:4405   */\n      dup3\n        /* \"#utility.yul\":4393:4399   */\n      dup3\n        /* \"#utility.yul\":4373:4406   */\n      tag_94\n      jump\t// in\n    tag_183:\n        /* \"#utility.yul\":4283:4412   */\n      swap2\n      swap1\n      pop\n      jump\t// out\n        /* \"#utility.yul\":4418:4726   */\n    tag_96:\n        /* \"#utility.yul\":4480:4484   */\n      0x00\n        /* \"#utility.yul\":4570:4588   */\n      0xffffffffffffffff\n        /* \"#utility.yul\":4562:4568   */\n      dup3\n        /* \"#utility.yul\":4559:4589   */\n      gt\n        /* \"#utility.yul\":4556:4612   */\n      iszero\n      tag_185\n      jumpi\n        /* \"#utility.yul\":4592:4610   */\n      tag_186\n      tag_93\n      jump\t// in\n    tag_186:\n        /* \"#utility.yul\":4556:4612   */\n    tag_185:\n        /* \"#utility.yul\":4630:4659   */\n      tag_187\n        /* \"#utility.yul\":4652:4658   */\n      dup3\n        /* \"#utility.yul\":4630:4659   */\n      tag_89\n      jump\t// in\n    tag_187:\n        /* \"#utility.yul\":4622:4659   */\n      swap1\n      pop\n        /* \"#utility.yul\":4714:4718   */\n      0x20\n        /* \"#utility.yul\":4708:4712   */\n      dup2\n        /* \"#utility.yul\":4704:4719   */\n      add\n        /* \"#utility.yul\":4696:4719   */\n      swap1\n      pop\n        /* \"#utility.yul\":4418:4726   */\n      swap2\n      swap1\n      pop\n      jump\t// out\n        /* \"#utility.yul\":4732:4880   */\n    tag_97:\n        /* \"#utility.yul\":4830:4836   */\n      dup3\n        /* \"#utility.yul\":4825:4828   */\n      dup2\n        /* \"#utility.yul\":4820:4823   */\n      dup4\n        /* \"#utility.yul\":4807:4837   */\n      calldatacopy\n        /* \"#utility.yul\":4871:4872   */\n      0x00\n        /* \"#utility.yul\":4862:4868   */\n      dup4\n        /* \"#utility.yul\":4857:4860   */\n      dup4\n        /* \"#utility.yul\":4853:4869   */\n      add\n        /* \"#utility.yul\":4846:4873   */\n      mstore\n        /* \"#utility.yul\":4732:4880   */\n      pop\n      pop\n      pop\n      jump\t// out\n        /* \"#utility.yul\":4886:5311   */\n    tag_98:\n        /* \"#utility.yul\":4964:4969   */\n      0x00\n        /* \"#utility.yul\":4989:5055   */\n      tag_190\n        /* \"#utility.yul\":5005:5054   */\n      tag_191\n        /* \"#utility.yul\":5047:5053   */\n      dup5\n        /* \"#utility.yul\":5005:5054   */\n      tag_96\n      jump\t// in\n    tag_191:\n        /* \"#utility.yul\":4989:5055   */\n      tag_95\n      jump\t// in\n    tag_190:\n        /* \"#utility.yul\":4980:5055   */\n      swap1\n      pop\n        /* \"#utility.yul\":5078:5084   */\n      dup3\n        /* \"#utility.yul\":5071:5076   */\n      dup2\n        /* \"#utility.yul\":5064:5085   */\n      mstore\n        /* \"#utility.yul\":5116:5120   */\n      0x20\n        /* \"#utility.yul\":5109:5114   */\n      dup2\n        /* \"#utility.yul\":5105:5121   */\n      add\n        /* \"#utility.yul\":5154:5157   */\n      dup5\n        /* \"#utility.yul\":5145:5151   */\n      dup5\n        /* \"#utility.yul\":5140:5143   */\n      dup5\n        /* \"#utility.yul\":5136:5152   */\n      add\n        /* \"#utility.yul\":5133:5158   */\n      gt\n        /* \"#utility.yul\":5130:5242   */\n      iszero\n      tag_192\n      jumpi\n        /* \"#utility.yul\":5161:5240   */\n      tag_193\n      tag_92\n      jump\t// in\n    tag_193:\n        /* \"#utility.yul\":5130:5242   */\n    tag_192:\n        /* \"#utility.yul\":5251:5305   */\n      tag_194\n        /* \"#utility.yul\":5298:5304   */\n      dup5\n        /* \"#utility.yul\":5293:5296   */\n      dup3\n        /* \"#utility.yul\":5288:5291   */\n      dup6\n        /* \"#utility.yul\":5251:5305   */\n      tag_97\n      jump\t// in\n    tag_194:\n        /* \"#utility.yul\":4970:5311   */\n      pop\n        /* \"#utility.yul\":4886:5311   */\n      swap4\n      swap3\n      pop\n      pop\n      pop\n      jump\t// out\n        /* \"#utility.yul\":5331:5671   */\n    tag_99:\n        /* \"#utility.yul\":5387:5392   */\n      0x00\n        /* \"#utility.yul\":5436:5439   */\n      dup3\n        /* \"#utility.yul\":5429:5433   */\n      0x1f\n        /* \"#utility.yul\":5421:5427   */\n      dup4\n        /* \"#utility.yul\":5417:5434   */\n      add\n        /* \"#utility.yul\":5413:5440   */\n      slt\n        /* \"#utility.yul\":5403:5525   */\n      tag_196\n      jumpi\n        /* \"#utility.yul\":5444:5523   */\n      tag_197\n      tag_91\n      jump\t// in\n    tag_197:\n        /* \"#utility.yul\":5403:5525   */\n    tag_196:\n        /* \"#utility.yul\":5561:5567   */\n      dup2\n        /* \"#utility.yul\":5548:5568   */\n      calldataload\n        /* \"#utility.yul\":5586:5665   */\n      tag_198\n        /* \"#utility.yul\":5661:5664   */\n      dup5\n        /* \"#utility.yul\":5653:5659   */\n      dup3\n        /* \"#utility.yul\":5646:5650   */\n      0x20\n        /* \"#utility.yul\":5638:5644   */\n      dup7\n        /* \"#utility.yul\":5634:5651   */\n      add\n        /* \"#utility.yul\":5586:5665   */\n      tag_98\n      jump\t// in\n    tag_198:\n        /* \"#utility.yul\":5577:5665   */\n      swap2\n      pop\n        /* \"#utility.yul\":5393:5671   */\n      pop\n        /* \"#utility.yul\":5331:5671   */\n      swap3\n      swap2\n      pop\n      pop\n      jump\t// out\n        /* \"#utility.yul\":5677:6186   */\n    tag_26:\n        /* \"#utility.yul\":5746:5752   */\n      0x00\n        /* \"#utility.yul\":5795:5797   */\n      0x20\n        /* \"#utility.yul\":5783:5792   */\n      dup3\n        /* \"#utility.yul\":5774:5781   */\n      dup5\n        /* \"#utility.yul\":5770:5793   */\n      sub\n        /* \"#utility.yul\":5766:5798   */\n      slt\n        /* \"#utility.yul\":5763:5882   */\n      iszero\n      tag_200\n      jumpi\n        /* \"#utility.yul\":5801:5880   */\n      tag_201\n      tag_78\n      jump\t// in\n    tag_201:\n        /* \"#utility.yul\":5763:5882   */\n    tag_200:\n        /* \"#utility.yul\":5949:5950   */\n      0x00\n        /* \"#utility.yul\":5938:5947   */\n      dup3\n        /* \"#utility.yul\":5934:5951   */\n      add\n        /* \"#utility.yul\":5921:5952   */\n      calldataload\n        /* \"#utility.yul\":5979:5997   */\n      0xffffffffffffffff\n        /* \"#utility.yul\":5971:5977   */\n      dup2\n        /* \"#utility.yul\":5968:5998   */\n      gt\n        /* \"#utility.yul\":5965:6082   */\n      iszero\n      tag_202\n      jumpi\n        /* \"#utility.yul\":6001:6080   */\n      tag_203\n      tag_79\n      jump\t// in\n    tag_203:\n        /* \"#utility.yul\":5965:6082   */\n    tag_202:\n        /* \"#utility.yul\":6106:6169   */\n      tag_204\n        /* \"#utility.yul\":6161:6168   */\n      dup5\n        /* \"#utility.yul\":6152:6158   */\n      dup3\n        /* \"#utility.yul\":6141:6150   */\n      dup6\n        /* \"#utility.yul\":6137:6159   */\n      add\n        /* \"#utility.yul\":6106:6169   */\n      tag_99\n      jump\t// in\n    tag_204:\n        /* \"#utility.yul\":6096:6169   */\n      swap2\n      pop\n        /* \"#utility.yul\":5892:6179   */\n      pop\n        /* \"#utility.yul\":5677:6186   */\n      swap3\n      swap2\n      pop\n      pop\n      jump\t// out\n        /* \"#utility.yul\":6192:6372   */\n    tag_100:\n        /* \"#utility.yul\":6240:6317   */\n      0x4e487b7100000000000000000000000000000000000000000000000000000000\n        /* \"#utility.yul\":6237:6238   */\n      0x00\n        /* \"#utility.yul\":6230:6318   */\n      mstore\n        /* \"#utility.yul\":6337:6341   */\n      0x22\n        /* \"#utility.yul\":6334:6335   */\n      0x04\n        /* \"#utility.yul\":6327:6342   */\n      mstore\n        /* \"#utility.yul\":6361:6365   */\n      0x24\n        /* \"#utility.yul\":6358:6359   */\n      0x00\n        /* \"#utility.yul\":6351:6366   */\n      revert\n        /* \"#utility.yul\":6378:6698   */\n    tag_32:\n        /* \"#utility.yul\":6422:6428   */\n      0x00\n        /* \"#utility.yul\":6459:6460   */\n      0x02\n        /* \"#utility.yul\":6453:6457   */\n      dup3\n        /* \"#utility.yul\":6449:6461   */\n      div\n        /* \"#utility.yul\":6439:6461   */\n      swap1\n      pop\n        /* \"#utility.yul\":6506:6507   */\n      0x01\n        /* \"#utility.yul\":6500:6504   */\n      dup3\n        /* \"#utility.yul\":6496:6508   */\n      and\n        /* \"#utility.yul\":6527:6545   */\n      dup1\n        /* \"#utility.yul\":6517:6598   */\n      tag_207\n      jumpi\n        /* \"#utility.yul\":6583:6587   */\n      0x7f\n        /* \"#utility.yul\":6575:6581   */\n      dup3\n        /* \"#utility.yul\":6571:6588   */\n      and\n        /* \"#utility.yul\":6561:6588   */\n      swap2\n      pop\n        /* \"#utility.yul\":6517:6598   */\n    tag_207:\n        /* \"#utility.yul\":6645:6647   */\n      0x20\n        /* \"#utility.yul\":6637:6643   */\n      dup3\n        /* \"#utility.yul\":6634:6648   */\n      lt\n        /* \"#utility.yul\":6614:6632   */\n      dup2\n        /* \"#utility.yul\":6611:6649   */\n      sub\n        /* \"#utility.yul\":6608:6692   */\n      tag_208\n      jumpi\n        /* \"#utility.yul\":6664:6682   */\n      tag_209\n      tag_100\n      jump\t// in\n    tag_209:\n        /* \"#utility.yul\":6608:6692   */\n    tag_208:\n        /* \"#utility.yul\":6429:6698   */\n      pop\n        /* \"#utility.yul\":6378:6698   */\n      swap2\n      swap1\n      pop\n      jump\t// out\n        /* \"#utility.yul\":6704:6875   */\n    tag_101:\n        /* \"#utility.yul\":6844:6867   */\n      0x436c69656e7465206e6f207265676973747261646f0000000000000000000000\n        /* \"#utility.yul\":6840:6841   */\n      0x00\n        /* \"#utility.yul\":6832:6838   */\n      dup3\n        /* \"#utility.yul\":6828:6842   */\n      add\n        /* \"#utility.yul\":6821:6868   */\n      mstore\n        /* \"#utility.yul\":6704:6875   */\n      pop\n      jump\t// out\n        /* \"#utility.yul\":6881:7247   */\n    tag_102:\n        /* \"#utility.yul\":7023:7026   */\n      0x00\n        /* \"#utility.yul\":7044:7111   */\n      tag_212\n        /* \"#utility.yul\":7108:7110   */\n      0x15\n        /* \"#utility.yul\":7103:7106   */\n      dup4\n        /* \"#utility.yul\":7044:7111   */\n      tag_87\n      jump\t// in\n    tag_212:\n        /* \"#utility.yul\":7037:7111   */\n      swap2\n      pop\n        /* \"#utility.yul\":7120:7213   */\n      tag_213\n        /* \"#utility.yul\":7209:7212   */\n      dup3\n        /* \"#utility.yul\":7120:7213   */\n      tag_101\n      jump\t// in\n    tag_213:\n        /* \"#utility.yul\":7238:7240   */\n      0x20\n        /* \"#utility.yul\":7233:7236   */\n      dup3\n        /* \"#utility.yul\":7229:7241   */\n      add\n        /* \"#utility.yul\":7222:7241   */\n      swap1\n      pop\n        /* \"#utility.yul\":6881:7247   */\n      swap2\n      swap1\n      pop\n      jump\t// out\n        /* \"#utility.yul\":7253:7672   */\n    tag_35:\n        /* \"#utility.yul\":7419:7423   */\n      0x00\n        /* \"#utility.yul\":7457:7459   */\n      0x20\n        /* \"#utility.yul\":7446:7455   */\n      dup3\n        /* \"#utility.yul\":7442:7460   */\n      add\n        /* \"#utility.yul\":7434:7460   */\n      swap1\n      pop\n        /* \"#utility.yul\":7506:7515   */\n      dup2\n        /* \"#utility.yul\":7500:7504   */\n      dup2\n        /* \"#utility.yul\":7496:7516   */\n      sub\n        /* \"#utility.yul\":7492:7493   */\n      0x00\n        /* \"#utility.yul\":7481:7490   */\n      dup4\n        /* \"#utility.yul\":7477:7494   */\n      add\n        /* \"#utility.yul\":7470:7517   */\n      mstore\n        /* \"#utility.yul\":7534:7665   */\n      tag_215\n        /* \"#utility.yul\":7660:7664   */\n      dup2\n        /* \"#utility.yul\":7534:7665   */\n      tag_102\n      jump\t// in\n    tag_215:\n        /* \"#utility.yul\":7526:7665   */\n      swap1\n      pop\n        /* \"#utility.yul\":7253:7672   */\n      swap2\n      swap1\n      pop\n      jump\t// out\n        /* \"#utility.yul\":7678:7846   */\n    tag_103:\n        /* \"#utility.yul\":7818:7838   */\n      0x4e6f206572657320756e20636c69656e74650000000000000000000000000000\n        /* \"#utility.yul\":7814:7815   */\n      0x00\n        /* \"#utility.yul\":7806:7812   */\n      dup3\n        /* \"#utility.yul\":7802:7816   */\n      add\n        /* \"#utility.yul\":7795:7839   */\n      mstore\n        /* \"#utility.yul\":7678:7846   */\n      pop\n      jump\t// out\n        /* \"#utility.yul\":7852:8218   */\n    tag_104:\n        /* \"#utility.yul\":7994:7997   */\n      0x00\n        /* \"#utility.yul\":8015:8082   */\n      tag_218\n        /* \"#utility.yul\":8079:8081   */\n      0x12\n        /* \"#utility.yul\":8074:8077   */\n      dup4\n        /* \"#utility.yul\":8015:8082   */\n      tag_87\n      jump\t// in\n    tag_218:\n        /* \"#utility.yul\":8008:8082   */\n      swap2\n      pop\n        /* \"#utility.yul\":8091:8184   */\n      tag_219\n        /* \"#utility.yul\":8180:8183   */\n      dup3\n        /* \"#utility.yul\":8091:8184   */\n      tag_103\n      jump\t// in\n    tag_219:\n        /* \"#utility.yul\":8209:8211   */\n      0x20\n        /* \"#utility.yul\":8204:8207   */\n      dup3\n        /* \"#utility.yul\":8200:8212   */\n      add\n        /* \"#utility.yul\":8193:8212   */\n      swap1\n      pop\n        /* \"#utility.yul\":7852:8218   */\n      swap2\n      swap1\n      pop\n      jump\t// out\n        /* \"#utility.yul\":8224:8643   */\n    tag_40:\n        /* \"#utility.yul\":8390:8394   */\n      0x00\n        /* \"#utility.yul\":8428:8430   */\n      0x20\n        /* \"#utility.yul\":8417:8426   */\n      dup3\n        /* \"#utility.yul\":8413:8431   */\n      add\n        /* \"#utility.yul\":8405:8431   */\n      swap1\n      pop\n        /* \"#utility.yul\":8477:8486   */\n      dup2\n        /* \"#utility.yul\":8471:8475   */\n      dup2\n        /* \"#utility.yul\":8467:8487   */\n      sub\n        /* \"#utility.yul\":8463:8464   */\n      0x00\n        /* \"#utility.yul\":8452:8461   */\n      dup4\n        /* \"#utility.yul\":8448:8465   */\n      add\n        /* \"#utility.yul\":8441:8488   */\n      mstore\n        /* \"#utility.yul\":8505:8636   */\n      tag_221\n        /* \"#utility.yul\":8631:8635   */\n      dup2\n        /* \"#utility.yul\":8505:8636   */\n      tag_104\n      jump\t// in\n    tag_221:\n        /* \"#utility.yul\":8497:8636   */\n      swap1\n      pop\n        /* \"#utility.yul\":8224:8643   */\n      swap2\n      swap1\n      pop\n      jump\t// out\n        /* \"#utility.yul\":8649:8817   */\n    tag_105:\n        /* \"#utility.yul\":8789:8809   */\n      0x53616c646f20696e737566696369656e74650000000000000000000000000000\n        /* \"#utility.yul\":8785:8786   */\n      0x00\n        /* \"#utility.yul\":8777:8783   */\n      dup3\n        /* \"#utility.yul\":8773:8787   */\n      add\n        /* \"#utility.yul\":8766:8810   */\n      mstore\n        /* \"#utility.yul\":8649:8817   */\n      pop\n      jump\t// out\n        /* \"#utility.yul\":8823:9189   */\n    tag_106:\n        /* \"#utility.yul\":8965:8968   */\n      0x00\n        /* \"#utility.yul\":8986:9053   */\n      tag_224\n        /* \"#utility.yul\":9050:9052   */\n      0x12\n        /* \"#utility.yul\":9045:9048   */\n      dup4\n        /* \"#utility.yul\":8986:9053   */\n      tag_87\n      jump\t// in\n    tag_224:\n        /* \"#utility.yul\":8979:9053   */\n      swap2\n      pop\n        /* \"#utility.yul\":9062:9155   */\n      tag_225\n        /* \"#utility.yul\":9151:9154   */\n      dup3\n        /* \"#utility.yul\":9062:9155   */\n      tag_105\n      jump\t// in\n    tag_225:\n        /* \"#utility.yul\":9180:9182   */\n      0x20\n        /* \"#utility.yul\":9175:9178   */\n      dup3\n        /* \"#utility.yul\":9171:9183   */\n      add\n        /* \"#utility.yul\":9164:9183   */\n      swap1\n      pop\n        /* \"#utility.yul\":8823:9189   */\n      swap2\n      swap1\n      pop\n      jump\t// out\n        /* \"#utility.yul\":9195:9614   */\n    tag_43:\n        /* \"#utility.yul\":9361:9365   */\n      0x00\n        /* \"#utility.yul\":9399:9401   */\n      0x20\n        /* \"#utility.yul\":9388:9397   */\n      dup3\n        /* \"#utility.yul\":9384:9402   */\n      add\n        /* \"#utility.yul\":9376:9402   */\n      swap1\n      pop\n        /* \"#utility.yul\":9448:9457   */\n      dup2\n        /* \"#utility.yul\":9442:9446   */\n      dup2\n        /* \"#utility.yul\":9438:9458   */\n      sub\n        /* \"#utility.yul\":9434:9435   */\n      0x00\n        /* \"#utility.yul\":9423:9432   */\n      dup4\n        /* \"#utility.yul\":9419:9436   */\n      add\n        /* \"#utility.yul\":9412:9459   */\n      mstore\n        /* \"#utility.yul\":9476:9607   */\n      tag_227\n        /* \"#utility.yul\":9602:9606   */\n      dup2\n        /* \"#utility.yul\":9476:9607   */\n      tag_106\n      jump\t// in\n    tag_227:\n        /* \"#utility.yul\":9468:9607   */\n      swap1\n      pop\n        /* \"#utility.yul\":9195:9614   */\n      swap2\n      swap1\n      pop\n      jump\t// out\n        /* \"#utility.yul\":9620:9800   */\n    tag_107:\n        /* \"#utility.yul\":9668:9745   */\n      0x4e487b7100000000000000000000000000000000000000000000000000000000\n        /* \"#utility.yul\":9665:9666   */\n      0x00\n        /* \"#utility.yul\":9658:9746   */\n      mstore\n        /* \"#utility.yul\":9765:9769   */\n      0x11\n        /* \"#utility.yul\":9762:9763   */\n      0x04\n        /* \"#utility.yul\":9755:9770   */\n      mstore\n        /* \"#utility.yul\":9789:9793   */\n      0x24\n        /* \"#utility.yul\":9786:9787   */\n      0x00\n        /* \"#utility.yul\":9779:9794   */\n      revert\n        /* \"#utility.yul\":9806:10000   */\n    tag_45:\n        /* \"#utility.yul\":9846:9850   */\n      0x00\n        /* \"#utility.yul\":9866:9886   */\n      tag_230\n        /* \"#utility.yul\":9884:9885   */\n      dup3\n        /* \"#utility.yul\":9866:9886   */\n      tag_75\n      jump\t// in\n    tag_230:\n        /* \"#utility.yul\":9861:9886   */\n      swap2\n      pop\n        /* \"#utility.yul\":9900:9920   */\n      tag_231\n        /* \"#utility.yul\":9918:9919   */\n      dup4\n        /* \"#utility.yul\":9900:9920   */\n      tag_75\n      jump\t// in\n    tag_231:\n        /* \"#utility.yul\":9895:9920   */\n      swap3\n      pop\n        /* \"#utility.yul\":9944:9945   */\n      dup3\n        /* \"#utility.yul\":9941:9942   */\n      dup3\n        /* \"#utility.yul\":9937:9946   */\n      sub\n        /* \"#utility.yul\":9929:9946   */\n      swap1\n      pop\n        /* \"#utility.yul\":9968:9969   */\n      dup2\n        /* \"#utility.yul\":9962:9966   */\n      dup2\n        /* \"#utility.yul\":9959:9970   */\n      gt\n        /* \"#utility.yul\":9956:9993   */\n      iszero\n      tag_232\n      jumpi\n        /* \"#utility.yul\":9973:9991   */\n      tag_233\n      tag_107\n      jump\t// in\n    tag_233:\n        /* \"#utility.yul\":9956:9993   */\n    tag_232:\n        /* \"#utility.yul\":9806:10000   */\n      swap3\n      swap2\n      pop\n      pop\n      jump\t// out\n        /* \"#utility.yul\":10006:10153   */\n    tag_108:\n        /* \"#utility.yul\":10107:10118   */\n      0x00\n        /* \"#utility.yul\":10144:10147   */\n      dup2\n        /* \"#utility.yul\":10129:10147   */\n      swap1\n      pop\n        /* \"#utility.yul\":10006:10153   */\n      swap3\n      swap2\n      pop\n      pop\n      jump\t// out\n        /* \"#utility.yul\":10159:10273   */\n    tag_109:\n      pop\n      jump\t// out\n        /* \"#utility.yul\":10279:10677   */\n    tag_110:\n        /* \"#utility.yul\":10438:10441   */\n      0x00\n        /* \"#utility.yul\":10459:10542   */\n      tag_237\n        /* \"#utility.yul\":10540:10541   */\n      0x00\n        /* \"#utility.yul\":10535:10538   */\n      dup4\n        /* \"#utility.yul\":10459:10542   */\n      tag_108\n      jump\t// in\n    tag_237:\n        /* \"#utility.yul\":10452:10542   */\n      swap2\n      pop\n        /* \"#utility.yul\":10551:10644   */\n      tag_238\n        /* \"#utility.yul\":10640:10643   */\n      dup3\n        /* \"#utility.yul\":10551:10644   */\n      tag_109\n      jump\t// in\n    tag_238:\n        /* \"#utility.yul\":10669:10670   */\n      0x00\n        /* \"#utility.yul\":10664:10667   */\n      dup3\n        /* \"#utility.yul\":10660:10671   */\n      add\n        /* \"#utility.yul\":10653:10671   */\n      swap1\n      pop\n        /* \"#utility.yul\":10279:10677   */\n      swap2\n      swap1\n      pop\n      jump\t// out\n        /* \"#utility.yul\":10683:11062   */\n    tag_47:\n        /* \"#utility.yul\":10867:10870   */\n      0x00\n        /* \"#utility.yul\":10889:11036   */\n      tag_240\n        /* \"#utility.yul\":11032:11035   */\n      dup3\n        /* \"#utility.yul\":10889:11036   */\n      tag_110\n      jump\t// in\n    tag_240:\n        /* \"#utility.yul\":10882:11036   */\n      swap2\n      pop\n        /* \"#utility.yul\":11053:11056   */\n      dup2\n        /* \"#utility.yul\":11046:11056   */\n      swap1\n      pop\n        /* \"#utility.yul\":10683:11062   */\n      swap2\n      swap1\n      pop\n      jump\t// out\n        /* \"#utility.yul\":11068:11243   */\n    tag_111:\n        /* \"#utility.yul\":11208:11235   */\n      0x46616c6c6f20656e206c61207472616e73666572656e63696100000000000000\n        /* \"#utility.yul\":11204:11205   */\n      0x00\n        /* \"#utility.yul\":11196:11202   */\n      dup3\n        /* \"#utility.yul\":11192:11206   */\n      add\n        /* \"#utility.yul\":11185:11236   */\n      mstore\n        /* \"#utility.yul\":11068:11243   */\n      pop\n      jump\t// out\n        /* \"#utility.yul\":11249:11615   */\n    tag_112:\n        /* \"#utility.yul\":11391:11394   */\n      0x00\n        /* \"#utility.yul\":11412:11479   */\n      tag_243\n        /* \"#utility.yul\":11476:11478   */\n      0x19\n        /* \"#utility.yul\":11471:11474   */\n      dup4\n        /* \"#utility.yul\":11412:11479   */\n      tag_87\n      jump\t// in\n    tag_243:\n        /* \"#utility.yul\":11405:11479   */\n      swap2\n      pop\n        /* \"#utility.yul\":11488:11581   */\n      tag_244\n        /* \"#utility.yul\":11577:11580   */\n      dup3\n        /* \"#utility.yul\":11488:11581   */\n      tag_111\n      jump\t// in\n    tag_244:\n        /* \"#utility.yul\":11606:11608   */\n      0x20\n        /* \"#utility.yul\":11601:11604   */\n      dup3\n        /* \"#utility.yul\":11597:11609   */\n      add\n        /* \"#utility.yul\":11590:11609   */\n      swap1\n      pop\n        /* \"#utility.yul\":11249:11615   */\n      swap2\n      swap1\n      pop\n      jump\t// out\n        /* \"#utility.yul\":11621:12040   */\n    tag_53:\n        /* \"#utility.yul\":11787:11791   */\n      0x00\n        /* \"#utility.yul\":11825:11827   */\n      0x20\n        /* \"#utility.yul\":11814:11823   */\n      dup3\n        /* \"#utility.yul\":11810:11828   */\n      add\n        /* \"#utility.yul\":11802:11828   */\n      swap1\n      pop\n        /* \"#utility.yul\":11874:11883   */\n      dup2\n        /* \"#utility.yul\":11868:11872   */\n      dup2\n        /* \"#utility.yul\":11864:11884   */\n      sub\n        /* \"#utility.yul\":11860:11861   */\n      0x00\n        /* \"#utility.yul\":11849:11858   */\n      dup4\n        /* \"#utility.yul\":11845:11862   */\n      add\n        /* \"#utility.yul\":11838:11885   */\n      mstore\n        /* \"#utility.yul\":11902:12033   */\n      tag_246\n        /* \"#utility.yul\":12028:12032   */\n      dup2\n        /* \"#utility.yul\":11902:12033   */\n      tag_112\n      jump\t// in\n    tag_246:\n        /* \"#utility.yul\":11894:12033   */\n      swap1\n      pop\n        /* \"#utility.yul\":11621:12040   */\n      swap2\n      swap1\n      pop\n      jump\t// out\n        /* \"#utility.yul\":12046:12220   */\n    tag_113:\n        /* \"#utility.yul\":12186:12212   */\n      0x456c206e6f6d627265206573206f626c696761746f72696f0000000000000000\n        /* \"#utility.yul\":12182:12183   */\n      0x00\n        /* \"#utility.yul\":12174:12180   */\n      dup3\n        /* \"#utility.yul\":12170:12184   */\n      add\n        /* \"#utility.yul\":12163:12213   */\n      mstore\n        /* \"#utility.yul\":12046:12220   */\n      pop\n      jump\t// out\n        /* \"#utility.yul\":12226:12592   */\n    tag_114:\n        /* \"#utility.yul\":12368:12371   */\n      0x00\n        /* \"#utility.yul\":12389:12456   */\n      tag_249\n        /* \"#utility.yul\":12453:12455   */\n      0x18\n        /* \"#utility.yul\":12448:12451   */\n      dup4\n        /* \"#utility.yul\":12389:12456   */\n      tag_87\n      jump\t// in\n    tag_249:\n        /* \"#utility.yul\":12382:12456   */\n      swap2\n      pop\n        /* \"#utility.yul\":12465:12558   */\n      tag_250\n        /* \"#utility.yul\":12554:12557   */\n      dup3\n        /* \"#utility.yul\":12465:12558   */\n      tag_113\n      jump\t// in\n    tag_250:\n        /* \"#utility.yul\":12583:12585   */\n      0x20\n        /* \"#utility.yul\":12578:12581   */\n      dup3\n        /* \"#utility.yul\":12574:12586   */\n      add\n        /* \"#utility.yul\":12567:12586   */\n      swap1\n      pop\n        /* \"#utility.yul\":12226:12592   */\n      swap2\n      swap1\n      pop\n      jump\t// out\n        /* \"#utility.yul\":12598:13017   */\n    tag_62:\n        /* \"#utility.yul\":12764:12768   */\n      0x00\n        /* \"#utility.yul\":12802:12804   */\n      0x20\n        /* \"#utility.yul\":12791:12800   */\n      dup3\n        /* \"#utility.yul\":12787:12805   */\n      add\n        /* \"#utility.yul\":12779:12805   */\n      swap1\n      pop\n        /* \"#utility.yul\":12851:12860   */\n      dup2\n        /* \"#utility.yul\":12845:12849   */\n      dup2\n        /* \"#utility.yul\":12841:12861   */\n      sub\n        /* \"#utility.yul\":12837:12838   */\n      0x00\n        /* \"#utility.yul\":12826:12835   */\n      dup4\n        /* \"#utility.yul\":12822:12839   */\n      add\n        /* \"#utility.yul\":12815:12862   */\n      mstore\n        /* \"#utility.yul\":12879:13010   */\n      tag_252\n        /* \"#utility.yul\":13005:13009   */\n      dup2\n        /* \"#utility.yul\":12879:13010   */\n      tag_114\n      jump\t// in\n    tag_252:\n        /* \"#utility.yul\":12871:13010   */\n      swap1\n      pop\n        /* \"#utility.yul\":12598:13017   */\n      swap2\n      swap1\n      pop\n      jump\t// out\n        /* \"#utility.yul\":13023:13192   */\n    tag_115:\n        /* \"#utility.yul\":13163:13184   */\n      0x5961206573746173207265676973747261646f00000000000000000000000000\n        /* \"#utility.yul\":13159:13160   */\n      0x00\n        /* \"#utility.yul\":13151:13157   */\n      dup3\n        /* \"#utility.yul\":13147:13161   */\n      add\n        /* \"#utility.yul\":13140:13185   */\n      mstore\n        /* \"#utility.yul\":13023:13192   */\n      pop\n      jump\t// out\n        /* \"#utility.yul\":13198:13564   */\n    tag_116:\n        /* \"#utility.yul\":13340:13343   */\n      0x00\n        /* \"#utility.yul\":13361:13428   */\n      tag_255\n        /* \"#utility.yul\":13425:13427   */\n      0x13\n        /* \"#utility.yul\":13420:13423   */\n      dup4\n        /* \"#utility.yul\":13361:13428   */\n      tag_87\n      jump\t// in\n    tag_255:\n        /* \"#utility.yul\":13354:13428   */\n      swap2\n      pop\n        /* \"#utility.yul\":13437:13530   */\n      tag_256\n        /* \"#utility.yul\":13526:13529   */\n      dup3\n        /* \"#utility.yul\":13437:13530   */\n      tag_115\n      jump\t// in\n    tag_256:\n        /* \"#utility.yul\":13555:13557   */\n      0x20\n        /* \"#utility.yul\":13550:13553   */\n      dup3\n        /* \"#utility.yul\":13546:13558   */\n      add\n        /* \"#utility.yul\":13539:13558   */\n      swap1\n      pop\n        /* \"#utility.yul\":13198:13564   */\n      swap2\n      swap1\n      pop\n      jump\t// out\n        /* \"#utility.yul\":13570:13989   */\n    tag_66:\n        /* \"#utility.yul\":13736:13740   */\n      0x00\n        /* \"#utility.yul\":13774:13776   */\n      0x20\n        /* \"#utility.yul\":13763:13772   */\n      dup3\n        /* \"#utility.yul\":13759:13777   */\n      add\n        /* \"#utility.yul\":13751:13777   */\n      swap1\n      pop\n        /* \"#utility.yul\":13823:13832   */\n      dup2\n        /* \"#utility.yul\":13817:13821   */\n      dup2\n        /* \"#utility.yul\":13813:13833   */\n      sub\n        /* \"#utility.yul\":13809:13810   */\n      0x00\n        /* \"#utility.yul\":13798:13807   */\n      dup4\n        /* \"#utility.yul\":13794:13811   */\n      add\n        /* \"#utility.yul\":13787:13834   */\n      mstore\n        /* \"#utility.yul\":13851:13982   */\n      tag_258\n        /* \"#utility.yul\":13977:13981   */\n      dup2\n        /* \"#utility.yul\":13851:13982   */\n      tag_116\n      jump\t// in\n    tag_258:\n        /* \"#utility.yul\":13843:13982   */\n      swap1\n      pop\n        /* \"#utility.yul\":13570:13989   */\n      swap2\n      swap1\n      pop\n      jump\t// out\n        /* \"#utility.yul\":13995:14136   */\n    tag_117:\n        /* \"#utility.yul\":14044:14048   */\n      0x00\n        /* \"#utility.yul\":14067:14070   */\n      dup2\n        /* \"#utility.yul\":14059:14070   */\n      swap1\n      pop\n        /* \"#utility.yul\":14090:14093   */\n      dup2\n        /* \"#utility.yul\":14087:14088   */\n      0x00\n        /* \"#utility.yul\":14080:14094   */\n      mstore\n        /* \"#utility.yul\":14124:14128   */\n      0x20\n        /* \"#utility.yul\":14121:14122   */\n      0x00\n        /* \"#utility.yul\":14111:14129   */\n      keccak256\n        /* \"#utility.yul\":14103:14129   */\n      swap1\n      pop\n        /* \"#utility.yul\":13995:14136   */\n      swap2\n      swap1\n      pop\n      jump\t// out\n        /* \"#utility.yul\":14142:14235   */\n    tag_118:\n        /* \"#utility.yul\":14179:14185   */\n      0x00\n        /* \"#utility.yul\":14226:14228   */\n      0x20\n        /* \"#utility.yul\":14221:14223   */\n      0x1f\n        /* \"#utility.yul\":14214:14219   */\n      dup4\n        /* \"#utility.yul\":14210:14224   */\n      add\n        /* \"#utility.yul\":14206:14229   */\n      div\n        /* \"#utility.yul\":14196:14229   */\n      swap1\n      pop\n        /* \"#utility.yul\":14142:14235   */\n      swap2\n      swap1\n      pop\n      jump\t// out\n        /* \"#utility.yul\":14241:14348   */\n    tag_119:\n        /* \"#utility.yul\":14285:14293   */\n      0x00\n        /* \"#utility.yul\":14335:14340   */\n      dup3\n        /* \"#utility.yul\":14329:14333   */\n      dup3\n        /* \"#utility.yul\":14325:14341   */\n      shl\n        /* \"#utility.yul\":14304:14341   */\n      swap1\n      pop\n        /* \"#utility.yul\":14241:14348   */\n      swap3\n      swap2\n      pop\n      pop\n      jump\t// out\n        /* \"#utility.yul\":14354:14747   */\n    tag_120:\n        /* \"#utility.yul\":14423:14429   */\n      0x00\n        /* \"#utility.yul\":14473:14474   */\n      0x08\n        /* \"#utility.yul\":14461:14471   */\n      dup4\n        /* \"#utility.yul\":14457:14475   */\n      mul\n        /* \"#utility.yul\":14496:14593   */\n      tag_263\n        /* \"#utility.yul\":14526:14592   */\n      0xffffffffffffffffffffffffffffffffffffffffffffffffffffffffffffffff\n        /* \"#utility.yul\":14515:14524   */\n      dup3\n        /* \"#utility.yul\":14496:14593   */\n      tag_119\n      jump\t// in\n    tag_263:\n        /* \"#utility.yul\":14614:14653   */\n      tag_264\n        /* \"#utility.yul\":14644:14652   */\n      dup7\n        /* \"#utility.yul\":14633:14642   */\n      dup4\n        /* \"#utility.yul\":14614:14653   */\n      tag_119\n      jump\t// in\n    tag_264:\n        /* \"#utility.yul\":14602:14653   */\n      swap6\n      pop\n        /* \"#utility.yul\":14686:14690   */\n      dup1\n        /* \"#utility.yul\":14682:14691   */\n      not\n        /* \"#utility.yul\":14675:14680   */\n      dup5\n        /* \"#utility.yul\":14671:14692   */\n      and\n        /* \"#utility.yul\":14662:14692   */\n      swap4\n      pop\n        /* \"#utility.yul\":14735:14739   */\n      dup1\n        /* \"#utility.yul\":14725:14733   */\n      dup7\n        /* \"#utility.yul\":14721:14740   */\n      and\n        /* \"#utility.yul\":14714:14719   */\n      dup5\n        /* \"#utility.yul\":14711:14741   */\n      or\n        /* \"#utility.yul\":14701:14741   */\n      swap3\n      pop\n        /* \"#utility.yul\":14430:14747   */\n      pop\n      pop\n        /* \"#utility.yul\":14354:14747   */\n      swap4\n      swap3\n      pop\n      pop\n      pop\n      jump\t// out\n        /* \"#utility.yul\":14753:14813   */\n    tag_121:\n        /* \"#utility.yul\":14781:14784   */\n      0x00\n        /* \"#utility.yul\":14802:14807   */\n      dup2\n        /* \"#utility.yul\":14795:14807   */\n      swap1\n      pop\n        /* \"#utility.yul\":14753:14813   */\n      swap2\n      swap1\n      pop\n      jump\t// out\n        /* \"#utility.yul\":14819:14961   */\n    tag_122:\n        /* \"#utility.yul\":14869:14878   */\n      0x00\n        /* \"#utility.yul\":14902:14955   */\n      tag_267\n        /* \"#utility.yul\":14920:14954   */\n      tag_268\n        /* \"#utility.yul\":14929:14953   */\n      tag_269\n        /* \"#utility.yul\":14947:14952   */\n      dup5\n        /* \"#utility.yul\":14929:14953   */\n      tag_75\n      jump\t// in\n    tag_269:\n        /* \"#utility.yul\":14920:14954   */\n      tag_121\n      jump\t// in\n    tag_268:\n        /* \"#utility.yul\":14902:14955   */\n      tag_75\n      jump\t// in\n    tag_267:\n        /* \"#utility.yul\":14889:14955   */\n      swap1\n      pop\n        /* \"#utility.yul\":14819:14961   */\n      swap2\n      swap1\n      pop\n      jump\t// out\n        /* \"#utility.yul\":14967:15042   */\n    tag_123:\n        /* \"#utility.yul\":15010:15013   */\n      0x00\n        /* \"#utility.yul\":15031:15036   */\n      dup2\n        /* \"#utility.yul\":15024:15036   */\n      swap1\n      pop\n        /* \"#utility.yul\":14967:15042   */\n      swap2\n      swap1\n      pop\n      jump\t// out\n        /* \"#utility.yul\":15048:15317   */\n    tag_124:\n        /* \"#utility.yul\":15158:15197   */\n      tag_272\n        /* \"#utility.yul\":15189:15196   */\n      dup4\n        /* \"#utility.yul\":15158:15197   */\n      tag_122\n      jump\t// in\n    tag_272:\n        /* \"#utility.yul\":15219:15310   */\n      tag_273\n        /* \"#utility.yul\":15268:15309   */\n      tag_274\n        /* \"#utility.yul\":15292:15308   */\n      dup3\n        /* \"#utility.yul\":15268:15309   */\n      tag_123\n      jump\t// in\n    tag_274:\n        /* \"#utility.yul\":15260:15266   */\n      dup5\n        /* \"#utility.yul\":15253:15257   */\n      dup5\n        /* \"#utility.yul\":15247:15258   */\n      sload\n        /* \"#utility.yul\":15219:15310   */\n      tag_120\n      jump\t// in\n    tag_273:\n        /* \"#utility.yul\":15213:15217   */\n      dup3\n        /* \"#utility.yul\":15206:15311   */\n      sstore\n        /* \"#utility.yul\":15124:15317   */\n      pop\n        /* \"#utility.yul\":15048:15317   */\n      pop\n      pop\n      pop\n      jump\t// out\n        /* \"#utility.yul\":15323:15396   */\n    tag_125:\n        /* \"#utility.yul\":15368:15371   */\n      0x00\n        /* \"#utility.yul\":15389:15390   */\n      0x00\n        /* \"#utility.yul\":15382:15390   */\n      swap1\n      pop\n        /* \"#utility.yul\":15323:15396   */\n      swap1\n      jump\t// out\n        /* \"#utility.yul\":15402:15591   */\n    tag_126:\n        /* \"#utility.yul\":15479:15511   */\n      tag_277\n      tag_125\n      jump\t// in\n    tag_277:\n        /* \"#utility.yul\":15520:15585   */\n      tag_278\n        /* \"#utility.yul\":15578:15584   */\n      dup2\n        /* \"#utility.yul\":15570:15576   */\n      dup5\n        /* \"#utility.yul\":15564:15568   */\n      dup5\n        /* \"#utility.yul\":15520:15585   */\n      tag_124\n      jump\t// in\n    tag_278:\n        /* \"#utility.yul\":15455:15591   */\n      pop\n        /* \"#utility.yul\":15402:15591   */\n      pop\n      pop\n      jump\t// out\n        /* \"#utility.yul\":15597:15783   */\n    tag_127:\n        /* \"#utility.yul\":15657:15777   */\n    tag_280:\n        /* \"#utility.yul\":15674:15677   */\n      dup2\n        /* \"#utility.yul\":15667:15672   */\n      dup2\n        /* \"#utility.yul\":15664:15678   */\n      lt\n        /* \"#utility.yul\":15657:15777   */\n      iszero\n      tag_282\n      jumpi\n        /* \"#utility.yul\":15728:15767   */\n      tag_283\n        /* \"#utility.yul\":15765:15766   */\n      0x00\n        /* \"#utility.yul\":15758:15763   */\n      dup3\n        /* \"#utility.yul\":15728:15767   */\n      tag_126\n      jump\t// in\n    tag_283:\n        /* \"#utility.yul\":15701:15702   */\n      0x01\n        /* \"#utility.yul\":15694:15699   */\n      dup2\n        /* \"#utility.yul\":15690:15703   */\n      add\n        /* \"#utility.yul\":15681:15703   */\n      swap1\n      pop\n        /* \"#utility.yul\":15657:15777   */\n      jump(tag_280)\n    tag_282:\n        /* \"#utility.yul\":15597:15783   */\n      pop\n      pop\n      jump\t// out\n        /* \"#utility.yul\":15789:16332   */\n    tag_128:\n        /* \"#utility.yul\":15890:15892   */\n      0x1f\n        /* \"#utility.yul\":15885:15888   */\n      dup3\n        /* \"#utility.yul\":15882:15893   */\n      gt\n        /* \"#utility.yul\":15879:16325   */\n      iszero\n      tag_285\n      jumpi\n        /* \"#utility.yul\":15924:15962   */\n      tag_286\n        /* \"#utility.yul\":15956:15961   */\n      dup2\n        /* \"#utility.yul\":15924:15962   */\n      tag_117\n      jump\t// in\n    tag_286:\n        /* \"#utility.yul\":16008:16037   */\n      tag_287\n        /* \"#utility.yul\":16026:16036   */\n      dup5\n        /* \"#utility.yul\":16008:16037   */\n      tag_118\n      jump\t// in\n    tag_287:\n        /* \"#utility.yul\":15998:16006   */\n      dup2\n        /* \"#utility.yul\":15994:16038   */\n      add\n        /* \"#utility.yul\":16191:16193   */\n      0x20\n        /* \"#utility.yul\":16179:16189   */\n      dup6\n        /* \"#utility.yul\":16176:16194   */\n      lt\n        /* \"#utility.yul\":16173:16222   */\n      iszero\n      tag_288\n      jumpi\n        /* \"#utility.yul\":16212:16220   */\n      dup2\n        /* \"#utility.yul\":16197:16220   */\n      swap1\n      pop\n        /* \"#utility.yul\":16173:16222   */\n    tag_288:\n        /* \"#utility.yul\":16235:16315   */\n      tag_289\n        /* \"#utility.yul\":16291:16313   */\n      tag_290\n        /* \"#utility.yul\":16309:16312   */\n      dup6\n        /* \"#utility.yul\":16291:16313   */\n      tag_118\n      jump\t// in\n    tag_290:\n        /* \"#utility.yul\":16281:16289   */\n      dup4\n        /* \"#utility.yul\":16277:16314   */\n      add\n        /* \"#utility.yul\":16264:16275   */\n      dup3\n        /* \"#utility.yul\":16235:16315   */\n      tag_127\n      jump\t// in\n    tag_289:\n        /* \"#utility.yul\":15894:16325   */\n      pop\n      pop\n        /* \"#utility.yul\":15879:16325   */\n    tag_285:\n        /* \"#utility.yul\":15789:16332   */\n      pop\n      pop\n      pop\n      jump\t// out\n        /* \"#utility.yul\":16338:16455   */\n    tag_129:\n        /* \"#utility.yul\":16392:16400   */\n      0x00\n        /* \"#utility.yul\":16442:16447   */\n      dup3\n        /* \"#utility.yul\":16436:16440   */\n      dup3\n        /* \"#utility.yul\":16432:16448   */\n      shr\n        /* \"#utility.yul\":16411:16448   */\n      swap1\n      pop\n        /* \"#utility.yul\":16338:16455   */\n      swap3\n      swap2\n      pop\n      pop\n      jump\t// out\n        /* \"#utility.yul\":16461:16630   */\n    tag_130:\n        /* \"#utility.yul\":16505:16511   */\n      0x00\n        /* \"#utility.yul\":16538:16589   */\n      tag_293\n        /* \"#utility.yul\":16586:16587   */\n      0x00\n        /* \"#utility.yul\":16582:16588   */\n      not\n        /* \"#utility.yul\":16574:16579   */\n      dup5\n        /* \"#utility.yul\":16571:16572   */\n      0x08\n        /* \"#utility.yul\":16567:16580   */\n      mul\n        /* \"#utility.yul\":16538:16589   */\n      tag_129\n      jump\t// in\n    tag_293:\n        /* \"#utility.yul\":16534:16590   */\n      not\n        /* \"#utility.yul\":16619:16623   */\n      dup1\n        /* \"#utility.yul\":16613:16617   */\n      dup4\n        /* \"#utility.yul\":16609:16624   */\n      and\n        /* \"#utility.yul\":16599:16624   */\n      swap2\n      pop\n        /* \"#utility.yul\":16512:16630   */\n      pop\n        /* \"#utility.yul\":16461:16630   */\n      swap3\n      swap2\n      pop\n      pop\n      jump\t// out\n        /* \"#utility.yul\":16635:16930   */\n    tag_131:\n        /* \"#utility.yul\":16711:16715   */\n      0x00\n        /* \"#utility.yul\":16857:16886   */\n      tag_295\n        /* \"#utility.yul\":16882:16885   */\n      dup4\n        /* \"#utility.yul\":16876:16880   */\n      dup4\n        /* \"#utility.yul\":16857:16886   */\n      tag_130\n      jump\t// in\n    tag_295:\n        /* \"#utility.yul\":16849:16886   */\n      swap2\n      pop\n        /* \"#utility.yul\":16919:16922   */\n      dup3\n        /* \"#utility.yul\":16916:16917   */\n      0x02\n        /* \"#utility.yul\":16912:16923   */\n      mul\n        /* \"#utility.yul\":16906:16910   */\n      dup3\n        /* \"#utility.yul\":16903:16924   */\n      or\n        /* \"#utility.yul\":16895:16924   */\n      swap1\n      pop\n        /* \"#utility.yul\":16635:16930   */\n      swap3\n      swap2\n      pop\n      pop\n      jump\t// out\n        /* \"#utility.yul\":16935:18330   */\n    tag_68:\n        /* \"#utility.yul\":17052:17089   */\n      tag_297\n        /* \"#utility.yul\":17085:17088   */\n      dup3\n        /* \"#utility.yul\":17052:17089   */\n      tag_86\n      jump\t// in\n    tag_297:\n        /* \"#utility.yul\":17154:17172   */\n      0xffffffffffffffff\n        /* \"#utility.yul\":17146:17152   */\n      dup2\n        /* \"#utility.yul\":17143:17173   */\n      gt\n        /* \"#utility.yul\":17140:17196   */\n      iszero\n      tag_298\n      jumpi\n        /* \"#utility.yul\":17176:17194   */\n      tag_299\n      tag_93\n      jump\t// in\n    tag_299:\n        /* \"#utility.yul\":17140:17196   */\n    tag_298:\n        /* \"#utility.yul\":17220:17258   */\n      tag_300\n        /* \"#utility.yul\":17252:17256   */\n      dup3\n        /* \"#utility.yul\":17246:17257   */\n      sload\n        /* \"#utility.yul\":17220:17258   */\n      tag_32\n      jump\t// in\n    tag_300:\n        /* \"#utility.yul\":17305:17372   */\n      tag_301\n        /* \"#utility.yul\":17365:17371   */\n      dup3\n        /* \"#utility.yul\":17357:17363   */\n      dup3\n        /* \"#utility.yul\":17351:17355   */\n      dup6\n        /* \"#utility.yul\":17305:17372   */\n      tag_128\n      jump\t// in\n    tag_301:\n        /* \"#utility.yul\":17399:17400   */\n      0x00\n        /* \"#utility.yul\":17423:17427   */\n      0x20\n        /* \"#utility.yul\":17410:17427   */\n      swap1\n      pop\n        /* \"#utility.yul\":17455:17457   */\n      0x1f\n        /* \"#utility.yul\":17447:17453   */\n      dup4\n        /* \"#utility.yul\":17444:17458   */\n      gt\n        /* \"#utility.yul\":17472:17473   */\n      0x01\n        /* \"#utility.yul\":17467:18085   */\n      dup2\n      eq\n      tag_303\n      jumpi\n        /* \"#utility.yul\":18129:18130   */\n      0x00\n        /* \"#utility.yul\":18146:18152   */\n      dup5\n        /* \"#utility.yul\":18143:18220   */\n      iszero\n      tag_304\n      jumpi\n        /* \"#utility.yul\":18195:18204   */\n      dup3\n        /* \"#utility.yul\":18190:18193   */\n      dup8\n        /* \"#utility.yul\":18186:18205   */\n      add\n        /* \"#utility.yul\":18180:18206   */\n      mload\n        /* \"#utility.yul\":18171:18206   */\n      swap1\n      pop\n        /* \"#utility.yul\":18143:18220   */\n    tag_304:\n        /* \"#utility.yul\":18246:18313   */\n      tag_305\n        /* \"#utility.yul\":18306:18312   */\n      dup6\n        /* \"#utility.yul\":18299:18304   */\n      dup3\n        /* \"#utility.yul\":18246:18313   */\n      tag_131\n      jump\t// in\n    tag_305:\n        /* \"#utility.yul\":18240:18244   */\n      dup7\n        /* \"#utility.yul\":18233:18314   */\n      sstore\n        /* \"#utility.yul\":18102:18324   */\n      pop\n        /* \"#utility.yul\":17437:18324   */\n      jump(tag_302)\n        /* \"#utility.yul\":17467:18085   */\n    tag_303:\n        /* \"#utility.yul\":17519:17523   */\n      0x1f\n        /* \"#utility.yul\":17515:17524   */\n      not\n        /* \"#utility.yul\":17507:17513   */\n      dup5\n        /* \"#utility.yul\":17503:17525   */\n      and\n        /* \"#utility.yul\":17553:17590   */\n      tag_306\n        /* \"#utility.yul\":17585:17589   */\n      dup7\n        /* \"#utility.yul\":17553:17590   */\n      tag_117\n      jump\t// in\n    tag_306:\n        /* \"#utility.yul\":17612:17613   */\n      0x00\n        /* \"#utility.yul\":17626:17834   */\n    tag_307:\n        /* \"#utility.yul\":17640:17647   */\n      dup3\n        /* \"#utility.yul\":17637:17638   */\n      dup2\n        /* \"#utility.yul\":17634:17648   */\n      lt\n        /* \"#utility.yul\":17626:17834   */\n      iszero\n      tag_309\n      jumpi\n        /* \"#utility.yul\":17719:17728   */\n      dup5\n        /* \"#utility.yul\":17714:17717   */\n      dup10\n        /* \"#utility.yul\":17710:17729   */\n      add\n        /* \"#utility.yul\":17704:17730   */\n      mload\n        /* \"#utility.yul\":17696:17702   */\n      dup3\n        /* \"#utility.yul\":17689:17731   */\n      sstore\n        /* \"#utility.yul\":17770:17771   */\n      0x01\n        /* \"#utility.yul\":17762:17768   */\n      dup3\n        /* \"#utility.yul\":17758:17772   */\n      add\n        /* \"#utility.yul\":17748:17772   */\n      swap2\n      pop\n        /* \"#utility.yul\":17817:17819   */\n      0x20\n        /* \"#utility.yul\":17806:17815   */\n      dup6\n        /* \"#utility.yul\":17802:17820   */\n      add\n        /* \"#utility.yul\":17789:17820   */\n      swap5\n      pop\n        /* \"#utility.yul\":17663:17667   */\n      0x20\n        /* \"#utility.yul\":17660:17661   */\n      dup2\n        /* \"#utility.yul\":17656:17668   */\n      add\n        /* \"#utility.yul\":17651:17668   */\n      swap1\n      pop\n        /* \"#utility.yul\":17626:17834   */\n      jump(tag_307)\n    tag_309:\n        /* \"#utility.yul\":17862:17868   */\n      dup7\n        /* \"#utility.yul\":17853:17860   */\n      dup4\n        /* \"#utility.yul\":17850:17869   */\n      lt\n        /* \"#utility.yul\":17847:18026   */\n      iszero\n      tag_310\n      jumpi\n        /* \"#utility.yul\":17920:17929   */\n      dup5\n        /* \"#utility.yul\":17915:17918   */\n      dup10\n        /* \"#utility.yul\":17911:17930   */\n      add\n        /* \"#utility.yul\":17905:17931   */\n      mload\n        /* \"#utility.yul\":17963:18011   */\n      tag_311\n        /* \"#utility.yul\":18005:18009   */\n      0x1f\n        /* \"#utility.yul\":17997:18003   */\n      dup10\n        /* \"#utility.yul\":17993:18010   */\n      and\n        /* \"#utility.yul\":17982:17991   */\n      dup3\n        /* \"#utility.yul\":17963:18011   */\n      tag_130\n      jump\t// in\n    tag_311:\n        /* \"#utility.yul\":17955:17961   */\n      dup4\n        /* \"#utility.yul\":17948:18012   */\n      sstore\n        /* \"#utility.yul\":17870:18026   */\n      pop\n        /* \"#utility.yul\":17847:18026   */\n    tag_310:\n        /* \"#utility.yul\":18072:18073   */\n      0x01\n        /* \"#utility.yul\":18068:18069   */\n      0x02\n        /* \"#utility.yul\":18060:18066   */\n      dup9\n        /* \"#utility.yul\":18056:18070   */\n      mul\n        /* \"#utility.yul\":18052:18074   */\n      add\n        /* \"#utility.yul\":18046:18050   */\n      dup9\n        /* \"#utility.yul\":18039:18075   */\n      sstore\n        /* \"#utility.yul\":17474:18085   */\n      pop\n      pop\n      pop\n        /* \"#utility.yul\":17437:18324   */\n    tag_302:\n      pop\n        /* \"#utility.yul\":17027:18330   */\n      pop\n      pop\n      pop\n        /* \"#utility.yul\":16935:18330   */\n      pop\n      pop\n      jump\t// out\n        /* \"#utility.yul\":18336:18527   */\n    tag_74:\n        /* \"#utility.yul\":18376:18379   */\n      0x00\n        /* \"#utility.yul\":18395:18415   */\n      tag_313\n        /* \"#utility.yul\":18413:18414   */\n      dup3\n        /* \"#utility.yul\":18395:18415   */\n      tag_75\n      jump\t// in\n    tag_313:\n        /* \"#utility.yul\":18390:18415   */\n      swap2\n      pop\n        /* \"#utility.yul\":18429:18449   */\n      tag_314\n        /* \"#utility.yul\":18447:18448   */\n      dup4\n        /* \"#utility.yul\":18429:18449   */\n      tag_75\n      jump\t// in\n    tag_314:\n        /* \"#utility.yul\":18424:18449   */\n      swap3\n      pop\n        /* \"#utility.yul\":18472:18473   */\n      dup3\n        /* \"#utility.yul\":18469:18470   */\n      dup3\n        /* \"#utility.yul\":18465:18474   */\n      add\n        /* \"#utility.yul\":18458:18474   */\n      swap1\n      pop\n        /* \"#utility.yul\":18493:18496   */\n      dup1\n        /* \"#utility.yul\":18490:18491   */\n      dup3\n        /* \"#utility.yul\":18487:18497   */\n      gt\n        /* \"#utility.yul\":18484:18520   */\n      iszero\n      tag_315\n      jumpi\n        /* \"#utility.yul\":18500:18518   */\n      tag_316\n      tag_107\n      jump\t// in\n    tag_316:\n        /* \"#utility.yul\":18484:18520   */\n    tag_315:\n        /* \"#utility.yul\":18336:18527   */\n      swap3\n      swap2\n      pop\n      pop\n      jump\t// out\n\n    auxdata: 0xa26469706673582212201b71ddcadeb43d336dd83851f63f6846d68af5f316caa6579d10fd62ac4fcbbc64736f6c634300081f0033\n}\n",
				"bytecode": {
					"linkReferences": {},
					"object": "6080604052348015600e575f5ffd5b506110228061001c5f395ff3fe608060405260043610610049575f3560e01c806312065fe01461004d5780632e1a7d4d1461007757806361eed2a91461009f57806379b7f303146100dc578063d0e30db0146100f8575b5f5ffd5b348015610058575f5ffd5b50610061610102565b60405161006e91906106c7565b60405180910390f35b348015610082575f5ffd5b5061009d6004803603810190610098919061071b565b6101d4565b005b3480156100aa575f5ffd5b506100c560048036038101906100c091906107a0565b6103e3565b6040516100d392919061083b565b60405180910390f35b6100f660048036038101906100f19190610995565b610488565b005b6101006105cc565b005b5f5f5f5f3373ffffffffffffffffffffffffffffffffffffffff1673ffffffffffffffffffffffffffffffffffffffff1681526020019081526020015f205f01805461014d90610a09565b90501161018f576040517f08c379a000000000000000000000000000000000000000000000000000000000815260040161018690610a83565b60405180910390fd5b5f5f3373ffffffffffffffffffffffffffffffffffffffff1673ffffffffffffffffffffffffffffffffffffffff1681526020019081526020015f2060010154905090565b5f5f5f3373ffffffffffffffffffffffffffffffffffffffff1673ffffffffffffffffffffffffffffffffffffffff1681526020019081526020015f205f01805461021e90610a09565b905011610260576040517f08c379a000000000000000000000000000000000000000000000000000000000815260040161025790610aeb565b60405180910390fd5b805f5f3373ffffffffffffffffffffffffffffffffffffffff1673ffffffffffffffffffffffffffffffffffffffff1681526020019081526020015f206001015410156102e2576040517f08c379a00000000000000000000000000000000000000000000000000000000081526004016102d990610b53565b60405180910390fd5b805f5f3373ffffffffffffffffffffffffffffffffffffffff1673ffffffffffffffffffffffffffffffffffffffff1681526020019081526020015f206001015f8282546103309190610b9e565b925050819055505f3373ffffffffffffffffffffffffffffffffffffffff168260405161035c90610bfe565b5f6040518083038185875af1925050503d805f8114610396576040519150601f19603f3d011682016040523d82523d5f602084013e61039b565b606091505b50509050806103df576040517f08c379a00000000000000000000000000000000000000000000000000000000081526004016103d690610c5c565b60405180910390fd5b5050565b5f602052805f5260405f205f91509050805f01805461040190610a09565b80601f016020809104026020016040519081016040528092919081815260200182805461042d90610a09565b80156104785780601f1061044f57610100808354040283529160200191610478565b820191905f5260205f20905b81548152906001019060200180831161045b57829003601f168201915b5050505050908060010154905082565b5f8151116104cb576040517f08c379a00000000000000000000000000000000000000000000000000000000081526004016104c290610cc4565b60405180910390fd5b5f5f5f3373ffffffffffffffffffffffffffffffffffffffff1673ffffffffffffffffffffffffffffffffffffffff1681526020019081526020015f205f01805461051590610a09565b905014610557576040517f08c379a000000000000000000000000000000000000000000000000000000000815260040161054e90610d2c565b60405180910390fd5b6040518060400160405280828152602001348152505f5f3373ffffffffffffffffffffffffffffffffffffffff1673ffffffffffffffffffffffffffffffffffffffff1681526020019081526020015f205f820151815f0190816105bb9190610eea565b506020820151816001015590505050565b5f5f5f3373ffffffffffffffffffffffffffffffffffffffff1673ffffffffffffffffffffffffffffffffffffffff1681526020019081526020015f205f01805461061690610a09565b905011610658576040517f08c379a000000000000000000000000000000000000000000000000000000000815260040161064f90610a83565b60405180910390fd5b345f5f3373ffffffffffffffffffffffffffffffffffffffff1673ffffffffffffffffffffffffffffffffffffffff1681526020019081526020015f206001015f8282546106a69190610fb9565b92505081905550565b5f819050919050565b6106c1816106af565b82525050565b5f6020820190506106da5f8301846106b8565b92915050565b5f604051905090565b5f5ffd5b5f5ffd5b6106fa816106af565b8114610704575f5ffd5b50565b5f81359050610715816106f1565b92915050565b5f602082840312156107305761072f6106e9565b5b5f61073d84828501610707565b91505092915050565b5f73ffffffffffffffffffffffffffffffffffffffff82169050919050565b5f61076f82610746565b9050919050565b61077f81610765565b8114610789575f5ffd5b50565b5f8135905061079a81610776565b92915050565b5f602082840312156107b5576107b46106e9565b5b5f6107c28482850161078c565b91505092915050565b5f81519050919050565b5f82825260208201905092915050565b8281835e5f83830152505050565b5f601f19601f8301169050919050565b5f61080d826107cb565b61081781856107d5565b93506108278185602086016107e5565b610830816107f3565b840191505092915050565b5f6040820190508181035f8301526108538185610803565b905061086260208301846106b8565b9392505050565b5f5ffd5b5f5ffd5b7f4e487b71000000000000000000000000000000000000000000000000000000005f52604160045260245ffd5b6108a7826107f3565b810181811067ffffffffffffffff821117156108c6576108c5610871565b5b80604052505050565b5f6108d86106e0565b90506108e4828261089e565b919050565b5f67ffffffffffffffff82111561090357610902610871565b5b61090c826107f3565b9050602081019050919050565b828183375f83830152505050565b5f610939610934846108e9565b6108cf565b9050828152602081018484840111156109555761095461086d565b5b610960848285610919565b509392505050565b5f82601f83011261097c5761097b610869565b5b813561098c848260208601610927565b91505092915050565b5f602082840312156109aa576109a96106e9565b5b5f82013567ffffffffffffffff8111156109c7576109c66106ed565b5b6109d384828501610968565b91505092915050565b7f4e487b71000000000000000000000000000000000000000000000000000000005f52602260045260245ffd5b5f6002820490506001821680610a2057607f821691505b602082108103610a3357610a326109dc565b5b50919050565b7f436c69656e7465206e6f207265676973747261646f00000000000000000000005f82015250565b5f610a6d6015836107d5565b9150610a7882610a39565b602082019050919050565b5f6020820190508181035f830152610a9a81610a61565b9050919050565b7f4e6f206572657320756e20636c69656e746500000000000000000000000000005f82015250565b5f610ad56012836107d5565b9150610ae082610aa1565b602082019050919050565b5f6020820190508181035f830152610b0281610ac9565b9050919050565b7f53616c646f20696e737566696369656e746500000000000000000000000000005f82015250565b5f610b3d6012836107d5565b9150610b4882610b09565b602082019050919050565b5f6020820190508181035f830152610b6a81610b31565b9050919050565b7f4e487b71000000000000000000000000000000000000000000000000000000005f52601160045260245ffd5b5f610ba8826106af565b9150610bb3836106af565b9250828203905081811115610bcb57610bca610b71565b5b92915050565b5f81905092915050565b50565b5f610be95f83610bd1565b9150610bf482610bdb565b5f82019050919050565b5f610c0882610bde565b9150819050919050565b7f46616c6c6f20656e206c61207472616e73666572656e636961000000000000005f82015250565b5f610c466019836107d5565b9150610c5182610c12565b602082019050919050565b5f6020820190508181035f830152610c7381610c3a565b9050919050565b7f456c206e6f6d627265206573206f626c696761746f72696f00000000000000005f82015250565b5f610cae6018836107d5565b9150610cb982610c7a565b602082019050919050565b5f6020820190508181035f830152610cdb81610ca2565b9050919050565b7f5961206573746173207265676973747261646f000000000000000000000000005f82015250565b5f610d166013836107d5565b9150610d2182610ce2565b602082019050919050565b5f6020820190508181035f830152610d4381610d0a565b9050919050565b5f819050815f5260205f209050919050565b5f6020601f8301049050919050565b5f82821b905092915050565b5f60088302610da67fffffffffffffffffffffffffffffffffffffffffffffffffffffffffffffffff82610d6b565b610db08683610d6b565b95508019841693508086168417925050509392505050565b5f819050919050565b5f610deb610de6610de1846106af565b610dc8565b6106af565b9050919050565b5f819050919050565b610e0483610dd1565b610e18610e1082610df2565b848454610d77565b825550505050565b5f5f905090565b610e2f610e20565b610e3a818484610dfb565b505050565b5b81811015610e5d57610e525f82610e27565b600181019050610e40565b5050565b601f821115610ea257610e7381610d4a565b610e7c84610d5c565b81016020851015610e8b578190505b610e9f610e9785610d5c565b830182610e3f565b50505b505050565b5f82821c905092915050565b5f610ec25f1984600802610ea7565b1980831691505092915050565b5f610eda8383610eb3565b9150826002028217905092915050565b610ef3826107cb565b67ffffffffffffffff811115610f0c57610f0b610871565b5b610f168254610a09565b610f21828285610e61565b5f60209050601f831160018114610f52575f8415610f40578287015190505b610f4a8582610ecf565b865550610fb1565b601f198416610f6086610d4a565b5f5b82811015610f8757848901518255600182019150602085019450602081019050610f62565b86831015610fa45784890151610fa0601f891682610eb3565b8355505b6001600288020188555050505b505050505050565b5f610fc3826106af565b9150610fce836106af565b9250828201905080821115610fe657610fe5610b71565b5b9291505056fea26469706673582212201b71ddcadeb43d336dd83851f63f6846d68af5f316caa6579d10fd62ac4fcbbc64736f6c634300081f0033",
					"opcodes": "PUSH1 0x80 PUSH1 0x40 MSTORE CALLVALUE DUP1 ISZERO PUSH1 0xE JUMPI PUSH0 PUSH0 REVERT JUMPDEST POP PUSH2 0x1022 DUP1 PUSH2 0x1C PUSH0 CODECOPY PUSH0 RETURN INVALID PUSH1 0x80 PUSH1 0x40 MSTORE PUSH1 0x4 CALLDATASIZE LT PUSH2 0x49 JUMPI PUSH0 CALLDATALOAD PUSH1 0xE0 SHR DUP1 PUSH4 0x12065FE0 EQ PUSH2 0x4D JUMPI DUP1 PUSH4 0x2E1A7D4D EQ PUSH2 0x77 JUMPI DUP1 PUSH4 0x61EED2A9 EQ PUSH2 0x9F JUMPI DUP1 PUSH4 0x79B7F303 EQ PUSH2 0xDC JUMPI DUP1 PUSH4 0xD0E30DB0 EQ PUSH2 0xF8 JUMPI JUMPDEST PUSH0 PUSH0 REVERT JUMPDEST CALLVALUE DUP1 ISZERO PUSH2 0x58 JUMPI PUSH0 PUSH0 REVERT JUMPDEST POP PUSH2 0x61 PUSH2 0x102 JUMP JUMPDEST PUSH1 0x40 MLOAD PUSH2 0x6E SWAP2 SWAP1 PUSH2 0x6C7 JUMP JUMPDEST PUSH1 0x40 MLOAD DUP1 SWAP2 SUB SWAP1 RETURN JUMPDEST CALLVALUE DUP1 ISZERO PUSH2 0x82 JUMPI PUSH0 PUSH0 REVERT JUMPDEST POP PUSH2 0x9D PUSH1 0x4 DUP1 CALLDATASIZE SUB DUP2 ADD SWAP1 PUSH2 0x98 SWAP2 SWAP1 PUSH2 0x71B JUMP JUMPDEST PUSH2 0x1D4 JUMP JUMPDEST STOP JUMPDEST CALLVALUE DUP1 ISZERO PUSH2 0xAA JUMPI PUSH0 PUSH0 REVERT JUMPDEST POP PUSH2 0xC5 PUSH1 0x4 DUP1 CALLDATASIZE SUB DUP2 ADD SWAP1 PUSH2 0xC0 SWAP2 SWAP1 PUSH2 0x7A0 JUMP JUMPDEST PUSH2 0x3E3 JUMP JUMPDEST PUSH1 0x40 MLOAD PUSH2 0xD3 SWAP3 SWAP2 SWAP1 PUSH2 0x83B JUMP JUMPDEST PUSH1 0x40 MLOAD DUP1 SWAP2 SUB SWAP1 RETURN JUMPDEST PUSH2 0xF6 PUSH1 0x4 DUP1 CALLDATASIZE SUB DUP2 ADD SWAP1 PUSH2 0xF1 SWAP2 SWAP1 PUSH2 0x995 JUMP JUMPDEST PUSH2 0x488 JUMP JUMPDEST STOP JUMPDEST PUSH2 0x100 PUSH2 0x5CC JUMP JUMPDEST STOP JUMPDEST PUSH0 PUSH0 PUSH0 PUSH0 CALLER PUSH20 0xFFFFFFFFFFFFFFFFFFFFFFFFFFFFFFFFFFFFFFFF AND PUSH20 0xFFFFFFFFFFFFFFFFFFFFFFFFFFFFFFFFFFFFFFFF AND DUP2 MSTORE PUSH1 0x20 ADD SWAP1 DUP2 MSTORE PUSH1 0x20 ADD PUSH0 KECCAK256 PUSH0 ADD DUP1 SLOAD PUSH2 0x14D SWAP1 PUSH2 0xA09 JUMP JUMPDEST SWAP1 POP GT PUSH2 0x18F JUMPI PUSH1 0x40 MLOAD PUSH32 0x8C379A000000000000000000000000000000000000000000000000000000000 DUP2 MSTORE PUSH1 0x4 ADD PUSH2 0x186 SWAP1 PUSH2 0xA83 JUMP JUMPDEST PUSH1 0x40 MLOAD DUP1 SWAP2 SUB SWAP1 REVERT JUMPDEST PUSH0 PUSH0 CALLER PUSH20 0xFFFFFFFFFFFFFFFFFFFFFFFFFFFFFFFFFFFFFFFF AND PUSH20 0xFFFFFFFFFFFFFFFFFFFFFFFFFFFFFFFFFFFFFFFF AND DUP2 MSTORE PUSH1 0x20 ADD SWAP1 DUP2 MSTORE PUSH1 0x20 ADD PUSH0 KECCAK256 PUSH1 0x1 ADD SLOAD SWAP1 POP SWAP1 JUMP JUMPDEST PUSH0 PUSH0 PUSH0 CALLER PUSH20 0xFFFFFFFFFFFFFFFFFFFFFFFFFFFFFFFFFFFFFFFF AND PUSH20 0xFFFFFFFFFFFFFFFFFFFFFFFFFFFFFFFFFFFFFFFF AND DUP2 MSTORE PUSH1 0x20 ADD SWAP1 DUP2 MSTORE PUSH1 0x20 ADD PUSH0 KECCAK256 PUSH0 ADD DUP1 SLOAD PUSH2 0x21E SWAP1 PUSH2 0xA09 JUMP JUMPDEST SWAP1 POP GT PUSH2 0x260 JUMPI PUSH1 0x40 MLOAD PUSH32 0x8C379A000000000000000000000000000000000000000000000000000000000 DUP2 MSTORE PUSH1 0x4 ADD PUSH2 0x257 SWAP1 PUSH2 0xAEB JUMP JUMPDEST PUSH1 0x40 MLOAD DUP1 SWAP2 SUB SWAP1 REVERT JUMPDEST DUP1 PUSH0 PUSH0 CALLER PUSH20 0xFFFFFFFFFFFFFFFFFFFFFFFFFFFFFFFFFFFFFFFF AND PUSH20 0xFFFFFFFFFFFFFFFFFFFFFFFFFFFFFFFFFFFFFFFF AND DUP2 MSTORE PUSH1 0x20 ADD SWAP1 DUP2 MSTORE PUSH1 0x20 ADD PUSH0 KECCAK256 PUSH1 0x1 ADD SLOAD LT ISZERO PUSH2 0x2E2 JUMPI PUSH1 0x40 MLOAD PUSH32 0x8C379A000000000000000000000000000000000000000000000000000000000 DUP2 MSTORE PUSH1 0x4 ADD PUSH2 0x2D9 SWAP1 PUSH2 0xB53 JUMP JUMPDEST PUSH1 0x40 MLOAD DUP1 SWAP2 SUB SWAP1 REVERT JUMPDEST DUP1 PUSH0 PUSH0 CALLER PUSH20 0xFFFFFFFFFFFFFFFFFFFFFFFFFFFFFFFFFFFFFFFF AND PUSH20 0xFFFFFFFFFFFFFFFFFFFFFFFFFFFFFFFFFFFFFFFF AND DUP2 MSTORE PUSH1 0x20 ADD SWAP1 DUP2 MSTORE PUSH1 0x20 ADD PUSH0 KECCAK256 PUSH1 0x1 ADD PUSH0 DUP3 DUP3 SLOAD PUSH2 0x330 SWAP2 SWAP1 PUSH2 0xB9E JUMP JUMPDEST SWAP3 POP POP DUP2 SWAP1 SSTORE POP PUSH0 CALLER PUSH20 0xFFFFFFFFFFFFFFFFFFFFFFFFFFFFFFFFFFFFFFFF AND DUP3 PUSH1 0x40 MLOAD PUSH2 0x35C SWAP1 PUSH2 0xBFE JUMP JUMPDEST PUSH0 PUSH1 0x40 MLOAD DUP1 DUP4 SUB DUP2 DUP6 DUP8 GAS CALL SWAP3 POP POP POP RETURNDATASIZE DUP1 PUSH0 DUP2 EQ PUSH2 0x396 JUMPI PUSH1 0x40 MLOAD SWAP2 POP PUSH1 0x1F NOT PUSH1 0x3F RETURNDATASIZE ADD AND DUP3 ADD PUSH1 0x40 MSTORE RETURNDATASIZE DUP3 MSTORE RETURNDATASIZE PUSH0 PUSH1 0x20 DUP5 ADD RETURNDATACOPY PUSH2 0x39B JUMP JUMPDEST PUSH1 0x60 SWAP2 POP JUMPDEST POP POP SWAP1 POP DUP1 PUSH2 0x3DF JUMPI PUSH1 0x40 MLOAD PUSH32 0x8C379A000000000000000000000000000000000000000000000000000000000 DUP2 MSTORE PUSH1 0x4 ADD PUSH2 0x3D6 SWAP1 PUSH2 0xC5C JUMP JUMPDEST PUSH1 0x40 MLOAD DUP1 SWAP2 SUB SWAP1 REVERT JUMPDEST POP POP JUMP JUMPDEST PUSH0 PUSH1 0x20 MSTORE DUP1 PUSH0 MSTORE PUSH1 0x40 PUSH0 KECCAK256 PUSH0 SWAP2 POP SWAP1 POP DUP1 PUSH0 ADD DUP1 SLOAD PUSH2 0x401 SWAP1 PUSH2 0xA09 JUMP JUMPDEST DUP1 PUSH1 0x1F ADD PUSH1 0x20 DUP1 SWAP2 DIV MUL PUSH1 0x20 ADD PUSH1 0x40 MLOAD SWAP1 DUP2 ADD PUSH1 0x40 MSTORE DUP1 SWAP3 SWAP2 SWAP1 DUP2 DUP2 MSTORE PUSH1 0x20 ADD DUP3 DUP1 SLOAD PUSH2 0x42D SWAP1 PUSH2 0xA09 JUMP JUMPDEST DUP1 ISZERO PUSH2 0x478 JUMPI DUP1 PUSH1 0x1F LT PUSH2 0x44F JUMPI PUSH2 0x100 DUP1 DUP4 SLOAD DIV MUL DUP4 MSTORE SWAP2 PUSH1 0x20 ADD SWAP2 PUSH2 0x478 JUMP JUMPDEST DUP3 ADD SWAP2 SWAP1 PUSH0 MSTORE PUSH1 0x20 PUSH0 KECCAK256 SWAP1 JUMPDEST DUP2 SLOAD DUP2 MSTORE SWAP1 PUSH1 0x1 ADD SWAP1 PUSH1 0x20 ADD DUP1 DUP4 GT PUSH2 0x45B JUMPI DUP3 SWAP1 SUB PUSH1 0x1F AND DUP3 ADD SWAP2 JUMPDEST POP POP POP POP POP SWAP1 DUP1 PUSH1 0x1 ADD SLOAD SWAP1 POP DUP3 JUMP JUMPDEST PUSH0 DUP2 MLOAD GT PUSH2 0x4CB JUMPI PUSH1 0x40 MLOAD PUSH32 0x8C379A000000000000000000000000000000000000000000000000000000000 DUP2 MSTORE PUSH1 0x4 ADD PUSH2 0x4C2 SWAP1 PUSH2 0xCC4 JUMP JUMPDEST PUSH1 0x40 MLOAD DUP1 SWAP2 SUB SWAP1 REVERT JUMPDEST PUSH0 PUSH0 PUSH0 CALLER PUSH20 0xFFFFFFFFFFFFFFFFFFFFFFFFFFFFFFFFFFFFFFFF AND PUSH20 0xFFFFFFFFFFFFFFFFFFFFFFFFFFFFFFFFFFFFFFFF AND DUP2 MSTORE PUSH1 0x20 ADD SWAP1 DUP2 MSTORE PUSH1 0x20 ADD PUSH0 KECCAK256 PUSH0 ADD DUP1 SLOAD PUSH2 0x515 SWAP1 PUSH2 0xA09 JUMP JUMPDEST SWAP1 POP EQ PUSH2 0x557 JUMPI PUSH1 0x40 MLOAD PUSH32 0x8C379A000000000000000000000000000000000000000000000000000000000 DUP2 MSTORE PUSH1 0x4 ADD PUSH2 0x54E SWAP1 PUSH2 0xD2C JUMP JUMPDEST PUSH1 0x40 MLOAD DUP1 SWAP2 SUB SWAP1 REVERT JUMPDEST PUSH1 0x40 MLOAD DUP1 PUSH1 0x40 ADD PUSH1 0x40 MSTORE DUP1 DUP3 DUP2 MSTORE PUSH1 0x20 ADD CALLVALUE DUP2 MSTORE POP PUSH0 PUSH0 CALLER PUSH20 0xFFFFFFFFFFFFFFFFFFFFFFFFFFFFFFFFFFFFFFFF AND PUSH20 0xFFFFFFFFFFFFFFFFFFFFFFFFFFFFFFFFFFFFFFFF AND DUP2 MSTORE PUSH1 0x20 ADD SWAP1 DUP2 MSTORE PUSH1 0x20 ADD PUSH0 KECCAK256 PUSH0 DUP3 ADD MLOAD DUP2 PUSH0 ADD SWAP1 DUP2 PUSH2 0x5BB SWAP2 SWAP1 PUSH2 0xEEA JUMP JUMPDEST POP PUSH1 0x20 DUP3 ADD MLOAD DUP2 PUSH1 0x1 ADD SSTORE SWAP1 POP POP POP JUMP JUMPDEST PUSH0 PUSH0 PUSH0 CALLER PUSH20 0xFFFFFFFFFFFFFFFFFFFFFFFFFFFFFFFFFFFFFFFF AND PUSH20 0xFFFFFFFFFFFFFFFFFFFFFFFFFFFFFFFFFFFFFFFF AND DUP2 MSTORE PUSH1 0x20 ADD SWAP1 DUP2 MSTORE PUSH1 0x20 ADD PUSH0 KECCAK256 PUSH0 ADD DUP1 SLOAD PUSH2 0x616 SWAP1 PUSH2 0xA09 JUMP JUMPDEST SWAP1 POP GT PUSH2 0x658 JUMPI PUSH1 0x40 MLOAD PUSH32 0x8C379A000000000000000000000000000000000000000000000000000000000 DUP2 MSTORE PUSH1 0x4 ADD PUSH2 0x64F SWAP1 PUSH2 0xA83 JUMP JUMPDEST PUSH1 0x40 MLOAD DUP1 SWAP2 SUB SWAP1 REVERT JUMPDEST CALLVALUE PUSH0 PUSH0 CALLER PUSH20 0xFFFFFFFFFFFFFFFFFFFFFFFFFFFFFFFFFFFFFFFF AND PUSH20 0xFFFFFFFFFFFFFFFFFFFFFFFFFFFFFFFFFFFFFFFF AND DUP2 MSTORE PUSH1 0x20 ADD SWAP1 DUP2 MSTORE PUSH1 0x20 ADD PUSH0 KECCAK256 PUSH1 0x1 ADD PUSH0 DUP3 DUP3 SLOAD PUSH2 0x6A6 SWAP2 SWAP1 PUSH2 0xFB9 JUMP JUMPDEST SWAP3 POP POP DUP2 SWAP1 SSTORE POP JUMP JUMPDEST PUSH0 DUP2 SWAP1 POP SWAP2 SWAP1 POP JUMP JUMPDEST PUSH2 0x6C1 DUP2 PUSH2 0x6AF JUMP JUMPDEST DUP3 MSTORE POP POP JUMP JUMPDEST PUSH0 PUSH1 0x20 DUP3 ADD SWAP1 POP PUSH2 0x6DA PUSH0 DUP4 ADD DUP5 PUSH2 0x6B8 JUMP JUMPDEST SWAP3 SWAP2 POP POP JUMP JUMPDEST PUSH0 PUSH1 0x40 MLOAD SWAP1 POP SWAP1 JUMP JUMPDEST PUSH0 PUSH0 REVERT JUMPDEST PUSH0 PUSH0 REVERT JUMPDEST PUSH2 0x6FA DUP2 PUSH2 0x6AF JUMP JUMPDEST DUP2 EQ PUSH2 0x704 JUMPI PUSH0 PUSH0 REVERT JUMPDEST POP JUMP JUMPDEST PUSH0 DUP2 CALLDATALOAD SWAP1 POP PUSH2 0x715 DUP2 PUSH2 0x6F1 JUMP JUMPDEST SWAP3 SWAP2 POP POP JUMP JUMPDEST PUSH0 PUSH1 0x20 DUP3 DUP5 SUB SLT ISZERO PUSH2 0x730 JUMPI PUSH2 0x72F PUSH2 0x6E9 JUMP JUMPDEST JUMPDEST PUSH0 PUSH2 0x73D DUP5 DUP3 DUP6 ADD PUSH2 0x707 JUMP JUMPDEST SWAP2 POP POP SWAP3 SWAP2 POP POP JUMP JUMPDEST PUSH0 PUSH20 0xFFFFFFFFFFFFFFFFFFFFFFFFFFFFFFFFFFFFFFFF DUP3 AND SWAP1 POP SWAP2 SWAP1 POP JUMP JUMPDEST PUSH0 PUSH2 0x76F DUP3 PUSH2 0x746 JUMP JUMPDEST SWAP1 POP SWAP2 SWAP1 POP JUMP JUMPDEST PUSH2 0x77F DUP2 PUSH2 0x765 JUMP JUMPDEST DUP2 EQ PUSH2 0x789 JUMPI PUSH0 PUSH0 REVERT JUMPDEST POP JUMP JUMPDEST PUSH0 DUP2 CALLDATALOAD SWAP1 POP PUSH2 0x79A DUP2 PUSH2 0x776 JUMP JUMPDEST SWAP3 SWAP2 POP POP JUMP JUMPDEST PUSH0 PUSH1 0x20 DUP3 DUP5 SUB SLT ISZERO PUSH2 0x7B5 JUMPI PUSH2 0x7B4 PUSH2 0x6E9 JUMP JUMPDEST JUMPDEST PUSH0 PUSH2 0x7C2 DUP5 DUP3 DUP6 ADD PUSH2 0x78C JUMP JUMPDEST SWAP2 POP POP SWAP3 SWAP2 POP POP JUMP JUMPDEST PUSH0 DUP2 MLOAD SWAP1 POP SWAP2 SWAP1 POP JUMP JUMPDEST PUSH0 DUP3 DUP3 MSTORE PUSH1 0x20 DUP3 ADD SWAP1 POP SWAP3 SWAP2 POP POP JUMP JUMPDEST DUP3 DUP2 DUP4 MCOPY PUSH0 DUP4 DUP4 ADD MSTORE POP POP POP JUMP JUMPDEST PUSH0 PUSH1 0x1F NOT PUSH1 0x1F DUP4 ADD AND SWAP1 POP SWAP2 SWAP1 POP JUMP JUMPDEST PUSH0 PUSH2 0x80D DUP3 PUSH2 0x7CB JUMP JUMPDEST PUSH2 0x817 DUP2 DUP6 PUSH2 0x7D5 JUMP JUMPDEST SWAP4 POP PUSH2 0x827 DUP2 DUP6 PUSH1 0x20 DUP7 ADD PUSH2 0x7E5 JUMP JUMPDEST PUSH2 0x830 DUP2 PUSH2 0x7F3 JUMP JUMPDEST DUP5 ADD SWAP2 POP POP SWAP3 SWAP2 POP POP JUMP JUMPDEST PUSH0 PUSH1 0x40 DUP3 ADD SWAP1 POP DUP2 DUP2 SUB PUSH0 DUP4 ADD MSTORE PUSH2 0x853 DUP2 DUP6 PUSH2 0x803 JUMP JUMPDEST SWAP1 POP PUSH2 0x862 PUSH1 0x20 DUP4 ADD DUP5 PUSH2 0x6B8 JUMP JUMPDEST SWAP4 SWAP3 POP POP POP JUMP JUMPDEST PUSH0 PUSH0 REVERT JUMPDEST PUSH0 PUSH0 REVERT JUMPDEST PUSH32 0x4E487B7100000000000000000000000000000000000000000000000000000000 PUSH0 MSTORE PUSH1 0x41 PUSH1 0x4 MSTORE PUSH1 0x24 PUSH0 REVERT JUMPDEST PUSH2 0x8A7 DUP3 PUSH2 0x7F3 JUMP JUMPDEST DUP2 ADD DUP2 DUP2 LT PUSH8 0xFFFFFFFFFFFFFFFF DUP3 GT OR ISZERO PUSH2 0x8C6 JUMPI PUSH2 0x8C5 PUSH2 0x871 JUMP JUMPDEST JUMPDEST DUP1 PUSH1 0x40 MSTORE POP POP POP JUMP JUMPDEST PUSH0 PUSH2 0x8D8 PUSH2 0x6E0 JUMP JUMPDEST SWAP1 POP PUSH2 0x8E4 DUP3 DUP3 PUSH2 0x89E JUMP JUMPDEST SWAP2 SWAP1 POP JUMP JUMPDEST PUSH0 PUSH8 0xFFFFFFFFFFFFFFFF DUP3 GT ISZERO PUSH2 0x903 JUMPI PUSH2 0x902 PUSH2 0x871 JUMP JUMPDEST JUMPDEST PUSH2 0x90C DUP3 PUSH2 0x7F3 JUMP JUMPDEST SWAP1 POP PUSH1 0x20 DUP2 ADD SWAP1 POP SWAP2 SWAP1 POP JUMP JUMPDEST DUP3 DUP2 DUP4 CALLDATACOPY PUSH0 DUP4 DUP4 ADD MSTORE POP POP POP JUMP JUMPDEST PUSH0 PUSH2 0x939 PUSH2 0x934 DUP5 PUSH2 0x8E9 JUMP JUMPDEST PUSH2 0x8CF JUMP JUMPDEST SWAP1 POP DUP3 DUP2 MSTORE PUSH1 0x20 DUP2 ADD DUP5 DUP5 DUP5 ADD GT ISZERO PUSH2 0x955 JUMPI PUSH2 0x954 PUSH2 0x86D JUMP JUMPDEST JUMPDEST PUSH2 0x960 DUP5 DUP3 DUP6 PUSH2 0x919 JUMP JUMPDEST POP SWAP4 SWAP3 POP POP POP JUMP JUMPDEST PUSH0 DUP3 PUSH1 0x1F DUP4 ADD SLT PUSH2 0x97C JUMPI PUSH2 0x97B PUSH2 0x869 JUMP JUMPDEST JUMPDEST DUP2 CALLDATALOAD PUSH2 0x98C DUP5 DUP3 PUSH1 0x20 DUP7 ADD PUSH2 0x927 JUMP JUMPDEST SWAP2 POP POP SWAP3 SWAP2 POP POP JUMP JUMPDEST PUSH0 PUSH1 0x20 DUP3 DUP5 SUB SLT ISZERO PUSH2 0x9AA JUMPI PUSH2 0x9A9 PUSH2 0x6E9 JUMP JUMPDEST JUMPDEST PUSH0 DUP3 ADD CALLDATALOAD PUSH8 0xFFFFFFFFFFFFFFFF DUP2 GT ISZERO PUSH2 0x9C7 JUMPI PUSH2 0x9C6 PUSH2 0x6ED JUMP JUMPDEST JUMPDEST PUSH2 0x9D3 DUP5 DUP3 DUP6 ADD PUSH2 0x968 JUMP JUMPDEST SWAP2 POP POP SWAP3 SWAP2 POP POP JUMP JUMPDEST PUSH32 0x4E487B7100000000000000000000000000000000000000000000000000000000 PUSH0 MSTORE PUSH1 0x22 PUSH1 0x4 MSTORE PUSH1 0x24 PUSH0 REVERT JUMPDEST PUSH0 PUSH1 0x2 DUP3 DIV SWAP1 POP PUSH1 0x1 DUP3 AND DUP1 PUSH2 0xA20 JUMPI PUSH1 0x7F DUP3 AND SWAP2 POP JUMPDEST PUSH1 0x20 DUP3 LT DUP2 SUB PUSH2 0xA33 JUMPI PUSH2 0xA32 PUSH2 0x9DC JUMP JUMPDEST JUMPDEST POP SWAP2 SWAP1 POP JUMP JUMPDEST PUSH32 0x436C69656E7465206E6F207265676973747261646F0000000000000000000000 PUSH0 DUP3 ADD MSTORE POP JUMP JUMPDEST PUSH0 PUSH2 0xA6D PUSH1 0x15 DUP4 PUSH2 0x7D5 JUMP JUMPDEST SWAP2 POP PUSH2 0xA78 DUP3 PUSH2 0xA39 JUMP JUMPDEST PUSH1 0x20 DUP3 ADD SWAP1 POP SWAP2 SWAP1 POP JUMP JUMPDEST PUSH0 PUSH1 0x20 DUP3 ADD SWAP1 POP DUP2 DUP2 SUB PUSH0 DUP4 ADD MSTORE PUSH2 0xA9A DUP2 PUSH2 0xA61 JUMP JUMPDEST SWAP1 POP SWAP2 SWAP1 POP JUMP JUMPDEST PUSH32 0x4E6F206572657320756E20636C69656E74650000000000000000000000000000 PUSH0 DUP3 ADD MSTORE POP JUMP JUMPDEST PUSH0 PUSH2 0xAD5 PUSH1 0x12 DUP4 PUSH2 0x7D5 JUMP JUMPDEST SWAP2 POP PUSH2 0xAE0 DUP3 PUSH2 0xAA1 JUMP JUMPDEST PUSH1 0x20 DUP3 ADD SWAP1 POP SWAP2 SWAP1 POP JUMP JUMPDEST PUSH0 PUSH1 0x20 DUP3 ADD SWAP1 POP DUP2 DUP2 SUB PUSH0 DUP4 ADD MSTORE PUSH2 0xB02 DUP2 PUSH2 0xAC9 JUMP JUMPDEST SWAP1 POP SWAP2 SWAP1 POP JUMP JUMPDEST PUSH32 0x53616C646F20696E737566696369656E74650000000000000000000000000000 PUSH0 DUP3 ADD MSTORE POP JUMP JUMPDEST PUSH0 PUSH2 0xB3D PUSH1 0x12 DUP4 PUSH2 0x7D5 JUMP JUMPDEST SWAP2 POP PUSH2 0xB48 DUP3 PUSH2 0xB09 JUMP JUMPDEST PUSH1 0x20 DUP3 ADD SWAP1 POP SWAP2 SWAP1 POP JUMP JUMPDEST PUSH0 PUSH1 0x20 DUP3 ADD SWAP1 POP DUP2 DUP2 SUB PUSH0 DUP4 ADD MSTORE PUSH2 0xB6A DUP2 PUSH2 0xB31 JUMP JUMPDEST SWAP1 POP SWAP2 SWAP1 POP JUMP JUMPDEST PUSH32 0x4E487B7100000000000000000000000000000000000000000000000000000000 PUSH0 MSTORE PUSH1 0x11 PUSH1 0x4 MSTORE PUSH1 0x24 PUSH0 REVERT JUMPDEST PUSH0 PUSH2 0xBA8 DUP3 PUSH2 0x6AF JUMP JUMPDEST SWAP2 POP PUSH2 0xBB3 DUP4 PUSH2 0x6AF JUMP JUMPDEST SWAP3 POP DUP3 DUP3 SUB SWAP1 POP DUP2 DUP2 GT ISZERO PUSH2 0xBCB JUMPI PUSH2 0xBCA PUSH2 0xB71 JUMP JUMPDEST JUMPDEST SWAP3 SWAP2 POP POP JUMP JUMPDEST PUSH0 DUP2 SWAP1 POP SWAP3 SWAP2 POP POP JUMP JUMPDEST POP JUMP JUMPDEST PUSH0 PUSH2 0xBE9 PUSH0 DUP4 PUSH2 0xBD1 JUMP JUMPDEST SWAP2 POP PUSH2 0xBF4 DUP3 PUSH2 0xBDB JUMP JUMPDEST PUSH0 DUP3 ADD SWAP1 POP SWAP2 SWAP1 POP JUMP JUMPDEST PUSH0 PUSH2 0xC08 DUP3 PUSH2 0xBDE JUMP JUMPDEST SWAP2 POP DUP2 SWAP1 POP SWAP2 SWAP1 POP JUMP JUMPDEST PUSH32 0x46616C6C6F20656E206C61207472616E73666572656E63696100000000000000 PUSH0 DUP3 ADD MSTORE POP JUMP JUMPDEST PUSH0 PUSH2 0xC46 PUSH1 0x19 DUP4 PUSH2 0x7D5 JUMP JUMPDEST SWAP2 POP PUSH2 0xC51 DUP3 PUSH2 0xC12 JUMP JUMPDEST PUSH1 0x20 DUP3 ADD SWAP1 POP SWAP2 SWAP1 POP JUMP JUMPDEST PUSH0 PUSH1 0x20 DUP3 ADD SWAP1 POP DUP2 DUP2 SUB PUSH0 DUP4 ADD MSTORE PUSH2 0xC73 DUP2 PUSH2 0xC3A JUMP JUMPDEST SWAP1 POP SWAP2 SWAP1 POP JUMP JUMPDEST PUSH32 0x456C206E6F6D627265206573206F626C696761746F72696F0000000000000000 PUSH0 DUP3 ADD MSTORE POP JUMP JUMPDEST PUSH0 PUSH2 0xCAE PUSH1 0x18 DUP4 PUSH2 0x7D5 JUMP JUMPDEST SWAP2 POP PUSH2 0xCB9 DUP3 PUSH2 0xC7A JUMP JUMPDEST PUSH1 0x20 DUP3 ADD SWAP1 POP SWAP2 SWAP1 POP JUMP JUMPDEST PUSH0 PUSH1 0x20 DUP3 ADD SWAP1 POP DUP2 DUP2 SUB PUSH0 DUP4 ADD MSTORE PUSH2 0xCDB DUP2 PUSH2 0xCA2 JUMP JUMPDEST SWAP1 POP SWAP2 SWAP1 POP JUMP JUMPDEST PUSH32 0x5961206573746173207265676973747261646F00000000000000000000000000 PUSH0 DUP3 ADD MSTORE POP JUMP JUMPDEST PUSH0 PUSH2 0xD16 PUSH1 0x13 DUP4 PUSH2 0x7D5 JUMP JUMPDEST SWAP2 POP PUSH2 0xD21 DUP3 PUSH2 0xCE2 JUMP JUMPDEST PUSH1 0x20 DUP3 ADD SWAP1 POP SWAP2 SWAP1 POP JUMP JUMPDEST PUSH0 PUSH1 0x20 DUP3 ADD SWAP1 POP DUP2 DUP2 SUB PUSH0 DUP4 ADD MSTORE PUSH2 0xD43 DUP2 PUSH2 0xD0A JUMP JUMPDEST SWAP1 POP SWAP2 SWAP1 POP JUMP JUMPDEST PUSH0 DUP2 SWAP1 POP DUP2 PUSH0 MSTORE PUSH1 0x20 PUSH0 KECCAK256 SWAP1 POP SWAP2 SWAP1 POP JUMP JUMPDEST PUSH0 PUSH1 0x20 PUSH1 0x1F DUP4 ADD DIV SWAP1 POP SWAP2 SWAP1 POP JUMP JUMPDEST PUSH0 DUP3 DUP3 SHL SWAP1 POP SWAP3 SWAP2 POP POP JUMP JUMPDEST PUSH0 PUSH1 0x8 DUP4 MUL PUSH2 0xDA6 PUSH32 0xFFFFFFFFFFFFFFFFFFFFFFFFFFFFFFFFFFFFFFFFFFFFFFFFFFFFFFFFFFFFFFFF DUP3 PUSH2 0xD6B JUMP JUMPDEST PUSH2 0xDB0 DUP7 DUP4 PUSH2 0xD6B JUMP JUMPDEST SWAP6 POP DUP1 NOT DUP5 AND SWAP4 POP DUP1 DUP7 AND DUP5 OR SWAP3 POP POP POP SWAP4 SWAP3 POP POP POP JUMP JUMPDEST PUSH0 DUP2 SWAP1 POP SWAP2 SWAP1 POP JUMP JUMPDEST PUSH0 PUSH2 0xDEB PUSH2 0xDE6 PUSH2 0xDE1 DUP5 PUSH2 0x6AF JUMP JUMPDEST PUSH2 0xDC8 JUMP JUMPDEST PUSH2 0x6AF JUMP JUMPDEST SWAP1 POP SWAP2 SWAP1 POP JUMP JUMPDEST PUSH0 DUP2 SWAP1 POP SWAP2 SWAP1 POP JUMP JUMPDEST PUSH2 0xE04 DUP4 PUSH2 0xDD1 JUMP JUMPDEST PUSH2 0xE18 PUSH2 0xE10 DUP3 PUSH2 0xDF2 JUMP JUMPDEST DUP5 DUP5 SLOAD PUSH2 0xD77 JUMP JUMPDEST DUP3 SSTORE POP POP POP POP JUMP JUMPDEST PUSH0 PUSH0 SWAP1 POP SWAP1 JUMP JUMPDEST PUSH2 0xE2F PUSH2 0xE20 JUMP JUMPDEST PUSH2 0xE3A DUP2 DUP5 DUP5 PUSH2 0xDFB JUMP JUMPDEST POP POP POP JUMP JUMPDEST JUMPDEST DUP2 DUP2 LT ISZERO PUSH2 0xE5D JUMPI PUSH2 0xE52 PUSH0 DUP3 PUSH2 0xE27 JUMP JUMPDEST PUSH1 0x1 DUP2 ADD SWAP1 POP PUSH2 0xE40 JUMP JUMPDEST POP POP JUMP JUMPDEST PUSH1 0x1F DUP3 GT ISZERO PUSH2 0xEA2 JUMPI PUSH2 0xE73 DUP2 PUSH2 0xD4A JUMP JUMPDEST PUSH2 0xE7C DUP5 PUSH2 0xD5C JUMP JUMPDEST DUP2 ADD PUSH1 0x20 DUP6 LT ISZERO PUSH2 0xE8B JUMPI DUP2 SWAP1 POP JUMPDEST PUSH2 0xE9F PUSH2 0xE97 DUP6 PUSH2 0xD5C JUMP JUMPDEST DUP4 ADD DUP3 PUSH2 0xE3F JUMP JUMPDEST POP POP JUMPDEST POP POP POP JUMP JUMPDEST PUSH0 DUP3 DUP3 SHR SWAP1 POP SWAP3 SWAP2 POP POP JUMP JUMPDEST PUSH0 PUSH2 0xEC2 PUSH0 NOT DUP5 PUSH1 0x8 MUL PUSH2 0xEA7 JUMP JUMPDEST NOT DUP1 DUP4 AND SWAP2 POP POP SWAP3 SWAP2 POP POP JUMP JUMPDEST PUSH0 PUSH2 0xEDA DUP4 DUP4 PUSH2 0xEB3 JUMP JUMPDEST SWAP2 POP DUP3 PUSH1 0x2 MUL DUP3 OR SWAP1 POP SWAP3 SWAP2 POP POP JUMP JUMPDEST PUSH2 0xEF3 DUP3 PUSH2 0x7CB JUMP JUMPDEST PUSH8 0xFFFFFFFFFFFFFFFF DUP2 GT ISZERO PUSH2 0xF0C JUMPI PUSH2 0xF0B PUSH2 0x871 JUMP JUMPDEST JUMPDEST PUSH2 0xF16 DUP3 SLOAD PUSH2 0xA09 JUMP JUMPDEST PUSH2 0xF21 DUP3 DUP3 DUP6 PUSH2 0xE61 JUMP JUMPDEST PUSH0 PUSH1 0x20 SWAP1 POP PUSH1 0x1F DUP4 GT PUSH1 0x1 DUP2 EQ PUSH2 0xF52 JUMPI PUSH0 DUP5 ISZERO PUSH2 0xF40 JUMPI DUP3 DUP8 ADD MLOAD SWAP1 POP JUMPDEST PUSH2 0xF4A DUP6 DUP3 PUSH2 0xECF JUMP JUMPDEST DUP7 SSTORE POP PUSH2 0xFB1 JUMP JUMPDEST PUSH1 0x1F NOT DUP5 AND PUSH2 0xF60 DUP7 PUSH2 0xD4A JUMP JUMPDEST PUSH0 JUMPDEST DUP3 DUP2 LT ISZERO PUSH2 0xF87 JUMPI DUP5 DUP10 ADD MLOAD DUP3 SSTORE PUSH1 0x1 DUP3 ADD SWAP2 POP PUSH1 0x20 DUP6 ADD SWAP5 POP PUSH1 0x20 DUP2 ADD SWAP1 POP PUSH2 0xF62 JUMP JUMPDEST DUP7 DUP4 LT ISZERO PUSH2 0xFA4 JUMPI DUP5 DUP10 ADD MLOAD PUSH2 0xFA0 PUSH1 0x1F DUP10 AND DUP3 PUSH2 0xEB3 JUMP JUMPDEST DUP4 SSTORE POP JUMPDEST PUSH1 0x1 PUSH1 0x2 DUP9 MUL ADD DUP9 SSTORE POP POP POP JUMPDEST POP POP POP POP POP POP JUMP JUMPDEST PUSH0 PUSH2 0xFC3 DUP3 PUSH2 0x6AF JUMP JUMPDEST SWAP2 POP PUSH2 0xFCE DUP4 PUSH2 0x6AF JUMP JUMPDEST SWAP3 POP DUP3 DUP3 ADD SWAP1 POP DUP1 DUP3 GT ISZERO PUSH2 0xFE6 JUMPI PUSH2 0xFE5 PUSH2 0xB71 JUMP JUMPDEST JUMPDEST SWAP3 SWAP2 POP POP JUMP INVALID LOG2 PUSH5 0x6970667358 0x22 SLT KECCAK256 SHL PUSH18 0xDDCADEB43D336DD83851F63F6846D68AF5F3 AND 0xCA 0xA6 JUMPI SWAP14 LT REVERT PUSH3 0xAC4FCB 0xBC PUSH5 0x736F6C6343 STOP ADDMOD 0x1F STOP CALLER "
				},
				"gasEstimates": {
					"creation": {
						"codeDepositCost": "826000",
						"executionCost": "862",
						"totalCost": "826862"
					},
					"external": {
						"addClient(string)": "infinite",
						"clients(address)": "infinite",
						"deposit()": "infinite",
						"getBalance()": "4847",
						"withdraw(uint256)": "infinite"
					}
				},
				"methodIdentifiers": {
					"addClient(string)": "79b7f303",
					"clients(address)": "61eed2a9",
					"deposit()": "d0e30db0",
					"getBalance()": "12065fe0",
					"withdraw(uint256)": "2e1a7d4d"
				}
			},
			"storageLayout": {
				"storage": [
					{
						"astId": 11,
						"contract": "lab2/piggyMapping.sol:PiggyMapping",
						"label": "clients",
						"offset": 0,
						"slot": "0",
						"type": "t_mapping(t_address,t_struct(Client)6_storage)"
					}
				],
				"types": {
					"t_address": {
						"encoding": "inplace",
						"label": "address",
						"numberOfBytes": "20"
					},
					"t_mapping(t_address,t_struct(Client)6_storage)": {
						"encoding": "mapping",
						"key": "t_address",
						"label": "mapping(address => struct PiggyMapping.Client)",
						"numberOfBytes": "32",
						"value": "t_struct(Client)6_storage"
					},
					"t_string_storage": {
						"encoding": "bytes",
						"label": "string",
						"numberOfBytes": "32"
					},
					"t_struct(Client)6_storage": {
						"encoding": "inplace",
						"label": "struct PiggyMapping.Client",
						"members": [
							{
								"astId": 3,
								"contract": "lab2/piggyMapping.sol:PiggyMapping",
								"label": "name",
								"offset": 0,
								"slot": "0",
								"type": "t_string_storage"
							},
							{
								"astId": 5,
								"contract": "lab2/piggyMapping.sol:PiggyMapping",
								"label": "balance",
								"offset": 0,
								"slot": "1",
								"type": "t_uint256"
							}
						],
						"numberOfBytes": "64"
					},
					"t_uint256": {
						"encoding": "inplace",
						"label": "uint256",
						"numberOfBytes": "32"
					}
				}
			},
			"userdoc": {
				"kind": "user",
				"methods": {},
				"version": 1
			}
		}
	}
}